:10000000AEC10000CBC10000C9C10000C7C10000E3
:10001000C5C10000C3C10000C1C10000BFC10000D4
:10002000BDC10000BBC10000B9C10000B7C10000E4
:10003000B5C10000B3C10000B1C10000AFC10000F4
:10004000ADC10000ABC1000068C20000A7C1000044
:10005000BCC20000A3C10000A1C100009FC10000FC
:100060009DC100009BC1000099C1000097C1000024
:1000700095C1000093C1000091C100008FC1000034
:100080008DC100008BC1000089C1000007634236AA
:10009000B79BD8A71A39685618AEBAAB558C1D3C19
:1000A000B7CC5763BD6DEDFD753EF6177231BF00DD
:1000B0000000803F08000000BE922449123EABAA17
:1000C000AA2ABECDCCCC4C3E00000080BEABAAAA72
:1000D000AA3E00000000BF000000803F00000000BA
:1000E00000084178D3BB4387D1133D190E3CC3BDF3
:1000F0004282AD2B3E68EC8276BED98FE1A93E4CA0
:1001000080EFFFBE01C4FF7F3F0000000000CAE493
:1001100000CAE800CAEF00D2E5ECEFE5F0E0F2F348
:10012000F0E020EDEEF7FC00D2E5ECEFE5F0E0F2D8
:10013000F3F0E020E4E5EDFC00C8E7ECE5ED2E206F
:10014000EDE0F1F2F0EEE5EA2F6E20F0E5E3F3EBFF
:10015000FFF2EEF0E000C8E7ECE5ED2E20EDE0F177
:10016000F2F0EEE5EA2F6E20F2E5ECEFE5F0E0F2DA
:10017000F3F0FB00CAE400CAE800CAEF00D2E5ECE5
:10018000EFE5F0E0F2F3F0E020EDEEF7FC00D2E571
:10019000ECEFE5F0E0F2F3F0E020E4E5EDFC00C880
:1001A000E7ECE5ED2E20EDE0F1F2F0EEE5EA2F6E62
:1001B00020F0E5E3F3EBFFF2EEF0E000C8E7ECE55A
:1001C000ED2E20EDE0F1F2F0EEE5EA2F6E20F2E503
:1001D000ECEFE5F0E0F2F3F0FB00CAE400CAE8005F
:1001E000CAEF00D2E5ECEFE5F0E0F2F3F0E020ED4D
:1001F000EEF7FC00D2E5ECEFE5F0E0F2F3F0E02002
:10020000E4E5EDFC00C8E7ECE5ED2E20EDE0F1F2D1
:10021000F0EEE5EA2F6E20F0E5E3F3EBFFF2EEF00F
:10022000E000C8E7ECE5ED2E20EDE0F1F2F0EEE5C0
:10023000EA2F6E20F2E5ECEFE5F0E0F2F3F0FB00E0
:10024000CFE5F0E8EEE420E22020F1E5EA00CFE59A
:10025000F0E8EEE420E220F1E5EA00CF20C220D170
:1002600020D720CF20D120C200CAEEEDE5F620F045
:10027000E0E12E20E4EDFF00CDE0F7E0EBEE20F032
:10028000E0E12E20E4EDFF00C4E5EDFC20EDE5E427
:10029000E5EBE800C2F0E5ECFF00D1F2E0F2F3F1AB
:1002A00020E4EDE5E92F6E20EDE5E4E5EBE800D094
:1002B000E5E6E8ECFB20E4E5EDFC2FEDEEF7FC00D5
:1002C000CDE0F1F2F0EEE9EAE020F2E5EAF3F92E12
:1002D0002F6E20E2F0E5ECE5EDE800CFE5F0E8EE8A
:1002E000E420EEEFF0EEF1E02F6E20E4E0F2F7E82C
:1002F000EAEEE200CFE5F0E8EEE420D8C8CC00C892
:10030000E7ECE5ED2E20EDE0F1F2F0EEE5EA2F6E00
:1003100020E2F0E5ECE5EDE800CAEEEDF2F3F0B92D
:100320003300CAEEEDF2F3F0B93200CAEEEDF2F3AB
:10033000F0B931005E5430303032005E543030302D
:1003400033005E5430303034005E50303030320094
:100350005E5030303033005E503030303400112485
:100360001FBECFEFD0E1DEBFCDBF11E0A0E0B1E016
:10037000E6ECF6E200E00BBF02C007900D92AC3550
:10038000B107D9F724E0ACE5B1E001C01D92AE3869
:10039000B207E1F70E94D00D0C94611331CE1E9A82
:1003A00085E08A95F1F71E980895CF93C0E2CBBB04
:1003B000F6DFCBBBF4DF80EA8BBBCF91F0CFCF93DE
:1003C000DF9300D0CDB7DEB71BBA6A838983E7DF3E
:1003D00089816A81882311F080E601C080E461117F
:1003E00080618BBB0F900F90DF91CF91D8CF1BBA5C
:1003F000D6DF80E18BBBD3DF86E69EE00197F1F785
:10040000000008951BBACBDF80E28BBBC8CF82B15E
:10041000886682B983B1886483B98FEF9FE80197BA
:10042000F1F700C0000083B1877983B98AB3806F88
:100430008ABB8FEF9FE80197F1F700C00000B5DF9E
:100440001BBAADDF80ED8BBBAADFD1DFDBDF60E065
:1004500081E0B5CFEF920F931F93A0915E01B09111
:100460005F01A732B105F0F5CD0153E0880F991F68
:100470005A95E1F7FC01E55BFC4F608333832283EF
:10048000158304834183442339F0E42FF0E0EE0F19
:10049000FF1FE351FD4FA183EE2029F0FC01E55B36
:1004A000FC4FE6820CC0623031F421E0FC01E55BD8
:1004B000FC4F268304C0FC01E55BFC4F16822091B3
:1004C000040230910502FC01E55BFC4F27832F5F9E
:1004D0003F4F30930502209304021196B0935F01C1
:1004E000A0935E011F910F91EF9008951092050265
:1004F0001092040280915C0190915D01823191051E
:1005000058F4FC01EE0FFF1FE351FD4F608301968D
:1005100090935D0180935C0108951F920F920FB636
:100520000F9211240BB60F922F933F938F939F93AB
:10053000EF93FF938CB1E091BE01F091BF01EE53B8
:10054000FE4F8083813450F48E3360F4813251F059
:1005500078F09DED980F933058F404C08E3511F06B
:100560008E3731F41092BF011092BE018093C20108
:100570002091BE013091BF018D3061F481E0820F86
:100580008093BC011092BF011092BE0181E0809364
:10059000BA010EC0C9010196803291052CF49093E6
:1005A000BF018093BE0104C01092BF011092BE0132
:1005B000FF91EF919F918F913F912F910F900BBEE3
:1005C0000F900FBE0F901F9018951F920F920FB6AD
:1005D0000F9211240BB60F922F933F938F939F93FB
:1005E000EF93FF93809176019091770120917401B0
:1005F00030E08217930769F4109277011092760128
:10060000809165008E7F8093650081E08093720108
:100610000EC0FC01E658FE4F80818CB980917601B6
:100620009091770101969093770180937601FF91E5
:10063000EF919F918F913F912F910F900BBE0F9053
:100640000FBE0F901F901895CF92DF92EF92FF92FE
:10065000CF93DF93EC0102970CF07FC0DB01CA015E
:100660000197A109B10980349244AF40B10508F067
:1006700074C0CB01BA010E9494109B01AC0160E0F0
:1006800070E081E69BE40E94FE0F20E030E040E84D
:100690005DE30E94241120E030E040E05FE30E942F
:1006A000990F6B017C0120E030E040E05FE30E94A5
:1006B000201187FD52C0C701B601209711F50E9495
:1006C0006610C72ED82EE92EFF24C092900069B97B
:1006D00088ED8AB986E080939500809164008160FE
:1006E00080936400809165008E7F809365001092F6
:1006F000BF011092BE011092BA0181E08093720195
:1007000029C00E946610C72ED82EE92EFF24C09261
:1007100098006093990088ED80939A0086E080931A
:100720009D008091640082608093640080916500E8
:100730008D7F80936500FE01EE0FFF1FE254FE4F98
:1007400011821082FE01E654FE4F1082CE58DE4F19
:1007500081E08883789480E001C08FEFDF91CF91B2
:10076000FF90EF90DF90CF900895811117C0109205
:1007700072018091650081608093650088E18A95AF
:10078000F1F700C06093740181E090E090937701ED
:100790008093760180917A018CB90895109273014B
:1007A0008091650082608093650088E18A95F1F709
:1007B00000C06093750181E090E09093790180938F
:1007C000780180919A0180939C000895CF93DF93E4
:1007D000DC01823091050CF058C0FC01EE58FE4F50
:1007E0008081811105C088E18A95F1F700C0F8CFBA
:1007F000FB019D0185E0220F331F8A95E1F790E010
:1008000060E070E08191EB01C20FD31FC658DE4F4C
:100810008883882341F08D3031F0980F6F5F7F4FD0
:100820006032710579F7FD01EE5FFD4F8081813007
:10083000F9F4892F82958F70F901E60FF71FE658BA
:10084000FE4F8A3010F4805D01C0895C8083AB016B
:100850004F5F5F4F9F70420F531FFA01E658FE4FE4
:100860009A3010F4905D01C0995C90836E5F7F4F69
:10087000260F371FF901E658FE4F8DE080836F5F2A
:100880007F4F8A2F72DF80E001C08FEFDF91CF9121
:100890000895EF92FF920F931F93CF93DF939C01E4
:1008A000823091050CF06DC0FC01E654FE4F808152
:1008B000882309F469C01082F901EE5FFD4F408181
:1008C000D901A454BE4FC90125E0880F991F2A956C
:1008D000E1F7413009F040C02C9130E0790143E06C
:1008E000E41AF10840E0C0E0D0E0CE15DF0554F492
:1008F0008E01080F191F0E531E4FF8015081450F2E
:100900002196F3CF542F52955F70C52FD0E05A3007
:1009100010F4E09601C0E796F701E80FF91FEE53D7
:10092000FE4FE081F0E0CE17DF0769F54F70E42F4E
:10093000F0E04A3020F4AF01405D5F4F03C0AF01EB
:10094000495C5F4F280F391FF901E054FE4F2081A9
:1009500030E042175307B9F42C91FB01219340E09A
:1009600050E030E04217530754F4DA01A80FB91FE2
:10097000AE53BE4F6C9161934F5F5F4FF3CF81E0F9
:1009800003C08FEF01C080E8DF91CF911F910F91DD
:10099000FF90EF90089594EE90937400109271017F
:1009A0009091740097FD11C0909171019F5F909399
:1009B00071019B3020F091E090936A0106C0E0E75E
:1009C000F1E03197F1F700C0EBCF8093730084EE34
:1009D00080937400109271018091740087FD11C0A2
:1009E000809171018F5F809371018B3020F081E0E5
:1009F00080936A01089580E791E00197F1F700C0C4
:100A0000EBCF0895FC0124E831E09E2F981B961748
:100A1000D8F4919190937300209374001092710117
:100A20009091740097FDF1CF909171019F5F909329
:100A300071019B3018F030936A01E7CFA0E7B1E075
:100A40001197F1F700C0ECCF84E980937400B1E313
:100A5000BA95F1F700000895109271008DE480932B
:100A6000700081E08093720010926A0180ED93DF44
:100A700087E080936B0181E980936C0162E08BE6F3
:100A800091E0C0DF81E090916A01911101C080E0A6
:100A900008958F929F92AF92BF92CF92DF92EF9282
:100AA000FF920F931F93CF93DF938091E6022AE08A
:100AB000622F0E941013805D80931402905D9093CA
:100AC00015028AE380931602809111030E9410138D
:100AD000805D80931702905D9093180281E080936F
:100AE000340182E08093370183E080933A0184E00F
:100AF00080933D0185E08093400186E0809343012F
:100B000087E0809346018091410390E0FC01EE0F65
:100B1000FF1F8E0F9F1FFC01EC5CFE4F1082809127
:100B200042039091430368EE73E00E941C13605DE2
:100B300060932A0164E670E00E941C13605D60937C
:100B40002B016AE070E00E941C13605D60932C0131
:100B5000805D80932D0181E490E00E944C13C3E0FE
:100B6000D0E00FE211E0BC0180E090E00E94921022
:100B70006B017C01BE010D2E000C880B990B0E94AD
:100B800094109B01AC0160E070E080E291E40E946F
:100B900087114B015C019B01AC01C701B6010E94AA
:100BA000FE0F20E030E040E452E40E949A0F0E94E1
:100BB0006610F80161938F0170E060537109072E90
:100BC000000C880B990B0E949410A50194010E94BF
:100BD00024119B01AC01C701B6010E94990F0E942C
:100BE0006610CB01219708F0BECFCAE3C09314036F
:100BF00084E390E00E944C13BC0180E090E00E94EE
:100C000092106B017C0120E030E040E251E40E9450
:100C1000FE0F20E030E040E452E40E949A0F0E9470
:100C2000661060931203862F90E0C097BC01990F65
:100C3000880B990B0E94941020E030E040E251E4D0
:100C40000E9424119B01AC01C701B6010E94990FBB
:100C50000E94661080E090E00E94921020E030E058
:100C600040E452E40E949A0F0E94661060931303BE
:100C700086E390E00E944C13BC0180E090E00E946B
:100C800092106B017C0120E030E040E251E40E94D0
:100C9000FE0F20E030E040E452E40E949A0F0E94F0
:100CA000661060931503862F90E0C097BC01990FE2
:100CB000880B990B0E94941020E030E040E251E450
:100CC0000E9424119B01AC01C701B6010E94990F3B
:100CD0000E94661080E090E00E94921020E030E0D8
:100CE00040E452E40E949A0F0E946610609316033B
:100CF000C093850480E390E00E944C13BC0180E027
:100D000090E00E9492106B017C0120E030E040E214
:100D100051E40E94FE0F20E030E040E452E40E94E3
:100D20009A0F0E94661060938304862F90E0C0970C
:100D3000BC01990F880B990B0E94941020E030E0C1
:100D400040E251E40E9424119B01AC01C701B601AD
:100D50000E94990F0E94661080E090E00E9492101D
:100D600020E030E040E452E40E949A0F0E946610B6
:100D70006093840482E390E00E944C13BC0180E005
:100D800090E00E9492106B017C0120E030E040E294
:100D900051E40E94FE0F20E030E040E452E40E9463
:100DA0009A0F0E94661060938604862F90E0C09789
:100DB000BC01990F880B990B0E94941020E030E041
:100DC00040E251E40E9424119B01AC01C701B6012D
:100DD0000E94990F0E94661080E090E00E9492109D
:100DE00020E030E040E452E40E949A0F0E94661036
:100DF000609387048AE290E00E944C13BC0180E07B
:100E000090E00E9492106B017C0120E030E040E213
:100E100051E40E94FE0F20E030E040E452E40E94E2
:100E20009A0F0E9466106093E002862F90E0C097B0
:100E3000BC01990F880B990B0E94941020E030E0C0
:100E400040E251E40E9424119B01AC01C701B601AC
:100E50000E94990F0E94661080E090E00E9492101C
:100E600020E030E040E452E40E949A0F0E946610B5
:100E70006093E1028CE290E00E944C13BC0180E0A0
:100E800090E00E9492106B017C0120E030E040E293
:100E900051E40E94FE0F20E030E040E452E40E9462
:100EA0009A0F0E9466106093E202862F90E0C0972E
:100EB000BC01990F880B990B0E94941020E030E040
:100EC00040E251E40E9424119B01AC01C701B6012C
:100ED0000E94990F0E94661080E090E00E9492109C
:100EE00020E030E040E452E40E949A0F0E94661035
:100EF0006093E3028EE290E00E944C13BC0180E01C
:100F000090E00E9492106B017C0120E030E040E212
:100F100051E40E94FE0F20E030E040E452E40E94E1
:100F20009A0F0E9466106093E402862F90E0C097AB
:100F3000BC01990F880B990B0E94941020E030E0BF
:100F400040E251E40E9424119B01AC01C701B601AB
:100F5000F0D70E94661080E090E00E94921020E09E
:100F600030E040E452E4E6D70E9466106093E50268
:100F700084E290E00E944C13BC0180E090E00E946B
:100F800092106B017C0120E030E040E251E40E94CD
:100F9000FE0F20E030E040E452E4CCD70E9466101F
:100FA00060938804862F90E0C097BC01990F880B4E
:100FB000990B0E94941020E030E040E251E40E943E
:100FC00024119B01AC01C701B601B3D70E94661082
:100FD00080E090E00E94921020E030E040E452E493
:100FE000A9D70E9466106093890486E290E00E946F
:100FF0004C13BC0180E090E00E9492106B017C01D8
:1010000020E030E040E251E4F9D720E030E040E475
:1010100052E490D70E94661060938A04862F90E075
:10102000C097BC01990F880B990B0E94941020E087
:1010300030E040E251E40E9424119B01AC01C70161
:10104000B60177D70E94661080E090E00E9492106F
:1010500020E030E040E452E46DD70E9466106093D7
:101060008B0488E290E00E944C13BC0180E090E089
:101070000E9492106B017C0120E030E040E251E4DC
:10108000BDD720E030E040E452E454D70E9466101F
:1010900060938C04862F90E0C097BC01990F880B59
:1010A000990B0E94941020E030E040E251E40E944D
:1010B00024119B01AC01C701B6013BD70E94661009
:1010C00080E090E00E94921020E030E040E452E4A2
:1010D00031D7FCD760938D0488E190E00E944713DC
:1010E000C5E0D0E005E111E00E9492106B017C01A7
:1010F000BE010D2E000C880B990B0E9494109B01D1
:10110000AC0160E070E080E291E40E9487114B0145
:101110005C019B01AC01C701B60170D720E030E053
:1011200040E452E407D7D2D7F80161938F0170E011
:1011300060537109072E000C880B990BF5D7A50198
:1011400094010E9424119B01AC01C701B601F1D6A4
:10115000BDD7219748F680911501809314018091A5
:1011600016018093150180911701809316018EE27C
:10117000809317018CE190E00E944713C0E0D0E01B
:1011800005E010E0CFD76B017C01B8016C1B7D0B33
:10119000072E000C880B990BC7D79B01AC0160E0B0
:1011A00070E080E291E40E9487114B015C019B0199
:1011B000AC01C701B60122D720E030E040E452E4A0
:1011C000B9D684D7FE01EB5EFE4F678370E06053B3
:1011D0007109072E000C880B990BA6D7A501940165
:1011E0000E9424119B01AC01C701B601A2D66ED7A3
:1011F0002196C630D10509F0C5CF80911C0180939E
:101200001B0180911D0180931C0180911E01809320
:101210001D018EE280931E0180E290E00E94471340
:10122000C0E0D0E005E010E07DD76B017C01B801A3
:101230006C1B7D0B072E000C880B990B75D79B013F
:10124000AC0160E070E080E291E40E9487114B0104
:101250005C019B01AC01C701B601D0D620E030E0B3
:1012600040E452E467D632D7FE01EB5EFE4F66875C
:1012700070E060537109072E000C880B990B54D74E
:10128000A5019401E1D79B01AC01C701B60151D67C
:101290001DD72196C630D10509F0C6CF8091230114
:1012A0008093220180912401809323018091250164
:1012B000809324018EE2809325018CE090E00E94CF
:1012C0004713C4E0D0E001EB12E02CD76B017C01A6
:1012D000BE010D2E000C880B990B26D79B01AC018B
:1012E00060E070E080E291E40E9487114B015C01B4
:1012F0009B01AC01C701B60181D620E030E040E49B
:1013000052E418D6E3D6F80161938F0170E0605380
:101310007109072E000C880B990B06D7A5019401C3
:1013200093D79B01AC01C701B60103D6CFD6219755
:1013300060F68EE28093B20280E190E00E94471353
:10134000C0E0D0E004E010E0EDD66B017C01B80114
:101350006C1B7D0B072E000C880B990BE5D69B01AF
:10136000AC0160E070E080E291E4D1D74B015C0118
:101370009B01AC01C701B60141D620E030E040E45A
:1013800052E4D8D5A3D6FE01EF54FD4F658370E03B
:1013900060537109072E000C880B990BC5D6A50167
:1013A000940152D79B01AC01C701B601C2D58ED6BC
:1013B0002196C530D10509F0C7CF8EE28093B702E0
:1013C00084E190E00E944713C0E0D0E004E010E028
:1013D000A9D66B017C01B8016C1B7D0B072E000C9C
:1013E000880B990BA1D69B01AC0160E070E080E214
:1013F00091E48DD74B015C019B01AC01C701B601A3
:10140000FDD520E030E040E452E494D55FD6FE0103
:10141000EF54FD4F628770E060537109072E000C96
:10142000880B990B81D6A50194010ED79B01AC01C5
:10143000C701B6017ED54AD62196C530D10509F03F
:10144000C7CF8EE28093BC0280E090E00E944713F9
:10145000C5E0D0E000E011E065D66B017C01BE0183
:101460000D2E000C880B990B5FD69B01AC0160E040
:1014700070E080E291E44BD74B015C019B01AC0131
:10148000C701B601BBD520E030E040E452E452D5BC
:101490001DD6F80161938F0170E060537109072E2A
:1014A000000C880B990B40D6A5019401CDD69B0169
:1014B000AC01C701B6013DD509D6219768F68091E8
:1014C00000018093FF0080910101809300018091D1
:1014D0000201809301018EE28093020184E090E09A
:1014E0000E944713C0E0D0E005E010E01BD66B017E
:1014F0007C01B8016C1B7D0B072E000C880B990B2F
:1015000013D69B01AC0160E070E080E291E4FFD66D
:101510004B015C019B01AC01C701B6016FD520E016
:1015200030E040E452E406D5D1D5FE01E050FF4F53
:10153000678370E060537109072E000C880B990BCC
:10154000F3D5A501940180D69B01AC01C701B6017A
:10155000F0D4BCD52196C630D10509F0C7CF809113
:101560000701809306018091080180930701809113
:101570000901809308018EE28093090188E090E0E0
:101580000E944713C0E0D0E005E010E0CBD56B012E
:101590007C01B8016C1B7D0B072E000C880B990B8E
:1015A000C3D59B01AC0160E070E080E291E4AFD66E
:1015B0004B015C019B01AC01C701B6011FD520E0C6
:1015C00030E040E452E4B6D481D5FE01E050FF4F54
:1015D000668770E060537109072E000C880B990B29
:1015E000A3D5A501940130D69B01AC01C701B6017A
:1015F000A0D46CD52196C630D10509F0C7CF809113
:101600000E0180930D0180910F0180930E01809156
:10161000100180930F018EE280931001DF91CF9132
:101620001F910F91FF90EF90DF90CF90BF90AF9000
:101630009F908F9008956F927F928F929F92AF921A
:10164000BF92CF92DF92EF92FF920F931F93CF93AF
:10165000DF9384E390E00E944C138093180386E3A9
:1016600090E00E944C138093190380E390E00E9465
:101670004C1380933F0382E390E00E944C138093CD
:1016800040038FE390E00E944C13909343038093B8
:10169000420381E490E00E944C13909321038093D5
:1016A000200308E310E0C4E4D3E0C801E8D789933D
:1016B0000F5F1F4F83E0CB34D807B9F78AE1882E3C
:1016C00083E0982E9EE0A92E92E0B92E25EAC22E44
:1016D00022E0D22E32E2E32E33E0F32E43E3642EF7
:1016E00043E0742E00E010E0C0E0D0E0CE01865D63
:1016F0009F4FD2D7F401819391934F01CE018C5D1E
:101700009F4FCAD7F501819391935F01C801885E0D
:101710009F4FBDD7F60161937193819391936F01B0
:10172000C801845F9F4FB3D7F70161937193819391
:1017300091937F01C80180509040A9D7F301619334
:101740007193819391933F0122960C5F1F4FC63096
:10175000D10561F6DF91CF911F910F91FF90EF902E
:10176000DF90CF90BF90AF909F908F907F906F90C1
:101770000895CF93DF93C9E4D3E0D0936901C09378
:101780006801ACE4B1E08091680190916901FC01CD
:10179000019625912D939093690180936801F1E062
:1017A000A335BF0781F76CE471E080E090E00ED8CC
:1017B000279683E0CE35D80701F7DF91CF910895C2
:1017C0000F931F932091420330914303A4E6B0E0AE
:1017D00047D7009160011091610120916201309121
:1017E0006301061717072807390719F584E393E003
:1017F0009093690180936801ACE4B1E08091680145
:1018000090916901FC01019625912D9390936901B6
:1018100080936801F1E0A335BF0781F76CE471E0C4
:1018200080E090E00E94E603809165018F5F8093E5
:1018300065012091420330914303A4E6B0E010D744
:10184000DC01CB014496A11DB11D009160011091F6
:1018500061012091620130916301081719072A077D
:101860003B0719F58BE393E090936901809368013E
:10187000ACE4B1E08091680190916901FC010196AE
:1018800025912D939093690180936801F1E0A33530
:10189000BF0781F76CE471E080E090E00E94E6030E
:1018A000809166018F5F80936601209142033091A1
:1018B0004303A4E6B0E0D4D6DC01CB018896A11D99
:1018C000B11D009160011091610120916201309180
:1018D0006301081719072A073B0719F582E493E00B
:1018E0009093690180936801ACE4B1E08091680154
:1018F00090916901FC01019625912D9390936901C6
:1019000080936801F1E0A335BF0781F76CE471E0D3
:1019100080E090E00E94E603809167018F5F8093F2
:1019200067016CE471E080E090E00E94490481303E
:1019300009F0C4C0E0914C01F0E0E45BFE4F10827E
:10194000809151018233E9F5109265014091530174
:101950004093200220915401209321028EE2809333
:10196000220280915501809323021092240250E0BC
:1019700040535109E0E1F7E24E9FB0014F9F700DD7
:101980005E9F700D112430E020533109E8EEF3E042
:101990002E9FA0012F9F500D3E9F500D1124460FEA
:1019A000571F90E0C09764E6689F9001699F300DD3
:1019B0001124CA01820F931F9093E8028093E702DB
:1019C0007DC08333E9F51092660140915301409345
:1019D0002E032091540120932F038EE28093300335
:1019E00080915501809331031092320350E04053AF
:1019F0005109E0E1F7E24E9FB0014F9F700D5E9FED
:101A0000700D112430E020533109E8EEF3E02E9FF1
:101A1000A0012F9F500D3E9F500D1124460F571FC0
:101A200090E0C09764E6689F9001699F300D112493
:101A3000CA01820F931F9093EA028093E9023EC08D
:101A40008433E1F5109267014091530140931902EC
:101A50002091540120931A028EE280931B02809100
:101A6000550180931C0210921D0250E04053510911
:101A7000E0E1F7E24E9FB0014F9F700D5E9F700D49
:101A8000112430E020533109E8EEF3E02E9FA0014D
:101A90002F9F500D3E9F500D1124460F571F90E071
:101AA000C09764E6689F9001699F300D1124CA01B8
:101AB000820F931F9093EC028093EB0220914203DC
:101AC00030914303A4E6B0E0CBD5DC01CB01805BD1
:101AD0009F4FAF4FBF4F0091600110916101209166
:101AE000620130916301081719072A073B0709F0C3
:101AF0004AC010926001109261011092620110922E
:101B00006301809165018B3088F084E4809320022A
:101B10009DE49093210297E4909322028093230204
:101B20008CED9FEF9093E8028093E702809166012D
:101B30008B3088F084E480932E039DE490932F03F0
:101B400097E490933003809331038CED9FEF909353
:101B5000EA028093E902809167018B3088F084E487
:101B6000809319029DE490931A0297E490931B02CC
:101B700080931C028CED9FEF9093EC028093EB021C
:101B800081E0809364011F910F91089583B787606E
:101B900083BF8FE682BF87B7816087BF789408953F
:101BA0000E9407020E942C0540E855E260E070E0C8
:101BB00080E090E00E94240387B3806F87BB8C9AFB
:101BC00066E080E00E947602E12C00E010E02BE26B
:101BD00033E047E060E080E00E942A0222E233E046
:101BE0004AE060E081E00E942A0229E133E04DE012
:101BF00060E082E00E942A022FEF32E041E060E0E4
:101C000083E00E942A0224EF32E045E060E084E0B5
:101C10000E942A022BED32E046E060E085E00E945F
:101C20002A0263E081E00E94760220EC32E042E08A
:101C300060E086E00E942A022FEA32E043E060E0A2
:101C400087E00E942A022AE932E044E060E088E06E
:101C50000E942A0262E082E00E94760285E0E82E7D
:101C600004E112E024E932E040E061E089E00E9412
:101C70002A0293E0E92E04E311E028E832E040E094
:101C800067E08AE00E942A0262E083E00E94760216
:101C900025E0E22E02E113E028E732E040E061E0D7
:101CA0008BE00E942A0203E814E029E632E040E0DB
:101CB00061E08CE00E942A0261E084E00E947602EA
:101CC00037E0E32E04E413E02BE532E040E065E08A
:101CD0008DE00E942A0261E085E00E94760244E0E5
:101CE000E42E0FE211E02EE432E040E061E08EE00D
:101CF0000E942A0261E086E00E9476020AE211E078
:101D000020E432E040E061E08FE00E942A0262E0DD
:101D100087E00E947602E12C00E010E022E232E04F
:101D200048E060E080E10E942A0225E032E049E0DC
:101D300060E081E10E942A0262E088E00E9476026F
:101D400052E0E52E00EE12E024EF31E040E061E0E9
:101D500082E10E942A0208E814E023EE31E040E02C
:101D600061E083E10E942A0263E089E00E9476023A
:101D700066E0E62E05E111E020EE31E040E061E0B2
:101D800084E10E942A0275E0E72E01EB12E02DEDBE
:101D900031E040E061E085E10E942A02E6E0EE2EBB
:101DA00000E011E02AED31E040E061E086E10E94D0
:101DB0002A0262E08AE00E947602E12C00E010E054
:101DC0002CEB31E04BE060E087E10E942A022FE932
:101DD00031E04CE060E088E10E942A0262E08BE0A2
:101DE0000E947602F2E0EF2E02EE12E02EE831E0E1
:101DF00040E061E089E10E942A020AE814E02DE750
:101E000031E040E061E08AE10E942A0263E08CE078
:101E10000E947602A6E0EA2E0CE111E02AE731E00A
:101E200040E061E08BE10E942A02B5E0EB2E06EB78
:101E300012E027E731E040E061E08CE10E942A02F5
:101E400016E0E12E07E011E024E731E040E061E038
:101E50008DE10E942A0262E08DE00E947602E12C70
:101E600000E010E026E531E04EE060E08EE10E9407
:101E70002A0229E331E04FE060E08FE10E942A026C
:101E800062E08EE00E94760202E0E02E04EE12E0B4
:101E900028E231E040E061E080E20E942A020CE8A2
:101EA00014E027E131E040E061E081E20E942A0293
:101EB00063E08FE00E94760286E0E82E03E211E004
:101EC00024E131E040E061E082E20E942A0295E0F4
:101ED000E92E0BEB12E021E131E040E061E083E22A
:101EE0000E942A0226E0E22E0EE011E02EE031E010
:101EF00040E061E084E20E942A023BDC9CDB46DE9B
:101F0000209142033091430344E6429FC001439F26
:101F1000900D11240597A0E0B0E0809360019093AC
:101F20006101A0936201B09363014ADC0E944905FC
:101F3000FFCF5058BB27AA270ED048C139D130F067
:101F40003ED120F031F49F3F11F41EF42EC10EF467
:101F5000E095E7FB24C1E92F4AD180F3BA17620765
:101F600073078407950718F071F49EF562C10EF4AB
:101F7000E0950B2EBA2FA02D0B01B90190010C0199
:101F8000CA01A0011124FF27591B99F0593F50F4B1
:101F9000503E68F11A16F040A22F232F342F442709
:101FA000585FF3CF469537952795A795F040539501
:101FB000C9F77EF41F16BA0B620B730B840BBAF0D1
:101FC0009150A1F0FF0FBB1F661F771F881FC2F73C
:101FD0000EC0BA0F621F731F841F48F48795779550
:101FE0006795B795F7959E3F08F0B3CF9395880F07
:101FF00008F09927EE0F9795879508950CD0E6C0C5
:10200000DED040F0D5D030F021F45F3F19F0C7C0EA
:10201000511110C1CAC0EBD098F39923C9F35523CD
:10202000B1F3951B550BBB27AA27621773078407CB
:1020300038F09F5F5F4F220F331F441FAA1FA9F381
:1020400033D00E2E3AF0E0E830D091505040E69573
:10205000001CCAF729D0FE2F27D0660F771F881FD4
:10206000BB1F261737074807AB07B0E809F0BB0BC3
:10207000802DBF01FF2793585F4F2AF09E3F5105E7
:1020800068F08DC0D7C05F3FECF3983EDCF38695D7
:1020900077956795B795F7959F5FC9F7880F911D5D
:1020A0009695879597F90895E1E0660F771F881F49
:1020B000BB1F621773078407BA0720F0621B730BFC
:1020C000840BBA0BEE1F88F7E095089598D088F03E
:1020D0009F5790F0B92F9927B751A0F0D1F0660F14
:1020E000771F881F991F1AF0BA95C9F712C0B1302F
:1020F00081F09FD0B1E008959CC0672F782F88278A
:10210000B85F39F0B93FCCF3869577956795B3956D
:10211000D9F73EF490958095709561957F4F8F4FDC
:102120009F4F0895E89409C097FB3EF490958095E1
:10213000709561957F4F8F4F9F4F9923A9F0F92F8D
:1021400096E9BB279395F695879577956795B7950B
:10215000F111F8CFFAF4BB0F11F460FF1BC06F5FF1
:102160007F4F8F4F9F4F16C0882311F096E911C003
:10217000772321F09EE8872F762F05C0662371F024
:1021800096E8862F70E060E02AF09A95660F771F38
:10219000881FDAF7880F9695879597F9089597F92C
:1021A0009F6780E870E060E008959FEF80EC0895FD
:1021B00000240A9416161706180609060895002426
:1021C0000A9412161306140605060895092E0394A0
:1021D000000C11F4882352F0BB0F40F4BF2B11F414
:1021E00060FF04C06F5F7F4F8F4F9F4F089557FD73
:1021F0009058440F551F59F05F3F71F04795880F75
:1022000097FB991F61F09F3F79F08795089512160B
:1022100013061406551FF2CF4695F1DF08C01616B7
:1022200017061806991FF1CF869571056105089468
:102230000895E894BB2766277727CB0197F908957F
:10224000E3D008F48FEF08950BD0C0CFB1DF28F0B2
:10225000B6DF18F0952309F0A2CFA7CF1124EACF5B
:10226000C6DFA0F3959FD1F3950F50E0551F629FF5
:10227000F001729FBB27F00DB11D639FAA27F00DDF
:10228000B11DAA1F649F6627B00DA11D661F829F06
:102290002227B00DA11D621F739FB00DA11D621FEB
:1022A000839FA00D611D221F749F3327A00D611D08
:1022B000231F849F600D211D822F762F6A2F1124EA
:1022C0009F5750408AF0E1F088234AF0EE0FFF1F3D
:1022D000BB1F661F771F881F91505040A9F79E3F74
:1022E000510570F05CCFA6CF5F3FECF3983EDCF376
:1022F000869577956795B795F795E7959F5FC1F7B1
:10230000FE2B880F911D9695879597F90895FA01F0
:10231000EE0FFF1F30962105310599F1611571050A
:1023200061F48038BFE39B0749F1689490388105D8
:1023300061F08038BFEF9B0741F0992342F5FF3FE2
:10234000E1053105210511F1E8940894E795D901DB
:10235000AA2329F4AB2FBE2FF85FD0F310C0FF5F84
:1023600070F4A695E0F7F73950F019F0FF3A38F419
:102370009F779F930CD00F9007FC905808953EF0E4
:1023800014CF60E070E080E89FE308954FE79F7707
:102390005F934F933F932F93C2D02F913F914F91D3
:1023A0005F9152DF05C019F40EF0F9CE42CFFDCE99
:1023B00026DFC8F39638C0F707F80F92E8942BE3AE
:1023C0003AEA48EB5FE74EDF0F920F920F924DB75C
:1023D0005EB70F92E4D0ECE8F0E03AD04F915F9115
:1023E000EF91FF91E595EE1FFF1F49F0FE57E06862
:1023F0004427EE0F441FFA95E1F74195550B56D04F
:102400000F9007FE4AC00895990F0008550FAA0BB8
:10241000E0E8FEEF16161706E807F907C0F01216F7
:102420001306E407F50798F0621B730B840B950BFA
:1024300039F40A2661F0232B242B252B21F408954F
:102440000A2609F4A140A6958FEF811D811D0895EC
:10245000DF93CF931F930F93FF92EF92DF927B0155
:102460008C01689405C0DA2EEF01FADEFE01E894D3
:10247000A5912591359145915591AEF3EF016BDD15
:10248000FE019701A801DA9479F7DF90EF90FF90B1
:102490000F911F91CF91DF9108959B01AC0160E0F6
:1024A00070E080E89FE3AACD7ACEACC0A8DEE8F366
:1024B0009923D9F3940F511DBBF39150504094F0E0
:1024C00059F0882332F0660F771F881F91505040D3
:1024D000C1F79E3F510544F7880F911D969587954A
:1024E00097F908955F3FACF0983E9CF0BB27869526
:1024F00077956795B79508F4B1609395C1F7BB0FD1
:1025000058F711F460FFE8CF6F5F7F4F8F4F9F4FF9
:10251000E3CF90CE0EF076C048CE689440CE6FDE0A
:10252000C8F39923D1F3C6F3DF93CF931F930F938F
:10253000FF92C92FDD2788232AF02197660F771F86
:10254000881FDAF720E030E040E85FEB9FE388394E
:1025500020F0803E30F021968F77ECDCE4EBF0E069
:1025600003C0E8DCE1EEF0E073DF8B01BE01EC01BB
:10257000FB2E6F5771097595771F880B990BD4DD6A
:1025800028E132E741E35FE36BDEAF2D9801AE0156
:10259000FF900F911F91CF91DF91DDDC17CEFA01F3
:1025A000DC01AA0FBB1F9B01AC01BF5728F42227F7
:1025B0003327442750781FC0B75188F4AB2F00242D
:1025C000469537952795011CA395D2F3002069F015
:1025D000220F331F441FB395DAF30DD0AACC61301C
:1025E0007105A0E88A07B94630F49B01AC01662763
:1025F000772788279078309621F020833183428393
:10260000538308959F3F31F0915020F4879577953B
:102610006795B795880F911D9695879597F90895B9
:10262000991B79E004C0991F961708F0961B881F24
:102630007A95C9F780950895AA1BBB1B51E107C085
:10264000AA1FBB1FA617B70710F0A61BB70B881F42
:10265000991F5A95A9F780959095BC01CD010895D1
:10266000A29FB001B39FC001A39F700D811D1124D3
:10267000911DB29F700D811D1124911D0895E19946
:10268000FECF9FBB8EBBE09A99278DB30895A6E13C
:10269000B0E044E050E007C0A8E1B0E042E050E024
:1026A00002C0DC01CB01FC01E199FECF06C0FFBBFB
:1026B000EEBBE09A31960DB20D9241505040B8F702
:0626C0000895F894FFCF1D
:1026C6003030303030300030303030303000303064
:1026D6003030303000303030303030003030303054
:1026E6003030003030303030300030303030003074
:1026F6003030300001CFCD02C2D203D1D004D7D2C0
:1027060005CFD206D1C107C2D1FF0000202020206C
:0C27160020202020202020202020202037
:00000001FF
