S00E0000626F696C65722E7372656399
S11300007BC2000098C2000096C2000094C20000A7
S113001092C2000090C200008EC200008CC2000098
S11300208AC2000088C2000086C2000084C20000A8
S113003082C2000080C200007EC200007CC20000B8
S11300400C94DD2478C200000C946C0C74C2000083
S11300500C94C40C70C200006EC200006CC200009C
S11300606AC2000068C2000066C2000064C20000E8
S113007062C2000060C200005EC200005CC20000F8
S11300805AC2000058C2000056C200003E175E1754
S11300907817A917DC17F1173C181B171B177A18C8
S11300A09618B2184819DE191B171B17741A901AE0
S11300B0AC1A421BD81B1B171B176E1C8A1CA61CD0
S11300C03C1DD21D07634236B79BD8A71A39685620
S11300D018AEBAAB558C1D3CB7CC5763BD6DEDFD66
S11300E0753EF6177231BF000000803F0800000023
S11300F0BE922449123EABAAAA2ABECDCCCC4C3E19
S113010000000080BEABAAAAAA3E00000000BF0007
S11301100000803F0000000000084178D3BB438703
S1130120D1133D190E3CC3BD4282AD2B3E68EC8217
S113013076BED98FE1A93E4C80EFFFBE01C4FF7F9C
S11301403F0000000000CAE400CAE800CAEF00D281
S1130150E5ECEFE5F0E0F2F3F0E020EDEEF7FC0083
S1130160D2E5ECEFE5F0E0F2F3F0E020E4E5EDFCBD
S113017000C8E7ECE5ED2E20EDE0F1F2F0EEE5EA63
S11301802F6E20F0E5E3F3EBFFF2EEF0E000C8E7BA
S1130190ECE5ED2E20EDE0F1F2F0EEE5EA2F6E2035
S11301A0F2E5ECEFE5F0E0F2F3F0FB00CAE400CA9C
S11301B0E800CAEF00D2E5ECEFE5F0E0F2F3F0E09E
S11301C020EDEEF7FC00D2E5ECEFE5F0E0F2F3F021
S11301D0E020E4E5EDFC00C8E7ECE5ED2E20EDE0E1
S11301E0F1F2F0EEE5EA2F6E20F0E5E3F3EBFFF237
S11301F0EEF0E000C8E7ECE5ED2E20EDE0F1F2F0E2
S1130200EEE5EA2F6E20F2E5ECEFE5F0E0F2F3F034
S1130210FB00CAE400CAE800CAEF00D2E5ECEFE54F
S1130220F0E0F2F3F0E020EDEEF7FC00D2E5ECEFC5
S1130230E5F0E0F2F3F0E020E4E5EDFC00C8E7ECE3
S1130240E5ED2E20EDE0F1F2F0EEE5EA2F6E20F080
S1130250E5E3F3EBFFF2EEF0E000C8E7ECE5ED2EAA
S113026020EDE0F1F2F0EEE5EA2F6E20F2E5ECEF9E
S1130270E5F0E0F2F3F0FB00CFE5F0E8EEE420E295
S11302802020F1E5EA00CFE5F0E8EEE420E220F1F9
S1130290E5EA00CF20C220D120D720CF20D120C230
S11302A000CAEEEDE5F620F0E0E12E20E4EDFF00DB
S11302B0CDE0F7E0EBEE20F0E0E12E20E4EDFF00EE
S11302C0C4E5EDFC20EDE5E4E5EBE800C2F0E5EC87
S11302D0FF00D1F2E0F2F3F120E4EDE5E92F6E2026
S11302E0EDE5E4E5EBE800D0E5E6E8ECFB20E4E549
S11302F0EDFC2FEDEEF7FC00CDE0F1F2F0EEE9EAD3
S1130300E020F2E5EAF3F92E2F6E20E2F0E5ECE5C9
S1130310EDE800CFE5F0E8EEE420EEEFF0EEF1E0FA
S11303202F6E20E4E0F2F7E8EAEEE200CFE5F0E831
S1130330EEE420D8C8CC00C8E7ECE5ED2E20EDE0D3
S1130340F1F2F0EEE5EA2F6E20E2F0E5ECE5EDE8FF
S113035000CAEEEDF2F3F0B93300CAEEEDF2F3F0B9
S1130360B93200CAEEEDF2F3F0B93100535400543F
S1130370313D0054333D0054333D0054323D00546C
S1130380323D0054313D004552524F52002020204E
S113039020002020202000C2FBEAEB00C2EAEB0090
S11303A0C2FBEAEB00C2EAEB002020202000202060
S11303B0202000C2FBEAEB00C2EAEB00C2FBEAEB3E
S11303C000C2EAEB00C2FBEAEB00C2EAEB005E54B7
S11303D030303032005E5430303033005E543030D0
S11303E03034005E5030303032005E5030303033C4
S11303F0005E50303030340000010203040506076B
S113040008090A0B0C0D0E0F1011121314151617F0
S113041018191A1B1C1D1E1F2021222324252627E0
S113042028292A2B2C2D2E2F3031323334353637D0
S113043038393A3B3C3D3E3F4041424344454647C0
S113044048494A4B4C4D4E4F5051525354555657B0
S113045058595A5B5C5D5E5F6061626364656667A0
S113046068696A6B6C6D6E6F707172737475767790
S113047078797A7BD17DE97F80812783228586877D
S113048088898A8B8C8D8E8F906061CACBDF5F5F89
S113049098999A9B9C9D9E9FA08DA2A3A4A5D1FDF3
S11304A0A2A9AACAACADAEAFEFB1496972B5B6B7ED
S11304B0B5CCBACBBCBDBEBF41A042A1E045A3A40C
S11304C0A5A64BA74D484FA8504354A9AA58E1AB41
S11304D0ACE2ADAEC4AFB0B161B2B3B4E365B6B72C
S11304E0B8B9BABBBCBD6FBE7063BF79E478E5C070
S11304F0C1E6C2C3C4C5C6C711241FBECFEFD0E135
S1130500DEBFCDBF11E0A0E0B1E0ECE9FDE500E025
S11305100BBF02C007900D92A837B107D9F724E0AA
S1130520A8E7B1E001C01D92A93EB207E1F70E941D
S1130530CF250C94CC2E64CD1E9A85E08A95F1F7D4
S11305401E9808951F93CF93DF93C2E6D0E012E084
S11305501883F2DF1883F0DF8AE08883DF91CF917C
S11305601F91EACFCF93DF93D82FC62F109262004A
S1130570E3DFDD2311F086E001C084E0C111816076
S113058080936200DF91CF91D7CF0F931F93CF93C6
S1130590C82F806882958F7002E610E0F80180838E
S11305A0CBDFCF70F801C083CF911F910F91C4CFDF
S11305B0CF93DF93C2E6D0E01882BEDF81E0888368
S11305C0BBDF86E69EE00197F1F70000DF91CF9153
S11305D00895CF93DF93C2E6D0E01882ADDF82E0C6
S11305E08883DF91CF91A8CFCF93DF9382B18866C0
S11305F082B983B1886483B98FEF9FE80197F1F7DB
S113060000C0000083B1877983B9E1E6F0E080811E
S11306108F6080838FEF9FE80197F1F700C000009F
S113062091DFC2E6D0E0188287DF8DE0888384DF23
S1130630BFDFCFDF60E081E0DF91CF9193CF0F93F5
S11306401F93CF931B9AE82FF0E0E850FC4FC4911E
S11306508C2F82958F7002E610E0F80180836CDFA6
S1130660CF70F801C08368DF1B98CF911F910F9161
S113067008950F931F93CF93DF93EC018C01005CDB
S11306801F4F8991882321F0DADFC017D107C9F7FA
S1130690DF91CF911F910F9108950F931F93CF93E3
S11306A0DF93EC018C01005C1F4FFE0121968591C4
S11306B0882321F0C4DFC017D107B9F7DF91CF91A8
S11306C01F910F910895909164009061909364003C
S11306D0813041F018F0823049F00895809165002E
S11306E08F7E08C080916500806104C09091650090
S11306F080E18927809365000895909160029111AB
S11307001BC0813069F038F0823081F0833081F58C
S113071089B380952BC089B383FB882780F909C0EE
S113072099B392FB222720F98227089589B38695ED
S1130730817091E08927089590917902292F30E002
S1130740082E02C0359527950A94E2F73091790274
S113075041E050E0BA0102C0660F771F8A95E2F7C4
S1130760CB018095832380937902822F8170089531
S11307708FEF0895EF920F931F93A0918901B09189
S11307808A01A732B105F0F5CD0153E0880F991F16
S11307905A95E1F7FC01EA55FC4F608333832283C9
S11307A0158304834183442339F0E42FF0E0EE0FF2
S11307B0FF1FE85BFC4FA183EE2029F0FC01EA5502
S11307C0FC4FE6820CC0623031F421E0FC01EA55B2
S11307D0FC4F268304C0FC01EA55FC4F168220918D
S11307E05A0230915B02FC01EA55FC4F27832F5FCC
S11307F03F4F30935B0220935A021196B0938A01C3
S1130800A09389011F910F91EF90089510925B02BC
S113081010925A028091870190918801823191054A
S113082058F4FC01EE0FFF1FE85BFC4F6083019658
S11308309093880180938701089510925D0210922D
S11308405C0261110CC020915C0230915D02A9012F
S1130850480F511D50935D0240935C020895E8E4F3
S1130860F3E020E030E040E050E070E04617570746
S11308703CF49081290F311D4F5F5F4F3296F6CFC4
S113088030935D0220935C02DECFCF93DF93E0913F
S11308905C02F0915D0293E0EE0FFF1F9A95E1F781
S11308A0EA55FC4F0480F581E02D693008F068E0DA
S11308B0823021F4808180935E0236C0982F9B7F22
S11308C0913029F4C1E6D2E0DF0170E003C0883042
S11308D051F4F8CFCD018E1B9F0B8617970724F593
S11308E08D918993F7CF8730F9F470E0DF0120E030
S11308F030E0CD018E1B9F0B4C914F3FA9F0A60F0A
S1130900B71F41110EC020935702E80FF91FA1E64B
S1130910B2E06F597D4FA617B70731F081918D93DF
S1130920FACF2F5F3F4FE5CFDF91CF910895AF927C
S1130930BF92CF92DF92EF92FF920F931F93CF93C8
S1130940DF9300D0CDB7DEB7E82EE0915C02F091E2
S11309505D0273E0EE0FFF1F7A95E1F7EA55FC4F55
S1130960F08084E0F812A0C08091580281111EC06A
S11309700CDEE0915C02F0915D0263E0EE0FFF1F7C
S11309806A95E1F7EA55FC4F02811381780190E101
S1130990E90EF11CF8010F5F1F4F8591882309F4BC
S11309A012C14DDE0E151F05A9F70DC12091590284
S11309B030E0F901EE0FFF1FE55EFC4F008111816D
S11309C053E0000F111F5A95E1F7F801EA55FC4F67
S11309D0F6809081973009F4FA9490E0821B930B8F
S11309E09F938F9382E791E09F938F93CE0101961B
S11309F06C019F938F930E94BA2B8EE4C6DDC601CF
S1130A0038DE80E0C2DDF801EA55FC4FC280D380B5
S1130A10560190E1A90EB11C0F900F900F900F900A
S1130A200F900F90F60131966F01319785918111E6
S1130A300BC080E4AADDF801EA55FC4F80818230C6
S1130A4041F000E010E02AC0FADDAC14BD0451F717
S1130A50F0CFE091590288E0E89FF0011124E058BA
S1130A60FD4F8081882319F08AEC93E002C085EC65
S1130A7093E013DEA8C090E0081719070CF0A3C098
S1130A8080915902F80198E0899FE00DF11D11242D
S1130A90E058FD4F8081D3DD0F5F1F4F8F2DE8E0BD
S1130AA0EF1548F788E0E7CF0681C280D38080E065
S1130AB06CDD20E2A22EB12CF6018491811103C0D9
S1130AC0F11018C065C08F3251F4F601319684914B
S1130AD08E3629F4F2E0CF0ED11C80E456DDF60107
S1130AE031966F0131978591AADDF1E0AF1AB10813
S1130AF019F7E6CF093008F008E080915F028871A9
S1130B0019F4602F8F2DC1DE82E0F8120FC080E44B
S1130B103CDD80915E02813019F481EC93E004C0E5
S1130B20811136C08CEB93E0B8DD32C08F2D8B7F02
S1130B30813019F098E0F91212C080E426DD91E6C4
S1130B40C92E92E0D92E10E0C6018156924080173A
S1130B509107F4F4F60181916F0171DDF5CFF7E0AF
S1130B60FF1216C080E411DD81E6C82E82E0D82E83
S1130B7010E001501109C601815692408017910777
S1130B803CF4F60181815BDDFFEFCF1ADF0AF3CF7E
S1130B9080915F0283FF17C085E0F81669F098E042
S1130BA0F91671F0E1E0FE120EC0FFE3FE1558F0F5
S1130BB080E48E0DEADC07C08FE38E1520F0F8CFB9
S1130BC09FE39E15A8F70F900F90DF91CF911F918F
S1130BD00F91FF90EF90DF90CF90BF90AF9008956A
S1130BE0AF92BF92CF92DF92EF92FF920F931F9337
S1130BF0CF93DF9320915C0230915D02F90183E091
S1130C00EE0FFF1F8A95E1F7DF01AA55BC4F7C91D7
S1130C1016964C91493008F048E0EA55FC4F54814F
S1130C20A58060915F0265FD33C0A09158028A2FB0
S1130C3090E0FC01EE0FFF1FE55EFC4F3183208343
S1130C40E52FFA2D03E0880F991F0A95E1F720E0BC
S1130C5030E050E024173507B4F4773051F0B19107
S1130C60E901C80FD91FC058DD4FB8832F5F3F4F2C
S1130C70F1CF80589D4FFC01E20FF31FE901CF59DA
S1130C80DD4F8981808381E08A0F809358025DC0A3
S1130C900BE113E0A0E8B2E0E8018A819B81F8014E
S1130CA0819391938F01D3E0880F991FDA95E1F72F
S1130CB0FC01EA55FC4FE681F0E080E090E0ED01B4
S1130CC028967E018E179F0764F46701C80ED91E0B
S1130CD0E601B8806D01C80ED91EE601B8820196FE
S1130CE0F1CFD701D2E0A83FBD07B1F6A0915802D9
S1130CF08A2F90E0FC01EE0FFF1FE75EFC4F31836B
S1130D002083E52FFA2DC3E0880F991FCA95E1F7D8
S1130D1020E030E050E024173507B4F4773051F088
S1130D20B191E901C80FD91FC058DD4FB8832F5FB7
S1130D303F4FF1CF80589D4FFC01E20FF31FE901B3
S1130D40CF59DD4F89818083A150A09359028091AE
S1130D505802803118F0606260935F02DF91CF9196
S1130D601F910F91FF90EF90DF90CF90BF90AF90C5
S1130D7008950F931F93CF93DF93E0915C02F0915A
S1130D805D0293E0EE0FFF1F9A95E1F7DF01AA558C
S1130D90BC4F16962C91293008F028E0882331F0B6
S1130DA0C1E6D2E030E0A22FB0E00AC06F5F621764
S1130DB008F44DC160E04BC199919E3209F431E0D1
S1130DC08E01015612400A171B07B4F3EA55FC4F73
S1130DD09081813021F0823009F49CC038C1953073
S1130DE009F445C028F4913079F0923041F02FC1D4
S1130DF0973009F456C0983009F47FC028C1909107
S1130E005E0291119FC09BC0462F50E0FA01EF593A
S1130E10FD4F80818B3209F4A0C08D3209F4A1C04A
S1130E208F5F8083662331F011974A175B0711F0B7
S1130E30313019F48A33B8F06BC0613089F4909181
S1130E4061029B3211F09D3219F48A3320F060C0A4
S1130E508A3308F0AFC0803308F45AC061E0F7C0A9
S1130E608A3308F0A7C0803308F0F1C051C0E62FE0
S1130E70F0E0EF59FD4F80818F5F803E09F448C058
S1130E808A3309F497C08F3209F4E0C0803309F43F
S1130E909FC08F3509F498C0813209F0D7C080EC27
S1130EA0D5C08091570231E0380F3093570258E093
S1130EB0459FF0011124EA55FC4F0480F581E02D93
S1130EC03203E0011124CE0FDF1F98819F3F11F4FC
S1130ED080935702309157023203C0011124E80F66
S1130EE0F91FC1E6D2E0CE01815692408A179B07D2
S1130EF00CF0ADC081918993F6CFE62FF0E0EF5965
S1130F00FD4F80818F5F8A3318F4803308F09EC0D0
S1130F1080E39CC0953009F44FC028F49130A9F0C7
S1130F20923041F094C0973009F460C0983009F4CD
S1130F3084C08DC080915E02811104C081E08093E1
S1130F405E0285C010925E0282C0462F50E0FA0114
S1130F50EF59FD4F80818B3211F48DE277C08D32D1
S1130F6011F48BE273C081508083662331F01197B2
S1130F704A175B0711F0313021F4803308F067C061
S1130F8064C0613089F4909161029B3211F09D320A
S1130F9021F4803308F062CF58C08E3208F455C073
S1130FA0803308F05BCF06C08E3208F44EC0803325
S1130FB008F04DC08EE24AC0E62FF0E0EF59FD4F35
S1130FC0808181508F3B11F480E240C08F3111F455
S1130FD08EE53CC08D3511F48FE238C08E32B1F10C
S1130FE08D3299F18F3291F58FED30C08091570297
S1130FF0882319F0815080935702309157023203AD
S1131000C001112421E632E0C8E04C9FF001112414
S1131010E655FC4F81569240A901415652404A1769
S11310205B07ACF4C081D181C20FD31FC80FD91F95
S11310304881E90149939E01EFCFE62FF0E0EF5993
S1131040FD4F80818150803308F489E38083862FAB
S1131050DF91CF911F910F910895CF93DF93DC011E
S113106080915F0284FF43C0E0915C02F0915D02D5
S113107093E0EE0FFF1F9A95E1F7EA55FC4F90813C
S11310802681293008F028E08F7E80935F02953016
S113109099F040F4913081F0923021F580915E0214
S11310A08C9320C0973019F09830E1F405C0C1E664
S11310B0D2E0FD0130E00DC0C1E6D2E0FD0130E038
S11310C0AF014A1B5B0B4217530764F48991819368
S11310D0F7CFAF014A1B5B0B421753071CF48991EE
S11310E08193F7CFFB01908380915C0201C080E083
S11310F0DF91CF910895AF92BF92CF92DF92EF929A
S1131100FF920F931F93CF93DF937B0123E0880F0C
S1131110991F2A95E1F7DC01AA55BC4FE0915C02C6
S1131120F0915D0233E0EE0FFF1F3A95E1F7EA55C7
S1131130FC4F048115811696CC91C93008F0C8E0A3
S11311409C012A553C4F6901F901A480B58048DD12
S1131150F6018081853071F048F4813059F0823095
S1131160B1F5F7018081F501808331C0873071F0DA
S1131170883069F5F701D501D0E0CD018A199B09C2
S11311808C179D0724F581918D93F7CF30916102DF
S11311906C2F70E0F80180E040E020E090819F3FF8
S11311A051F0911101C0482F931301C0282FE60F6D
S11311B0F71F8F5FF3CFF801C49FE00DF11D1124D9
S11311C03083F801C29FE00DF11D11241082DF91DC
S11311D0CF911F910F91FF90EF90DF90CF90BF9030
S11311E0AF9008956F927F928F929F92AF92BF9229
S11311F0CF92DF92EF92FF920F931F93CF93DF93DF
S11312003C01EB0180915F02866080935F0204ECF5
S113121019E0DD24D394CC24CA940150110901307F
S1131220110519F480915F02FCC18FEF9FE80197CB
S1131230F1F700C0000080915F0286FD04C08F7E3C
S113124080935F0207C08F7A80935F0210928601B9
S1131250109285016091850180918601EEDA80E02B
S11312604CDA813009F072C1E12CF12C10E080E0FD
S113127044DA813009F0EBC0E3E3FBE23197F1F7A4
S113128080915F0283FF13C0FCE2EF16F1E0FF06DA
S1131290A8F181E57AD9C092000180915F02877F2D
S11312A0806180935F0281E00EDA11E031C0E09149
S11312B05C02F0915D02A3E0EE0FFF1FAA95E1F737
S11312C0EA55FC4F9081933091F49CE2E91691E049
S11312D0F90620F4EFEFEE1AFE0A1AC08B7F806144
S11312E080935F0210928601109285010FC09630A0
S11312F079F4FCE2EF16F1E0FF0620F48FEFE81A30
S1131300F80A06C08B7F806180935F0281E0DBD99D
S113131080915F0283FF78C0E0915C02F0915D02EE
S113132073E0EE0FFF1F7A95E1F7EA55FC4F8081D9
S1131330823051F580918401863458F4E6E6FEE06B
S11313403197F1F70000809184018F5F80938401CD
S113135019C01092840180E418D9809183018823F4
S113136061F01092830180915E02882319F088EB6A
S113137093E007C083EB93E004C0D09283018EEA2C
S113138093E08BD981E53EC0873009F070CF80911E
S11313908401863458F486E69EE00197F1F7000054
S11313A0809184018F5F809384012BC0109284010B
S11313B080E4EBD8809183018823F1F010928301BB
S11313C062E6862E62E0962EE0915C02F0915D0268
S11313D053E0EE0FFF1F5A95E1F7EA55FC4F868163
S11313E090E09401215632402817390754F4F4014F
S11313F081914F0124D9E8CFD092830189EA93E007
S11314004CD985E4C2D833CF84FF31CFE0915C025C
S1131410F0915D0243E0EE0FFF1F4A95E1F7EA55B4
S1131420FC4F8081823009F022CF113009F01FCFA8
S113143080E4ABD880915E02882319F085EA93E0BA
S113144002C080EA93E029D981E59FD80FCF80912B
S11314505F0240915C0250915D02282F207184FF4D
S113146016C0FA0133E0EE0FFF1F3A95E1F7EA5593
S1131470FC4F9081933011F0963049F486E08883D4
S113148080E021D980915C0290915D0216C2FA013C
S113149093E0EE0FFF1F9A95E1F7EA55FC4F918117
S11314A0992329F0109286019093850146C0222346
S11314B021F0877F80935F0240C090812FEF290F36
S11314C0223030F0953021F029EF290F2230A8F591
S11314D0886080935F02913031F46091000180E074
S11314E048DC8093000140915C0250915D02FA0156
S11314F003E0EE0FFF1F0A95E1F7EA55FC4F8081E8
S1131500853031F46091000180E033DC8093000188
S113151040915C0250915D02FA0113E0EE0FFF1F4F
S11315201A95E1F7EA55FC4F8081883031F46091D7
S1131530000180E01EDC8093000180915F028260E4
S113154080935F0280E0BFD804EC19E083E0D5D833
S1131550813009F07CC083E0D0D8813049F484E143
S113156090E0E3E3F7E03197F1F70197D1F7F3CF98
S11315704091850180915F02442379F183FD5AC033
S113158050E0FA01EE0FFF1FE85BFC4F618170E051
S113159070935D0260935C02FB01B3E0EE0FFF1FEA
S11315A0BA95E1F7EA55FC4F978190938601A8E438
S11315B0B3E020E030E0E0E0F0E024173507D0F5B8
S11315C09C91E90FF11D12966E177F0718F4209372
S11315D0850130C02F5F3F4FF0CF83FF22C0E091E1
S11315E05C02F0915D0273E0EE0FFF1F7A95E1F764
S11315F0EA55FC4F9081913049F09230D9F404803F
S1131600F581E02D908190935E0214C0A481B58190
S1131610E1E6F2E092E0E936F90761F09D919193F9
S1131620F9CF8B7F806480935F020E94D8028FEF92
S11316309FEF43C1C0920001909158029150909342
S11316405902877F826080935F0204EC19E082E094
S113165054D8813009F04EC082E04FD8813049F42B
S113166084E190E0E3E3F7E03197F1F70197D1F7F4
S1131670F3CF80915F0283FF07C040915C026091C9
S1131680000181E076DB2FC0E0915C02F0915D0205
S113169063E0EE0FFF1F6A95E1F7EA55FC4F808186
S11316A0843069F4809159028150809359028F3FAC
S11316B0D1F48091580281508093590214C08091D2
S11316C086018F5F80938601E0918501F0E0EE0F43
S11316D0FF1FE85BFC4F208130E090E08217930706
S11316E014F01092860180915F02826080935F0201
S11316F004EC19E081E001D8813009F04CC081E0AC
S11317000E947D03813049F484E190E0E3E3F7E053
S11317103197F1F70197D1F7F2CF80915F0283FF00
S113172007C040915C026091000182E022DB2CC082
S1131730E0915C02F0915D0243E0EE0FFF1F4A95D9
S1131740E1F7EA55FC4F8081843079F480915902A5
S11317508F5F809359022091580230E090E0821705
S1131760930794F0109259020FC080918601811161
S113177008C0E0918501F0E0EE0FFF1FE85BFC4F2D
S1131780808181508093860180915F028260809382
S11317905F0204EC19E080915F0283FF70C0E09166
S11317A05C02F0915D0223E0EE0FFF1F2A95E1F742
S11317B0EA55FC4F8081823079F58091840184362A
S11317C060F48CEC9CE10197F1F700C0000080917B
S11317D084018F5F809384011BC01092840180E494
S11317E00E94C50280918301882361F010928301D5
S11317F080915E02882319F08CE993E007C087E9A1
S113180093E004C0D092830182E993E00E944D03E7
S113181085E40E94C50233C0873089F58091840134
S1131820843678F21092840180E40E94C50280918B
S113183083018823F9F01092830192E6A92E92E0A5
S1131840B92EE0915C02F0915D0283E0EE0FFF1F80
S11318508A95E1F7EA55FC4F868190E0950121567F
S1131860324028173907A4F6F50181915F010E94DF
S11318701F03E7CFD09283018DE893E0C7CF809117
S11318805F0281FF10C00E94D80280915F028D7FA9
S113189080935F0260918501809186010E941D04FE
S11318A08091000144D8BE01C301D7DB282F30E06A
S11318B02115310509F4B1CCC901DF91CF911F91F4
S11318C00F91FF90EF90DF90CF90BF90AF909F90DB
S11318D08F907F906F9008951F920F920FB60F9282
S11318E011240BB60F922F933F938F939F93EF93F3
S11318F0FF938CB1E0911102F0911202EB5EFD4F67
S11319008083813450F48E3360F4813251F078F066
S11319109DED980F933058F404C08E3511F08E3736
S113192031F4109212021092110280931502209148
S11319301102309112028D3061F481E0820F8093A4
S11319400F02109212021092110281E080930D0294
S11319500EC0C9010196803291052CF490931202B5
S11319608093110204C01092120210921102FF918E
S1131970EF919F918F913F912F910F900BBE0F90FC
S11319800FBE0F901F9018951F920F920FB60F92D3
S113199011240BB60F922F933F938F939F93EF9342
S11319A0FF938091C9019091CA012091C70130E051
S11319B08217930769F41092CA011092C9018091A9
S11319C065008E7F8093650081E08093C5010EC021
S11319D0FC01E353FE4F80818CB98091C901909141
S11319E0CA0101969093CA018093C901FF91EF91B6
S11319F09F918F913F912F910F900BBE0F900FBE2F
S1131A000F901F901895CF92DF92EF92FF92CF9391
S1131A10DF93EC0102970CF07FC0DB01CA01019750
S1131A20A109B10980349244AF40B10508F074C0F3
S1131A30CB01BA010E94A3289B01AC0160E070E0D5
S1131A4081E69BE40E940D2820E030E040E85DE35D
S1131A500E94332920E030E040E05FE30E94A827A1
S1131A606B017C0120E030E040E05FE30E942F291D
S1131A7087FD52C0C701B601209711F50E94752851
S1131A80C72ED82EE92EFF24C092900069B988EDA4
S1131A908AB986E080939500809164008160809388
S1131AA06400809165008E7F80936500109212021D
S1131AB01092110210920D0281E08093C50129C099
S1131AC00E947528C72ED82EE92EFF24C0929800B4
S1131AD06093990088ED80939A0086E080939D003E
S1131AE080916400826080936400809165008D7FA2
S1131AF080936500FE01EE0FFF1FEF5EFD4F118224
S1131B001082FE01E35FFD4F1082CB53DE4F81E074
S1131B108883789480E001C08FEFDF91CF91FF90AC
S1131B20EF90DF90CF900895811117C01092C501F6
S1131B308091650081608093650088E18A95F1F762
S1131B4000C06093C70181E090E09093CA01809344
S1131B50C9018091CD018CB908951092C60180917C
S1131B60650082608093650088E18A95F1F700C082
S1131B706093C80181E090E09093CC018093CB0105
S1131B808091ED0180939C000895AC018230910511
S1131B900CF057C0FC01EB53FE4F8081811105C04E
S1131BA088E18A95F1F700C0F8CFFB019A0185E03E
S1131BB0220F331F8A95E1F790E060E070E0819195
S1131BC0DB01A20FB31FA353BE4F8C93882341F0B4
S1131BD08D3031F0980F6F5F7F4F6032710579F768
S1131BE0FA01EB5AFD4F80818130F1F4892F8295FF
S1131BF08F70F901E353FE4FE60FF71F8A3010F49C
S1131C00805D01C0895C8083FB0131969F70D9019E
S1131C10A353BE4FEA0FFB1F9A3010F4905D01C02E
S1131C20995C90836E5F7F4FCA0123533E4FF90145
S1131C30E60FF71F9DE090836F5F7F4F75DF80E0B5
S1131C4008958FEF0895EF92FF920F931F93CF9310
S1131C50DF939C01823091050CF06FC0FC01E35FBF
S1131C60FD4F8081882309F46BC01082F901EB5A7F
S1131C70FD4F8081E901C15FDD4FD90195E0AA0FD5
S1131C80BB1F9A95E1F7813009F042C0288130E00A
S1131C90790183E0E81AF10890E040E050E04E1545
S1131CA05F055CF48A010A0F1B1F0B5E1D4FF801D0
S1131CB08081980F4F5F5F4FF2CF892F82958F708D
S1131CC0482F50E08A3018F4405D5F4F02C0495CF1
S1131CD05F4F8D010B5E1D4FF701E00FF11FE08197
S1131CE0F0E04E175F0759F59F70492F50E09A3086
S1131CF018F4405D5F4F02C0495C5F4F2A0F3B1FE1
S1131D00F901ED5EFD4F808190E048175907B9F461
S1131D108881FB01819320E030E090E028173907A7
S1131D2054F4E901CA0FDB1FCB5EDD4F48814193B8
S1131D302F5F3F4FF3CF81E003C08FEF01C080E8F6
S1131D40DF91CF911F910F91FF90EF9008956AE07A
S1131D500E942E2B20E1829F900D1124892F08953B
S1131D60982F92959F708F702AE0929F800D112476
S1131D70089594EE909374001092C40190917400AD
S1131D8097FD11C09091C4019F5F9093C4019B3053
S1131D9020F091E09093BD0106C0E0E7F1E03197B7
S1131DA0F1F700C0EBCF8093730084EE809374004E
S1131DB01092C4018091740087FD11C08091C40108
S1131DC08F5F8093C4018B3020F081E08093BD014C
S1131DD0089580E791E00197F1F700C0EBCF0895F3
S1131DE0FC0124E831E09E2F981B9617D8F49191BA
S1131DF090937300209374001092C4019091740026
S1131E0097FDF1CF9091C4019F5F9093C4019B30E3
S1131E1018F03093BD01E7CFA0E7B1E01197F1F7D7
S1131E2000C0ECCF84E980937400B1E3BA95F1F774
S1131E3000000895CF93DF93FC0120E030E0462FAB
S1131E4050E04150510984EC74E8A1E0B4E926174C
S1131E5048F54217530719F47093740002C0809335
S1131E6074001092C4019091740097FD10C0909179
S1131E70C4019F5F9093C4019B3018F0A093BD01EF
S1131E8006C0C0E7D1E02197F1F700C0ECCF9091F4
S1131E90730091934217530711F4B09374002F5FAA
S1131EA03F4FD5CFD1E3DA95F1F70000DF91CF9121
S1131EB00895109271008DE48093700081E0809306
S1131EC072001092BD0180ED54DF87E08093BE0163
S1131ED081E98093BF0162E08EEB91E081DF81E0D4
S1131EE09091BD01911101C080E00895EF92FF929D
S1131EF00F931F93CF93DF93EC018B017A01109220
S1131F00BD0180ED36DF1092BE0161E08EEB91E001
S1131F1067DF81ED2EDF63E08EEB91E08BDF809154
S1131F20BE011EDFF70180838091BF0119DFF80134
S1131F3080838091C00114DF888381E09091BD018A
S1131F40911101C080E0DF91CF911F910F91FF901B
S1131F50EF9008951F93CF93DF93C82FD62F142F9C
S1131F601092BD0180ED05DF1092BE01812FEFDEDE
S1131F708093BF018D2FEBDE8093C0018C2FE7DEB1
S1131F808093C10164E08EEB91E02ADF81E09091BF
S1131F90BD01911101C080E0DF91CF911F9108959F
S1131FA0CF92DF92EF92FF920F931F93CF93DF9321
S1131FB06C017B018A01E9011092BD0180EDD9DE3B
S1131FC083E08093BE0161E08EEB91E009DF81ED57
S1131FD0D0DE64E08EEB91E02DDF8091BE01C0DEA7
S1131FE08150F60180838091BF01BADEF7018083BE
S1131FF08091C001B5DEF80180838091C101B0DE1B
S1132000888381E09091BD01911101C080E0DF914E
S1132010CF911F910F91FF90EF90DF90CF90089593
S11320200F931F93CF93DF93082F162FD42FC22F14
S11320301092BD0180ED9DDE83E08093BE01802F70
S113204086DE8F5F8093BF01812F81DE8093C00184
S11320508D2F7DDE8093C1018C2F79DE8093C201A8
S113206065E08EEB91E0BCDE81E09091BD019111C1
S113207001C080E0DF91CF911F910F9108958F925D
S11320809F92AF92BF92CF92DF92EF92FF920F9303
S11320901F93CF93DF93809141032AE0622F0E9424
S11320A02E2B805D80936F02905D909370028AE383
S11320B08093710280916C030E942E2B805D80932B
S11320C07202905D9093730281E08093350182E007
S11320D08093380183E080933B0184E080933E0148
S11320E085E08093410186E08093440187E08093FA
S11320F0470180919C0390E0FC01EE0FFF1F8E0FBF
S11321009F1FFC01EB5CFE4F108280919D03909118
S11321109E0368EE73E00E943A2B605D60932B018E
S113212064E670E00E943A2B605D60932C016AE0E3
S113213070E00E943A2B605D60932D01805D809376
S11321402E0181E490E00E94A22EC3E0D0E000E3DF
S113215011E0BC0180E090E00E94A1286B017C01A9
S1132160BE010D2E000C880B990B0E94A3289B0125
S1132170AC0160E070E080E291E40E9496294B019A
S11321805C019B01AC01C701B6010E940D2820E04F
S113219030E040E452E40E94A9270E947528F80127
S11321A061938F0170E060537109072E000C880B56
S11321B0990B0E94A328A50194010E9433299B0135
S11321C0AC01C701B6010E94A8270E947528CB0163
S11321D0219708F0BECFCAE3C0936F0384E390E075
S11321E00E94A22EBC0180E090E00E94A1286B0115
S11321F07C0120E030E040E251E40E940D2820E020
S113220030E040E452E40E94A9270E9475286093BC
S11322106D0370E060537109072E000C880B990B55
S11322200E94A32820E030E040E251E40E943329D8
S11322309B01AC01C701B6010E94A8270E94752822
S113224080E090E00E94A12820E030E040E452E4E5
S11322500E94A9270E94752860936E0386E390E08C
S11322600E94A22EBC0180E090E00E94A1286B0194
S11322707C0120E030E040E251E40E940D2820E09F
S113228030E040E452E40E94A9270E94752860933C
S1132290700370E060537109072E000C880B990BD2
S11322A00E94A32820E030E040E251E40E94332958
S11322B09B01AC01C701B6010E94A8270E947528A2
S11322C080E090E00E94A12820E030E040E452E465
S11322D00E94A9270E94752860937103C093E004AB
S11322E080E390E00E94A22EBC0180E090E00E9476
S11322F0A1286B017C0120E030E040E251E40E941F
S11323000D2820E030E040E452E40E94A9270E9416
S113231075286093DE0470E060537109072E000C89
S1132320880B990B0E94A32820E030E040E251E49E
S11323300E9433299B01AC01C701B6010E94A82762
S11323400E94752880E090E00E94A12820E030E0FF
S113235040E452E40E94A9270E9475286093DF0498
S113236082E390E00E94A22EBC0180E090E00E94F3
S1132370A1286B017C0120E030E040E251E40E949E
S11323800D2820E030E040E452E40E94A9270E9496
S113239075286093E10470E060537109072E000C06
S11323A0880B990B0E94A32820E030E040E251E41E
S11323B00E9433299B01AC01C701B6010E94A827E2
S11323C00E94752880E090E00E94A12820E030E07F
S11323D040E452E40E94A9270E9475286093E20415
S11323E08AE290E00E94A22EBC0180E090E00E946C
S11323F0A1286B017C0120E030E040E251E40E941E
S11324000D2820E030E040E452E40E94A9270E9415
S1132410752860933B0370E060537109072E000C2C
S1132420880B990B0E94A32820E030E040E251E49D
S11324300E9433299B01AC01C701B6010E94A82761
S11324400E94752880E090E00E94A12820E030E0FE
S113245040E452E40E94A9270E94752860933C033B
S11324608CE290E00E94A22EBC0180E090E00E94E9
S1132470A1286B017C0120E030E040E251E40E949D
S11324800D2820E030E040E452E40E94A9270E9495
S1132490752860933D0370E060537109072E000CAA
S11324A0880B990B0E94A32820E030E040E251E41D
S11324B00E9433299B01AC01C701B6010E94A827E1
S11324C00E94752880E090E00E94A12820E030E07E
S11324D040E452E40E94A9270E94752860933E03B9
S11324E08EE290E00E94A22EBC0180E090E00E9467
S11324F0A1286B017C0120E030E040E251E40E941D
S11325000D2820E030E040E452E40E94A9270E9414
S1132510752860933F0370E060537109072E000C27
S1132520880B990B0E94A32820E030E040E251E49C
S11325300E9433299B01AC01C701B6010E94A82760
S11325400E94752880E090E00E94A12820E030E0FD
S113255040E452E40E94A9270E9475286093400336
S113256084E290E00E94A22EBC0180E090E00E94F0
S1132570A1286B017C0120E030E040E251E40E949C
S11325800D2820E030E040E452E40E94A9270E9494
S113259075286093E30470E060537109072E000C02
S11325A0880B990B0E94A32820E030E040E251E41C
S11325B00E9433299B01AC01C701B6010E94A827E0
S11325C00E94752880E090E00E94A12820E030E07D
S11325D040E452E40E94A9270E9475286093E40411
S11325E086E290E00E94A22EBC0180E090E00E946E
S11325F0A1286B017C0120E030E040E251E40E941C
S11326000D2820E030E040E452E40E94A9270E9413
S113261075286093E50470E060537109072E000C7F
S1132620880B990B0E94A32820E030E040E251E49B
S11326300E9433299B01AC01C701B6010E94A8275F
S11326400E94752880E090E00E94A12820E030E0FC
S113265040E452E40E94A9270E9475286093E6048E
S113266088E290E00E94A22EBC0180E090E00E94EB
S1132670A1286B017C0120E030E040E251E40E949B
S11326800D2820E030E040E452E40E94A9270E9493
S113269075286093E70470E060537109072E000CFD
S11326A0880B990B0E94A32820E030E040E251E41B
S11326B00E9433299B01AC01C701B6010E94A827DF
S11326C00E94752880E090E00E94A12820E030E07C
S11326D040E452E40E94A9270E9475286093E8040C
S11326E088E190E00E949D2EC5E0D0E006E111E073
S11326F00E94A1286B017C01BE010D2E000C880BE9
S1132700990B0E94A3289B01AC0160E070E080E279
S113271091E40E9496294B015C019B01AC01C70125
S1132720B6010E940D2820E030E040E452E40E940B
S1132730A9270E947528F80161938F0170E0605306
S11327407109072E000C880B990B0E94A328A50180
S113275094010E9433299B01AC01C701B6010E9478
S1132760A8270E947528219718F680911601809356
S113277015018091170180931601809118018093AF
S113278017018EE2809318018CE190E00E949D2E47
S1132790C5E0D0E00DE111E00E94A1286B017C01AD
S11327A0BE010D2E000C880B990B0E94A3289B01DF
S11327B0AC0160E070E080E291E40E9496294B0154
S11327C05C019B01AC01C701B6010E940D2820E009
S11327D030E040E452E40E94A9270E947528F801E1
S11327E061938F0170E060537109072E000C880B10
S11327F0990B0E94A328A50194010E9433299B01EF
S1132800AC01C701B6010E94A8270E947528219730
S113281018F680911D0180931C0180911E01809304
S11328201D0180911F0180931E018EE280931F0180
S113283080E290E00E949D2EC5E0D0E004E211E029
S11328400E94A1286B017C01BE010D2E000C880B97
S1132850990B0E94A3289B01AC0160E070E080E228
S113286091E40E9496294B015C019B01AC01C701D4
S1132870B6010E940D2820E030E040E452E40E94BA
S1132880A9270E947528F80161938F0170E06053B5
S11328907109072E000C880B990B0E94A328A5012F
S11328A094010E9433299B01AC01C701B6010E9427
S11328B0A8270E947528219718F6809124018093F7
S11328C02301809125018093240180912601809326
S11328D025018EE2809326018CE090E00E949D2EDB
S11328E0C4E0D0E00CE013E00E94A1286B017C015D
S11328F0BE010D2E000C880B990B0E94A3289B018E
S1132900AC0160E070E080E291E40E9496294B0102
S11329105C019B01AC01C701B6010E940D2820E0B7
S113292030E040E452E40E94A9270E947528F8018F
S113293061938F0170E060537109072E000C880BBE
S1132940990B0E94A328A50194010E9433299B019D
S1132950AC01C701B6010E94A8270E9475282197DF
S113296018F68EE280930D0380E190E00E949D2E84
S1132970C4E0D0E001E113E00E94A1286B017C01D6
S1132980BE010D2E000C880B990B0E94A3289B01FD
S1132990AC0160E070E080E291E40E9496294B0172
S11329A05C019B01AC01C701B6010E940D2820E027
S11329B030E040E452E40E94A9270E947528F801FF
S11329C061938F0170E060537109072E000C880B2E
S11329D0990B0E94A328A50194010E9433299B010D
S11329E0AC01C701B6010E94A8270E94752821974F
S11329F018F68EE28093120384E190E00E949D2EEB
S1132A00C4E0D0E006E113E00E94A1286B017C0140
S1132A10BE010D2E000C880B990B0E94A3289B016C
S1132A20AC0160E070E080E291E40E9496294B01E1
S1132A305C019B01AC01C701B6010E940D2820E096
S1132A4030E040E452E40E94A9270E947528F8016E
S1132A5061938F0170E060537109072E000C880B9D
S1132A60990B0E94A328A50194010E9433299B017C
S1132A70AC01C701B6010E94A8270E9475282197BE
S1132A8018F68EE28093170380E090E00E949D2E5A
S1132A90C5E0D0E001E011E00E94A1286B017C01B7
S1132AA0BE010D2E000C880B990B0E94A3289B01DC
S1132AB0AC0160E070E080E291E40E9496294B0151
S1132AC05C019B01AC01C701B6010E940D2820E006
S1132AD030E040E452E40E94A9270E947528F801DE
S1132AE061938F0170E060537109072E000C880B0D
S1132AF0990B0E94A328A50194010E9433299B01EC
S1132B00AC01C701B6010E94A8270E94752821972D
S1132B1018F6809101018093000180910201809355
S1132B20010180910301809302018EE280930301ED
S1132B3084E090E00E949D2EC5E0D0E008E011E022
S1132B400E94A1286B017C01BE010D2E000C880B94
S1132B50990B0E94A3289B01AC0160E070E080E225
S1132B6091E40E9496294B015C019B01AC01C701D1
S1132B70B6010E940D2820E030E040E452E40E94B7
S1132B80A9270E947528F80161938F0170E06053B2
S1132B907109072E000C880B990B0E94A328A5012C
S1132BA094010E9433299B01AC01C701B6010E9424
S1132BB0A8270E947528219718F680910801809310
S1132BC00701809109018093080180910A01809393
S1132BD009018EE280930A0188E090E00E949D2E14
S1132BE0C5E0D0E00FE011E00E94A1286B017C0158
S1132BF0BE010D2E000C880B990B0E94A3289B018B
S1132C00AC0160E070E080E291E40E9496294B01FF
S1132C105C019B01AC01C701B6010E940D2820E0B4
S1132C2030E040E452E40E94A9270E947528F8018C
S1132C3061938F0170E060537109072E000C880BBB
S1132C40990B0E94A328A50194010E9433299B019A
S1132C50AC01C701B6010E94A8270E9475282197DC
S1132C6018F680910F0180930E01809110018093DA
S1132C700F0180911101809310018EE28093110164
S1132C80DF91CF911F910F91FF90EF90DF90CF9044
S1132C90BF90AF909F908F9008954F925F926F92E4
S1132CA07F928F929F92AF92BF92CF92DF92EF92D8
S1132CB0FF920F931F93CF93DF9384E390E00E94DE
S1132CC0A22E8093730386E390E00E94A22E809349
S1132CD0740380E390E00E94A22E80939A0382E31F
S1132CE090E00E94A22E80939B038FE390E00E94C9
S1132CF0A22E90939E0380939D0381E490E00E9412
S1132D00A22E90937C0380937B0308E310E0CFE929
S1132D10D3E0C8010E94952E89930F5F1F4F83E073
S1132D20C63AD807B1F78AE2882E80E0982E95E754
S1132D30A92E93E0B92E04E210E029E6C22E22E087
S1132D40D22E30E0E32E33E0F32E4DE7642E43E041
S1132D50742E5EE8452E53E0552EC0E0D0E0C40149
S1132D600E94A22EF501819391935F01C8010E94F4
S1132D70A22EF601819391936F01CE01885E9F4F3D
S1132D800E949D2EF70161937193819391937F012A
S1132D90CE01845F9F4F0E949D2EF3016193719336
S1132DA0819391933F01CE01805090400E949D2ECB
S1132DB0F20161937193819391932F01F2E08F0E4D
S1132DC0911C0E5F1F4F2496CC30D10541F6DF9144
S1132DD0CF911F910F91FF90EF90DF90CF90BF9014
S1132DE0AF909F908F907F906F905F904F900895D9
S1132DF08F929F92AF92BF92CF92DF92EF92FF9207
S1132E000F931F93CF93DF9380E00E947D03813063
S1132E1039F48FEF9FE80197F1F700C00000F4CF79
S1132E2081E080938E0108EE13E0D4E6CAE036EA2E
S1132E30E32E33E0F32E23D96AE771E08BE791E0C8
S1132E400E94F2086C019093790180937801892B98
S1132E5091F39FEFC916D90609F43AC76BE771E0FD
S1132E60C6010E947B088C2D90E0FC013997EC315F
S1132E70F10508F7EA5BFF4F0C948C2B80916F02ED
S1132E80880F8056982F990F990F890F909170028F
S1132E909053890F8093410360917202660F6056CC
S1132EA0962F990F990F690F909173029053690FA0
S1132EB060936C03409172034DD8BDCF25E3A22EDD
S1132EC021E0B22ED12CF5018081811108C0D0926D
S1132ED09C0360917A02262F462F8D2DA1D8F3E012
S1132EE0AF0EB11CD39487E0D812EDCFC8D8A3CFCE
S1132EF080916D0390E0C097C89F9001C99F300DE9
S1132F00112480916E03C82ED12C90E3C91AD108E4
S1132F10C20ED31EB60184E390E00E94B92EC09283
S1132F2073038091700390E0C097C89F9001C99F7C
S1132F30300D112480917103682F70E06053710982
S1132F40620F731F6093740386E390E00E94B92EAE
S1132F5072CF8091DE0490E0C097C89F9001C99F12
S1132F60300D11248091DF04C82ED12CE0E3CE1A59
S1132F70D108C20ED31EB60180E390E00E94B92EA0
S1132F80C0929A038091E10490E0C097C89F900199
S1132F90C99F300D11248091E204C82ED12CF0E396
S1132FA0CF1AD108C20ED31EB60182E390E00E946C
S1132FB0B92EC0929B033FCF8FE9C82E83E0D82E51
S1132FC098E3A92E90E0B92EF60161916F01C50135
S1132FD00E94A72EFFEFAF1ABF0AEC14FD04A1F75D
S1132FE02ACF2091300130E020533109209FA001E5
S1132FF0219F500D309F500D112490913301892F42
S113300090E0C097840F951F2091310130E0205348
S11330103109D29F6001D39FD00C11248C0D9D1DCA
S11330204091320150E040535109C49F9001C59F23
S1133030300D11246C01C20ED31E88E0C81687E03F
S1133040D80640F480E40E94C50287E893E00E9419
S11330504D03F1CEB60181E490E00E94B92ED092E6
S11330607C03C0927B031092AC011092AD011092CC
S1133070AE011092AF01DFCE20912B0130E020533E
S11330803109209FA001219F500D309F500D112424
S113309090912E01892F90E0C097840F951F209165
S11330A02C0130E020533109D29F6001D39FD00C12
S11330B011248C0D9D1D20912D0130E020533109E8
S11330C0C29FA001C39F500D11246C01C40ED51ED4
S11330D0B6018FE390E00E94B92ED0929E03C09275
S11330E09D031092B0011092B1011092B20110929E
S11330F0B301A1CE80913B0390E0C097C89F90019B
S1133100C99F300D112480913C03C82ED12C90E32B
S1133110C91AD108C20ED31EB6018AE290E00E94F9
S1133120B92ED0927603C092750385CE8091E304C4
S113313090E0C097C89F9001C99F300D11248091E1
S1133140E404C82ED12CE0E3CE1AD108C20ED31E5B
S1133150B60184E290E00E94B92ED0926A02C09235
S1133160690269CEE6E1F1E080E090E021912E323F
S113317009F4982F8F5F8530C9F7913041F5A091FC
S11331801601B0E0D0978091180190E0C097D89FC5
S11331904001D99F900C1124092C000CAA08BB08EB
S11331A028EE33E00E94A42B860E971EA81EB91E9B
S11331B080911A0190E0C097092E000CAA0BBB0B5A
S11331C0880E991EAA1EBB1E209119013EC0923082
S11331D009F04CC0A0911601B0E0D097809117017E
S11331E090E0C097809F4001819F900C909F900C2D
S11331F01124092C000CAA08BB0820E137E20E9424
S1133200A42B860E971EA81EB91E80911B0190E068
S1133210C097092E000CAA0BBB0B880D991DAA1D83
S1133220BB1D2091190130E020533109D29F400188
S1133230D39F900C1124092C000CAA08BB08880EFB
S1133240991EAA1EBB1E20911A0130E02053310999
S1133250C29FC001C39F900D1124092E000CAA0B1C
S1133260BB0B880E991EAA1EBB1E03C0812C912C79
S11332705401B501A40188E190E00E94B42E80922B
S1133280000390920103A0920203B0920303D3CDF2
S1133290ECE0F3E080E090E021912E3209F4982FE5
S11332A08F5F8530C9F7913041F5A0910C03B0E0F0
S11332B0D09780910E0390E0C097D89F4001D99F8A
S11332C0900C1124092C000CAA08BB0828EE33E04A
S11332D00E94A42B860E971EA81EB91E809110036F
S11332E090E0C097092E000CAA0BBB0B880E991E08
S11332F0AA1EBB1E20910F033EC0923009F04CC0A1
S1133300A0910C03B0E0D09780910D0390E0C0979A
S1133310809F4001819F900C909F900C1124092C58
S1133320000CAA08BB0820E137E20E94A42B860EF9
S1133330971EA81EB91E8091110390E0C097092E14
S1133340000CAA0BBB0B880D991DAA1DBB1D209157
S11333500F0330E020533109D29F4001D39F900CDA
S11333601124092C000CAA08BB08880E991EAA1E59
S1133370BB1E2091100330E020533109C29FC001CD
S1133380C39F900D1124092E000CAA0BBB0B880EB1
S1133390991EAA1EBB1E03C0812C912C5401B50199
S11333A0A4018CE090E00E94B42E80927D03909260
S11333B07E03A0927F03B09280033DCDE1E0F1E073
S11333C080E090E021912E3209F4982F8F5F8530B0
S11333D0C9F7913041F5A0910101B0E0D0978091F7
S11333E0030190E0C097D89F4001D99F900C11240D
S11333F0092C000CAA08BB0828EE33E00E94A42B79
S1133400860E971EA81EB91E8091050190E0C097F4
S1133410092E000CAA0BBB0B880E991EAA1EBB1EFC
S1133420209104013EC0923009F04CC0A0910101EA
S1133430B0E0D0978091020190E0C097809F400156
S1133440819F900C909F900C1124092C000CAA08C9
S1133450BB0820E137E20E94A42B860E971EA81E0B
S1133460B91E8091060190E0C097092E000CAA0BAA
S1133470BB0B880D991DAA1DBB1D2091040130E0D2
S113348020533109D29F4001D39F900C1124092C61
S1133490000CAA08BB08880E991EAA1EBB1E209108
S11334A0050130E020533109C29FC001C39F900D34
S11334B01124092E000CAA0BBB0B880E991EAA1E00
S11334C0BB1E03C0812C912C5401B501A40180E0E2
S11334D090E00E94B42E80928E0390928F03A0926B
S11334E09003B0929103A7CC80913D0390E0C097E4
S11334F0C89F9001C99F300D112480913E03C82EAE
S1133500D12CF0E3CF1AD108C20ED31EB6018CE23F
S113351090E00E94B92ED0927803C09277038BCCAE
S11335208091E50490E0C097C89F9001C99F300D39
S113353011248091E604C82ED12C80E3C81AD10846
S1133540C20ED31EB60186E290E00E94B92ED0923C
S11335506C02C0926B026FCCEDE1F1E080E090E090
S113356021912E3209F4982F8F5F8530C9F791305D
S113357041F5A0911D01B0E0D09780911F0190E02A
S1133580C097D89F4001D99F900C1124092C000C9E
S1133590AA08BB0828EE33E00E94A42B860E971ECF
S11335A0A81EB91E8091210190E0C097092E000C3D
S11335B0AA0BBB0B880E991EAA1EBB1E20912001CC
S11335C03EC0923009F04CC0A0911D01B0E0D097EC
S11335D080911E0190E0C097809F4001819F900CD4
S11335E0909F900C1124092C000CAA08BB0820E120
S11335F037E20E94A42B860E971EA81EB91E809146
S1133600220190E0C097092E000CAA0BBB0B880D79
S1133610991DAA1DBB1D2091200130E020533109C2
S1133620D29F4001D39F900C1124092C000CAA08AE
S1133630BB08880E991EAA1EBB1E2091210130E0F2
S113364020533109C29FC001C39F900D1124092E3C
S1133650000CAA0BBB0B880E991EAA1EBB1E03C02E
S1133660812C912C5401B501A4018CE190E00E94BD
S1133670B42E8092040390920503A0920603B092A4
S11336800703D9CBE1E1F3E080E090E021912E3211
S113369009F4982F8F5F8530C9F7913041F5A091D7
S11336A01103B0E0D0978091130390E0C097D89FA6
S11336B04001D99F900C1124092C000CAA08BB08C6
S11336C028EE33E00E94A42B860E971EA81EB91E76
S11336D08091150390E0C097092E000CAA0BBB0B38
S11336E0880E991EAA1EBB1E209114033EC0923060
S11336F009F04CC0A0911103B0E0D097809112035F
S113370090E0C097809F4001819F900C909F900C07
S11337101124092C000CAA08BB0820E137E20E94FE
S1133720A42B860E971EA81EB91E8091160390E046
S1133730C097092E000CAA0BBB0B880D991DAA1D5E
S1133740BB1D2091140330E020533109D29F400166
S1133750D39F900C1124092C000CAA08BB08880ED6
S1133760991EAA1EBB1E2091150330E02053310977
S1133770C29FC001C39F900D1124092E000CAA0BF7
S1133780BB0B880E991EAA1EBB1E03C0812C912C54
S11337905401B501A40180E190E00E94B42E80920E
S11337A0810390928203A0928303B092840343CB5B
S11337B0E8E0F1E080E090E021912E3209F4982FC6
S11337C08F5F8530C9F7913041F5A0910801B0E0D1
S11337D0D09780910A0190E0C097D89F4001D99F6B
S11337E0900C1124092C000CAA08BB0828EE33E025
S11337F00E94A42B860E971EA81EB91E80910C0150
S113380090E0C097092E000CAA0BBB0B880E991EE2
S1133810AA1EBB1E20910B013EC0923009F04CC081
S1133820A0910801B0E0D0978091090190E0C09781
S1133830809F4001819F900C909F900C1124092C33
S1133840000CAA08BB0820E137E20E94A42B860ED4
S1133850971EA81EB91E80910D0190E0C097092EF5
S1133860000CAA0BBB0B880D991DAA1DBB1D209132
S11338700B0130E020533109D29F4001D39F900CBB
S11338801124092C000CAA08BB08880E991EAA1E34
S1133890BB1E20910C0130E020533109C29FC001AE
S11338A0C39F900D1124092E000CAA0BBB0B880E8C
S11338B0991EAA1EBB1E03C0812C912C5401B50174
S11338C0A40184E090E00E94B42E8092920390922E
S11338D09303A0929403B0929503ADCA80913F03E1
S11338E090E0C097C89F9001C99F300D112480912A
S11338F04003C82ED12C90E3C91AD108C20ED31E9E
S1133900B6018EE290E00E94B92ED0927A03C09262
S1133910790391CA8091E70490E0C097C89F900111
S1133920C99F300D11248091E804C82ED12CE0E306
S1133930CE1AD108C20ED31EB60188E290E00E94CE
S1133940B92ED0926E02C0926D0275CAE4E2F1E023
S113395080E090E021912E3209F4982F8F5F85301A
S1133960C9F7913041F5A0912401B0E0D09780913E
S1133970260190E0C097D89F4001D99F900C112454
S1133980092C000CAA08BB0828EE33E00E94A42BE3
S1133990860E971EA81EB91E8091280190E0C0973C
S11339A0092E000CAA0BBB0B880E991EAA1EBB1E67
S11339B0209127013EC0923009F04CC0A09124010F
S11339C0B0E0D0978091250190E0C097809F40019E
S11339D0819F900C909F900C1124092C000CAA0834
S11339E0BB0820E137E20E94A42B860E971EA81E76
S11339F0B91E8091290190E0C097092E000CAA0BF2
S1133A00BB0B880D991DAA1DBB1D2091270130E019
S1133A1020533109D29F4001D39F900C1124092CCB
S1133A20000CAA08BB08880E991EAA1EBB1E209172
S1133A30280130E020533109C29FC001C39F900D7B
S1133A401124092E000CAA0BBB0B880E991EAA1E6A
S1133A50BB1E03C0812C912C5401B501A40180E24A
S1133A6090E00E94B42E8092080390920903A092E1
S1133A700A03B0920B03DFC9E6E1F3E080E090E0D3
S1133A8021912E3209F4982F8F5F8530C9F7913038
S1133A9041F5A0911603B0E0D0978091180390E00F
S1133AA0C097D89F4001D99F900C1124092C000C79
S1133AB0AA08BB0828EE33E00E94A42B860E971EAA
S1133AC0A81EB91E80911A0390E0C097092E000C1D
S1133AD0AA0BBB0B880E991EAA1EBB1E20911903AC
S1133AE03EC0923009F04CC0A0911603B0E0D097CC
S1133AF08091170390E0C097809F4001819F900CB4
S1133B00909F900C1124092C000CAA08BB0820E1FA
S1133B1037E20E94A42B860E971EA81EB91E809120
S1133B201B0390E0C097092E000CAA0BBB0B880D59
S1133B30991DAA1DBB1D2091190330E020533109A2
S1133B40D29F4001D39F900C1124092C000CAA0889
S1133B50BB08880E991EAA1EBB1E20911A0330E0D2
S1133B6020533109C29FC001C39F900D1124092E17
S1133B70000CAA0BBB0B880E991EAA1EBB1E03C009
S1133B80812C912C5401B501A40184E190E00E94A0
S1133B90B42E8092850390928603A0928703B092FC
S1133BA0880349C9EFE0F1E080E090E021912E32F2
S1133BB009F4982F8F5F8530C9F7913041F5A091B2
S1133BC00F01B0E0D0978091110190E0C097D89F89
S1133BD04001D99F900C1124092C000CAA08BB08A1
S1133BE028EE33E00E94A42B860E971EA81EB91E51
S1133BF08091130190E0C097092E000CAA0BBB0B17
S1133C00880E991EAA1EBB1E209112013EC092303E
S1133C1009F04CC0A0910F01B0E0D0978091100141
S1133C2090E0C097809F4001819F900C909F900CE2
S1133C301124092C000CAA08BB0820E137E20E94D9
S1133C40A42B860E971EA81EB91E8091140190E025
S1133C50C097092E000CAA0BBB0B880D991DAA1D39
S1133C60BB1D2091120130E020533109D29F400145
S1133C70D39F900C1124092C000CAA08BB08880EB1
S1133C80991EAA1EBB1E2091130130E02053310956
S1133C90C29FC001C39F900D1124092E000CAA0BD2
S1133CA0BB0B880E991EAA1EBB1E03C0812C912C2F
S1133CB05401B501A40188E090E00E94B42E8092E2
S1133CC0960390929703A0929803B0929903B3C875
S1133CD010928E0181E08093B4011092B501DF91BE
S1133CE0CF911F910F91FF90EF90DF90CF90BF90F5
S1133CF0AF909F908F900895E0919C03F0E0E1567F
S1133D00FC4F908180914103903309F056C020917B
S1133D10730390919A0340915801281758F4891716
S1133D2048F410924D014E3479F434E43093580140
S1133D3031E008C031E030934D01443429F44EE4BD
S1133D40409358013093B40128131BC0409174036D
S1133D5020916C0330915801241748F010924D01C2
S1133D603E3479F424E42093580121E008C021E092
S1133D7020934D01343429F43EE4309358012093C8
S1133D80B401891322C030919B0320916C0390915C
S1133D905801231738F021E020934D019434A9F4FD
S1133DA09EE405C010924D019E3479F494E49093FE
S1133DB0580191E09093B40108C0913331F491E03B
S1133DC090934D0190915801E9CF873101F580918D
S1133DD06C038B33E1F4809172038B33C1F4109242
S1133DE092011092930110929401109295011092F5
S1133DF096011092970110929801109299011092D5
S1133E009A0110929B0110929C0110929D010895B9
S1133E104AE752E0BA01CA010E94760F811113C029
S1133E2042E753E06CE673E081E493E00E94760F8E
S1133E302AE732E0A901B9018CE993E00E94D00F8E
S1133E4010928F0105C080918F018F5F80938F0145
S1133E5080918F018B3050F00E94590F81E0809344
S1133E60A40192E5909354018093B4010895CF92F4
S1133E70DF92EF92FF920F931F93633030F4E62F9B
S1133E80F0E0EB58FE4F408101C040E0FC010081AE
S1133E901181228133818091AC019091AD01A09177
S1133EA0AE01B091AF0180179107A207B30738F5AF
S1133EB028B381E090E001C0880F4A95EAF7822B8D
S1133EC088BBC69880915101813331F480E380939B
S1133ED0510181E08093B401E62FF0E0DF01A55A9F
S1133EE0BE4F1C9281E080935E01E25BFE4F9081A5
S1133EF09033C1F591E390838093B40133C00817E4
S1133F0019072A073B0770F5E62FF0E0DF01A55AF1
S1133F10BE4F8C91811126C021E02093A701C0904F
S1133F20A801D090A901E090AA01F090AB0188EE1D
S1133F30C81683E0D806E104F104A0F038B381E0A8
S1133F4090E001C0880F4A95EAF78095832388BBE7
S1133F502C93E25BFE4F8081813321F480E38083E4
S1133F602093B40180915B01813091F480915C01D4
S1133F70813071F480915D01813051F4C69A909141
S1133F805101903329F491E3909351018093B4014A
S1133F908091A701811120C090915B018091520111
S1133FA0913089F490915C01913069F490915D01B4
S1133FB0913049F49498813379F480E380935201E9
S1133FC09093B40109C0949A803331F481E38093CF
S1133FD0520181E08093B4011F910F91FF90EF9003
S1133FE0DF90CF9008952F923F924F925F926F92FD
S1133FF07F928F929F92AF92BF92CF92DF92EF9275
S1134000FF920F931F93CF93DF93CDB7DEB7A097A3
S11340100FB6F894DEBF0FBECDBF2BE831E03A8770
S1134020298798EB292E91E0392E40E053E0588FF0
S11340304F8B62E971E0788B6F878DE793E09C8BFF
S11340408B8BAEE8B3E0BA8BA98BEEE9F1E0F8878D
S1134050EF8325E733E03E872D8742E453E05E8318
S11340604D8369E672E07C876B8782E991E09E8BE1
S11340708D8B10E028EE422E23E0522E612C712C01
S113408004E680914D01811103C0AD85BE8502C057
S1134090AB85BC858D919C9128EE33E0829FF00125
S11340A0839FF00D929FF00D1124AD81BE818D91FF
S11340B09C919F01281B390B3E8F2D8FAF89B88DA2
S11340C04D915D916D917D91B88FAF8B498F5A8FD2
S11340D06B8F7C8FED89FE89C190D190E190F19036
S11340E0FE8BED8BAB89BC896D917D918D919D91FA
S11340F0BC8BAB8BED8DFE8D4F01FF0FAA08BB0867
S1134100A50194010E941F2BC60ED71EE81EF91E9E
S1134110A989BA892D913D914D915D91BA8BA98B55
S1134120EF81F885808191816D8D7E8D71836083AF
S1134130AF85B889CD92DD92ED92FD92B88BAF87B1
S11341406091A40161116DC0F10160816A3008F0D1
S11341506AC0AD8DBE8DA81BB90B0E94B42B6D8FA8
S11341607E8F8F8F98A3298D3A8D4B8D5C8DC501E1
S1134170B4010E941F2BDC01CB018C0D9D1DAE1DD3
S1134180BF1D2D8D3E8D4F8D58A1280F391F4A1FFD
S11341905B1FCA01B901A30192010E94702B69013E
S11341A07A0131EAC31636E8D30631E0E306F104B6
S11341B034F4F7FE0BC0C12CD12C760107C080EA81
S11341C0C82E86E8D82EEE24E394F12CC701B6015C
S11341D020EA36E841E050E00E94702BB22E20E144
S11341E037E240E050E00E94702BA22EA30192011E
S11341F00E94702B4AE0A49E200D11240B9D200DDB
S11342001124A985BA852C93A0917B03B0917C03DA
S1134210A70196010E94AA2BA30192010E944E2B92
S113422037C0613021F0F10180818A30C8F12091DA
S11342305A0130E0A8EEB3E00E94952B6B017C019B
S113424020EA36E841E050E00E94702BB22E20E1D3
S113425037E240E050E00E94702BA22EA3019201AD
S11342600E94702BFAE0AF9E200D11240B9D200DAF
S11342701124A985BA852C93A0917B03B0917C036A
S1134280A70196010E94AA2BA30192010E94702B00
S113429029833A834B835C83612FCE010196E7DD4A
S11342A0E985FA853196FA87E9871F5FFFEF2F1AB0
S11342B03F0A2F8138852E5F3F4F38872F834D85E6
S11342C05E854E5F5F4F5E874D876D817E816E5F39
S11342D07F4F7E836D838B859C8502969C878B871D
S11342E0133009F0CECEA0960FB6F894DEBF0FBE01
S11342F0CDBFDF91CF911F910F91FF90EF90DF9091
S1134300CF90BF90AF909F908F907F906F905F9071
S11343104F903F902F900895CF93DF93C3EED3E057
S1134320D093BC01C093BB01A2E6B1E08091BB0174
S11343309091BC01FC01019625912D939093BC01B1
S11343408093BB01F1E0A936BF0781F762E671E013
S113435080E090E00E94C50D279683E0C83FD8070F
S1134360F9F6DF91CF9108950F931F9320919D0348
S113437030919E03A4E6B0E00E94952B0091B00119
S11343801091B1012091B2013091B301601771070E
S11343908207930719F58EEC93E09093BC01809308
S11343A0BB01A2E6B1E08091BB019091BC01FC018C
S11343B0019625912D939093BC018093BB01F1E06C
S11343C0A936BF0781F762E671E080E090E00E94C1
S11343D0C50D8091B8018F5F8093B80120919D0332
S11343E030919E03A4E6B0E00E94952BDC01CB0142
S11343F04496A11DB11D0091B0011091B10120910D
S1134400B2013091B30180179107A207B30721F5D8
S113441085ED93E09093BC018093BB01A2E6B1E0EB
S113442029E631E08091BB019091BC01FC01019629
S113443045914D939093BC018093BB012A173B0790
S113444089F762E671E080E090E00E94C50D8091FA
S1134450B9018F5F8093B90120919D0330919E0330
S1134460A4E6B0E00E94952BDC01CB018896A11D47
S1134470B11D0091B0011091B1012091B2013091B0
S1134480B30180179107A207B30721F58CED93E0E0
S11344909093BC018093BB01A2E6B1E029E631E030
S11344A08091BB019091BC01FC01019645914D9313
S11344B09093BC018093BB012A173B0789F762E6FE
S11344C071E080E090E00E94C50D8091BA018F5F99
S11344D08093BA0162E671E080E090E00E94230ECE
S11344E0813009F0C4C0E0916201F0E0EE59FE4F62
S11344F01082809167018233E9F51092B8014091EE
S1134500690140937B0220916A0120937C028EE230
S113451080937D0280916B0180937E0210927F02D2
S113452050E040535109E0E1F7E24E9FB0014F9F44
S1134530700D5E9F700D112430E020533109E8EEB8
S1134540F3E02E9FA0012F9F500D3E9F500D11248C
S1134550460F571F90E0C09764E6689F9001699FDB
S1134560300D1124CA01820F931F9093430380934B
S113457042037DC08333E9F51092B901409169018A
S11345804093890320916A0120938A038EE28093E9
S11345908B0380916B0180938C0310928D0350E008
S11345A040535109E0E1F7E24E9FB0014F9F700D77
S11345B05E9F700D112430E020533109E8EEF3E0E2
S11345C02E9FA0012F9F500D3E9F500D1124460F8A
S11345D0571F90E0C09764E6689F9001699F300D73
S11345E01124CA01820F931F9093450380934403BF
S11345F03EC08433E1F51092BA01409169014093C1
S1134600740220916A01209375028EE280937602EF
S113461080916B01809377021092780250E04053AE
S11346205109E0E1F7E24E9FB0014F9F700D5E9F8C
S1134630700D112430E020533109E8EEF3E02E9F91
S1134640A0012F9F500D3E9F500D1124460F571F60
S113465090E0C09764E6689F9001699F300D112433
S1134660CA01820F931F90934703809346032091BE
S11346709D0330919E03A4E6B0E00E94952BDC01DB
S1134680CB01805B9F4FAF4FBF4F0091B0011091A2
S1134690B1012091B2013091B30180179107A207B3
S11346A0B30709F04BC09FDC1092B0011092B10126
S11346B01092B2011092B3018091B8018B3088F04E
S11346C084E480937B029DE490937C0297E490932E
S11346D07D0280937E028CED9FEF90934303809341
S11346E042038091B9018B3088F084E4809389037C
S11346F09DE490938A0397E490938B0380938C03B7
S11347008CED9FEF90934503809344038091BA010D
S11347108B3088F084E4809374029DE49093750256
S113472097E490937602809377028CED9FEF9093B9
S113473047038093460381E08093B4011F910F9156
S1134740089580E00E947D038130B1F40E94F81640
S113475013C0F8942091A5013091A6012F5F3F4F1B
S11347603093A6012093A501283B3B4058F486E6EC
S11347709EE00197F1F7000083E00E947D03813001
S113478041F315C09091A401911108C08093A40134
S113479092E5909354018093B40109C0913039F7A4
S11347A01092A40181E4809354019093B40178940D
S11347B01092A6011092A50182E00E947D0381302F
S11347C039F582E00E947D03813039F48FEF9FE850
S11347D00197F1F700C00000F4CF80915A018436AC
S11347E018F48B5F80935A0180915A0164E636D79E
S11347F020E3280F20935501892F6AE02FD7805D8D
S113480080935601905D9093570181E08093B401A9
S113481081E00E947D03813039F581E00E947D03AF
S1134820813039F48FEF9FE80197F1F700C0000061
S1134830F4CF80915A01882319F0855080935A014E
S113484080915A0164E60AD720E3280F209355018A
S1134850892F6AE003D7805D80935601905D909321
S1134860570181E08093B40108958091B60190913D
S1134870B7019C0121503109283C310510F52091E4
S113488061012330F1F480E00E94C50283E893E0E3
S11348900E944D0380E40E94C5028FE793E00E94CA
S11348A04D0383E00E94C5028BE792E00E94390326
S11348B083E40E94C50289E893E00E94390381E001
S11348C04DC09C01295C3109283C310518F58091C3
S11348D06101813009F044C080E00E94C5028BE789
S11348E093E00E944D0380E40E94C50287E793E0B1
S11348F00E944D0383E00E94C50289E893E00E9470
S1134900390383E40E94C50284E792E00E943903DC
S113491082E024C08139914018F180916101823094
S1134920F9F480E00E94C50283E793E00E944D03FE
S113493080E40E94C5028FE693E00E944D0383E069
S11349400E94C50284E792E00E94390383E40E9436
S1134950C5028BE792E00E94390383E080936101F2
S11349608091B50181110AC089E00E94C5028CE6DC
S113497093E00E944D0381E08093B5018091B401DE
S1134980813081F48BE00E94C5028EE491E00E94A4
S1134990390389E40E94C50284E591E00E94390349
S11349A01092B401089583B7876083BF8FE682BFF6
S11349B087B7816087BF789408951F920F920FB6CE
S11349C00F9211240BB60F920F931F932F933F93C3
S11349D04F935F936F937F938F939F93AF93BF9303
S11349E0EF93FF938FE682BF20917B0330917C038A
S11349F0A4E6B0E09AD60091AC011091AD012091EB
S1134A00AE013091AF01061717072807390740F0A8
S1134A101092AC011092AD011092AE011092AF0150
S1134A204091A7014130E1F520915F01309160018F
S1134A30A4E6B0E07AD60091A8011091A9012091D2
S1134A40AA013091AB010617170728073907F0F4BC
S1134A50949880915201813329F480E38093520128
S1134A604093B4018091A8019091A901A091AA0159
S1134A70B091AB010196A11DB11D8093A801909343
S1134A80A901A093AA01B093AB010AC01092A80196
S1134A901092A9011092AA011092AB011092A701E1
S1134AA080919001909191018536910530F40196A1
S1134AB0909391018093900104C0109291011092FF
S1134AC090018091B0019091B101A091B201B09197
S1134AD0B3018D3D21E492072FE0A207B10560F4F4
S1134AE00196A11DB11D8093B0019093B101A093D3
S1134AF0B201B093B30108C01092B0011092B10199
S1134B001092B2011092B3018091AC019091AD0169
S1134B10A091AE01B091AF018D3D21E492072FE049
S1134B20A207B10560F40196A11DB11D8093AC01EB
S1134B309093AD01A093AE01B093AF0108C0109261
S1134B40AC011092AD011092AE011092AF018091B0
S1134B50B6019091B701883522E0920730F40196AE
S1134B609093B7018093B60104C01092B7011092DC
S1134B70B601FADBFF91EF91BF91AF919F918F91B5
S1134B807F916F915F914F913F912F911F910F9161
S1134B900F900BBE0F900FBE0F901F9018952FEF24
S1134BA08FEF9CE2215080409040E1F700C000006C
S1134BB00E94F4020E94590F40E855E260E070E060
S1134BC080E090E00E94030D87B3806F87BB8C9ACE
S1134BD066E080E00E940604E12C00E010E023E699
S1134BE033E047E060E080E00E94BA032AE533E066
S1134BF04AE060E081E00E94BA0321E533E04DE041
S1134C0060E082E00E94BA0327E333E041E060E021
S1134C1083E00E94BA032CE233E045E060E084E0E4
S1134C200E94BA0323E133E046E060E085E00E949D
S1134C30BA0363E081E00E94060428EF32E042E018
S1134C4060E086E00E94BA0327EE32E043E060E0D1
S1134C5087E00E94BA0322ED32E044E060E088E09D
S1134C600E94BA0362E082E00E94060485E0E82E16
S1134C700FE612E02CEC32E040E061E089E00E94B3
S1134C80BA0393E0E92E05E311E020EC32E040E0C2
S1134C9067E08AE00E94BA0362E083E00E940604AF
S1134CA025E0E22E0DE613E020EB32E040E061E087
S1134CB08BE00E94BA030EED14E021EA32E040E0FA
S1134CC061E08CE00E94BA0361E084E00E94060483
S1134CD037E0E32E0FE913E023E932E040E065E03A
S1134CE08DE00E94BA0361E085E00E94060444E07E
S1134CF0E42E00E311E026E832E040E061E08EE0DB
S1134D000E94BA0361E086E00E9406040BE211E00F
S1134D1028E732E040E061E08FE00E94BA0362E0FD
S1134D2087E00E940604E12C00E010E02AE532E06E
S1134D3048E060E080E10E94BA032DE332E049E0FC
S1134D4060E081E10E94BA0362E088E00E94060408
S1134D5052E0E52E0BE313E02CE232E040E061E0A8
S1134D6082E10E94BA0303EE14E02BE132E040E05A
S1134D7061E083E10E94BA0363E089E00E940604D3
S1134D8066E0E62E06E111E028E132E040E061E071
S1134D9084E10E94BA0375E0E72E0CE013E025E1FC
S1134DA032E040E061E085E10E94BA03E6E0EE2EE5
S1134DB001E011E022E132E040E061E086E10E949E
S1134DC0BA0362E08AE00E940604E12C00E010E0ED
S1134DD024EF31E04BE060E087E10E94BA0327ED65
S1134DE031E04CE060E088E10E94BA0362E08BE0CD
S1134DF00E940604F2E0EF2E0DE313E026EC31E00E
S1134E0040E061E089E10E94BA0305EE14E025EB7D
S1134E1031E040E061E08AE10E94BA0363E08CE0A3
S1134E200E940604A6E0EA2E0DE111E022EB31E037
S1134E3040E061E08BE10E94BA03B5E0EB2E01E1B2
S1134E4013E02FEA31E040E061E08CE10E94BA0314
S1134E5016E0E12E08E011E02CEA31E040E061E0E8
S1134E608DE10E94BA0362E08DE00E940604E12C09
S1134E7000E010E02EE831E04EE060E08EE10E94B8
S1134E80BA0321E731E04FE060E08FE10E94BA030A
S1134E9062E08EE00E94060402E0E02E0FE313E0DD
S1134EA020E631E040E061E080E20E94BA0307EED0
S1134EB014E02FE431E040E061E081E20E94BA03B3
S1134EC063E08FE00E94060486E0E82E04E211E02D
S1134ED02CE431E040E061E082E20E94BA0395E014
S1134EE0E92E06E113E029E431E040E061E083E2E9
S1134EF00E94BA0326E0E22E0FE011E026E431E03E
S1134F0040E061E084E20E94BA0306DA0E944D1692
S1134F104ADD20919D0330919E0344E6429FC001E7
S1134F20439F900D11240597A0E0B0E08093B00159
S1134F309093B101A093B201B093B30115DA0E942A
S1134F403F1093DC0E94081F0E947C1EFADBF9CFFD
S1134F505058BB27AA270ED048C139D130F03ED1D2
S1134F6020F031F49F3F11F41EF42EC10EF4E095AD
S1134F70E7FB24C1E92F4AD180F3BA17620773070C
S1134F808407950718F071F49EF562C10EF4E0955C
S1134F900B2EBA2FA02D0B01B90190010C01CA01EF
S1134FA0A0011124FF27591B99F0593F50F4503E9A
S1134FB068F11A16F040A22F232F342F4427585F8C
S1134FC0F3CF469537952795A795F0405395C9F7A4
S1134FD07EF41F16BA0B620B730B840BBAF091505C
S1134FE0A1F0FF0FBB1F661F771F881FC2F70EC0FB
S1134FF0BA0F621F731F841F48F4879577956795CE
S1135000B795F7959E3F08F0B3CF9395880F08F0B6
S11350109927EE0F9795879508950CD0E6C0DED0BA
S113502040F0D5D030F021F45F3F19F0C7C05111E2
S113503010C1CAC0EBD098F39923C9F35523B1F337
S1135040951B550BBB27AA2762177307840738F0F3
S11350509F5F5F4F220F331F441FAA1FA9F333D052
S11350600E2E3AF0E0E830D091505040E695001C06
S1135070CAF729D0FE2F27D0660F771F881FBB1FC2
S1135080261737074807AB07B0E809F0BB0B802D9C
S1135090BF01FF2793585F4F2AF09E3F510568F0E8
S11350A08DC0D7C05F3FECF3983EDCF386957795CF
S11350B06795B795F7959F5FC9F7880F911D9695EA
S11350C0879597F90895E1E0660F771F881FBB1F46
S11350D0621773078407BA0720F0621B730B840BF3
S11350E0BA0BEE1F88F7E095089598D088F09F5783
S11350F090F0B92F9927B751A0F0D1F0660F771F20
S1135100881F991F1AF0BA95C9F712C0B13081F0FF
S11351109FD0B1E008959CC0672F782F8827B85F8F
S113512039F0B93FCCF3869577956795B395D9F760
S11351303EF490958095709561957F4F8F4F9F4F6A
S11351400895E89409C097FB3EF490958095709576
S113515061957F4F8F4F9F4F9923A9F0F92F96E9BF
S1135160BB279395F695879577956795B795F11134
S1135170F8CFFAF4BB0F11F460FF1BC06F5F7F4FD1
S11351808F4F9F4F16C0882311F096E911C07723E3
S113519021F09EE8872F762F05C0662371F096E8EC
S11351A0862F70E060E02AF09A95660F771F881FBB
S11351B0DAF7880F9695879597F9089597F99F6779
S11351C080E870E060E008959FEF80EC089500248B
S11351D00A941616170618060906089500240A9458
S11351E012161306140605060895092E0394000CDE
S11351F011F4882352F0BB0F40F4BF2B11F460FF6D
S113520004C06F5F7F4F8F4F9F4F089557FD905895
S1135210440F551F59F05F3F71F04795880F97FB76
S1135220991F61F09F3F79F0879508951216130630
S11352301406551FF2CF4695F1DF08C0161617065F
S11352401806991FF1CF8695710561050894089594
S1135250E894BB2766277727CB0197F90895E3D015
S113526008F48FEF08950BD0C0CFB1DF28F0B6DF7C
S113527018F0952309F0A2CFA7CF1124EACFC6DFF7
S1135280A0F3959FD1F3950F50E0551F629FF00155
S1135290729FBB27F00DB11D639FAA27F00DB11DAE
S11352A0AA1F649F6627B00DA11D661F829F222737
S11352B0B00DA11D621F739FB00DA11D621F839FBE
S11352C0A00D611D221F749F3327A00D611D231F94
S11352D0849F600D211D822F762F6A2F11249F57E2
S11352E050408AF0E1F088234AF0EE0FFF1FBB1F05
S11352F0661F771F881F91505040A9F79E3F5105A4
S113530070F05CCFA6CF5F3FECF3983EDCF386955C
S113531077956795B795F795E7959F5FC1F7FE2B4E
S1135320880F911D9695879597F90895FA01EE0FC8
S1135330FF1F30962105310599F16115710561F45E
S11353408038BFE39B0749F168949038810561F088
S11353508038BFEF9B0741F0992342F5FF3FE105F9
S11353603105210511F1E8940894E795D901AA23A0
S113537029F4AB2FBE2FF85FD0F310C0FF5F70F499
S1135380A695E0F7F73950F019F0FF3A38F49F7713
S11353909F930CD00F9007FC905808953EF014CFC3
S11353A060E070E080E89FE308954FE79F775F93A4
S11353B04F933F932F93C2D02F913F914F915F9181
S11353C052DF05C019F40EF0F9CE42CFFDCE26DF30
S11353D0C8F39638C0F707F80F92E8942BE33AEA3B
S11353E048EB5FE74EDF0F920F920F924DB75EB717
S11353F00F92E4D0E4ECF0E03AD04F915F91EF915A
S1135400FF91E595EE1FFF1F49F0FE57E068442722
S1135410EE0F441FFA95E1F74195550B56D00F90C6
S113542007FE4AC00895990F0008550FAA0BE0E83B
S1135430FEEF16161706E807F907C0F01216130652
S1135440E407F50798F0621B730B840B950B39F492
S11354500A2661F0232B242B252B21F408950A26F8
S113546009F4A140A6958FEF811D811D0895DF9356
S1135470CF931F930F93FF92EF92DF927B018C01E6
S1135480689405C0DA2EEF01FADEFE01E894A591D6
S11354902591359145915591AEF3EF016BDDFE01F8
S11354A09701A801DA9479F7DF90EF90FF900F91BC
S11354B01F91CF91DF9108959B01AC0160E070E0F2
S11354C080E89FE3AACD7ACEACC0A8DEE8F39923A6
S11354D0D9F3940F511DBBF39150504094F059F0FF
S11354E0882332F0660F771F881F91505040C1F710
S11354F09E3F510544F7880F911D9695879597F91E
S113550008955F3FACF0983E9CF0BB278695779555
S11355106795B79508F4B1609395C1F7BB0F58F739
S113552011F460FFE8CF6F5F7F4F8F4F9F4FE3CF42
S113553090CE0EF076C048CE689440CE6FDEC8F3AD
S11355409923D1F3C6F3DF93CF931F930F93FF9265
S1135550C92FDD2788232AF02197660F771F881F1C
S1135560DAF720E030E040E85FEB9FE3883920F091
S1135570803E30F021968F77ECDCECEEF0E003C057
S1135580E8DCE9E1F1E073DF8B01BE01EC01FB2E05
S11355906F5771097595771F880B990BD4DD28E136
S11355A032E741E35FE36BDEAF2D9801AE01FF907C
S11355B00F911F91CF91DF91DDDC17CEFA01DC0151
S11355C0AA0FBB1F9B01AC01BF5728F42227332726
S11355D0442750781FC0B75188F4AB2F0024469558
S11355E037952795011CA395D2F3002069F0220F6B
S11355F0331F441FB395DAF30DD0AACC6130710583
S1135600A0E88A07B94630F49B01AC0166277727E6
S113561088279078309621F0208331834283538306
S113562008959F3F31F0915020F4879577956795C1
S1135630B795880F911D9695879597F90895DB0185
S11356408F939F9387D0BF91AF91A29F800D911D9F
S1135650A39F900DB29F900D11240895991B79E09A
S113566004C0991F961708F0961B881F7A95C9F7EE
S113567080950895AA1BBB1B51E107C0AA1FBB1F3D
S1135680A617B70710F0A61BB70B881F991F5A95CA
S1135690A9F780959095BC01CD010895A1E21A2E39
S11356A0AA1BBB1BFD010DC0AA1FBB1FEE1FFF1FC2
S11356B0A217B307E407F50720F0A21BB30BE40B12
S11356C0F50B661F771F881F991F1A9469F7609559
S11356D07095809590959B01AC01BD01CF01089513
S11356E0052E97FB16F400940FD057FD05D0D6DF96
S11356F007FC02D046F408C050954095309521959A
S11357003F4F4F4F5F4F08959095809570956195E9
S11357107F4F8F4F9F4F0895EE0FFF1F0024001CF3
S11357200BBE0790F691E02D0994A29FB001B39FA0
S1135730C001A39F700D811D1124911DB29F700D96
S1135740811D1124911D0895F0DFB7FF0895821B78
S1135750930B0895EADFA59F900DB49F900DA49F2D
S1135760800D911D11240895B7FFF4CFF3DF821B40
S1135770930B08950F931F93CF93DF93CDB7DEB7A9
S11357802E970FB6F894DEBF0FBECDBF0D891E89CC
S113579086E08C831A8309838FEF9FE79E838D8332
S11357A0AE01475E5F4F6F89788DCE01019610D0B0
S11357B0EF81F885E00FF11F10822E960FB6F89452
S11357C0DEBF0FBECDBFDF91CF911F910F91089522
S11357D02F923F924F925F926F927F928F929F92FD
S11357E0AF92BF92CF92DF92EF92FF920F931F93EB
S11357F0CF93DF93CDB7DEB72B970FB6F894DEBF08
S11358000FBECDBF6C017B018A01FC011782168299
S1135810838181FFBFC1CE0101963C01F6019381D2
S1135820F70193FD859193FF81917F01882309F40A
S1135830ADC1853239F493FD859193FF81917F0148
S1135840853221F4B60190E0D6D1E8CF912C212CF9
S1135850312CFFE1F315D8F08B3279F038F4803233
S113586079F08332A1F4232D20611DC08D3261F0C3
S1135870803369F4232D216016C0832D8260382E75
S1135880E32DE4603E2E2AC0F32DF8601DC037FCE2
S11358902DC020ED280F2A3040F08E32B9F436FCAA
S11358A075C1232D2064322E19C036FE06C08AE04D
S11358B0989E200D1124922E11C0EAE02E9E200DF8
S11358C01124222EF32DF0623F2E08C08C3621F4D1
S11358D0832D8068382E02C0883641F4F70193FD89
S11358E0859193FF81917F018111B3CF982F9F7D83
S11358F09554933028F40C5F1F4F9FE399830DC098
S1135900833631F0833771F0833509F055C020C0F8
S1135910F801808189830E5F1F4F88248394912C22
S1135920530112C02801F2E04F0E511CF801A0806F
S1135930B18036FE03C0692D70E002C06FEF7FEFC7
S1135940C5014ED14C018201F32DFF773F2E15C0C6
S1135950280122E0420E511CF801A080B18036FEDD
S113596003C0692D70E002C06FEF7FEFC5012DD138
S11359704C01F32DF0683F2E820133FC19C0822DB7
S113598090E088169906A0F4B60180E290E033D145
S11359902A94F5CFF50137FC859137FE81915F019B
S11359A0B60190E028D121102A9421E0821A9108AE
S11359B08114910479F7E1C0843611F0893639F500
S11359C0F80137FE07C060817181828193810C5F89
S11359D01F4F08C060817181072E000C880B990B42
S11359E00E5F1F4FF32DFF763F2E97FF09C0909552
S11359F08095709561957F4F8F4F9F4FF0683F2E34
S1135A002AE030E0A30133D1882E861844C08537BC
S1135A1031F4232D2F7EB22E2AE030E025C0932DC1
S1135A20997FB92E8F36C1F018F4883579F0AEC05D
S1135A30803719F0883721F0A9C0E92FE061BE2E24
S1135A40B4FE0DC0FB2DF460BF2E09C034FE0AC0A5
S1135A50292F2660B22E06C028E030E005C020E1E0
S1135A6030E002C020E132E0F801B7FE07C06081F7
S1135A707181828193810C5F1F4F06C060817181A7
S1135A8080E090E00E5F1F4FA301F1D0882E8618AE
S1135A90FB2DFF773F2E36FE0DC0232D2E7FA22E29
S1135AA0891458F434FE0BC032FC09C0832D8E7E59
S1135AB0A82E05C0B82CA32C03C0B82C01C0B92C47
S1135AC0A4FE0FC0FE01E80DF11D8081803321F496
S1135AD09A2D997EA92E09C0A2FE06C0B394B39450
S1135AE004C08A2D867809F0B394A3FC10C0A0FEEC
S1135AF006C0B21480F4280C922C9B180DC0B2146A
S1135B0058F4B60180E290E076D0B394F8CFB214A2
S1135B1018F42B1802C0982C212CA4FE0FC0B60137
S1135B2080E390E068D0A2FE16C0A1FC03C088E721
S1135B3090E002C088E590E0B6010CC08A2D86781A
S1135B4051F0A1FE02C08BE201C080E2A7FC8DE20D
S1135B50B60190E050D0891430F4B60180E390E0AF
S1135B604AD09A94F8CF8A94F301E80DF11D80810C
S1135B70B60190E040D08110F6CF222009F44ECE39
S1135B80B60180E290E037D02A94F7CFF6018681FF
S1135B90978102C08FEF9FEF2B960FB6F894DEBF6C
S1135BA00FBECDBFDF91CF911F910F91FF90EF906A
S1135BB0DF90CF90BF90AF909F908F907F906F9029
S1135BC05F904F903F902F900895FC010590615095
S1135BD070400110D8F7809590958E0F9F1F0895FF
S1135BE0FC016150704001900110D8F780959095A8
S1135BF08E0F9F1F08950F931F93CF93DF93FB0185
S1135C00238121FD03C08FEF9FEF2CC022FF16C01C
S1135C1046815781248135814217530744F4A0817A
S1135C20B1819D012F5F3F4F318320838C93268167
S1135C3037812F5F3F4F3783268314C08B01EC01DC
S1135C40FB010084F185E02D0995892BE1F6D8014B
S1135C5016968D919C911797019617969C938E9307
S1135C601697CE01DF91CF911F910F910895FA01FC
S1135C70AA27283051F1203181F1E8946F936E7F87
S1135C806E5F7F4F8F4F9F4FAF4FB1E03ED0B4E078
S1135C903CD0670F781F891F9A1FA11D680F791FB9
S1135CA08A1F911DA11D6A0F711D811D911DA11DCA
S1135CB020D009F468943F912AE0269F11243019DA
S1135CC0305D3193DEF6CF010895462F4770405D75
S1135CD04193B3E00FD0C9F7F6CF462F4F70405D24
S1135CE04A3318F0495D31FD4052419302D0A9F77F
