S00E0000626F696C65722E7372656399
S113000086C20000A3C20000A1C200009FC200007B
S11300109DC200009BC2000099C2000097C200006C
S113002095C2000093C2000091C200008FC200007C
S11300308DC200008BC2000089C2000087C200008C
S11300400C94E82483C200000C94770C7FC2000057
S11300500C94CF0C7BC2000079C2000077C2000070
S113006075C2000073C2000071C200006FC20000BC
S11300706DC200006BC2000069C2000067C20000CC
S113008065C2000063C2000061C20000491769171D
S11300908317B417E717FC17471826172617851870
S11300A0A118BD185319E919261726177F1A9B1A88
S11300B0B71A4D1BE31B26172617791C951CB11C78
S11300C0471DDD1D07634236B79BD8A71A3968560A
S11300D018AEBAAB558C1D3CB7CC5763BD6DEDFD66
S11300E0753EF6177231BF000000803F0800000023
S11300F0BE922449123EABAAAA2ABECDCCCC4C3E19
S113010000000080BEABAAAAAA3E00000000BF0007
S11301100000803F0000000000084178D3BB438703
S1130120D1133D190E3CC3BD4282AD2B3E68EC8217
S113013076BED98FE1A93E4C80EFFFBE01C4FF7F9C
S11301403F0000000000CAE400CAE800CAEF00D281
S1130150E5ECEFE5F0E0F2F3F0E020EDEEF7FC0083
S1130160D2E5ECEFE5F0E0F2F3F0E020E4E5EDFCBD
S113017000C8E7ECE5ED2E20EDE0F1F2F0EEE5EA63
S11301802F6E20F0E5E3F3EBFFF2EEF0E000C8E7BA
S1130190ECE5ED2E20EDE0F1F2F0EEE5EA2F6E2035
S11301A0F2E5ECEFE5F0E0F2F3F0FB00CAE400CA9C
S11301B0E800CAEF00D2E5ECEFE5F0E0F2F3F0E09E
S11301C020EDEEF7FC00D2E5ECEFE5F0E0F2F3F021
S11301D0E020E4E5EDFC00C8E7ECE5ED2E20EDE0E1
S11301E0F1F2F0EEE5EA2F6E20F0E5E3F3EBFFF237
S11301F0EEF0E000C8E7ECE5ED2E20EDE0F1F2F0E2
S1130200EEE5EA2F6E20F2E5ECEFE5F0E0F2F3F034
S1130210FB00CAE400CAE800CAEF00D2E5ECEFE54F
S1130220F0E0F2F3F0E020EDEEF7FC00D2E5ECEFC5
S1130230E5F0E0F2F3F0E020E4E5EDFC00C8E7ECE3
S1130240E5ED2E20EDE0F1F2F0EEE5EA2F6E20F080
S1130250E5E3F3EBFFF2EEF0E000C8E7ECE5ED2EAA
S113026020EDE0F1F2F0EEE5EA2F6E20F2E5ECEF9E
S1130270E5F0E0F2F3F0FB00CFE5F0E8EEE420E295
S11302802020F1E5EA00CFE5F0E8EEE420E220F1F9
S1130290E5EA00CF20C220D120D720CF20D120C230
S11302A000CAEEEDE5F620F0E0E12E20E4EDFF00DB
S11302B0CDE0F7E0EBEE20F0E0E12E20E4EDFF00EE
S11302C0C4E5EDFC20EDE5E4E5EBE800C2F0E5EC87
S11302D0FF00D1F2E0F2F3F120E4EDE5E92F6E2026
S11302E0EDE5E4E5EBE800D0E5E6E8ECFB20E4E549
S11302F0EDFC2FEDEEF7FC00CDE0F1F2F0EEE9EAD3
S1130300E020F2E5EAF3F92E2F6E20E2F0E5ECE5C9
S1130310EDE800CFE5F0E8EEE420EEEFF0EEF1E0FA
S11303202F6E20E4E0F2F7E8EAEEE200CFE5F0E831
S1130330EEE420D8C8CC00C8E7ECE5ED2E20EDE0D3
S1130340F1F2F0EEE5EA2F6E20E2F0E5ECE5EDE8FF
S113035000CAEEEDF2F3F020B93300CAEEEDF2F389
S1130360F020B93200CAEEEDF2F3F020B93100CD3D
S1130370E0F1F2F0EEE9EAE800CFE0F0EEEBFC3A6F
S11303800053540054313D0054333D0054333D0078
S113039054323D0054323D0054313D004552524FD9
S11303A0520020202020002020202000C2FBEAEB65
S11303B000C2EAEB00C2FBEAEB00C2EAEB00202039
S11303C02020002020202000C2FBEAEB00C2EAEB40
S11303D000C2FBEAEB00C2EAEB00C2FBEAEB00C29C
S11303E0EAEB005E5430303032005E54303030334B
S11303F0005E5430303034005E5030303032005EB5
S11304005030303033005E50303030340000010260
S1130410030405060708090A0B0C0D0E0F10111230
S1130420131415161718191A1B1C1D1E1F20212220
S1130430232425262728292A2B2C2D2E2F30313210
S1130440333435363738393A3B3C3D3E3F40414200
S1130450434445464748494A4B4C4D4E4F505152F0
S1130460535455565758595A5B5C5D5E5F606162E0
S1130470636465666768696A6B6C6D6E6F707172D0
S1130480737475767778797A7BD17DE97F8081275B
S1130490832285868788898A8B8C8D8E8F90606174
S11304A0CACBDF5F5F98999A9B9C9D9E9FA08DA26B
S11304B0A3A4A5D1FDA2A9AACAACADAEAFEFB14920
S11304C06972B5B6B7B5CCBACBBCBDBEBF41A0420C
S11304D0A1E045A3A4A5A64BA74D484FA85043545B
S11304E0A9AA58E1ABACE2ADAEC4AFB0B161B2B34E
S11304F0B4E365B6B7B8B9BABBBCBD6FBE7063BF71
S113050079E478E5C0C1E6C2C3C4C5C6C7001124F6
S11305101FBECFEFD0E1DEBFCDBF11E0A0E0B1E060
S1130520EEEDFDE500E00BBF02C007900D92AC3785
S1130530B107D9F724E0ACE7B1E001C01D92AD3EAC
S1130540B207E1F70E94DA250C94ED2E59CD1E9ADC
S113055085E08A95F1F71E9808951F93CF93DF9352
S1130560C2E6D0E012E01883F2DF1883F0DF8AE0FD
S11305708883DF91CF911F91EACFCF93DF93D82F58
S1130580C62F10926200E3DFDD2311F086E001C084
S113059084E0C111816080936200DF91CF91D7CF55
S11305A00F931F93CF93C82F806882958F7002E6B4
S11305B010E0F8018083CBDFCF70F801C083CF91C6
S11305C01F910F91C4CFCF93DF93C2E6D0E018827E
S11305D0BEDF81E08883BBDF86E69EE00197F1F70A
S11305E00000DF91CF910895CF93DF93C2E6D0E06E
S11305F01882ADDF82E08883DF91CF91A8CFCF93BB
S1130600DF9382B1886682B983B1886483B98FEF3E
S11306109FE80197F1F700C0000083B1877983B99F
S1130620E1E6F0E080818F6080838FEF9FE801979F
S1130630F1F700C0000091DFC2E6D0E0188287DF46
S11306408DE0888384DFBFDFCFDF60E081E0DF916E
S1130650CF9193CF0F931F93CF931B9AE82FF0E082
S1130660E35FFB4FC4918C2F82958F7002E610E0FC
S1130670F80180836CDFCF70F801C08368DF1B98BA
S1130680CF911F910F9108950F931F93CF93DF93F1
S1130690EC018C01005C1F4F8991882321F0DADF83
S11306A0C017D107C9F7DF91CF911F910F9108951A
S11306B00F931F93CF93DF93EC018C01005C1F4FCA
S11306C0FE0121968591882321F0C4DFC017D1074C
S11306D0B9F7DF91CF911F910F9108959091640024
S11306E0906190936400813041F018F0823049F0B9
S11306F00895809165008F7E08C0809165008061B7
S113070004C09091650080E1892780936500089575
S11307109091640291111BC0813069F038F08230ED
S113072081F0833081F589B380952BC089B383FB35
S1130730882780F909C099B392FB222720F98227E0
S1130740089589B38695817091E0892708959091E1
S11307507D02292F30E0082E02C0359527950A9492
S1130760E2F730917D0241E050E0BA0102C0660F29
S1130770771F8A95E2F7CB018095832380937D02CE
S1130780822F817008958FEF0895EF920F931F9336
S1130790A0918D01B0918E01A732B105F0F5CD0184
S11307A053E0880F991F5A95E1F7FC01E655FC4F79
S11307B0608333832283158304834183442339F084
S11307C0E42FF0E0EE0FFF1FE45BFC4FA183EE206B
S11307D029F0FC01E655FC4FE6820CC0623031F48E
S11307E021E0FC01E655FC4F268304C0FC01E655DC
S11307F0FC4F168220915E0230915F02FC01E655A7
S1130800FC4F27832F5F3F4F30935F0220935E029C
S11308101196B0938E01A0938D011F910F91EF90CB
S1130820089510925F0210925E0280918B01909164
S11308308C018231910558F4FC01EE0FFF1FE45B3B
S1130840FC4F6083019690938C0180938B010895F3
S1130850109261021092600261110CC0209160023A
S113086030916102A901480F511D509361024093D8
S113087060020895ECE4F3E020E030E040E050E072
S113088070E0461757073CF49081290F311D4F5FE4
S11308905F4F3296F6CF3093610220936002DECF31
S11308A0CF93DF93E0916002F091610293E0EE0F49
S11308B0FF1F9A95E1F7E655FC4F0480F581E02D82
S11308C0693008F068E0823021F48081809362020C
S11308D036C0982F9B7F913029F4C5E6D2E0DF0122
S11308E070E003C0883051F4F8CFCD018E1B9F0B0C
S11308F08617970724F58D918993F7CF8730F9F4FC
S113090070E0DF0120E030E0CD018E1B9F0B4C91A5
S11309104F3FA9F0A60FB71F41110EC020935B02F1
S1130920E80FF91FA5E6B2E06B597D4FA617B7078C
S113093031F081918D93FACF2F5F3F4FE5CFDF9157
S1130940CF910895AF92BF92CF92DF92EF92FF9230
S11309500F931F93CF93DF9300D0CDB7DEB7E82E6C
S1130960E0916002F091610273E0EE0FFF1F7A954F
S1130970E1F7E655FC4FF08084E0F812A0C08091C6
S11309805C0281111EC00CDEE0916002F0916102F4
S113099063E0EE0FFF1F6A95E1F7E655FC4F028115
S11309A01381780190E1E90EF11CF8010F5F1F4FEC
S11309B08591882309F412C14DDE0E151F05A9F790
S11309C00DC120915D0230E0F901EE0FFF1FE15EE1
S11309D0FC4F0081118153E0000F111F5A95E1F77C
S11309E0F801E655FC4FF6809081973009F4FA94AB
S11309F090E0821B930B9F938F9386E791E09F93E4
S1130A008F93CE0101966C019F938F930E94DB2BF1
S1130A108EE4C6DDC60138DE80E0C2DDF801E655AD
S1130A20FC4FC280D380560190E1A90EB11C0F90F7
S1130A300F900F900F900F900F90F60131966F0169
S1130A403197859181110BC080E4AADDF801E65548
S1130A50FC4F8081823041F000E010E02AC0FADDD2
S1130A60AC14BD0451F7F0CFE0915D0288E0E89F3B
S1130A70F0011124EC57FD4F8081882319F08FED8C
S1130A8093E002C08AED93E013DEA8C090E008175B
S1130A9019070CF0A3C080915D02F80198E0899FCA
S1130AA0E00DF11D1124EC57FD4F8081D3DD0F5F64
S1130AB01F4F8F2DE8E0EF1548F788E0E7CF068158
S1130AC0C280D38080E06CDD20E2A22EB12CF6013E
S1130AD08491811103C0F11018C065C08F3251F4A4
S1130AE0F601319684918E3629F4F2E0CF0ED11CB2
S1130AF080E456DDF60131966F0131978591AADDC8
S1130B00F1E0AF1AB10819F7E6CF093008F008E0B0
S1130B1080916302887119F4602F8F2DC1DE82E009
S1130B20F8120FC080E43CDD80916202813019F438
S1130B3086ED93E004C0811136C081ED93E0B8DD09
S1130B4032C08F2D8B7F813019F098E0F91212C0DA
S1130B5080E426DD95E6C92E92E0D92E10E0C60188
S1130B608556924080179107F4F4F60181916F0144
S1130B7071DDF5CFF7E0FF1216C080E411DD85E6E4
S1130B80C82E82E0D82E10E001501109C601855606
S1130B909240801791073CF4F60181815BDDFFEF01
S1130BA0CF1ADF0AF3CF8091630283FF17C085E079
S1130BB0F81669F098E0F91671F0E1E0FE120EC043
S1130BC0FFE3FE1558F080E48E0DEADC07C08FE3E6
S1130BD08E1520F0F8CF9FE39E15A8F70F900F9085
S1130BE0DF91CF911F910F91FF90EF90DF90CF9005
S1130BF0BF90AF900895AF92BF92CF92DF92EF92E1
S1130C00FF920F931F93CF93DF9320916002309153
S1130C106102F90183E0EE0FFF1F8A95E1F7DF011E
S1130C20A655BC4F7C9116964C91493008F048E08B
S1130C30E655FC4F5481A5806091630265FD33C085
S1130C40A0915C028A2F90E0FC01EE0FFF1FE15E91
S1130C50FC4F31832083E52FFA2D03E0880F991F81
S1130C600A95E1F720E030E050E024173507B4F4AA
S1130C70773051F0B191E901C80FD91FCC57DD4F3E
S1130C80B8832F5F3F4FF1CF8C579D4FFC01E20F8C
S1130C90F31FE901CB59DD4F8981808381E08A0FFD
S1130CA080935C025DC00FE113E0A4E8B2E0E801C8
S1130CB08A819B81F801819391938F01D3E0880FFE
S1130CC0991FDA95E1F7FC01E655FC4FE681F0E067
S1130CD080E090E0ED0128967E018E179F0764F472
S1130CE06701C80ED91EE601B8806D01C80ED91E71
S1130CF0E601B8820196F1CFD701D2E0AC3FBD073F
S1130D00B1F6A0915C028A2F90E0FC01EE0FFF1F68
S1130D10E35EFC4F31832083E52FFA2DC3E0880F77
S1130D20991FCA95E1F720E030E050E02417350719
S1130D30B4F4773051F0B191E901C80FD91FCC5701
S1130D40DD4FB8832F5F3F4FF1CF8C579D4FFC0190
S1130D50E20FF31FE901CB59DD4F89818083A15054
S1130D60A0935D0280915C02803118F06062609310
S1130D706302DF91CF911F910F91FF90EF90DF906D
S1130D80CF90BF90AF9008950F931F93CF93DF93AD
S1130D90E0916002F091610293E0EE0FFF1F9A95DB
S1130DA0E1F7DF01A655BC4F16962C91293008F0C7
S1130DB028E0882331F0C5E6D2E030E0A22FB0E08D
S1130DC00AC06F5F621708F44DC160E04BC199918E
S1130DD09E3209F431E08E01055612400A171B07B2
S1130DE0B4F3E655FC4F9081813021F0823009F450
S1130DF09CC038C1953009F445C028F4913079F08D
S1130E00923041F02FC1973009F456C0983009F45C
S1130E107FC028C19091620291119FC09BC0462F50
S1130E2050E0FA01EB59FD4F80818B3209F4A0C0E8
S1130E308D3209F4A1C08F5F8083662331F011974E
S1130E404A175B0711F0313019F48A33B8F06BC0DC
S1130E50613089F4909165029B3211F09D3219F44E
S1130E608A3320F060C08A3308F0AFC0803308F4BE
S1130E705AC061E0F7C08A3308F0A7C0803308F095
S1130E80F1C051C0E62FF0E0EB59FD4F80818F5F38
S1130E90803E09F448C08A3309F497C08F3209F4BC
S1130EA0E0C0803309F49FC08F3509F498C08132C3
S1130EB009F0D7C080ECD5C080915B0231E0380FD7
S1130EC030935B0258E0459FF0011124E655FC4F36
S1130ED00480F581E02D3203E0011124CE0FDF1FE1
S1130EE098819F3F11F480935B0230915B0232033F
S1130EF0C0011124E80FF91FC5E6D2E0CE018556E2
S1130F0092408A179B070CF0ADC081918993F6CF6C
S1130F10E62FF0E0EB59FD4F80818F5F8A3318F4A0
S1130F20803308F09EC080E39CC0953009F44FC024
S1130F3028F49130A9F0923041F094C0973009F42C
S1130F4060C0983009F484C08DC080916202811120
S1130F5004C081E08093620285C01092620282C064
S1130F60462F50E0FA01EB59FD4F80818B3211F48A
S1130F708DE277C08D3211F48BE273C0815080838F
S1130F80662331F011974A175B0711F0313021F4D1
S1130F90803308F067C064C0613089F490916502C1
S1130FA09B3211F09D3221F4803308F062CF58C097
S1130FB08E3208F455C0803308F05BCF06C08E3201
S1130FC008F44EC0803308F04DC08EE24AC0E62FCC
S1130FD0F0E0EB59FD4F808181508F3B11F480E2AA
S1130FE040C08F3111F48EE53CC08D3511F48FE291
S1130FF038C08E32B1F18D3299F18F3291F58FED87
S113100030C080915B02882319F0815080935B0289
S113101030915B023203C001112425E632E0C8E0BE
S11310204C9FF0011124E255FC4F85569240A901D2
S1131030455652404A175B07ACF4C081D181C20FB8
S1131040D31FC80FD91F4881E90149939E01EFCFEF
S1131050E62FF0E0EB59FD4F80818150803308F496
S113106089E38083862FDF91CF911F910F9108959B
S1131070CF93DF93DC018091630284FF43C0E0914E
S11310806002F091610293E0EE0FFF1F9A95E1F781
S1131090E655FC4F90812681293008F028E08F7EA8
S11310A080936302953099F040F4913081F092304E
S11310B021F5809162028C9320C0973019F098300A
S11310C0E1F405C0C5E6D2E0FD0130E00DC0C5E69F
S11310D0D2E0FD0130E0AF014A1B5B0B421753071E
S11310E064F489918193F7CFAF014A1B5B0B4217DC
S11310F053071CF489918193F7CFFB01908380916E
S1131100600201C080E0DF91CF910895AF92BF9259
S1131110CF92DF92EF92FF920F931F93CF93DF93BF
S11311207B0123E0880F991F2A95E1F7DC01A6557E
S1131130BC4FE0916002F091610233E0EE0FFF1FBB
S11311403A95E1F7E655FC4F048115811696CC914A
S1131150C93008F0C8E09C0126553C4F6901F901EB
S1131160A480B58048DDF6018081853071F048F4B3
S1131170813059F08230B1F5F7018081F501808327
S113118031C0873071F0883069F5F701D501D0E0BE
S1131190CD018A199B098C179D0724F581918D93A4
S11311A0F7CF309165026C2F70E0F80180E040E0E9
S11311B020E090819F3F51F0911101C0482F93137B
S11311C001C0282FE60FF71F8F5FF3CFF801C49FEC
S11311D0E00DF11D11243083F801C29FE00DF11DD3
S11311E011241082DF91CF911F910F91FF90EF9006
S11311F0DF90CF90BF90AF9008956F927F928F92BF
S11312009F92AF92BF92CF92DF92EF92FF920F9391
S11312101F93CF93DF933C01EB01809163028660BF
S11312208093630204EC19E0DD24D394CC24CA94A3
S1131230015011090130110519F480916302FCC1B8
S11312408FEF9FE80197F1F700C0000080916302DF
S113125086FD04C08F7E8093630207C08F7A8093DB
S1131260630210928A011092890160918901809130
S11312708A01EEDA80E04CDA813009F072C1E12CA7
S1131280F12C10E080E044DA813009F0EBC0E3E3B4
S1131290FBE23197F1F78091630283FF13C0FCE214
S11312A0EF16F1E0FF06A8F181E57AD9C0920001BA
S11312B080916302877F80618093630281E00EDA0C
S11312C011E031C0E0916002F0916102A3E0EE0F01
S11312D0FF1FAA95E1F7E655FC4F9081933091F4F6
S11312E09CE2E91691E0F90620F4EFEFEE1AFE0A0B
S11312F01AC08B7F80618093630210928A011092DE
S113130089010FC0963079F4FCE2EF16F1E0FF0694
S113131020F48FEFE81AF80A06C08B7F806180936F
S1131320630281E0DBD98091630283FF78C0E0919E
S11313306002F091610273E0EE0FFF1F7A95E1F70E
S1131340E655FC4F8081823051F5809188018634C6
S113135058F4E6E6FEE03197F1F700008091880149
S11313608F5F8093880119C01092880180E418D996
S113137080918701882361F0109287018091620235
S1131380882319F08DEC93E007C088EC93E004C047
S1131390D092870183EC93E08BD981E53EC08730FE
S11313A009F070CF80918801863458F486E69EE077
S11313B00197F1F70000809188018F5F8093880185
S11313C02BC01092880180E4EBD880918701882398
S11313D0F1F01092870166E6862E62E0962EE09187
S11313E06002F091610253E0EE0FFF1F5A95E1F79E
S11313F0E655FC4F868190E094012556324028172B
S1131400390754F4F40181914F0124D9E8CFD092E3
S113141087018EEB93E04CD985E4C2D833CF84FFA7
S113142031CFE0916002F091610243E0EE0FFF1FC3
S11314304A95E1F7E655FC4F8081823009F022CFCE
S1131440113009F01FCF80E4ABD880916202882369
S113145019F08AEB93E002C085EB93E029D981E58A
S11314609FD80FCF80916302409160025091610236
S1131470282F207184FF16C0FA0133E0EE0FFF1FFE
S11314803A95E1F7E655FC4F9081933011F0963090
S113149049F486E0888380E021D9809160029091AC
S11314A0610216C2FA0193E0EE0FFF1F9A95E1F76D
S11314B0E655FC4F9181992329F010928A0190936B
S11314C0890146C0222321F0877F8093630240C0B4
S11314D090812FEF290F223030F0953021F029EF41
S11314E0290F2230A8F5886080936302913031F48B
S11314F06091000180E048DC80930001409160022B
S113150050916102FA0103E0EE0FFF1F0A95E1F723
S1131510E655FC4F8081853031F46091000180E014
S113152033DC809300014091600250916102FA0122
S113153013E0EE0FFF1F1A95E1F7E655FC4F80818B
S1131540883031F46091000180E01EDC809300015A
S11315508091630282608093630280E0BFD804ECD0
S113156019E083E0D5D8813009F07CC083E0D0D87D
S1131570813049F484E190E0E3E3F7E03197F1F757
S11315800197D1F7F3CF40918901809163024423FD
S113159079F183FD5AC050E0FA01EE0FFF1FE45BBE
S11315A0FC4F618170E07093610260936002FB0103
S11315B0B3E0EE0FFF1FBA95E1F7E655FC4F9781B4
S11315C090938A01ACE4B3E020E030E0E0E0F0E0A6
S11315D024173507D0F59C91E90FF11D12966E176B
S11315E07F0718F42093890130C02F5F3F4FF0CF5D
S11315F083FF22C0E0916002F091610273E0EE0F7C
S1131600FF1F7A95E1F7E655FC4F9081913049F040
S11316109230D9F40480F581E02D90819093620298
S113162014C0A481B581E5E6F2E092E0ED36F90755
S113163061F09D919193F9CF8B7F806480936302D5
S11316400E94E3028FEF9FEF43C1C092000190918B
S11316505C02915090935D02877F82608093630265
S113166004EC19E082E054D8813009F04EC082E0E5
S11316704FD8813049F484E190E0E3E3F7E0319717
S1131680F1F70197D1F7F3CF8091630283FF07C08D
S1131690409160026091000181E076DB2FC0E0910F
S11316A06002F091610263E0EE0FFF1F6A95E1F7BB
S11316B0E655FC4F8081843069F480915D0281504D
S11316C080935D028F3FD1F480915C0281508093BE
S11316D05D0214C080918A018F5F80938A01E0913A
S11316E08901F0E0EE0FFF1FE45BFC4F208130E046
S11316F090E08217930714F010928A01809163029C
S113170082608093630204EC19E081E001D88130A7
S113171009F04CC081E00E948803813049F484E1DF
S113172090E0E3E3F7E03197F1F70197D1F7F2CFD7
S11317308091630283FF07C04091600260910001C1
S113174082E022DB2CC0E0916002F091610243E070
S1131750EE0FFF1F4A95E1F7E655FC4F8081843078
S113176079F480915D028F5F80935D0220915C0229
S113177030E090E08217930794F010925D020FC05E
S113178080918A01811108C0E0918901F0E0EE0F97
S1131790FF1FE45BFC4F8081815080938A0180911C
S11317A0630282608093630204EC19E08091630217
S11317B083FF70C0E0916002F091610223E0EE0FBC
S11317C0FF1F2A95E1F7E655FC4F8081823079F5B9
S11317D080918801843660F48CEC9CE10197F1F7E8
S11317E000C00000809188018F5F809388011BC036
S11317F01092880180E40E94D0028091870188239E
S113180061F01092870180916202882319F081EBC4
S113181093E007C08CEA93E004C0D092870187EA82
S113182093E00E94580385E40E94D00233C08730BD
S113183089F580918801843678F21092880180E4D9
S11318400E94D002809187018823F9F010928701C9
S113185096E6A92E92E0B92EE0916002F091610221
S113186083E0EE0FFF1F8A95E1F7E655FC4F868172
S113187090E095012556324028173907A4F6F50162
S113188081915F010E942A03E7CFD092870182EA07
S113189093E0C7CF8091630281FF10C00E94E302EE
S11318A0809163028D7F80936302609189018091AE
S11318B08A010E9428048091000144D8BE01C3011A
S11318C0D7DB282F30E02115310509F4B1CCC9014B
S11318D0DF91CF911F910F91FF90EF90DF90CF9008
S11318E0BF90AF909F908F907F906F9008951F92BC
S11318F00F920FB60F9211240BB60F922F933F93B2
S11319008F939F93EF93FF938CB1E0911502F09125
S11319101602E75EFD4F8083813450F48E3360F409
S1131920813251F078F09DED980F933058F404C053
S11319308E3511F08E3731F4109216021092150282
S11319408093190220911502309116028D3061F4B2
S113195081E0820F809313021092160210921502F6
S113196081E0809311020EC0C90101968032910575
S11319702CF4909316028093150204C01092160260
S113198010921502FF91EF919F918F913F912F91AA
S11319900F900BBE0F900FBE0F901F9018951F92C3
S11319A00F920FB60F9211240BB60F922F933F9301
S11319B08F939F93EF93FF938091CD019091CE01EC
S11319C02091CB0130E08217930769F41092CE0185
S11319D01092CD01809165008E7F8093650081E037
S11319E08093C9010EC0FC01EF52FE4F80818CB977
S11319F08091CD019091CE0101969093CE01809378
S1131A00CD01FF91EF919F918F913F912F910F9075
S1131A100BBE0F900FBE0F901F901895CF92DF92C0
S1131A20EF92FF92CF93DF93EC0102970CF07FC00B
S1131A30DB01CA010197A109B10980349244AF4086
S1131A40B10508F074C0CB01BA010E94C4289B01FF
S1131A50AC0160E070E081E69BE40E942E2820E067
S1131A6030E040E85DE30E94542920E030E040E0AB
S1131A705FE30E94C9276B017C0120E030E040E075
S1131A805FE30E94502987FD52C0C701B601209729
S1131A9011F50E949628C72ED82EE92EFF24C09255
S1131AA0900069B988ED8AB986E0809395008091A9
S1131AB06400816080936400809165008E7F8093D0
S1131AC0650010921602109215021092110281E024
S1131AD08093C90129C00E949628C72ED82EE92ECA
S1131AE0FF24C09298006093990088ED80939A0037
S1131AF086E080939D0080916400826080936400FE
S1131B00809165008D7F80936500FE01EE0FFF1FBD
S1131B10EB5EFD4F11821082FE01EF5EFD4F1082DD
S1131B20C753DE4F81E08883789480E001C08FEF53
S1131B30DF91CF91FF90EF90DF90CF9008958111C6
S1131B4017C01092C901809165008160809365007F
S1131B5088E18A95F1F700C06093CB0181E090E0C1
S1131B609093CE018093CD018091D1018CB90895D9
S1131B701092CA018091650082608093650088E1BB
S1131B808A95F1F700C06093CC0181E090E09093D6
S1131B90D0018093CF018091F10180939C0008953E
S1131BA0AC01823091050CF057C0FC01E753FE4FA5
S1131BB08081811105C088E18A95F1F700C0F8CFD2
S1131BC0FB019A0185E0220F331F8A95E1F790E02B
S1131BD060E070E08191DB01A20FB31FAF52BE4FF2
S1131BE08C93882341F08D3031F0980F6F5F7F4FD5
S1131BF06032710579F7FA01E75AFD4F808181302F
S1131C00F1F4892F82958F70F901EF52FE4FE60FA0
S1131C10F71F8A3010F4805D01C0895C8083FB016A
S1131C2031969F70D901AF52BE4FEA0FFB1F9A3015
S1131C3010F4905D01C0995C90836E5F7F4FCA0180
S1131C402F523E4FF901E60FF71F9DE090836F5F1F
S1131C507F4F75DF80E008958FEF0895EF92FF9234
S1131C600F931F93CF93DF939C01823091050CF067
S1131C706FC0FC01EF5EFD4F8081882309F46BC0C7
S1131C801082F901E75AFD4F8081E901CD5EDD4FF5
S1131C90D90195E0AA0FBB1F9A95E1F7813009F0AD
S1131CA042C0288130E0790183E0E81AF10890E02D
S1131CB040E050E04E155F055CF48A010A0F1B1FDB
S1131CC0075E1D4FF8018081980F4F5F5F4FF2CF81
S1131CD0892F82958F70482F50E08A3018F4405D28
S1131CE05F4F02C0495C5F4F8D01075E1D4FF701D6
S1131CF0E00FF11FE081F0E04E175F0759F59F7088
S1131D00492F50E09A3018F4405D5F4F02C0495C9F
S1131D105F4F2A0F3B1FF901E95EFD4F808190E080
S1131D2048175907B9F48881FB01819320E030E01A
S1131D3090E02817390754F4E901CA0FDB1FC75E86
S1131D40DD4F488141932F5F3F4FF3CF81E003C0C4
S1131D508FEF01C080E8DF91CF911F910F91FF9029
S1131D60EF9008956AE00E944F2B20E1829F900D2E
S1131D701124892F0895982F92959F708F702AE0CF
S1131D80929F800D1124089594EE90937400109204
S1131D90C8019091740097FD11C09091C8019F5F94
S1131DA09093C8019B3020F091E09093C10106C04C
S1131DB0E0E7F1E03197F1F700C0EBCF80937300D7
S1131DC084EE809374001092C8018091740087FDA2
S1131DD011C08091C8018F5F8093C8018B3020F0BF
S1131DE081E08093C101089580E791E00197F1F7C4
S1131DF000C0EBCF0895FC0124E831E09E2F981B2E
S1131E009617D8F4919190937300209374001092D4
S1131E10C8019091740097FDF1CF9091C8019F5F24
S1131E209093C8019B3018F03093C101E7CFA0E72D
S1131E30B1E01197F1F700C0ECCF84E9809374000E
S1131E40B1E3BA95F1F700000895CF93DF93FC0155
S1131E5020E030E0462F50E04150510984EC74E812
S1131E60A1E0B4E9261748F54217530719F4709313
S1131E70740002C0809374001092C80190917400A1
S1131E8097FD10C09091C8019F5F9093C8019B304B
S1131E9018F0A093C10106C0C0E7D1E02197F1F783
S1131EA000C0ECCF9091730091934217530711F443
S1131EB0B09374002F5F3F4FD5CFD1E3DA95F1F79C
S1131EC00000DF91CF910895109271008DE480930A
S1131ED0700081E0809372001092C10180ED54DFA4
S1131EE087E08093C20181E98093C30162E082ECC0
S1131EF091E081DF81E09091C101911101C080E006
S1131F000895EF92FF920F931F93CF93DF93EC0109
S1131F108B017A011092C10180ED36DF1092C2016B
S1131F2061E082EC91E067DF81ED2EDF63E082EC1B
S1131F3091E08BDF8091C2011EDFF70180838091E5
S1131F40C30119DFF80180838091C40114DF888301
S1131F5081E09091C101911101C080E0DF91CF91A6
S1131F601F910F91FF90EF9008951F93CF93DF93EC
S1131F70C82FD62F142F1092C10180ED05DF1092C7
S1131F80C201812FEFDE8093C3018D2FEBDE80939E
S1131F90C4018C2FE7DE8093C50164E082EC91E0FC
S1131FA02ADF81E09091C101911101C080E0DF91AD
S1131FB0CF911F910895CF92DF92EF92FF920F93EA
S1131FC01F93CF93DF936C017B018A01E901109287
S1131FD0C10180EDD9DE83E08093C20161E082EC2F
S1131FE091E009DF81EDD0DE64E082EC91E02DDF49
S1131FF08091C201C0DE8150F60180838091C301CB
S1132000BADEF70180838091C401B5DEF8018083D4
S11320108091C501B0DE888381E09091C101911166
S113202001C080E0DF91CF911F910F91FF90EF905D
S1132030DF90CF9008950F931F93CF93DF93082FD2
S1132040162FD42FC22F1092C10180ED9DDE83E0A4
S11320508093C201802F86DE8F5F8093C301812F1E
S113206081DE8093C4018D2F7DDE8093C5018C2F8A
S113207079DE8093C60165E082EC91E0BCDE81E00C
S11320809091C101911101C080E0DF91CF911F9126
S11320900F9108958F929F92AF92BF92CF92DF9249
S11320A0EF92FF920F931F93CF93DF938091450399
S11320B02AE0622F0E944F2B805D80937302905D13
S11320C0909374028AE380937502809170030E9456
S11320D04F2B805D80937602905D9093770281E030
S11320E08093390182E080933C0183E080933F0137
S11320F084E08093420185E08093450186E08093EB
S1132100480187E080934B018091A00390E0FC019B
S1132110EE0FFF1F8E0F9F1FFC01E75CFE4F108226
S11321208091A1039091A20368EE73E00E945B2B5F
S1132130605D60932F0164E670E00E945B2B605D3C
S1132140609330016AE070E00E945B2B605D6093F5
S11321503101805D8093320181E490E00E94C32EBE
S1132160C3E0D0E004E311E0BC0180E090E00E9411
S1132170C2286B017C01BE010D2E000C880B990B4B
S11321800E94C4289B01AC0160E070E080E291E40D
S11321900E94B7294B015C019B01AC01C701B60148
S11321A00E942E2820E030E040E452E40E94CA2736
S11321B00E949628F80161938F0170E060537109C1
S11321C0072E000C880B990B0E94C428A5019401CA
S11321D00E9454299B01AC01C701B6010E94C92782
S11321E00E949628CB01219708F0BECFCAE3C09382
S11321F0730384E390E00E94C32EBC0180E090E06E
S11322000E94C2286B017C0120E030E040E251E4EE
S11322100E942E2820E030E040E452E40E94CA27C5
S11322200E9496286093710370E060537109072E31
S1132230000C880B990B0E94C42820E030E040E297
S113224051E40E9454299B01AC01C701B6010E94CC
S1132250C9270E94962880E090E00E94C22820E0CE
S113226030E040E452E40E94CA270E94962860931A
S1132270720386E390E00E94C32EBC0180E090E0EC
S11322800E94C2286B017C0120E030E040E251E46E
S11322900E942E2820E030E040E452E40E94CA2745
S11322A00E9496286093740370E060537109072EAE
S11322B0000C880B990B0E94C42820E030E040E217
S11322C051E40E9454299B01AC01C701B6010E944C
S11322D0C9270E94962880E090E00E94C22820E04E
S11322E030E040E452E40E94CA270E94962860939A
S11322F07503C093E40480E390E00E94C32EBC0104
S113230080E090E00E94C2286B017C0120E030E074
S113231040E251E40E942E2820E030E040E452E400
S11323200E94CA270E9496286093E20470E06053DA
S11323307109072E000C880B990B0E94C42820E019
S113234030E040E251E40E9454299B01AC01C701F2
S1132350B6010E94C9270E94962880E090E00E945E
S1132360C22820E030E040E452E40E94CA270E94E0
S113237096286093E30482E390E00E94C32EBC019C
S113238080E090E00E94C2286B017C0120E030E0F4
S113239040E251E40E942E2820E030E040E452E480
S11323A00E94CA270E9496286093E50470E0605357
S11323B07109072E000C880B990B0E94C42820E099
S11323C030E040E251E40E9454299B01AC01C70172
S11323D0B6010E94C9270E94962880E090E00E94DE
S11323E0C22820E030E040E452E40E94CA270E9460
S11323F096286093E6048AE290E00E94C32EBC0112
S113240080E090E00E94C2286B017C0120E030E073
S113241040E251E40E942E2820E030E040E452E4FF
S11324200E94CA270E94962860933F0370E060537D
S11324307109072E000C880B990B0E94C42820E018
S113244030E040E251E40E9454299B01AC01C701F1
S1132450B6010E94C9270E94962880E090E00E945D
S1132460C22820E030E040E452E40E94CA270E94DF
S11324709628609340038CE290E00E94C32EBC0136
S113248080E090E00E94C2286B017C0120E030E0F3
S113249040E251E40E942E2820E030E040E452E47F
S11324A00E94CA270E9496286093410370E06053FB
S11324B07109072E000C880B990B0E94C42820E098
S11324C030E040E251E40E9454299B01AC01C70171
S11324D0B6010E94C9270E94962880E090E00E94DD
S11324E0C22820E030E040E452E40E94CA270E945F
S11324F09628609342038EE290E00E94C32EBC01B2
S113250080E090E00E94C2286B017C0120E030E072
S113251040E251E40E942E2820E030E040E452E4FE
S11325200E94CA270E9496286093430370E0605378
S11325307109072E000C880B990B0E94C42820E017
S113254030E040E251E40E9454299B01AC01C701F0
S1132550B6010E94C9270E94962880E090E00E945C
S1132560C22820E030E040E452E40E94CA270E94DE
S113257096286093440384E290E00E94C32EBC0139
S113258080E090E00E94C2286B017C0120E030E0F2
S113259040E251E40E942E2820E030E040E452E47E
S11325A00E94CA270E9496286093E70470E0605353
S11325B07109072E000C880B990B0E94C42820E097
S11325C030E040E251E40E9454299B01AC01C70170
S11325D0B6010E94C9270E94962880E090E00E94DC
S11325E0C22820E030E040E452E40E94CA270E945E
S11325F096286093E80486E290E00E94C32EBC0112
S113260080E090E00E94C2286B017C0120E030E071
S113261040E251E40E942E2820E030E040E452E4FD
S11326200E94CA270E9496286093E90470E06053D0
S11326307109072E000C880B990B0E94C42820E016
S113264030E040E251E40E9454299B01AC01C701EF
S1132650B6010E94C9270E94962880E090E00E945B
S1132660C22820E030E040E452E40E94CA270E94DD
S113267096286093EA0488E290E00E94C32EBC018D
S113268080E090E00E94C2286B017C0120E030E0F1
S113269040E251E40E942E2820E030E040E452E47D
S11326A00E94CA270E9496286093EB0470E060534E
S11326B07109072E000C880B990B0E94C42820E096
S11326C030E040E251E40E9454299B01AC01C7016F
S11326D0B6010E94C9270E94962880E090E00E94DB
S11326E0C22820E030E040E452E40E94CA270E945D
S11326F096286093EC0488E190E00E94BE2EC5E029
S1132700D0E006E111E00E94C2286B017C01BE0109
S11327100D2E000C880B990B0E94C4289B01AC0160
S113272060E070E080E291E40E94B7294B015C0113
S11327309B01AC01C701B6010E942E2820E030E0C5
S113274040E452E40E94CA270E949628F80161934B
S11327508F0170E060537109072E000C880B990BF0
S11327600E94C428A50194010E9454299B01AC0134
S1132770C701B6010E94C9270E949628219718F61E
S113278080911601809315018091170180931601A1
S113279080911801809317018EE2809318018CE1D7
S11327A090E00E94BE2EC5E0D0E00DE111E00E9451
S11327B0C2286B017C01BE010D2E000C880B990B05
S11327C00E94C4289B01AC0160E070E080E291E4C7
S11327D00E94B7294B015C019B01AC01C701B60102
S11327E00E942E2820E030E040E452E40E94CA27F0
S11327F00E949628F80161938F0170E0605371097B
S1132800072E000C880B990B0E94C428A501940183
S11328100E9454299B01AC01C701B6010E94C9273B
S11328200E949628219718F680911D0180931C011F
S113283080911E0180931D0180911F0180931E01D0
S11328408EE280931F0180E290E00E94BE2EC5E0DC
S1132850D0E004E211E00E94C2286B017C01BE01B9
S11328600D2E000C880B990B0E94C4289B01AC010F
S113287060E070E080E291E40E94B7294B015C01C2
S11328809B01AC01C701B6010E942E2820E030E074
S113289040E452E40E94CA270E949628F8016193FA
S11328A08F0170E060537109072E000C880B990B9F
S11328B00E94C428A50194010E9454299B01AC01E3
S11328C0C701B6010E94C9270E949628219718F6CD
S11328D08091240180932301809125018093240118
S11328E080912601809325018EE2809326018CE05D
S11328F090E00E94BE2EC4E0D0E000E113E00E940C
S1132900C2286B017C01BE010D2E000C880B990BB3
S11329100E94C4289B01AC0160E070E080E291E475
S11329200E94B7294B015C019B01AC01C701B601B0
S11329300E942E2820E030E040E452E40E94CA279E
S11329400E949628F80161938F0170E06053710929
S1132950072E000C880B990B0E94C428A501940132
S11329600E9454299B01AC01C701B6010E94C927EA
S11329700E949628219718F68EE28093110380E135
S113298090E00E94BE2EC4E0D0E005E113E00E9476
S1132990C2286B017C01BE010D2E000C880B990B23
S11329A00E94C4289B01AC0160E070E080E291E4E5
S11329B00E94B7294B015C019B01AC01C701B60120
S11329C00E942E2820E030E040E452E40E94CA270E
S11329D00E949628F80161938F0170E06053710999
S11329E0072E000C880B990B0E94C428A5019401A2
S11329F00E9454299B01AC01C701B6010E94C9275A
S1132A000E949628219718F68EE28093160384E19B
S1132A1090E00E94BE2EC4E0D0E00AE113E00E94E0
S1132A20C2286B017C01BE010D2E000C880B990B92
S1132A300E94C4289B01AC0160E070E080E291E454
S1132A400E94B7294B015C019B01AC01C701B6018F
S1132A500E942E2820E030E040E452E40E94CA277D
S1132A600E949628F80161938F0170E06053710908
S1132A70072E000C880B990B0E94C428A501940111
S1132A800E9454299B01AC01C701B6010E94C927C9
S1132A900E949628219718F68EE280931B0380E00B
S1132AA090E00E94BE2EC5E0D0E001E011E00E945B
S1132AB0C2286B017C01BE010D2E000C880B990B02
S1132AC00E94C4289B01AC0160E070E080E291E4C4
S1132AD00E94B7294B015C019B01AC01C701B601FF
S1132AE00E942E2820E030E040E452E40E94CA27ED
S1132AF00E949628F80161938F0170E06053710978
S1132B00072E000C880B990B0E94C428A501940180
S1132B100E9454299B01AC01C701B6010E94C92738
S1132B200E949628219718F6809101018093000154
S1132B30809102018093010180910301809302013D
S1132B408EE28093030184E090E00E94BE2EC5E0F3
S1132B50D0E008E011E00E94C2286B017C01BE01B4
S1132B600D2E000C880B990B0E94C4289B01AC010C
S1132B7060E070E080E291E40E94B7294B015C01BF
S1132B809B01AC01C701B6010E942E2820E030E071
S1132B9040E452E40E94CA270E949628F8016193F7
S1132BA08F0170E060537109072E000C880B990B9C
S1132BB00E94C428A50194010E9454299B01AC01E0
S1132BC0C701B6010E94C9270E949628219718F6CA
S1132BD08091080180930701809109018093080185
S1132BE080910A01809309018EE280930A0188E0B2
S1132BF090E00E94BE2EC5E0D0E00FE011E00E94FC
S1132C00C2286B017C01BE010D2E000C880B990BB0
S1132C100E94C4289B01AC0160E070E080E291E472
S1132C200E94B7294B015C019B01AC01C701B601AD
S1132C300E942E2820E030E040E452E40E94CA279B
S1132C400E949628F80161938F0170E06053710926
S1132C50072E000C880B990B0E94C428A50194012F
S1132C600E9454299B01AC01C701B6010E94C927E7
S1132C700E949628219718F680910F0180930E01E7
S1132C808091100180930F018091110180931001B4
S1132C908EE280931101DF91CF911F910F91FF90EC
S1132CA0EF90DF90CF90BF90AF909F908F9008955A
S1132CB04F925F926F927F928F929F92AF92BF9248
S1132CC0CF92DF92EF92FF920F931F93CF93DF93F4
S1132CD084E390E00E94C32E8093770386E390E020
S1132CE00E94C32E8093780380E390E00E94C32E59
S1132CF080939E0382E390E00E94C32E80939F03FF
S1132D008FE390E00E94C32E9093A2038093A103CB
S1132D1081E490E00E94C32E9093800380937F030C
S1132D2008E310E0C3EAD3E0C8010E94B62E8993F9
S1132D300F5F1F4F83E0CA3AD807B1F78AE2882EA3
S1132D4080E0982E99E7A92E93E0B92E04E210E0D2
S1132D502DE6C22E22E0D22E34E0E32E33E0F32E11
S1132D6041E8642E43E0742E52E9452E53E0552E7B
S1132D70C0E0D0E0C4010E94C32EF5018193919379
S1132D805F01C8010E94C32EF601819391936F01E4
S1132D90CE01885E9F4F0E94BE2EF701619371930E
S1132DA0819391937F01CE01845F9F4F0E94BE2E39
S1132DB0F30161937193819391933F01CE0180500C
S1132DC090400E94BE2EF20161937193819391937E
S1132DD02F01F2E08F0E911C0E5F1F4F2496CC3012
S1132DE0D10541F6DF91CF911F910F91FF90EF90A4
S1132DF0DF90CF90BF90AF909F908F907F906F9017
S1132E005F904F9008958F929F92AF92BF92CF920E
S1132E10DF92EF92FF920F931F93CF93DF9380E0A3
S1132E200E948803813039F48FEF9FE80197F1F70E
S1132E3000C00000F4CF81E08093920108EE13E01B
S1132E40D4E6CAE03AEAE32E33E0F32E23D96EE760
S1132E5071E08FE791E00E94FD086C0190937D0181
S1132E6080937C01892B91F39FEFC916D90609F44D
S1132E703AC76FE771E0C6010E9486088C2D90E086
S1132E80FC013B97EC31F10508F7EA5BFF4F0C942A
S1132E90AD2B80917302880F8056982F990F990F4C
S1132EA0890F909174029053890F80934503609128
S1132EB07602660F6056962F990F990F690F9091BD
S1132EC077029053690F60937003409176034DD855
S1132ED0BDCF29E3A22E21E0B22ED12CF5018081B1
S1132EE0811108C0D092A00360917E02262F462F44
S1132EF08D2DA1D8F3E0AF0EB11CD39487E0D81286
S1132F00EDCFC8D8A3CF8091710390E0C097C89F3C
S1132F109001C99F300D112480917203C82ED12CC9
S1132F2090E3C91AD108C20ED31EB60184E390E01F
S1132F300E94DA2EC09277038091740390E0C097C8
S1132F40C89F9001C99F300D112480917503682F8B
S1132F5070E060537109620F731F6093780386E316
S1132F6090E00E94DA2E72CF8091E20490E0C09744
S1132F70C89F9001C99F300D11248091E304C82E8D
S1132F80D12CE0E3CE1AD108C20ED31EB60180E3E1
S1132F9090E00E94DA2EC0929E038091E50490E0B6
S1132FA0C097C89F9001C99F300D11248091E604F9
S1132FB0C82ED12CF0E3CF1AD108C20ED31EB6010D
S1132FC082E390E00E94DA2EC0929F033FCF83EA0F
S1132FD0C82E83E0D82E98E3A92E90E0B92EF601EE
S1132FE061916F01C5010E94C82EFFEFAF1ABF0A9D
S1132FF0EC14FD04A1F72ACF2091340130E02053D2
S11330003109209FA001219F500D309F500D1124A4
S113301090913701892F90E0C097840F951F2091DC
S1133020350130E020533109D29F6001D39FD00C89
S113303011248C0D9D1D4091360150E040535109DF
S1133040C49F9001C59F300D11246C01C20ED31E84
S113305088E0C81687E0D80640F480E40E94D002D5
S11330608CE993E00E945803F1CEB60181E490E02C
S11330700E94DA2ED0928003C0927F031092B00196
S11330801092B1011092B2011092B301DFCE2091DF
S11330902F0130E020533109209FA001219F500DC2
S11330A0309F500D112490913201892F90E0C097E8
S11330B0840F951F2091300130E020533109D29FB5
S11330C06001D39FD00C11248C0D9D1D20913101E2
S11330D030E020533109C29FA001C39F500D112439
S11330E06C01C40ED51EB6018FE390E00E94DA2E67
S11330F0D092A203C092A1031092B4011092B50120
S11331001092B6011092B701A1CE80913F0390E0D6
S1133110C097C89F9001C99F300D1124809140032E
S1133120C82ED12C90E3C91AD108C20ED31EB60101
S11331308AE290E00E94DA2ED0927A03C092790358
S113314085CE8091E70490E0C097C89F9001C99F05
S1133150300D11248091E804C82ED12CE0E3CE1A5E
S1133160D108C20ED31EB60184E290E00E94DA2E8A
S1133170D0926E02C0926D0269CEE6E1F1E080E089
S113318090E021912E3209F4982F8F5F8530C9F792
S1133190913041F5A0911601B0E0D09780911801CB
S11331A090E0C097D89F4001D99F900C1124092C1E
S11331B0000CAA08BB0828EE33E00E94C52B860E3B
S11331C0971EA81EB91E80911A0190E0C097092E7F
S11331D0000CAA0BBB0B880E991EAA1EBB1E2091C5
S11331E019013EC0923009F04CC0A0911601B0E024
S11331F0D0978091170190E0C097809F4001819FF4
S1133200900C909F900C1124092C000CAA08BB0868
S113321020E137E20E94C52B860E971EA81EB91E18
S113322080911B0190E0C097092E000CAA0BBB0BE8
S1133230880D991DAA1DBB1D2091190130E0205352
S11332403109D29F4001D39F900C1124092C000C0A
S1133250AA08BB08880E991EAA1EBB1E20911A013B
S113326030E020533109C29FC001C39F900D112447
S1133270092E000CAA0BBB0B880E991EAA1EBB1E9E
S113328003C0812C912C5401B501A40188E190E084
S11332900E94D52E8092040390920503A092060307
S11332A0B0920703D3CDE0E1F3E080E090E0219118
S11332B02E3209F4982F8F5F8530C9F7913041F58C
S11332C0A0911003B0E0D0978091120390E0C097D2
S11332D0D89F4001D99F900C1124092C000CAA08F6
S11332E0BB0828EE33E00E94C52B860E971EA81E4D
S11332F0B91E8091140390E0C097092E000CAA0B0C
S1133300BB0B880E991EAA1EBB1E209113033EC040
S1133310923009F04CC0A0911003B0E0D097809196
S1133320110390E0C097809F4001819F900C909F73
S1133330900C1124092C000CAA08BB0820E137E2E8
S11333400E94C52B860E971EA81EB91E80911503D8
S113335090E0C097092E000CAA0BBB0B880D991D99
S1133360AA1DBB1D2091130330E020533109D29FC5
S11333704001D39F900C1124092C000CAA08BB080F
S1133380880E991EAA1EBB1E2091140330E0205300
S11333903109C29FC001C39F900D1124092E000C56
S11333A0AA0BBB0B880E991EAA1EBB1E03C0812C40
S11333B0912C5401B501A4018CE090E00E94D52E1B
S11333C08092810390928203A0928303B09284033B
S11333D03DCDE1E0F1E080E090E021912E3209F46E
S11333E0982F8F5F8530C9F7913041F5A091010185
S11333F0B0E0D0978091030190E0C097D89F40013E
S1133400D99F900C1124092C000CAA08BB0828EEA3
S113341033E00E94C52B860E971EA81EB91E80910C
S1133420050190E0C097092E000CAA0BBB0B880E77
S1133430991EAA1EBB1E209104013EC0923009F0C1
S11334404CC0A0910101B0E0D0978091020190E0BE
S1133450C097809F4001819F900C909F900C1124F5
S1133460092C000CAA08BB0820E137E20E94C52BF6
S1133470860E971EA81EB91E8091060190E0C09783
S1133480092E000CAA0BBB0B880D991DAA1DBB1D90
S11334902091040130E020533109D29F4001D39F91
S11334A0900C1124092C000CAA08BB08880E991E44
S11334B0AA1EBB1E2091050130E020533109C29F92
S11334C0C001C39F900D1124092E000CAA0BBB0B45
S11334D0880E991EAA1EBB1E03C0812C912C540178
S11334E0B501A40180E090E00E94D52E8092920361
S11334F090929303A0929403B0929503A7CC8091E9
S1133500410390E0C097C89F9001C99F300D1124DA
S113351080914203C82ED12CF0E3CF1AD108C20EF9
S1133520D31EB6018CE290E00E94DA2ED0927C0386
S1133530C0927B038BCC8091E90490E0C097C89F34
S11335409001C99F300D11248091EA04C82ED12C1A
S113355080E3C81AD108C20ED31EB60186E290E0F9
S11335600E94DA2ED0927002C0926F026FCCEDE10D
S1133570F1E080E090E021912E3209F4982F8F5FE2
S11335808530C9F7913041F5A0911D01B0E0D09785
S113359080911F0190E0C097D89F4001D99F900C63
S11335A01124092C000CAA08BB0828EE33E00E9461
S11335B0C52B860E971EA81EB91E8091210190E08E
S11335C0C097092E000CAA0BBB0B880E991EAA1ECD
S11335D0BB1E209120013EC0923009F04CC0A09146
S11335E01D01B0E0D09780911E0190E0C097809FAC
S11335F04001819F900C909F900C1124092C000C89
S1133600AA08BB0820E137E20E94C52B860E971E4C
S1133610A81EB91E8091220190E0C097092E000CCB
S1133620AA0BBB0B880D991DAA1DBB1D209120015F
S113363030E020533109D29F4001D39F900C1124D4
S1133640092C000CAA08BB08880E991EAA1EBB1ED2
S11336502091210130E020533109C29FC001C39F52
S1133660900D1124092E000CAA0BBB0B880E991E79
S1133670AA1EBB1E03C0812C912C5401B501A401C8
S11336808CE190E00E94D52E809208039092090369
S1133690A0920A03B0920B03D9CBE5E1F3E080E0FA
S11336A090E021912E3209F4982F8F5F8530C9F76D
S11336B0913041F5A0911503B0E0D09780911703A4
S11336C090E0C097D89F4001D99F900C1124092CF9
S11336D0000CAA08BB0828EE33E00E94C52B860E16
S11336E0971EA81EB91E8091190390E0C097092E59
S11336F0000CAA0BBB0B880E991EAA1EBB1E2091A0
S113370018033EC0923009F04CC0A0911503B0E0FC
S1133710D0978091160390E0C097809F4001819FCD
S1133720900C909F900C1124092C000CAA08BB0843
S113373020E137E20E94C52B860E971EA81EB91EF3
S113374080911A0390E0C097092E000CAA0BBB0BC2
S1133750880D991DAA1DBB1D2091180330E020532C
S11337603109D29F4001D39F900C1124092C000CE5
S1133770AA08BB08880E991EAA1EBB1E2091190315
S113378030E020533109C29FC001C39F900D112422
S1133790092E000CAA0BBB0B880E991EAA1EBB1E79
S11337A003C0812C912C5401B501A40180E190E067
S11337B00E94D52E8092850390928603A09287035F
S11337C0B092880343CBE8E0F1E080E090E02191FF
S11337D02E3209F4982F8F5F8530C9F7913041F567
S11337E0A0910801B0E0D09780910A0190E0C097C1
S11337F0D89F4001D99F900C1124092C000CAA08D1
S1133800BB0828EE33E00E94C52B860E971EA81E27
S1133810B91E80910C0190E0C097092E000CAA0BF0
S1133820BB0B880E991EAA1EBB1E20910B013EC025
S1133830923009F04CC0A0910801B0E0D09780917B
S1133840090190E0C097809F4001819F900C909F58
S1133850900C1124092C000CAA08BB0820E137E2C3
S11338600E94C52B860E971EA81EB91E80910D01BD
S113387090E0C097092E000CAA0BBB0B880D991D74
S1133880AA1DBB1D20910B0130E020533109D29FAA
S11338904001D39F900C1124092C000CAA08BB08EA
S11338A0880E991EAA1EBB1E20910C0130E02053E5
S11338B03109C29FC001C39F900D1124092E000C31
S11338C0AA0BBB0B880E991EAA1EBB1E03C0812C1B
S11338D0912C5401B501A40184E090E00E94D52EFE
S11338E08092960390929703A0929803B0929903C2
S11338F0ADCA8091430390E0C097C89F9001C99FCF
S1133900300D112480914403C82ED12C90E3C91AA0
S1133910D108C20ED31EB6018EE290E00E94DA2EC8
S1133920D0927E03C0927D0391CA8091EB0490E013
S1133930C097C89F9001C99F300D11248091EC0459
S1133940C82ED12CE0E3CE1AD108C20ED31EB60184
S113395088E290E00E94DA2ED0927202C092710244
S113396075CAE4E2F1E080E090E021912E3209F49E
S1133970982F8F5F8530C9F7913041F5A0912401CC
S1133980B0E0D0978091260190E0C097D89F400185
S1133990D99F900C1124092C000CAA08BB0828EE0E
S11339A033E00E94C52B860E971EA81EB91E809177
S11339B0280190E0C097092E000CAA0BBB0B880EBF
S11339C0991EAA1EBB1E209127013EC0923009F009
S11339D04CC0A0912401B0E0D0978091250190E0E3
S11339E0C097809F4001819F900C909F900C112460
S11339F0092C000CAA08BB0820E137E20E94C52B61
S1133A00860E971EA81EB91E8091290190E0C097CA
S1133A10092E000CAA0BBB0B880D991DAA1DBB1DFA
S1133A202091270130E020533109D29F4001D39FD8
S1133A30900C1124092C000CAA08BB08880E991EAE
S1133A40AA1EBB1E2091280130E020533109C29FD9
S1133A50C001C39F900D1124092E000CAA0BBB0BAF
S1133A60880E991EAA1EBB1E03C0812C912C5401E2
S1133A70B501A40180E290E00E94D52E80920C034F
S1133A8090920D03A0920E03B0920F03DFC9EAE1F6
S1133A90F3E080E090E021912E3209F4982F8F5FBB
S1133AA08530C9F7913041F5A0911A03B0E0D09761
S1133AB080911C0390E0C097D89F4001D99F900C3F
S1133AC01124092C000CAA08BB0828EE33E00E943C
S1133AD0C52B860E971EA81EB91E80911E0390E06A
S1133AE0C097092E000CAA0BBB0B880E991EAA1EA8
S1133AF0BB1E20911D033EC0923009F04CC0A09122
S1133B001A03B0E0D09780911B0390E0C097809F88
S1133B104001819F900C909F900C1124092C000C63
S1133B20AA08BB0820E137E20E94C52B860E971E27
S1133B30A81EB91E80911F0390E0C097092E000CA7
S1133B40AA0BBB0B880D991DAA1DBB1D20911D033B
S1133B5030E020533109D29F4001D39F900C1124AF
S1133B60092C000CAA08BB08880E991EAA1EBB1EAD
S1133B7020911E0330E020533109C29FC001C39F2E
S1133B80900D1124092E000CAA0BBB0B880E991E54
S1133B90AA1EBB1E03C0812C912C5401B501A401A3
S1133BA084E190E00E94D52E8092890390928A034A
S1133BB0A0928B03B0928C0349C9EFE0F1E080E05E
S1133BC090E021912E3209F4982F8F5F8530C9F748
S1133BD0913041F5A0910F01B0E0D097809111018F
S1133BE090E0C097D89F4001D99F900C1124092CD4
S1133BF0000CAA08BB0828EE33E00E94C52B860EF1
S1133C00971EA81EB91E8091130190E0C097092E3B
S1133C10000CAA0BBB0B880E991EAA1EBB1E20917A
S1133C2012013EC0923009F04CC0A0910F01B0E0E7
S1133C30D0978091100190E0C097809F4001819FB0
S1133C40900C909F900C1124092C000CAA08BB081E
S1133C5020E137E20E94C52B860E971EA81EB91ECE
S1133C608091140190E0C097092E000CAA0BBB0BA5
S1133C70880D991DAA1DBB1D2091120130E020530F
S1133C803109D29F4001D39F900C1124092C000CC0
S1133C90AA08BB08880E991EAA1EBB1E20911301F8
S1133CA030E020533109C29FC001C39F900D1124FD
S1133CB0092E000CAA0BBB0B880E991EAA1EBB1E54
S1133CC003C0812C912C5401B501A40188E090E03B
S1133CD00E94D52E80929A0390929B03A0929C03FB
S1133CE0B0929D03B3C81092920181E08093B80111
S1133CF01092B901DF91CF911F910F91FF90EF9036
S1133D00DF90CF90BF90AF909F908F900895E091F7
S1133D10A003F0E0ED55FC4F908180914503903372
S1133D2009F056C02091770390919E0340915C0165
S1133D30281758F4891748F4109251014E3479F435
S1133D4034E430935C0131E008C031E03093510138
S1133D50443429F44EE440935C013093B8012813B1
S1133D601BC0409178032091700330915C012417AB
S1133D7048F0109251013E3479F424E420935C011C
S1133D8021E008C021E020935101343429F43EE4B9
S1133D9030935C012093B801891322C030919F03B2
S1133DA02091700390915C01231738F021E0209357
S1133DB051019434A9F49EE405C0109251019E343B
S1133DC079F494E490935C0191E09093B80108C075
S1133DD0913331F491E09093510190915C01E9CFDA
S1133DE0873101F5809170038B33E1F48091760380
S1133DF08B33C1F41092960110929701109298019E
S1133E001092990110929A0110929B0110929C01B8
S1133E1010929D0110929E0110929F011092A00198
S1133E201092A10108954EE752E0BA01CA010E941E
S1133E30810F811113C046E753E060E773E085E426
S1133E4093E00E94810F2EE732E0A901B90180EAD4
S1133E5093E00E94DB0F1092930105C080919301BF
S1133E608F5F80939301809193018B3050F00E9477
S1133E70640F81E08093A80192E5909358018093A8
S1133E80B8010895CF92DF92EF92FF920F931F93A0
S1133E90633030F4E62FF0E0E758FE4F408101C074
S1133EA040E0FC0100811181228133818091B001C5
S1133EB09091B101A091B201B091B3018017910723
S1133EC0A207B30738F528B381E090E001C0880F5A
S1133ED04A95EAF7822B88BBC698809155018133B5
S1133EE031F480E38093550181E08093B801E62F9B
S1133EF0F0E0DF01A15ABE4F1C9281E08093620181
S1133F00EE5AFE4F90819033C1F591E390838093F4
S1133F10B80133C0081719072A073B0770F5E62FC5
S1133F20F0E0DF01A15ABE4F8C91811126C021E03F
S1133F302093AB01C090AC01D090AD01E090AE01F4
S1133F40F090AF0188EEC81683E0D806E104F104CE
S1133F50A0F038B381E090E001C0880F4A95EAF7F9
S1133F608095832388BB2C93EE5AFE4F8081813346
S1133F7021F480E380832093B80180915F01813034
S1133F8091F480916001813071F4809161018130FC
S1133F9051F4C69A90915501903329F491E390938A
S1133FA055018093B8018091AB01811120C090919B
S1133FB05F0180915601913089F4909160019130B4
S1133FC069F490916101913049F49498813379F4C2
S1133FD080E3809356019093B80109C0949A80338A
S1133FE031F481E38093560181E08093B8011F91FD
S1133FF00F91FF90EF90DF90CF9008952F923F9212
S11340004F925F926F927F928F929F92AF92BF92E4
S1134010CF92DF92EF92FF920F931F93CF93DF9390
S1134020CDB7DEB7A0970FB6F894DEBF0FBECDBFF5
S11340302FE831E03A8729879CEB292E91E0392E2D
S113404044E053E0588F4F8B66E971E0788B6F87BB
S113405081E893E09C8B8B8BA2E9B3E0BA8BA98BAC
S1134060E2EAF1E0F887EF8329E733E03E872D8722
S113407046E453E05E834D836DE672E07C876B8794
S113408086E991E09E8B8D8B10E028EE422E23E092
S1134090522E612C712C04E680915101811103C0D0
S11340A0AD85BE8502C0AB85BC858D919C9128EE03
S11340B033E0829FF001839FF00D929FF00D112455
S11340C0AD81BE818D919C919F01281B390B3E8F40
S11340D02D8FAF89B88D4D915D916D917D91B88F84
S11340E0AF8B498F5A8F6B8F7C8FED89FE89C1907E
S11340F0D190E190F190FE8BED8BAB89BC896D91F1
S11341007D918D919D91BC8BAB8BED8DFE8D4F017F
S1134110FF0FAA08BB08A50194010E94402BC60EFC
S1134120D71EE81EF91EA989BA892D913D914D919A
S11341305D91BA8BA98BEF81F885808191816D8D1A
S11341407E8D71836083AF85B889CD92DD92ED92C7
S1134150FD92B88BAF876091A80161116DC0F10128
S113416060816A3008F06AC0AD8DBE8DA81BB90BA2
S11341700E94D52B6D8F7E8F8F8F98A3298D3A8DBA
S11341804B8D5C8DC501B4010E94402BDC01CB0139
S11341908C0D9D1DAE1DBF1D2D8D3E8D4F8D58A1C7
S11341A0280F391F4A1F5B1FCA01B901A3019201DD
S11341B00E94912B69017A0131EAC31636E8D306CD
S11341C031E0E306F10434F4F7FE0BC0C12CD12C2A
S11341D0760107C080EAC82E86E8D82EEE24E39440
S11341E0F12CC701B60120EA36E841E050E00E9414
S11341F0912BB22E20E137E240E050E00E94912B57
S1134200A22EA30192010E94912B4AE0A49E200DAC
S113421011240B9D200D1124A985BA852C93A091FE
S11342207F03B0918003A70196010E94CB2BA301C9
S113423092010E946F2B37C0613021F0F10180811F
S11342408A30C8F120915E0130E0A8EEB3E00E940C
S1134250B62B6B017C0120EA36E841E050E00E9475
S1134260912BB22E20E137E240E050E00E94912BE6
S1134270A22EA30192010E94912BFAE0AF9E200D81
S113428011240B9D200D1124A985BA852C93A0918E
S11342907F03B0918003A70196010E94CB2BA30159
S11342A092010E94912B29833A834B835C83612F73
S11342B0CE010196E7DDE985FA853196FA87E9872B
S11342C01F5FFFEF2F1A3F0A2F8138852E5F3F4F64
S11342D038872F834D855E854E5F5F4F5E874D87A0
S11342E06D817E816E5F7F4F7E836D838B859C8520
S11342F002969C878B87133009F0CECEA0960FB61A
S1134300F894DEBF0FBECDBFDF91CF911F910F9107
S1134310FF90EF90DF90CF90BF90AF909F908F90E1
S11343207F906F905F904F903F902F900895CF9320
S1134330DF93C8EFD3E0D093C001C093BF01A6E6DA
S1134340B1E08091BF019091C001FC0101962591DB
S11343502D939093C0018093BF01F1E0AD36BF0768
S113436081F766E671E080E090E00E94D00D279628
S113437084E0CD30D807F9F6DF91CF9108950F93FB
S11343801F932091A1033091A203A4E6B0E00E9400
S1134390B62B0091B4011091B5012091B601309172
S11343A0B701601771078207930719F583EE93E04D
S11343B09093C0018093BF01A6E6B1E08091BF0154
S11343C09091C001FC01019625912D939093C00119
S11343D08093BF01F1E0AD36BF0781F766E671E077
S11343E080E090E00E94D00D8091BC018F5F8093AB
S11343F0BC012091A1033091A203A4E6B0E00E9485
S1134400B62BDC01CB014496A11DB11D0091B40172
S11344101091B5012091B6013091B7018017910731
S1134420A207B30721F58AEE93E09093C00180932D
S1134430BF01A6E6B1E02DE631E08091BF01909185
S1134440C001FC01019645914D939093C001809366
S1134450BF012A173B0789F766E671E080E090E028
S11344600E94D00D8091BD018F5F8093BD0120918A
S1134470A1033091A203A4E6B0E00E94B62BDC01B4
S1134480CB018896A11DB11D0091B4011091B50115
S11344902091B6013091B70180179107A207B307A5
S11344A021F581EF93E09093C0018093BF01A6E6CC
S11344B0B1E02DE631E08091BF019091C001FC0193
S11344C0019645914D939093C0018093BF012A17A3
S11344D03B0789F766E671E080E090E00E94D00D2A
S11344E08091BE018F5F8093BE0166E671E080E03B
S11344F090E00E942E0E813009F0C4C0E091660164
S1134500F0E0EA59FE4F108280916B018233E9F5A5
S11345101092BC0140916D0140937F0220916E0185
S1134520209380028EE28093810280916F018093B8
S113453082021092830250E040535109E0E1F7E215
S11345404E9FB0014F9F700D5E9F700D112430E09F
S113455020533109E8EEF3E02E9FA0012F9F500D68
S11345603E9F500D1124460F571F90E0C09764E6FC
S1134570689F9001699F300D1124CA01820F931F17
S113458090934703809346037DC08333E9F51092EB
S1134590BD0140916D0140938D0320916E012093E4
S11345A08E038EE280938F0380916F01809390033A
S11345B01092910350E040535109E0E1F7E24E9F1D
S11345C0B0014F9F700D5E9F700D112430E0205399
S11345D03109E8EEF3E02E9FA0012F9F500D3E9F7E
S11345E0500D1124460F571F90E0C09764E6689F52
S11345F09001699F300D1124CA01820F931F90937B
S11346004903809348033EC08433E1F51092BE0110
S113461040916D014093780220916E0120937902BC
S11346208EE280937A0280916F0180937B021092D4
S11346307C0250E040535109E0E1F7E24E9FB001A3
S11346404F9F700D5E9F700D112430E0205331098F
S1134650E8EEF3E02E9FA0012F9F500D3E9F500DDA
S11346601124460F571F90E0C09764E6689F90019D
S1134670699F300D1124CA01820F931F90934B033D
S113468080934A032091A1033091A203A4E6B0E0F1
S11346900E94B62BDC01CB01805B9F4FAF4FBF4F15
S11346A00091B4011091B5012091B6013091B70188
S11346B080179107A207B30709F04BC09FDC109243
S11346C0B4011092B5011092B6011092B701809115
S11346D0BC018B3088F084E480937F029DE4909346
S11346E0800297E490938102809382028CED9FEF85
S11346F090934703809346038091BD018B3088F0EB
S113470084E480938D039DE490938E0397E49093C7
S11347108F03809390038CED9FEF909349038093D4
S113472048038091BE018B3088F084E48093780242
S11347309DE49093790297E490937A0280937B02AC
S11347408CED9FEF90934B0380934A0381E0809319
S1134750B8011F910F91089580E00E948803813071
S1134760B1F40E94031713C0F8942091A901309169
S1134770AA012F5F3F4F3093AA012093A901283B40
S11347803B4058F486E69EE00197F1F7000083E091
S11347900E948803813041F315C09091A8019111C2
S11347A008C08093A80192E5909358018093B801C2
S11347B009C0913039F71092A80181E4809358011F
S11347C09093B80178941092AA011092A90182E002
S11347D00E948803813039F582E00E948803813089
S11347E039F48FEF9FE80197F1F700C00000F4CF90
S11347F080915E01843618F48B5F80935E01809112
S11348005E0164E64CD720E3280F20935901892FD9
S11348106AE045D7805D80935A01905D90935B0177
S113482081E08093B80181E00E948803813039F5EA
S113483081E00E948803813039F48FEF9FE801976B
S1134840F1F700C00000F4CF80915E01882319F0D5
S1134850855080935E0180915E0164E620D720E359
S1134860280F20935901892F6AE019D7805D80931E
S11348705A01905D90935B0181E08093B8010895A3
S11348808091BA019091BB019C0121503109283CCF
S1134890310510F5209165012330F1F480E00E9488
S11348A0D00288E993E00E94580380E40E94D00279
S11348B084E993E00E94580383E00E94D0028FE7CA
S11348C092E00E94440383E40E94D0028DE893E0C6
S11348D00E94440381E04DC09C01295C3109283CBD
S11348E0310518F580916501813009F044C080E0FC
S11348F00E94D00280E993E00E94580380E40E9461
S1134900D0028CE893E00E94580383E00E94D00216
S11349108DE893E00E94440383E40E94D00288E778
S113492092E00E94440382E024C08139914018F14E
S1134930809165018230F9F480E00E94D00288E819
S113494093E00E94580380E40E94D00284E893E03C
S11349500E94580383E00E94D00288E792E00E94FC
S1134960440383E40E94D0028FE792E00E94440350
S113497083E0809365018091B90181110AC089E0C7
S11349800E94D00281E893E00E94580381E0809362
S1134990B9018091B801813081F48BE00E94D0028A
S11349A082E591E00E94440389E40E94D00288E5F4
S11349B091E00E9444031092B801089583B7876080
S11349C083BF8FE682BF87B7816087BF78940895DD
S11349D01F920F920FB60F9211240BB60F920F93E2
S11349E01F932F933F934F935F936F937F938F9373
S11349F09F93AF93BF93EF93FF938FE682BF209172
S1134A007F0330918003A4E6B0E0B0D60091B001FA
S1134A101091B1012091B2013091B301061717072B
S1134A202807390740F01092B0011092B10110929A
S1134A30B2011092B3014091AB014130E1F52091F4
S1134A40630130916401A4E6B0E090D60091AC011A
S1134A501091AD012091AE013091AF0106171707F7
S1134A6028073907F0F4949880915601813329F48A
S1134A7080E3809356014093B8018091AC019091FA
S1134A80AD01A091AE01B091AF010196A11DB11D80
S1134A908093AC019093AD01A093AE01B093AF01AC
S1134AA00AC01092AC011092AD011092AE011092A6
S1134AB0AF011092AB0180919401909195018536DC
S1134AC0910530F40196909395018093940104C06C
S1134AD010929501109294018091B4019091B501C6
S1134AE0A091B601B091B7018D3D21E492072FE06A
S1134AF0A207B10560F40196A11DB11D8093B40114
S1134B009093B501A093B601B093B70108C0109279
S1134B10B4011092B5011092B6011092B7018091C0
S1134B20B0019091B101A091B201B091B3018D3D5A
S1134B3021E492072FE0A207B10560F40196A11DBC
S1134B40B11D8093B0019093B101A093B201B093D1
S1134B50B30108C01092B0011092B1011092B201D9
S1134B601092B3018091BA019091BB01883522E083
S1134B70920730F401969093BB018093BA0104C06C
S1134B801092BB011092BA01FADBFF91EF91BF9131
S1134B90AF919F918F917F916F915F914F913F91D1
S1134BA02F911F910F910F900BBE0F900FBE0F907E
S1134BB01F9018952FEF8FEF9CE22150804090407A
S1134BC0E1F700C000000E94FF020E94640F40E869
S1134BD055E260E070E080E090E00E940E0D87B343
S1134BE0806F87BB8C9A62E080E00E94110484E0AD
S1134BF0E82E0BE211E029E733E040E061E080E0D9
S1134C000E94C503E12C00E010E02FE633E041E010
S1134C1060E081E00E94C50366E081E00E94110427
S1134C2025E633E048E060E082E00E94C5032BE51E
S1134C3033E04BE060E083E00E94C50321E533E00C
S1134C404EE060E084E00E94C50327E333E042E0E5
S1134C5060E085E00E94C5032CE233E046E060E0BA
S1134C6086E00E94C50323E133E047E060E087E08B
S1134C700E94C50363E082E00E94110428EF32E041
S1134C8043E060E088E00E94C50327EE32E044E0A0
S1134C9060E089E00E94C50322ED32E045E060E077
S1134CA08AE00E94C50362E083E00E94110495E05B
S1134CB0E92E03E712E02CEC32E040E061E08BE007
S1134CC00E94C50323E0E22E09E311E020EC32E068
S1134CD040E067E08CE00E94C50362E084E00E944B
S1134CE0110435E0E32E01E713E020EB32E040E06D
S1134CF061E08DE00E94C50302EE14E021EA32E097
S1134D0040E061E08EE00E94C50361E085E00E941E
S1134D10110447E0E42E03EA13E023E932E040E023
S1134D2065E08FE00E94C50361E086E00E94110403
S1134D3054E0E52E04E311E026E832E040E061E0CF
S1134D4080E10E94C50361E087E00E9411040FE244
S1134D5011E028E732E040E061E081E10E94C50310
S1134D6062E088E00E941104E12C00E010E02AE5F2
S1134D7032E049E060E082E10E94C5032DE332E0C5
S1134D804AE060E083E10E94C50362E089E00E949A
S1134D90110462E0E62E0FE313E02CE232E040E07F
S1134DA061E084E10E94C50307EE14E02BE132E0E8
S1134DB040E061E085E10E94C50363E08AE00E946F
S1134DC0110476E0E72E06E111E028E132E040E04C
S1134DD061E086E10E94C503E5E0EE2E00E113E008
S1134DE025E132E040E061E087E10E94C503F6E09E
S1134DF0EF2E01E011E022E132E040E061E088E1E1
S1134E000E94C50362E08BE00E941104E12C00E0E3
S1134E1010E024EF31E04CE060E089E10E94C5033A
S1134E2027ED31E04DE060E08AE10E94C50362E0D5
S1134E308CE00E941104A2E0EA2E01E413E026ECC7
S1134E4031E040E061E08BE10E94C50309EE14E02B
S1134E5025EB31E040E061E08CE10E94C50363E0B2
S1134E608DE00E941104B6E0EB2E0DE111E022EB7F
S1134E7031E040E061E08DE10E94C50315E0E12EE0
S1134E8005E113E02FEA31E040E061E08EE10E94A9
S1134E90C50306E0E02E08E011E02CEA31E040E032
S1134EA061E08FE10E94C50362E08EE00E9411047C
S1134EB0E12C00E010E02EE831E04EE060E080E21A
S1134EC00E94C50321E731E04FE060E081E20E94E7
S1134ED0C50362E08FE00E94110482E0E82E03E43F
S1134EE013E020E631E040E061E082E20E94C50385
S1134EF00BEE14E02FE431E040E061E083E20E9435
S1134F00C50363E080E10E94110496E0E92E04E207
S1134F1011E02CE431E040E061E084E20E94C5034A
S1134F2025E0E22E0AE113E029E431E040E061E00B
S1134F3085E20E94C50336E0E32E0FE011E026E48B
S1134F4031E040E061E086E20E94C503F0D90E94AE
S1134F50581634DD2091A1033091A20344E6429F08
S1134F60C001439F900D11240597A0E0B0E0809309
S1134F70B4019093B501A093B601B093B701FFD9E2
S1134F800E944A107DDC0E94131F0E94871EE4DBEE
S1134F90F9CF5058BB27AA270ED048C139D130F0D9
S1134FA03ED120F031F49F3F11F41EF42EC10EF4D3
S1134FB0E095E7FB24C1E92F4AD180F3BA176207D1
S1134FC073078407950718F071F49EF562C10EF417
S1134FD0E0950B2EBA2FA02D0B01B90190010C0105
S1134FE0CA01A0011124FF27591B99F0593F50F41D
S1134FF0503E68F11A16F040A22F232F342F442775
S1135000585FF3CF469537952795A795F04053956C
S1135010C9F77EF41F16BA0B620B730B840BBAF03C
S11350209150A1F0FF0FBB1F661F771F881FC2F7A7
S11350300EC0BA0F621F731F841F48F487957795BB
S11350406795B795F7959E3F08F0B3CF9395880F72
S113505008F09927EE0F9795879508950CD0E6C030
S1135060DED040F0D5D030F021F45F3F19F0C7C056
S1135070511110C1CAC0EBD098F39923C9F3552339
S1135080B1F3951B550BBB27AA2762177307840737
S113509038F09F5F5F4F220F331F441FAA1FA9F3ED
S11350A033D00E2E3AF0E0E830D091505040E695DF
S11350B0001CCAF729D0FE2F27D0660F771F881F40
S11350C0BB1F261737074807AB07B0E809F0BB0B2F
S11350D0802DBF01FF2793585F4F2AF09E3F510553
S11350E068F08DC0D7C05F3FECF3983EDCF3869543
S11350F077956795B795F7959F5FC9F7880F911DC9
S11351009695879597F90895E1E0660F771F881FB4
S1135110BB1F621773078407BA0720F0621B730B67
S1135120840BBA0BEE1F88F7E095089598D088F0A9
S11351309F5790F0B92F9927B751A0F0D1F0660F7F
S1135140771F881F991F1AF0BA95C9F712C0B1309A
S113515081F09FD0B1E008959CC0672F782F8827F5
S1135160B85F39F0B93FCCF3869577956795B395D9
S1135170D9F73EF490958095709561957F4F8F4F48
S11351809F4F0895E89409C097FB3EF4909580954D
S1135190709561957F4F8F4F9F4F9923A9F0F92FF9
S11351A096E9BB279395F695879577956795B79577
S11351B0F111F8CFFAF4BB0F11F460FF1BC06F5F5D
S11351C07F4F8F4F9F4F16C0882311F096E911C06F
S11351D0772321F09EE8872F762F05C0662371F090
S11351E096E8862F70E060E02AF09A95660F771FA4
S11351F0881FDAF7880F9695879597F9089597F998
S11352009F6780E870E060E008959FEF80EC089568
S113521000240A9416161706180609060895002491
S11352200A9412161306140605060895092E03940B
S1135230000C11F4882352F0BB0F40F4BF2B11F47F
S113524060FF04C06F5F7F4F8F4F9F4F089557FDDE
S11352509058440F551F59F05F3F71F04795880FE0
S113526097FB991F61F09F3F79F087950895121677
S113527013061406551FF2CF4695F1DF08C0161623
S113528017061806991FF1CF8695710561050894D4
S11352900895E894BB2766277727CB0197F90895EB
S11352A0E3D008F48FEF08950BD0C0CFB1DF28F01E
S11352B0B6DF18F0952309F0A2CFA7CF1124EACFC7
S11352C0C6DFA0F3959FD1F3950F50E0551F629F61
S11352D0F001729FBB27F00DB11D639FAA27F00D4B
S11352E0B11DAA1F649F6627B00DA11D661F829F72
S11352F02227B00DA11D621F739FB00DA11D621F57
S1135300839FA00D611D221F749F3327A00D611D73
S1135310231F849F600D211D822F762F6A2F112455
S11353209F5750408AF0E1F088234AF0EE0FFF1FA8
S1135330BB1F661F771F881F91505040A9F79E3FDF
S1135340510570F05CCFA6CF5F3FECF3983EDCF3E1
S1135350869577956795B795F795E7959F5FC1F71C
S1135360FE2B880F911D9695879597F90895FA015C
S1135370EE0FFF1F30962105310599F16115710576
S113538061F48038BFE39B0749F168949038810544
S113539061F08038BFEF9B0741F0992342F5FF3F4E
S11353A0E1053105210511F1E8940894E795D90147
S11353B0AA2329F4AB2FBE2FF85FD0F310C0FF5FF0
S11353C070F4A695E0F7F73950F019F0FF3A38F485
S11353D09F779F930CD00F9007FC905808953EF050
S11353E014CF60E070E080E89FE308954FE79F7773
S11353F05F934F933F932F93C2D02F913F914F913F
S11354005F9152DF05C019F40EF0F9CE42CFFDCE04
S113541026DFC8F39638C0F707F80F92E8942BE319
S11354203AEA48EB5FE74EDF0F920F920F924DB7C7
S11354305EB70F92E4D0E4ECF0E03AD04F915F9184
S1135440EF91FF91E595EE1FFF1F49F0FE57E068CD
S11354504427EE0F441FFA95E1F74195550B56D0BA
S11354600F9007FE4AC00895990F0008550FAA0B24
S1135470E0E8FEEF16161706E807F907C0F0121663
S11354801306E407F50798F0621B730B840B950B66
S113549039F40A2661F0232B242B252B21F40895BB
S11354A00A2609F4A140A6958FEF811D811D089558
S11354B0DF93CF931F930F93FF92EF92DF927B01C1
S11354C08C01689405C0DA2EEF01FADEFE01E8943F
S11354D0A5912591359145915591AEF3EF016BDD81
S11354E0FE019701A801DA9479F7DF90EF90FF901D
S11354F00F911F91CF91DF9108959B01AC0160E062
S113550070E080E89FE3AACD7ACEACC0A8DEE8F3D1
S11355109923D9F3940F511DBBF39150504094F04B
S113552059F0882332F0660F771F881F915050403E
S1135530C1F79E3F510544F7880F911D96958795B5
S113554097F908955F3FACF0983E9CF0BB27869591
S113555077956795B79508F4B1609395C1F7BB0F3C
S113556058F711F460FFE8CF6F5F7F4F8F4F9F4F65
S1135570E3CF90CE0EF076C048CE689440CE6FDE76
S1135580C8F39923D1F3C6F3DF93CF931F930F93FB
S1135590FF92C92FDD2788232AF02197660F771FF2
S11355A0881FDAF720E030E040E85FEB9FE38839BA
S11355B020F0803E30F021968F77ECDCECEEF0E0CA
S11355C003C0E8DCE9E1F1E073DF8B01BE01EC012B
S11355D0FB2E6F5771097595771F880B990BD4DDD6
S11355E028E132E741E35FE36BDEAF2D9801AE01C2
S11355F0FF900F911F91CF91DF91DDDC17CEFA015F
S1135600DC01AA0FBB1F9B01AC01BF5728F4222762
S11356103327442750781FC0B75188F4AB2F002498
S1135620469537952795011CA395D2F3002069F080
S1135630220F331F441FB395DAF30DD0AACC613087
S11356407105A0E88A07B94630F49B01AC016627CE
S1135650772788279078309621F0208331834283FE
S1135660538308959F3F31F0915020F487957795A7
S11356706795B795880F911D9695879597F9089525
S1135680DB018F939F9387D0BF91AF91A29F800D31
S1135690911DA39F900DB29F900D11240895991B05
S11356A079E004C0991F961708F0961B881F7A9515
S11356B0C9F780950895AA1BBB1B51E107C0AA1F17
S11356C0BB1FA617B70710F0A61BB70B881F991F9F
S11356D05A95A9F780959095BC01CD010895A1E252
S11356E01A2EAA1BBB1BFD010DC0AA1FBB1FEE1F58
S11356F0FF1FA217B307E407F50720F0A21BB30BA3
S1135700E40BF50B661F771F881F991F1A9469F71E
S113571060957095809590959B01AC01BD01CF017A
S11357200895052E97FB16F400940FD057FD05D06D
S1135730D6DF07FC02D046F408C05095409530955A
S113574021953F4F4F4F5F4F0895909580957095E9
S113575061957F4F8F4F9F4F0895EE0FFF1F0024D9
S1135760001C0BBE0790F691E02D0994A29FB00196
S1135770B39FC001A39F700D811D1124911DB29F81
S1135780700D811D1124911D0895F0DFB7FF089558
S1135790821B930B0895EADFA59F900DB49F900D93
S11357A0A49F800D911D11240895B7FFF4CFF3DF5A
S11357B0821B930B08950F931F93CF93DF93CDB761
S11357C0DEB72E970FB6F894DEBF0FBECDBF0D899E
S11357D01E8986E08C831A8309838FEF9FE79E835B
S11357E08D83AE01475E5F4F6F89788DCE01019640
S11357F010D0EF81F885E00FF11F10822E960FB6BE
S1135800F894DEBF0FBECDBFDF91CF911F910F91F2
S113581008952F923F924F925F926F927F928F9250
S11358209F92AF92BF92CF92DF92EF92FF920F932B
S11358301F93CF93DF93CDB7DEB72B970FB6F894B2
S1135840DEBF0FBECDBF6C017B018A01FC01178254
S11358501682838181FFBFC1CE0101963C01F6010E
S11358609381F70193FD859193FF81917F018823B3
S113587009F4ADC1853239F493FD859193FF81918B
S11358807F01853221F4B60190E0D6D1E8CF912C86
S1135890212C312CFFE1F315D8F08B3279F038F458
S11358A0803279F08332A1F4232D20611DC08D3222
S11358B061F0803369F4232D216016C0832D82604A
S11358C0382EE32DE4603E2E2AC0F32DF8601DC06F
S11358D037FC2DC020ED280F2A3040F08E32B9F469
S11358E036FC75C1232D2064322E19C036FE06C045
S11358F08AE0989E200D1124922E11C0EAE02E9E7B
S1135900200D1124222EF32DF0623F2E08C08C3678
S113591021F4832D8068382E02C0883641F4F701C3
S113592093FD859193FF81917F018111B3CF982FCE
S11359309F7D9554933028F40C5F1F4F9FE3998308
S11359400DC0833631F0833771F0833509F055C0CB
S113595020C0F801808189830E5F1F4F88248394BF
S1135960912C530112C02801F2E04F0E511CF80192
S1135970A080B18036FE03C0692D70E002C06FEFD5
S11359807FEFC5014ED14C018201F32DFF773F2EED
S113599015C0280122E0420E511CF801A080B180FC
S11359A036FE03C0692D70E002C06FEF7FEFC501C2
S11359B02DD14C01F32DF0683F2E820133FC19C028
S11359C0822D90E088169906A0F4B60180E290E05A
S11359D033D12A94F5CFF50137FC859137FE8191B7
S11359E05F01B60190E028D121102A9421E0821AA7
S11359F091088114910479F7E1C0843611F0893655
S1135A0039F5F80137FE07C0608171818281938185
S1135A100C5F1F4F08C060817181072E000C880B3A
S1135A20990B0E5F1F4FF32DFF763F2E97FF09C092
S1135A3090958095709561957F4F8F4F9F4FF0683B
S1135A403F2E2AE030E0A30133D1882E861844C0CB
S1135A50853731F4232D2F7EB22E2AE030E025C085
S1135A60932D997FB92E8F36C1F018F4883579F0CB
S1135A70AEC0803719F0883721F0A9C0E92FE06162
S1135A80BE2EB4FE0DC0FB2DF460BF2E09C034FE43
S1135A900AC0292F2660B22E06C028E030E005C0D7
S1135AA020E130E002C020E132E0F801B7FE07C097
S1135AB060817181828193810C5F1F4F06C0608178
S1135AC0718180E090E00E5F1F4FA301F1D0882E1A
S1135AD08618FB2DFF773F2E36FE0DC0232D2E7F1B
S1135AE0A22E891458F434FE0BC032FC09C0832D55
S1135AF08E7EA82E05C0B82CA32C03C0B82C01C0E0
S1135B00B92CA4FE0FC0FE01E80DF11D8081803385
S1135B1021F49A2D997EA92E09C0A2FE06C0B39441
S1135B20B39404C08A2D867809F0B394A3FC10C002
S1135B30A0FE06C0B21480F4280C922C9B180DC051
S1135B40B21458F4B60180E290E076D0B394F8CF62
S1135B50B21418F42B1802C0982C212CA4FE0FC0E8
S1135B60B60180E390E068D0A2FE16C0A1FC03C099
S1135B7088E790E002C088E590E0B6010CC08A2D69
S1135B80867851F0A1FE02C08BE201C080E2A7FC3E
S1135B908DE2B60190E050D0891430F4B60180E370
S1135BA090E04AD09A94F8CF8A94F301E80DF11D5D
S1135BB08081B60190E040D08110F6CF222009F414
S1135BC04ECEB60180E290E037D02A94F7CFF601AA
S1135BD08681978102C08FEF9FEF2B960FB6F894C2
S1135BE0DEBF0FBECDBFDF91CF911F910F91FF900C
S1135BF0EF90DF90CF90BF90AF909F908F907F9069
S1135C006F905F904F903F902F900895FC01059006
S1135C10615070400110D8F7809590958E0F9F1FAA
S1135C200895FC016150704001900110D8F78095EF
S1135C3090958E0F9F1F08950F931F93CF93DF931B
S1135C40FB01238121FD03C08FEF9FEF2CC022FFB6
S1135C5016C046815781248135814217530744F485
S1135C60A081B1819D012F5F3F4F318320838C93AD
S1135C70268137812F5F3F4F3783268314C08B01E2
S1135C80EC01FB010084F185E02D0995892BE1F6F7
S1135C90D80116968D919C911797019617969C930F
S1135CA08E931697CE01DF91CF911F910F91089596
S1135CB0FA01AA27283051F1203181F1E8946F9339
S1135CC06E7F6E5F7F4F8F4F9F4FAF4FB1E03ED0DF
S1135CD0B4E03CD0670F781F891F9A1FA11D680F7D
S1135CE0791F8A1F911DA11D6A0F711D811D911DB0
