:100000007BC2000098C2000096C2000094C20000AB
:1000100092C2000090C200008EC200008CC200009C
:100020008AC2000088C2000086C2000084C20000AC
:1000300082C2000080C200007EC200007CC20000BC
:100040000C94672278C200000C941C0C74C200004F
:100050000C94740C70C200006EC200006CC20000F0
:100060006AC2000068C2000066C2000064C20000EC
:1000700062C2000060C200005EC200005CC20000FC
:100080005AC2000058C2000056C2000019173B17A0
:1000900054178217B117C5170C18F616F61646181E
:1000A00060187A181219AA19F616F616421A5C1A6E
:1000B000761A111BAC1BF616F616471C611C7B1C2E
:1000C000161DB11D07634236B79BD8A71A3968566B
:1000D00018AEBAAB558C1D3CB7CC5763BD6DEDFD6A
:1000E000753EF6177231BF000000803F0800000027
:1000F000BE922449123EABAAAA2ABECDCCCC4C3E1D
:1001000000000080BEABAAAAAA3E00000000BF000B
:100110000000803F0000000000084178D3BB438707
:10012000D1133D190E3CC3BD4282AD2B3E68EC821B
:1001300076BED98FE1A93E4C80EFFFBE01C4FF7FA0
:100140003F0000000000CAE400CAE800CAEF00D285
:10015000E5ECEFE5F0E0F2F3F0E020EDEEF7FC0087
:10016000D2E5ECEFE5F0E0F2F3F0E020E4E5EDFCC1
:1001700000C8E7ECE5ED2E20EDE0F1F2F0EEE5EA67
:100180002F6E20F0E5E3F3EBFFF2EEF0E000C8E7BE
:10019000ECE5ED2E20EDE0F1F2F0EEE5EA2F6E2039
:1001A000F2E5ECEFE5F0E0F2F3F0FB00CAE400CAA0
:1001B000E800CAEF00D2E5ECEFE5F0E0F2F3F0E0A2
:1001C00020EDEEF7FC00D2E5ECEFE5F0E0F2F3F025
:1001D000E020E4E5EDFC00C8E7ECE5ED2E20EDE0E5
:1001E000F1F2F0EEE5EA2F6E20F0E5E3F3EBFFF23B
:1001F000EEF0E000C8E7ECE5ED2E20EDE0F1F2F0E6
:10020000EEE5EA2F6E20F2E5ECEFE5F0E0F2F3F038
:10021000FB00CAE400CAE800CAEF00D2E5ECEFE553
:10022000F0E0F2F3F0E020EDEEF7FC00D2E5ECEFC9
:10023000E5F0E0F2F3F0E020E4E5EDFC00C8E7ECE7
:10024000E5ED2E20EDE0F1F2F0EEE5EA2F6E20F084
:10025000E5E3F3EBFFF2EEF0E000C8E7ECE5ED2EAE
:1002600020EDE0F1F2F0EEE5EA2F6E20F2E5ECEFA2
:10027000E5F0E0F2F3F0FB00CFE5F0E8EEE420E299
:100280002020F1E5EA00CFE5F0E8EEE420E220F1FD
:10029000E5EA00CF20C220D120D720CF20D120C234
:1002A00000CAEEEDE5F620F0E0E12E20E4EDFF00DF
:1002B000CDE0F7E0EBEE20F0E0E12E20E4EDFF00F2
:1002C000C4E5EDFC20EDE5E4E5EBE800C2F0E5EC8B
:1002D000FF00D1F2E0F2F3F120E4EDE5E92F6E202A
:1002E000EDE5E4E5EBE800D0E5E6E8ECFB20E4E54D
:1002F000EDFC2FEDEEF7FC00CDE0F1F2F0EEE9EAD7
:10030000E020F2E5EAF3F92E2F6E20E2F0E5ECE5CD
:10031000EDE800CFE5F0E8EEE420EEEFF0EEF1E0FE
:100320002F6E20E4E0F2F7E8EAEEE200CFE5F0E835
:10033000EEE420D8C8CC00C8E7ECE5ED2E20EDE0D7
:10034000F1F2F0EEE5EA2F6E20E2F0E5ECE5EDE803
:1003500000CAEEEDF2F3F0B93300CAEEEDF2F3F0BD
:10036000B93200CAEEEDF2F3F0B931005354005443
:10037000313D0054333D0054333D0054323D005470
:10038000323D0054313D004552524F520020202052
:1003900020002020202000C2FBEAEB00C2EAEB0094
:1003A000C2FBEAEB00C2EAEB002020202000202064
:1003B000202000C2FBEAEB00C2EAEB00C2FBEAEB42
:1003C00000C2EAEB00C2FBEAEB00C2EAEB005E54BB
:1003D00030303032005E5430303033005E543030D4
:1003E0003034005E5030303032005E5030303033C8
:1003F000005E50303030340000010203040506076F
:1004000008090A0B0C0D0E0F1011121314151617F4
:1004100018191A1B1C1D1E1F2021222324252627E4
:1004200028292A2B2C2D2E2F3031323334353637D4
:1004300038393A3B3C3D3E3F4041424344454647C4
:1004400048494A4B4C4D4E4F5051525354555657B4
:1004500058595A5B5C5D5E5F6061626364656667A4
:1004600068696A6B6C6D6E6F707172737475767794
:1004700078797A7BD17DE97F808127832285868781
:1004800088898A8B8C8D8E8F906061CACBDF5F5F8D
:1004900098999A9B9C9D9E9FA08DA2A3A4A5D1FDF7
:1004A000A2A9AACAACADAEAFEFB1496972B5B6B7F1
:1004B000B5CCBACBBCBDBEBF41A042A1E045A3A410
:1004C000A5A64BA74D484FA8504354A9AA58E1AB45
:1004D000ACE2ADAEC4AFB0B161B2B3B4E365B6B730
:1004E000B8B9BABBBCBD6FBE7063BF79E478E5C074
:1004F000C1E6C2C3C4C5C6C711241FBECFEFD0E139
:10050000DEBFCDBF11E0A0E0B1E0EEECF7E500E02A
:100510000BBF02C007900D92A237B107D9F724E0B4
:10052000A2E7B1E001C01D92AA3DB207E1F70E9427
:1005300059230C94E52B64CD1E9A85E08A95F1F73A
:100540001E980895CF93C0E2CBBBF6DFCBBBF4DFA0
:1005500080EA8BBBCF91F0CFCF93DF9300D0CDB7A4
:10056000DEB71BBA6A838983E7DF89816A818823C2
:1005700011F080E601C080E4611180618BBB0F90B7
:100580000F90DF91CF91D8CFCF93DF931F92CDB74C
:10059000DEB7982F907F90689BBB8983CDDF8981E0
:1005A0008295807F8BBB0F90DF91CF91C5CF1BBA17
:1005B000C3DF80E18BBBC0DF86E69EE00197F1F7E9
:1005C000000008951BBAB8DF80E28BBBB5CF82B1C3
:1005D000886682B983B1886483B98FEF9FE80197F9
:1005E000F1F700C0000083B1877983B98AB3806FC7
:1005F0008ABB8FEF9FE80197F1F700C00000A2DFF0
:100600001BBA9ADF80ED8BBB97DFD1DFDBDF60E0C9
:1006100081E0A2CFCF931B9AE82FF0E0E850FC4F87
:10062000C4918C2F807F8BBB87DFC295C07FCBBBF3
:1006300083DF1B98CF9108950F931F93CF93DF9380
:10064000EC018C01005C1F4F8991882321F0E2DFCF
:10065000C017D107C9F7DF91CF911F910F9108956E
:100660000F931F93CF93DF93EC018C01005C1F4F1E
:10067000FE0121968591882321F0CCDFC017D10798
:10068000B9F7DF91CF911F910F9108959091640078
:10069000906190936400813041F018F0823049F00D
:1006A0000895809165008F7E08C08091650080610B
:1006B00004C09091650080E18927809365000895CA
:1006C0009091510291111BC0813069F038F0823055
:1006D00081F0833081F589B380952BC089B383FB8A
:1006E000882780F909C099B392FB222720F9822735
:1006F000089589B38695817091E089270895909136
:100700006A02292F30E0082E02C0359527950A94F9
:10071000E2F730916A0241E050E0BA0102C0660F90
:10072000771F8A95E2F7CB018095832380936A0235
:10073000822F817008958FEF0895EF920F931F938A
:10074000A0918301B0918401A732B105F0F5CD01EC
:1007500053E0880F991F5A95E1F7FC01E956FC4FC9
:10076000608333832283158304834183442339F0D8
:10077000E42FF0E0EE0FFF1FE75CFC4FA183EE20BB
:1007800029F0FC01E956FC4FE6820CC0623031F4DE
:1007900021E0FC01E956FC4F268304C0FC01E95628
:1007A000FC4F168220914B0230914C02FC01E9561D
:1007B000FC4F27832F5F3F4F30934C0220934B0217
:1007C0001196B0938401A09383011F910F91EF9034
:1007D000089510924C0210924B02809181019091E9
:1007E00082018231910558F4FC01EE0FFF1FE75C96
:1007F000FC4F60830196909382018093810108955C
:1008000010924E0210924D0261110CC020914D02C7
:1008100030914E02A901480F511D50934E02409352
:100820004D020895E9E3F3E020E030E040E050E0DD
:1008300070E0461757073CF49081290F311D4F5F38
:100840005F4F3296F6CF30934E0220934D02DECFAB
:10085000E0914D02F0914E0293E0EE0FFF1F9A954A
:10086000E1F7E956FC4F0480F581E02D693008F08E
:1008700068E0823021F4808180934F020895982FA0
:100880009B7F913011F0883069F4A2E5B2E070E00E
:10089000CD0182559240861797071CF481918D9364
:1008A000F7CF0895873001F570E080E090E020E018
:1008B00030E0DF01A80FB91F4C914F3FA9F0860F20
:1008C000971F41110EC020934802FD01A2E5B2E03E
:1008D0006E5A7D4FA617B70719F081918D93FACF05
:1008E00008952F5F3F4FE5CF0895AF92BF92CF920B
:1008F000DF92EF92FF920F931F93CF93DF9300D07D
:10090000CDB7DEB7E82E20914A0230E0F901EE0FB4
:10091000FF1FE45FFC4F40815181E0914D02F09157
:100920004E0273E0EE0FFF1F7A95E1F7E956FC4F98
:100930000681F080C280D38084E0F81297C0809155
:10094000490281111EC020DEE0914D02F0914E025D
:1009500053E0EE0FFF1F5A95E1F7E956FC4F028175
:100960001381780190E1E90EF11CF8010F5F1F4F30
:100970008591882309F403C14DDE0E151F05A9F7E3
:10098000FEC08A0143E0000F111F4A95E1F7F8010C
:10099000E956FC4FF6809081973009F4FA9490E084
:1009A000821B930B9F938F938EE691E09F938F937F
:1009B000CE0101966C019F938F930E94E5288EE4EF
:1009C000E3DDC60139DE80E0DFDDF801E956FC4FEA
:1009D000C280D380560190E1A90EB11C0F900F90F8
:1009E0000F900F900F900F90F60131966F01319795
:1009F000859181110BC080E4C7DDF801E956FC4FF9
:100A00008081823041F000E010E02AC003DECA1489
:100A1000DB0451F7F0CFE0914A0288E0E89FF00153
:100A20001124EF58FD4F8081882319F08AEC93E060
:100A300002C085EC93E014DEA2C090E0081719070D
:100A40000CF09DC080914A02F80198E0899FE00D6A
:100A5000F11D1124EF58FD4F8081DCDD0F5F1F4F2A
:100A60008F2DE8E0EF1548F788E0E7CF80E08CDDD8
:100A700090E2A92EB12CF6018491811103C0F110EE
:100A800018C062C08F3251F4F601319684918E36CF
:100A900029F4F2E0CF0ED11C80E476DDF601319628
:100AA0006F0131978591B6DDF1E0AF1AB10819F702
:100AB000E6CF093008F008E080915002887119F4FF
:100AC000602F8F2DC5DE82E0F8120FC080E45CDD60
:100AD00080914F02813019F481EC93E004C08111C0
:100AE00033C08CEB93E0BCDD2FC08F2D8B7F81302A
:100AF00019F098E0F91212C080E446DD82E5C82EB4
:100B000082E0D82E10E0C6018255924080179107EE
:100B1000DCF4F60181916F017DDDF5CFF7E0FF1286
:100B200013C080E431DDC12CD12C10E0015011093B
:100B3000C016D1064CF48FEFC81AD80AF601EE5A47
:100B4000FD4F808167DDF4CF8091500283FF17C095
:100B500095E0F91669F0E8E0FE1671F0F1E0FF1299
:100B60000EC08FE38E1558F080E48E0D0DDD07C0AA
:100B70009FE39E1520F0F8CFEFE3EE15A8F70F9056
:100B80000F90DF91CF911F910F91FF90EF90DF9029
:100B9000CF90BF90AF900895AF92BF92CF92DF9267
:100BA000EF92FF920F931F93CF93DF9320914D020B
:100BB00030914E02F90183E0EE0FFF1F8A95E1F7B5
:100BC000DF01A956BC4F7C9116964C91493008F034
:100BD00048E0E956FC4F5481A5806091500265FDC4
:100BE00033C0A09149028A2F90E0FC01EE0FFF1F55
:100BF000E45FFC4F31832083E52FFA2D03E0880F5B
:100C0000991F0A95E1F720E030E050E024173507FE
:100C1000B4F4773051F0B191E901C80FD91FCF5822
:100C2000DD4FB8832F5F3F4FF1CF820F931FFC0141
:100C3000EF58FD4FE901CE5ADD4F8981808381E075
:100C40008A0F809349025DC00CE013E0A1E7B2E097
:100C5000E8018A819B81F801819391938F01D3E010
:100C6000880F991FDA95E1F7FC01E956FC4FE68100
:100C7000F0E080E090E0ED0128967E018E179F075E
:100C800064F46701C80ED91EE601B8806D01C80E74
:100C9000D91EE601B8820196F1CFD701D2E0A93E74
:100CA000BD07B1F6A09149028A2F90E0FC01EE0F3A
:100CB000FF1FE65FFC4F31832083E52FFA2DC3E051
:100CC000880F991FCA95E1F720E030E050E0241723
:100CD0003507B4F4773051F0B191E901C80FD91F4D
:100CE000CF58DD4FB8832F5F3F4FF1CF820F931F57
:100CF000FC01EF58FD4FE901CE5ADD4F8981808319
:100D0000A150A0934A0280914902803118F060629C
:100D100060935002DF91CF911F910F91FF90EF9060
:100D2000DF90CF90BF90AF900895CF93DF93E09185
:100D30004D02F0914E0293E0EE0FFF1F9A95E1F7FE
:100D4000DF01A956BC4F16962C91293008F028E0F7
:100D5000E956FC4F9081882329F0E2E5F2E050E06B
:100D600030E00AC06F5F621708F450C160E04EC106
:100D700071917E3209F451E0DF01A255B240A21711
:100D8000B307B4F3813021F0823009F4A1C03EC131
:100D9000953009F446C028F4913079F0923041F052
:100DA00035C1973009F457C0983009F484C02EC17A
:100DB00090914F029111A4C0A0C0A62FB0E0FD01F8
:100DC000EE5AFD4F80818B3209F4A5C08D3209F4B3
:100DD000A6C08F5F8083662339F021503109A217A6
:100DE000B30711F0513019F48A33B8F06FC0613095
:100DF00089F4909152029B3211F09D3219F48A339A
:100E000020F064C08A3308F0B4C0803308F45EC0B8
:100E100061E0FCC08A3308F0ACC0803308F0F6C053
:100E200055C0E62FF0E0EE5AFD4F80818F5F803E87
:100E300009F44CC08A3309F49CC08F3209F4E5C030
:100E4000803309F4A4C08F3509F49DC0813209F0C4
:100E5000DCC080ECDAC08091480251E0580F50931A
:100E6000480298E0499FF0011124E956FC4F0480A4
:100E7000F581E02D5203D001539FB00D1124AE0F28
:100E8000BF1F9C919F3F11F48093480240914802FC
:100E90004203C001439F900D1124E80FF91FA2E502
:100EA000B2E0CD0182559240821793070CF0AEC09C
:100EB00081918D93F6CFE62FF0E0EE5AFD4F8081C1
:100EC0008F5F8A3318F4803308F09FC080E39DC0A1
:100ED000953009F450C028F49130A9F0923041F0D7
:100EE00095C0973009F461C0983009F485C08EC070
:100EF00080914F02811104C081E080934F0286C02F
:100F000010924F0283C0A62FB0E0FD01EE5AFD4FB4
:100F100080818B3211F48DE278C08D3211F48BE236
:100F200074C081508083662339F021503109A217A3
:100F3000B30711F0513021F4803308F067C064C06A
:100F4000613089F4909152029B3211F09D3221F46C
:100F5000803308F05DCF58C08E3208F455C080331E
:100F600008F056CF06C08E3208F44EC0803308F029
:100F70004DC08EE24AC0E62FF0E0EE5AFD4F808170
:100F800081508F3B11F480E240C08F3111F48EE527
:100F90003CC08D3511F48FE238C08E32B1F18D3204
:100FA00099F18F3291F58FED30C0809148028823FE
:100FB00019F0815080934802509148025203C001B9
:100FC000539F900D1124C2E5D2E058E0459FF001F7
:100FD0001124E556FC4F82559240AE0142555240D5
:100FE000421753079CF4A081B181AC0FBD1FA80F1D
:100FF000B91F4C914993F1CFE62FF0E0EE5AFD4F27
:1010000080818150803308F489E38083862FDF91CB
:10101000CF910895DC01E0914D02F0914E0283E002
:10102000EE0FFF1F8A95E1F7E956FC4F908126816C
:101030008091500284FF34C0293008F028E08F7E70
:1010400080935002953091F040F4913079F09230D5
:1010500011F580914F028C931EC0973019F0983093
:10106000D1F404C0E2E5F2E030E00CC0E2E5F2E0E9
:1010700030E0AF01425552404217530764F481916A
:101080008D93F7CFAF0142555240421753071CF4DE
:1010900081918D93F7CFFB01908380914D0208954C
:1010A00080E00895AF92BF92CF92DF92EF92FF92CD
:1010B0000F931F93CF938B0123E0880F991F2A95DD
:1010C000E1F7DC01A956BC4FE0914D02F0914E02D0
:1010D00033E0EE0FFF1F3A95E1F7E956FC4FC4806D
:1010E000D5801696CC91C93008F0C8E09C012956ED
:1010F0003C4F7901F901A480B5804EDDF701808174
:10110000853071F048F4813059F08230E1F5F80112
:101110008081F501808337C0873079F0883099F578
:10112000F801D5018C2F90E09D012A193B09281761
:1011300039074CF521912D93F7CF509152028C2F06
:1011400090E0F60120E060E040E030813F3F51F068
:10115000311101C0622F351301C0422FE80FF91F72
:101160002F5FF3CF689FF001699FF00D1124EC0D04
:10117000FD1D5083489F9001499F300D1124F601B9
:10118000E20FF31F1082CF911F910F91FF90EF900C
:10119000DF90CF90BF90AF9008958F929F92BF92B3
:1011A000CF92DF92EF92FF920F931F93CF93DF9333
:1011B0007C018B0180915002866080935002DD2477
:1011C000D394CC24CA948091500286FD04C08F7EB3
:1011D0008093500207C08F7A809350021092800152
:1011E00010927F0160917F018091800109DB80E096
:1011F00067DA813009F069C1C0E0D0E0B12C80E04D
:101200005FDA813009F0E3C083E39BE20197F1F7F5
:101210009091500293FF13C0CC3291E0D90780F136
:1012200081E5B2D9C092000180915002877F806130
:101230008093500281E02ADABB24B39429C0E09164
:101240004D02F0914E0263E0EE0FFF1F6A95E1F749
:10125000E956FC4F8081833069F4CC32E1E0DE074F
:1012600078F09B7F906190935002109280011092D1
:101270007F010CC0863061F4CC32F1E0DF0710F45E
:10128000219606C09B7F90619093500281E0FED929
:101290008091500283FF78C0E0914D02F0914E02A0
:1012A00053E0EE0FFF1F5A95E1F7E956FC4F80819E
:1012B000823051F580917E01863458F486E69EE0B6
:1012C0000197F1F7000080917E018F5F80937E018E
:1012D00019C010927E0180E457D980917D01882346
:1012E00061F010927D0180914F02882319F088EB04
:1012F00093E007C083EB93E004C0D0927D018EEAB7
:1013000093E0AED981E53EC0873009F078CF809177
:101310007E01863458F4E6E6FEE03197F1F70000EE
:1013200080917E018F5F80937E012BC010927E01A1
:1013300080E42AD980917D018823F1F010927D010B
:1013400043E5842E42E0942EE0914D02F0914E024E
:1013500033E0EE0FFF1F3A95E1F7E956FC4F868127
:1013600090E09401225532402817390754F4F401D3
:1013700081914F014FD9E8CFD0927D0189EA93E066
:101380006FD985E401D93BCF84FF39CFE0914D027D
:10139000F0914E0223E0EE0FFF1F2A95E1F7E95688
:1013A000FC4F8081823009F02ACFF1E0BF1227CFB5
:1013B00080E4EAD880914F02882319F085EA93E00F
:1013C00002C080EA93E04CD981E5DED817CF809146
:1013D000500240914D0250914E02282F207184FFFF
:1013E00017C0FA0193E0EE0FFF1F9A95E1F7E95657
:1013F000FC4F9081933011F0963051F486E0F80163
:10140000808380E043D980914D0290914E0208C2C2
:10141000FA01D3E0EE0FFF1FDA95E1F7E956FC4F32
:101420009181992329F01092800190937F0146C009
:10143000222321F0877F8093500240C090812FEFBC
:10144000290F223030F0953021F029EF290F22307A
:10145000A8F5886080935002913031F460910001CA
:1014600080E063DC8093000140914D0250914E0278
:10147000FA01C3E0EE0FFF1FCA95E1F7E956FC4FF2
:101480008081853031F46091000180E04EDC8093F2
:10149000000140914D0250914E02FA01B3E0EE0F6F
:1014A000FF1FBA95E1F7E956FC4F8081883031F48F
:1014B0006091000180E039DC80930001809150024E
:1014C00082608093500280E0E1D883E0F9D88130D7
:1014D00009F079C083E0F4D8813049F484E190E0E8
:1014E000E3E3F7E03197F1F70197D1F7F3CF4091BC
:1014F0007F0190915002442379F193FD59C050E04F
:10150000FA01EE0FFF1FE75CFC4F618170E0709302
:101510004E0260934D02FB01A3E0EE0FFF1FAA9560
:10152000E1F7E956FC4F878180938001A9E3B3E09E
:1015300020E030E0E0E0F0E024173507C8F58C91BA
:10154000E80FF11D12966E177F0718F420937F01A4
:101550002FC02F5F3F4FF0CF93FF22C0E0914D028D
:10156000F0914E0263E0EE0FFF1F6A95E1F7E95636
:10157000FC4F8081813049F08230D1F40480F581C4
:10158000E02D808180934F0213C0A481B581E2E5F4
:10159000F2E082E0EA35F80759F08D918193F9CFB6
:1015A0009B7F90649093500202D88FEF9FEF38C1D9
:1015B000C092000180914902815080934A02977F36
:1015C00092609093500282E07BD8813009F04CC049
:1015D00082E076D8813049F484E190E0E3E3F7E0FB
:1015E0003197F1F70197D1F7F3CF8091500283FF44
:1015F00007C040914D026091000181E096DB2FC051
:10160000E0914D02F0914E0253E0EE0FFF1F5A950C
:10161000E1F7E956FC4F8081843069F480914A02F9
:10162000815080934A028F3FD1F4809149028150CA
:1016300080934A0214C0809180018F5F8093800163
:10164000E0917F01F0E0EE0FFF1FE75CFC4F20818F
:1016500030E090E08217930714F01092800180919F
:10166000500282608093500281E02AD8813009F0D4
:1016700049C081E025D8813049F484E190E0E3E37A
:10168000F7E03197F1F70197D1F7F3CF809150024E
:1016900083FF07C040914D026091000182E045DB6D
:1016A0002CC0E0914D02F0914E0233E0EE0FFF1F8F
:1016B0003A95E1F7E956FC4F8081843079F48091C6
:1016C0004A028F5F80934A022091490230E090E005
:1016D0008217930794F010924A020FC08091800104
:1016E000811108C0E0917F01F0E0EE0FFF1FE75C81
:1016F000FC4F8081815080938001809150028260F4
:10170000809350028091500283FF6CC0E0914D02A3
:10171000F0914E0293E0EE0FFF1F9A95E1F7E95624
:10172000FC4F8081823079F580917E01843660F4AF
:101730008CEC9CE10197F1F700C0000080917E01E4
:101740008F5F80937E011BC010927E0180E40E9417
:10175000C40280917D01882361F010927D01809107
:101760004F02882319F08CE993E007C087E993E0E2
:1017700004C0D0927D0182E993E00E94300385E4A9
:101780000E94C4022FC0873069F580917E018436A3
:1017900078F210927E0180E40E94C40280917D0163
:1017A0008823D9F010927D01C3E5D2E0E0914D028B
:1017B000F0914E0283E0EE0FFF1F8A95E1F7E956A4
:1017C000FC4F868190E09E01225532402817390750
:1017D000B4F689910E940A03E9CFD0927D018DE889
:1017E00093E0CBCF8091500281FF10C00E94D702BE
:1017F000809150028D7F8093500260917F01809193
:1018000080010E940004809100016FD8B801C701D7
:1018100001DC282F30E02115310509F4D4CCC901B1
:10182000DF91CF911F910F91FF90EF90DF90CF90BC
:10183000BF909F908F9008951F920F920FB60F92B6
:1018400011240BB60F922F933F938F939F93EF9397
:10185000FF938CB1E0910202F0910302EA5FFD4F29
:101860008083813450F48E3360F4813251F078F00B
:101870009DED980F933058F404C08E3511F08E37DB
:1018800031F410920302109202028093060220911A
:101890000202309103028D3061F481E0820F809367
:1018A0000002109203021092020281E08093FE0176
:1018B0000EC0C9010196803291052CF49093030269
:1018C0008093020204C01092030210920202FF9160
:1018D000EF919F918F913F912F910F900BBE0F90A1
:1018E0000FBE0F901F9018951F920F920FB60F9278
:1018F00011240BB60F922F933F938F939F93EF93E7
:10190000FF938091BA019091BB012091B80130E022
:101910008217930769F41092BB011092BA0180916B
:1019200065008E7F8093650081E08093B6010EC0D4
:10193000FC01E254FE4F80818CB98091BA019091F4
:10194000BB0101969093BB018093BA01FF91EF9187
:101950009F918F913F912F910F900BBE0F900FBED3
:101960000F901F901895CF92DF92EF92FF92CF9336
:10197000DF93EC0102970CF07FC0DB01CA010197F5
:10198000A109B10980349244AF40B10508F074C098
:10199000CB01BA010E942B269B01AC0160E070E0F4
:1019A00081E69BE40E94952520E030E040E85DE37D
:1019B0000E94BB2620E030E040E05FE30E9430253B
:1019C0006B017C0120E030E040E05FE30E94B7263D
:1019D00087FD52C0C701B601209711F50E94FD2571
:1019E000C72ED82EE92EFF24C092900069B988ED49
:1019F0008AB986E08093950080916400816080932D
:101A00006400809165008E7F8093650010920302D0
:101A1000109202021092FE0181E08093B60129C06B
:101A20000E94FD25C72ED82EE92EFF24C0929800D3
:101A30006093990088ED80939A0086E080939D00E2
:101A400080916400826080936400809165008D7F46
:101A500080936500FE01EE0FFF1FEE5FFD4F1182C8
:101A60001082FE01E250FE4F1082CA54DE4F81E028
:101A70008883789480E001C08FEFDF91CF91FF9051
:101A8000EF90DF90CF900895811117C01092B601AA
:101A90008091650081608093650088E18A95F1F707
:101AA00000C06093B80181E090E09093BB01809307
:101AB000BA018091BE018CB908951092B70180914E
:101AC000650082608093650088E18A95F1F700C027
:101AD0006093B90181E090E09093BD018093BC01D7
:101AE0008091DE0180939C000895CF93DF93DC0109
:101AF000823091050CF058C0FC01EA54FE4F808101
:101B0000811105C088E18A95F1F700C0F8CFFB018B
:101B10009D0185E0220F331F8A95E1F790E060E098
:101B200070E08191EB01C20FD31FC254DE4F888356
:101B3000882341F08D3031F0980F6F5F7F4F603216
:101B4000710579F7FD01EA5BFD4F80818130F9F481
:101B5000892F82958F70F901E60FF71FE254FE4F2F
:101B60008A3010F4805D01C0895C8083AB014F5FD7
:101B70005F4F9F70420F531FFA01E254FE4F9A309D
:101B800010F4905D01C0995C90836E5F7F4F260FCB
:101B9000371FF901E254FE4F8DE080836F5F7F4F66
:101BA0008A2F72DF80E001C08FEFDF91CF9108951F
:101BB000EF92FF920F931F93CF93DF939C0182309C
:101BC00091050CF06DC0FC01E250FE4F808188232E
:101BD00009F469C01082F901EA5BFD4F4081D90127
:101BE000A050BE4FC90125E0880F991F2A95E1F743
:101BF000413009F040C02C9130E0790143E0E41A13
:101C0000F10840E0C0E0D0E0CE15DF0554F48E01CD
:101C1000080F191F0A5F1D4FF8015081450F2196CB
:101C2000F3CF542F52955F70C52FD0E05A3010F487
:101C3000E09601C0E796F701E80FF91FEA5FFD4F54
:101C4000E081F0E0CE17DF0769F54F70E42FF0E098
:101C50004A3020F4AF01405D5F4F03C0AF01495CE3
:101C60005F4F280F391FF901EC5FFD4F208130E0F5
:101C700042175307B9F42C91FB01219340E050E047
:101C800030E04217530754F4DA01A80FB91FAA5FD6
:101C9000BD4F6C9161934F5F5F4FF3CF81E003C005
:101CA0008FEF01C080E8DF91CF911F910F91FF90DE
:101CB000EF9008956AE00E94A72820E1829F900D8E
:101CC0001124892F0895982F92959F708F702AE084
:101CD000929F800D1124089594EE909374001092B9
:101CE000B5019091740097FD11C09091B5019F5F6F
:101CF0009093B5019B3020F091E09093AE0106C027
:101D0000E0E7F1E03197F1F700C0EBCF809373008B
:101D100084EE809374001092B5018091740087FD69
:101D200011C08091B5018F5F8093B5018B3020F099
:101D300081E08093AE01089580E791E00197F1F78B
:101D400000C0EBCF0895FC0124E831E09E2F981BE2
:101D50009617D8F491919093730020937400109289
:101D6000B5019091740097FDF1CF9091B5019F5FFF
:101D70009093B5019B3018F03093AE01E7CFA0E708
:101D8000B1E01197F1F700C0ECCF84E980937400C3
:101D9000B1E3BA95F1F700000895CF93DF93FC010A
:101DA00020E030E0462F50E04150510984EC74E8C7
:101DB000A1E0B4E9261748F52417350719F4709304
:101DC000740002C0809374001092B5019091740069
:101DD00097FD10C09091B5019F5F9093B5019B3026
:101DE00018F0A093AE0106C0C0E7D1E02197F1F74B
:101DF00000C0ECCF9091730091932417350711F434
:101E0000B09374002F5F3F4FD5CFD1E3DA95F1F750
:101E10000000DF91CF910895109271008DE48093BE
:101E2000700081E0809372001092AE0180ED54DF6B
:101E300087E08093AF0181E98093B00162E08FEA8F
:101E400091E081DF81E09091AE01911101C080E0CD
:101E50000895EF92FF920F931F93CF93DF93EC01BE
:101E60008B017A011092AE0180ED36DF1092AF0146
:101E700061E08FEA91E067DF81ED2EDF63E08FEABA
:101E800091E08BDF8091AF011EDFF70180838091AD
:101E9000B00119DFF80180838091B10114DF8883DC
:101EA00081E09091AE01911101C080E0DF91CF916E
:101EB0001F910F91FF90EF9008951F93CF93DF93A1
:101EC00000D0CDB7DEB7182F1092AE0180ED498358
:101ED0006A8302DF1092AF014981842FEBDE809389
:101EE000B0016A81862FE6DE8093B101812FE2DEA8
:101EF0008093B20164E08FEA91E025DF81E0909168
:101F0000AE01911101C080E00F900F90DF91CF9151
:101F10001F910895CF92DF92EF92FF920F931F933C
:101F2000CF93DF936C017B018A01E9011092AE012E
:101F300080EDD2DE83E08093AF0161E08FEA91E033
:101F400002DF81EDC9DE64E08FEA91E026DF809157
:101F5000AF01B9DE8150F60180838091B001B3DE1C
:101F6000F70180838091B101AEDEF801808380911A
:101F7000B201A9DE888381E09091AE01911101C088
:101F800080E0DF91CF911F910F91FF90EF90DF9054
:101F9000CF9008951F93CF93DF9300D01F92CDB7BA
:101FA000DEB7182F1092AE0180ED2B834A83698330
:101FB00093DE83E08093AF01812F7CDE8F5F80937F
:101FC000B0016981862F76DE8093B1014A81842F2A
:101FD00071DE8093B2012B81822F6CDE8093B3017E
:101FE00065E08FEA91E0AFDE81E09091AE01911162
:101FF00001C080E00F900F900F90DF91CF911F9163
:1020000008958F929F92AF92BF92CF92DF92EF92FC
:10201000FF920F931F93CF93DF93809132032AE0B7
:10202000622F0E94A728805D80936002905D90934C
:1020300061028AE38093620280915D030E94A72877
:10204000805D80936302905D9093640281E0809351
:10205000350182E08093380183E080933B0184E086
:1020600080933E0185E08093410186E080934401A6
:1020700087E08093470180918D0390E0FC01EE0F93
:10208000FF1F8E0F9F1FFC01EB5CFE4F10828091A3
:102090008E0390918F0368EE73E00E94B328605D19
:1020A00060932B0164E670E00E94B328605D60934A
:1020B0002C016AE070E00E94B328605D60932D01FE
:1020C000805D80932E0181E490E00E94BB2BC3E0F1
:1020D000D0E000E311E0BC0180E090E00E942926FE
:1020E0006B017C01BE010D2E000C880B990B0E9428
:1020F0002B269B01AC0160E070E080E291E40E943D
:102100001E274B015C019B01AC01C701B6010E9477
:10211000952520E030E040E452E40E9431250E9401
:10212000FD25F80161938F0170E060537109072E5E
:10213000000C880B990B0E942B26A50194010E948C
:10214000BB269B01AC01C701B6010E9430250E944D
:10215000FD25CB01219708F0BECFCAE3C0936003F1
:1021600084E390E00E94BB2BBC0180E090E00E94E1
:1021700029266B017C0120E030E040E251E40E941E
:10218000952520E030E040E452E40E9431250E9491
:10219000FD2560935E03862F90E0C097BC01990FE8
:1021A000880B990B0E942B2620E030E040E251E49E
:1021B0000E94BB269B01AC01C701B6010E943025DD
:1021C0000E94FD2580E090E00E94292620E030E07A
:1021D00040E452E40E9431250E94FD2560935F0394
:1021E00086E390E00E94BB2BBC0180E090E00E945F
:1021F00029266B017C0120E030E040E251E40E949E
:10220000952520E030E040E452E40E9431250E9410
:10221000FD2560936103862F90E0C097BC01990F64
:10222000880B990B0E942B2620E030E040E251E41D
:102230000E94BB269B01AC01C701B6010E9430255C
:102240000E94FD2580E090E00E94292620E030E0F9
:1022500040E452E40E9431250E94FD256093620310
:10226000C093D10480E390E00E94BB2BBC0180E0CE
:1022700090E00E9429266B017C0120E030E040E2E2
:1022800051E40E94952520E030E040E452E40E94B1
:1022900031250E94FD256093CF04862F90E0C097E2
:1022A000BC01990F880B990B0E942B2620E030E08F
:1022B00040E251E40E94BB269B01AC01C701B6017C
:1022C0000E9430250E94FD2580E090E00E94292692
:1022D00020E030E040E452E40E9431250E94FD25D8
:1022E0006093D00482E390E00E94BB2BBC0180E0AD
:1022F00090E00E9429266B017C0120E030E040E262
:1023000051E40E94952520E030E040E452E40E9430
:1023100031250E94FD256093D204862F90E0C0975E
:10232000BC01990F880B990B0E942B2620E030E00E
:1023300040E251E40E94BB269B01AC01C701B601FB
:102340000E9430250E94FD2580E090E00E94292611
:1023500020E030E040E452E40E9431250E94FD2557
:102360006093D3048AE290E00E94BB2BBC0180E022
:1023700090E00E9429266B017C0120E030E040E2E1
:1023800051E40E94952520E030E040E452E40E94B0
:1023900031250E94FD2560932C03862F90E0C09785
:1023A000BC01990F880B990B0E942B2620E030E08E
:1023B00040E251E40E94BB269B01AC01C701B6017B
:1023C0000E9430250E94FD2580E090E00E94292691
:1023D00020E030E040E452E40E9431250E94FD25D7
:1023E00060932D038CE290E00E94BB2BBC0180E047
:1023F00090E00E9429266B017C0120E030E040E261
:1024000051E40E94952520E030E040E452E40E942F
:1024100031250E94FD2560932E03862F90E0C09702
:10242000BC01990F880B990B0E942B2620E030E00D
:1024300040E251E40E94BB269B01AC01C701B601FA
:102440000E9430250E94FD2580E090E00E94292610
:1024500020E030E040E452E40E9431250E94FD2556
:1024600060932F038EE290E00E94BB2BBC0180E0C2
:1024700090E00E9429266B017C0120E030E040E2E0
:1024800051E40E94952520E030E040E452E40E94AF
:1024900031250E94FD2560933003862F90E0C09780
:1024A000BC01990F880B990B0E942B2620E030E08D
:1024B00040E251E40E94BB269B01AC01C701B6017A
:1024C0000E9430250E94FD2580E090E00E94292690
:1024D00020E030E040E452E40E9431250E94FD25D6
:1024E0006093310384E290E00E94BB2BBC0180E04A
:1024F00090E00E9429266B017C0120E030E040E260
:1025000051E40E94952520E030E040E452E40E942E
:1025100031250E94FD256093D404862F90E0C0975A
:10252000BC01990F880B990B0E942B2620E030E00C
:1025300040E251E40E94BB269B01AC01C701B601F9
:102540000E9430250E94FD2580E090E00E9429260F
:1025500020E030E040E452E40E9431250E94FD2555
:102560006093D50486E290E00E94BB2BBC0180E022
:1025700090E00E9429266B017C0120E030E040E2DF
:1025800051E40E94952520E030E040E452E40E94AE
:1025900031250E94FD256093D604862F90E0C097D8
:1025A000BC01990F880B990B0E942B2620E030E08C
:1025B00040E251E40E94BB269B01AC01C701B60179
:1025C0000E9430250E94FD2580E090E00E9429268F
:1025D00020E030E040E452E40E9431250E94FD25D5
:1025E0006093D70488E290E00E94BB2BBC0180E09E
:1025F00090E00E9429266B017C0120E030E040E25F
:1026000051E40E94952520E030E040E452E40E942D
:1026100031250E94FD256093D804862F90E0C09755
:10262000BC01990F880B990B0E942B2620E030E00B
:1026300040E251E40E94BB269B01AC01C701B601F8
:102640000E9430250E94FD2580E090E00E9429260E
:1026500020E030E040E452E40E9431250E94FD2554
:102660006093D90488E190E00E94B62BC5E0D0E0E9
:1026700006E111E00E9429266B017C01BE010D2EAE
:10268000000C880B990B0E942B269B01AC0160E08B
:1026900070E080E291E40E941E274B015C019B01E7
:1026A000AC01C701B6010E94952520E030E040E46E
:1026B00052E40E9431250E94FD25F80161938F01AB
:1026C00070E060537109072E000C880B990B0E9473
:1026D0002B26A50194010E94BB269B01AC01C701DA
:1026E000B6010E9430250E94FD25219718F68091A1
:1026F0001601809315018091170180931601809136
:102700001801809317018EE2809318018CE190E00C
:102710000E94B62BC0E0D0E005E010E00E94292620
:102720006B017C01B8016C1B7D0B072E000C880B24
:10273000990B0E942B269B01AC0160E070E080E2C7
:1027400091E40E941E274B015C019B01AC01C70173
:10275000B6010E94952520E030E040E452E40E945A
:1027600031250E94FD25FE01EA5EFE4F678370E081
:1027700060537109072E000C880B990B0E942B26C1
:10278000A50194010E94BB269B01AC01C701B601C3
:102790000E9430250E94FD252196C630D10509F002
:1027A000BDCF80911D0180931C0180911E018093FB
:1027B0001D0180911F0180931E018EE280931F01F5
:1027C00080E290E00E94B62BC0E0D0E005E010E08F
:1027D0000E9429266B017C01B8016C1B7D0B072E22
:1027E000000C880B990B0E942B269B01AC0160E02A
:1027F00070E080E291E40E941E274B015C019B0186
:10280000AC01C701B6010E94952520E030E040E40C
:1028100052E40E9431250E94FD25FE01EA5EFE4F32
:10282000668770E060537109072E000C880B990BC6
:102830000E942B26A50194010E94BB269B01AC019E
:10284000C701B6010E9430250E94FD252196C630A1
:10285000D10509F0BDCF809124018093230180919F
:1028600025018093240180912601809325018EE229
:10287000809326018CE090E00E94B62BC4E0D0E06B
:102880000DEF12E00E9429266B017C01BE010D2E86
:10289000000C880B990B0E942B269B01AC0160E079
:1028A00070E080E291E40E941E274B015C019B01D5
:1028B000AC01C701B6010E94952520E030E040E45C
:1028C00052E40E9431250E94FD25F80161938F0199
:1028D00070E060537109072E000C880B990B0E9461
:1028E0002B26A50194010E94BB269B01AC01C701C8
:1028F000B6010E9430250E94FD25219718F68EE230
:102900008093FE0280E190E00E94B62BC0E0D0E010
:1029100004E010E00E9429266B017C01B8016C1BC9
:102920007D0B072E000C880B990B0E942B269B0118
:10293000AC0160E070E080E291E40E941E274B0150
:102940005C019B01AC01C701B6010E94952520E006
:1029500030E040E452E40E9431250E94FD25FE0152
:10296000E350FD4F658370E060537109072E000C42
:10297000880B990B0E942B26A50194010E94BB266F
:102980009B01AC01C701B6010E9430250E94FD25C4
:102990002196C530D10509F0BDCF8EE280930303A7
:1029A00084E190E00E94B62BC0E0D0E004E010E0AB
:1029B0000E9429266B017C01B8016C1B7D0B072E40
:1029C000000C880B990B0E942B269B01AC0160E048
:1029D00070E080E291E40E941E274B015C019B01A4
:1029E000AC01C701B6010E94952520E030E040E42B
:1029F00052E40E9431250E94FD25FE01E350FD4F67
:102A0000628770E060537109072E000C880B990BE8
:102A10000E942B26A50194010E94BB269B01AC01BC
:102A2000C701B6010E9430250E94FD252196C530C0
:102A3000D10509F0BDCF8EE28093080380E090E0DD
:102A40000E94B62BC5E0D0E001E011E00E942926EB
:102A50006B017C01BE010D2E000C880B990B0E94AE
:102A60002B269B01AC0160E070E080E291E40E94C3
:102A70001E274B015C019B01AC01C701B6010E94FE
:102A8000952520E030E040E452E40E9431250E9488
:102A9000FD25F80161938F0170E060537109072EE5
:102AA000000C880B990B0E942B26A50194010E9413
:102AB000BB269B01AC01C701B6010E9430250E94D4
:102AC000FD25219718F680910101809300018091E6
:102AD00002018093010180910301809302018EE243
:102AE0008093030184E090E00E94B62BC0E0D0E028
:102AF00005E010E00E9429266B017C01B8016C1BE7
:102B00007D0B072E000C880B990B0E942B269B0136
:102B1000AC0160E070E080E291E40E941E274B016E
:102B20005C019B01AC01C701B6010E94952520E024
:102B300030E040E452E40E9431250E94FD25FE0170
:102B4000EF5FFE4F678370E060537109072E000C42
:102B5000880B990B0E942B26A50194010E94BB268D
:102B60009B01AC01C701B6010E9430250E94FD25E2
:102B70002196C630D10509F0BDCF80910801809320
:102B80000701809109018093080180910A018093D7
:102B900009018EE280930A0188E090E00E94B62B42
:102BA000C0E0D0E005E010E00E9429266B017C0126
:102BB000B8016C1B7D0B072E000C880B990B0E9433
:102BC0002B269B01AC0160E070E080E291E40E9462
:102BD0001E274B015C019B01AC01C701B6010E949D
:102BE000952520E030E040E452E40E9431250E9427
:102BF000FD25FE01EF5FFE4F668770E060537109AF
:102C0000072E000C880B990B0E942B26A50194011E
:102C10000E94BB269B01AC01C701B6010E94302572
:102C20000E94FD252196C630D10509F0BDCF8091C7
:102C30000F0180930E018091100180930F0180910C
:102C40001101809310018EE280931101DF91CF91E9
:102C50001F910F91FF90EF90DF90CF90BF90AF90BA
:102C60009F908F9008956F927F928F929F92AF92D4
:102C7000BF92CF92DF92EF92FF920F931F93CF9369
:102C8000DF9384E390E00E94BB2B8093640386E390
:102C900090E00E94BB2B8093650380E390E00E944C
:102CA000BB2B80938B0382E390E00E94BB2B80932D
:102CB0008C038FE390E00E94BB2B90938F03809353
:102CC0008E0381E490E00E94BB2B90936D03809370
:102CD0006C0308E310E0C0E9D3E0C8010E94AE2B0A
:102CE00089930F5F1F4F83E0C739D807B1F786E696
:102CF000882E83E0982E9AE5A92E92E0B92E21EF36
:102D0000C22E22E0D22E3EE6E32E33E0F32E4FE732
:102D1000642E43E0742E00E010E0C0E0D0E0CE016D
:102D2000865D9F4F0E94BB2BF401819391934F01CD
:102D3000CE018C5D9F4F0E94BB2BF5018193919337
:102D40005F01C801885E9F4F0E94B62BF601619318
:102D50007193819391936F01C801845F9F4F0E948B
:102D6000B62BF70161937193819391937F01C80111
:102D7000805090400E94B62BF30161937193819330
:102D800091933F0122960C5F1F4FC630D10539F653
:102D9000DF91CF911F910F91FF90EF90DF90CF9037
:102DA000BF90AF909F908F907F906F9008958F927B
:102DB0009F92AF92BF92EF92FF920F931F93CF9388
:102DC000DF9380E00E946003813039F48FEF9FE849
:102DD0000197F1F700C00000F4CF81E080938501F6
:102DE00028EEE22E23E0F22ED4E6CAE00AD964E708
:102DF00071E085E791E00E94CD088C01909373010A
:102E000080937201892B91F30F3F9FEF190709F40B
:102E100043C765E771E0C8010E945208802F90E027
:102E2000FC013997EC31F10508F7EA5BFF4F0C9490
:102E3000C7288091610220ED280F80916002880FE1
:102E40008056982F990F990F890F820F8093320324
:102E50006091640220ED260F60916302660F605658
:102E6000962F990F990F690F620F60935D03409140
:102E7000630323D8BBCF95E3A92E91E0B92E10E0D0
:102E8000F5018081811108C010938D0360916B0260
:102E9000262F462F812F7ED8F3E0AF0EB11C1F5F87
:102EA000173071F7AED8A2CF80915F0390E0C09742
:102EB00020915E0330E020533109C29F8001C39FFF
:102EC000100D1124080F191FB80184E390E00E942F
:102ED000D22B009364036091620370E06053710928
:102EE0008091610390E0C097C89F9001C99F300D09
:102EF0001124620F731F6093650386E390E00E94C4
:102F0000D22B74CF8091D00490E0C0972091CF0451
:102F100030E020533109C29F8001C39F100D11245E
:102F2000080F191FB80180E390E00E94D22B009394
:102F30008B038091D30490E0C0972091D20430E0BD
:102F400020533109C29F8001C39F100D1124080F27
:102F5000191FB80182E390E00E94D22B00938C03EA
:102F600045CF00E913E088E3A82E80E0B82EF801F1
:102F700061918F01C5010E94C02BFFEFAF1ABF0AFC
:102F800083E00739180799F731CF0091330110E03A
:102F9000005311098091300190E0C0978E9D9001FF
:102FA0008F9D300D9E9D300D1124020F131F8091B7
:102FB000310190E0C097D89F9001D99F300D112426
:102FC000020F131F2091320130E020533109C29FBC
:102FD000C001C39F900D1124080F191F083097E0FE
:102FE000190740F480E40E94C40287E893E00E943D
:102FF0003003FCCEB80181E490E00E94D22B109304
:103000006D0300936C0310929D0110929E0110922B
:103010009F011092A001EACE80912E0190E0C0970E
:1030200020912B0130E0205331092E9D80012F9DEE
:10303000100D3E9D100D1124080F191F80912C01B9
:1030400090E0C097D89F9001D99F300D1124020FB6
:10305000131F80912D0190E0C097C89F9001C99FD8
:10306000300D1124020F131FB8018FE390E00E946E
:10307000D22B10938F0300938E031092A101109214
:10308000A2011092A3011092A401B0CE80912D0351
:1030900090E0C09720912C0330E020533109C29F6B
:1030A0008001C39F100D1124080F191FB8018AE277
:1030B00090E00E94D22B109367030093660396CE94
:1030C0008091D50490E0C0972091D40430E0205343
:1030D0003109C29F8001C39F100D1124080F191FD1
:1030E000B80184E290E00E94D22B10935B0200931F
:1030F0005A027CCEE6E1F1E080E090E021912E32B0
:1031000009F4982F8F5F8530C9F7913049F5A09168
:103110001601B0E0D09728EE33E00E94DF2820911E
:10312000180130E020533109D29F4001D39F900C09
:103130001124092C000CAA08BB08860E971EA81E95
:10314000B91E80911A0190E0C097092E000CAA0BBD
:10315000BB0B880E991EAA1EBB1E209119013FC0F1
:10316000923009F04DC0A0911601B0E0D09720E157
:1031700037E20E94DF282091170130E02053310907
:103180002E9D40012F9D900C3E9D900C1124092CEA
:10319000000CAA08BB08860E971EA81EB91E8091B7
:1031A0001B0190E0C097092E000CAA0BBB0B880DE9
:1031B000991DAA1DBB1D2091190130E02053310932
:1031C000D29F4001D39F900C1124092C000CAA0817
:1031D000BB08880E991EAA1EBB1E20911A0130E062
:1031E00020533109C29FC001C39F900D1124092EA5
:1031F000000CAA0BBB0B880E991EAA1EBB1E03C097
:10320000812C912C5401B501A40188E190E00E9429
:10321000CD2B8092F1029092F202A092F302B09232
:10322000F402E4CDEDEFF2E080E090E021912E3267
:1032300009F4982F8F5F8530C9F7913049F5A09137
:10324000FD02B0E0D09728EE33E00E94DF28209105
:10325000FF0230E020533109D29F4001D39F900CF0
:103260001124092C000CAA08BB08860E971EA81E64
:10327000B91E8091010390E0C097092E000CAA0BA3
:10328000BB0B880E991EAA1EBB1E209100033FC0D7
:10329000923009F04DC0A091FD02B0E0D09720E13E
:1032A00037E20E94DF282091FE0230E020533109EE
:1032B0002E9D40012F9D900C3E9D900C1124092CB9
:1032C000000CAA08BB08860E971EA81EB91E809186
:1032D000020390E0C097092E000CAA0BBB0B880DCF
:1032E000991DAA1DBB1D2091000330E02053310918
:1032F000D29F4001D39F900C1124092C000CAA08E6
:10330000BB08880E991EAA1EBB1E2091010330E047
:1033100020533109C29FC001C39F900D1124092E73
:10332000000CAA0BBB0B880E991EAA1EBB1E03C065
:10333000812C912C5401B501A4018CE090E00E94F5
:10334000CD2B80926E0390926F03A0927003B09287
:1033500071034CCDE1E0F1E080E090E021912E326C
:1033600009F4982F8F5F8530C9F7913049F5A09106
:103370000101B0E0D09728EE33E00E94DF282091D1
:10338000030130E020533109D29F4001D39F900CBC
:103390001124092C000CAA08BB08860E971EA81E33
:1033A000B91E8091050190E0C097092E000CAA0B70
:1033B000BB0B880E991EAA1EBB1E209104013FC0A4
:1033C000923009F04DC0A0910101B0E0D09720E10A
:1033D00037E20E94DF282091020130E020533109BA
:1033E0002E9D40012F9D900C3E9D900C1124092C88
:1033F000000CAA08BB08860E971EA81EB91E809155
:10340000060190E0C097092E000CAA0BBB0B880D9B
:10341000991DAA1DBB1D2091040130E020533109E4
:10342000D29F4001D39F900C1124092C000CAA08B4
:10343000BB08880E991EAA1EBB1E2091050130E014
:1034400020533109C29FC001C39F900D1124092E42
:10345000000CAA0BBB0B880E991EAA1EBB1E03C034
:10346000812C912C5401B501A40180E090E00E94D0
:10347000CD2B80927F0390928003A0928103B09223
:103480008203B4CC80912F0390E0C09720912E034B
:1034900030E020533109C29F8001C39F100D1124D9
:1034A000080F191FB8018CE290E00E94D22B1093F4
:1034B0006903009368039ACC8091D70490E0C09789
:1034C0002091D60430E020533109C29F8001C39F70
:1034D000100D1124080F191FB80186E290E00E9418
:1034E000D22B10935D0200935C0280CC20E080E040
:1034F00090E0FC01EA5EFE4F37813E3209F4282F4E
:10350000019685309105A9F7213049F5A0911D015B
:10351000B0E0D09728EE33E00E94DF2820911F0111
:1035200030E020533109D29F4001D39F900C1124E9
:10353000092C000CAA08BB08860E971EA81EB91EEF
:103540008091210190E0C097092E000CAA0BBB0BC3
:10355000880E991EAA1EBB1E209120013FC022305A
:1035600009F04DC0A0911D01B0E0D09720E137E2F5
:103570000E94DF2820911E0130E0205331092E9D4A
:1035800040012F9D900C3E9D900C1124092C000CA5
:10359000AA08BB08860E971EA81EB91E809122019C
:1035A00090E0C097092E000CAA0BBB0B880D991D4B
:1035B000AA1DBB1D2091200130E020533109D29F6C
:1035C0004001D39F900C1124092C000CAA08BB08C1
:1035D000880E991EAA1EBB1E2091210130E02053A7
:1035E0003109C29FC001C39F900D1124092E000C08
:1035F000AA0BBB0B880E991EAA1EBB1E03C0812CF2
:10360000912C5401B501A4018CE190E00E94CD2BD6
:103610008092F5029092F602A092F702B092F80220
:10362000E5CB20E080E090E0FC01E350FD4F3581E8
:103630003E3209F4282F019685309105A9F72130F3
:1036400049F5A0910203B0E0D09728EE33E00E9444
:10365000DF282091040330E020533109D29F40013C
:10366000D39F900C1124092C000CAA08BB08860ECD
:10367000971EA81EB91E8091060390E0C097092EE0
:10368000000CAA0BBB0B880E991EAA1EBB1E209114
:1036900005033FC0223009F04DC0A0910203B0E005
:1036A000D09720E137E20E94DF282091030330E029
:1036B000205331092E9D40012F9D900C3E9D900C72
:1036C0001124092C000CAA08BB08860E971EA81E00
:1036D000B91E8091070390E0C097092E000CAA0B39
:1036E000BB0B880D991DAA1DBB1D2091050330E061
:1036F00020533109D29F4001D39F900C1124092CF3
:10370000000CAA08BB08880E991EAA1EBB1E209199
:10371000060330E020533109C29FC001C39F900DC2
:103720001124092E000CAA0BBB0B880E991EAA1E91
:10373000BB1E03C0812C912C5401B501A40180E172
:1037400090E00E94CD2B8092720390927303A0921E
:103750007403B09275034ACB20E080E090E0FC0156
:10376000EF5FFE4F37813E3209F4282F01968530F6
:103770009105A9F7213049F5A0910801B0E0D09753
:1037800028EE33E00E94DF2820910A0130E0205328
:103790003109D29F4001D39F900C1124092C000CB9
:1037A000AA08BB08860E971EA81EB91E80910C01A0
:1037B00090E0C097092E000CAA0BBB0B880E991E37
:1037C000AA1EBB1E20910B013FC0223009F04DC044
:1037D000A0910801B0E0D09720E137E20E94DF28F5
:1037E0002091090130E0205331092E9D40012F9D89
:1037F000900C3E9D900C1124092C000CAA08BB08CB
:10380000860E971EA81EB91E80910D0190E0C097EC
:10381000092E000CAA0BBB0B880D991DAA1DBB1D00
:1038200020910B0130E020533109D29F4001D39FFA
:10383000900C1124092C000CAA08BB08880E991EB4
:10384000AA1EBB1E20910C0130E020533109C29FFB
:10385000C001C39F900D1124092E000CAA0BBB0BB5
:10386000880E991EAA1EBB1E03C0812C912C5401E8
:10387000B501A40184E090E00E94CD2B80928303E7
:1038800090928403A0928503B0928603AFCA809180
:10389000310390E0C0972091300330E0205331098C
:1038A000C29F8001C39F100D1124080F191FB8017A
:1038B0008EE290E00E94D22B10936B0300936A0378
:1038C00095CA8091D90490E0C0972091D80430E047
:1038D00020533109C29F8001C39F100D1124080F8E
:1038E000191FB80188E290E00E94D22B10935F026A
:1038F00000935E027BCA20E080E090E0FC01EA5E7B
:10390000FE4F36853E3209F4282F01968530910509
:10391000A9F7213049F5A0912401B0E0D09728EE15
:1039200033E00E94DF282091260130E02053310946
:10393000D29F4001D39F900C1124092C000CAA089F
:10394000BB08860E971EA81EB91E8091280190E024
:10395000C097092E000CAA0BBB0B880E991EAA1E3D
:10396000BB1E209127013FC0223009F04DC0A0911D
:103970002401B0E0D09720E137E20E94DF282091B7
:10398000250130E0205331092E9D40012F9D900CE0
:103990003E9D900C1124092C000CAA08BB08860E31
:1039A000971EA81EB91E8091290190E0C097092E8C
:1039B000000CAA0BBB0B880D991DAA1DBB1D2091E5
:1039C000270130E020533109D29F4001D39F900C52
:1039D0001124092C000CAA08BB08880E991EAA1EE7
:1039E000BB1E2091280130E020533109C29FC00145
:1039F000C39F900D1124092E000CAA0BBB0B880E3F
:103A0000991EAA1EBB1E03C0812C912C5401B50126
:103A1000A40180E290E00E94CD2B8092F902909266
:103A2000FA02A092FB02B092FC02E0C920E080E022
:103A300090E0FC01E350FD4F32853E3209F4282F1F
:103A4000019685309105A9F7213049F5A09107032A
:103A5000B0E0D09728EE33E00E94DF2820910903E0
:103A600030E020533109D29F4001D39F900C1124A4
:103A7000092C000CAA08BB08860E971EA81EB91EAA
:103A800080910B0390E0C097092E000CAA0BBB0B92
:103A9000880E991EAA1EBB1E20910A033FC0223029
:103AA00009F04DC0A0910703B0E0D09720E137E2C4
:103AB0000E94DF282091080330E0205331092E9D19
:103AC00040012F9D900C3E9D900C1124092C000C60
:103AD000AA08BB08860E971EA81EB91E80910C036B
:103AE00090E0C097092E000CAA0BBB0B880D991D06
:103AF000AA1DBB1D20910A0330E020533109D29F3B
:103B00004001D39F900C1124092C000CAA08BB087B
:103B1000880E991EAA1EBB1E20910B0330E0205375
:103B20003109C29FC001C39F900D1124092E000CC2
:103B3000AA0BBB0B880E991EAA1EBB1E03C0812CAC
:103B4000912C5401B501A40184E190E00E94CD2B99
:103B50008092760390927703A0927803B0927903D3
:103B600045C920E080E090E0FC01EF5FFE4F368524
:103B70003E3209F4282F019685309105A9F72130AE
:103B800049F5A0910F01B0E0D09728EE33E00E94F4
:103B9000DF282091110130E020533109D29F4001EC
:103BA000D39F900C1124092C000CAA08BB08860E88
:103BB000971EA81EB91E8091130190E0C097092E90
:103BC000000CAA0BBB0B880E991EAA1EBB1E2091CF
:103BD00012013FC0223009F04DC0A0910F01B0E0AA
:103BE000D09720E137E20E94DF282091100130E0D9
:103BF000205331092E9D40012F9D900C3E9D900C2D
:103C00001124092C000CAA08BB08860E971EA81EBA
:103C1000B91E8091140190E0C097092E000CAA0BE8
:103C2000BB0B880D991DAA1DBB1D2091120130E010
:103C300020533109D29F4001D39F900C1124092CAD
:103C4000000CAA08BB08880E991EAA1EBB1E209154
:103C5000130130E020533109C29FC001C39F900D72
:103C60001124092E000CAA0BBB0B880E991EAA1E4C
:103C7000BB1E03C0812C912C5401B501A40188E026
:103C800090E00E94CD2B8092870390928803A092AF
:103C90008903B0928A03AAC81092850181E08093BB
:103CA000A5011092A601DF91CF911F910F91FF9076
:103CB000EF90BF90AF909F908F900895E0918D030B
:103CC000F0E0E057FC4F908180913203903309F08F
:103CD00056C02091640390918B034091580128179E
:103CE00058F4891748F410924D014E3479F434E4B5
:103CF0003093580131E008C031E030934D01443435
:103D000029F44EE4409358013093A50182131BC05F
:103D100040915D032091650330915801421748F0AE
:103D200010924D013E3479F424E42093580121E0AF
:103D300008C021E020934D01343429F43EE430934F
:103D400058012093A501891322C030915D03209171
:103D50008C0390915801321738F021E020934D01E7
:103D60009434A9F49EE405C010924D019E3479F478
:103D700094E49093580191E09093A50108C0913389
:103D800031F491E090934D0190915801E9CF873142
:103D900001F580915D038B33E1F4809163038B33F4
:103DA000C1F41092890110928A0110928B01109235
:103DB0008C0110928D0110928E0110928F01109241
:103DC0009001109291011092920110929301109221
:103DD000940108954BE652E0BA01CA010E94290FEE
:103DE000811113C043E653E06DE573E082E393E095
:103DF0000E94290F2BE632E0A901B9018DE893E07A
:103E00000E948A0F1092860105C0809186018F5F03
:103E100080938601809186018B3050F00E940C0FB8
:103E200081E08093950192E5909354018093A501E0
:103E30000895CF93DF93C3EED3E0D093AD01C09349
:103E4000AC01AEE5B1E08091AC019091AD01FC0117
:103E5000019625912D939093AD018093AC01F1E0F3
:103E6000A536BF0781F76EE571E080E090E00E9423
:103E7000750D279683E0C83FD807F9F6DF91CF91FB
:103E800008950F931F9320918E0330918F03A4E622
:103E9000B0E00E94D0280091A1011091A2012091D0
:103EA000A3013091A401061717072807390719F550
:103EB0008EEC93E09093AD018093AC01AEE5B1E060
:103EC0008091AC019091AD01FC01019625912D935B
:103ED0009093AD018093AC01F1E0A536BF0781F767
:103EE0006EE571E080E090E00E94750D8091A9017F
:103EF0008F5F8093A90120918E0330918F03A4E6F8
:103F0000B0E00E94D028DC01CB014496A11DB11D78
:103F10000091A1011091A2012091A3013091A4016F
:103F2000081719072A073B0719F585ED93E09093C9
:103F3000AD018093AC01AEE5B1E08091AC01909110
:103F4000AD01FC01019625912D939093AD018093D5
:103F5000AC01F1E0A536BF0781F76EE571E080E0C6
:103F600090E00E94750D8091AA018F5F8093AA0155
:103F700020918E0330918F03A4E6B0E00E94D028F8
:103F8000DC01CB018896A11DB11D0091A10110910A
:103F9000A2012091A3013091A401081719072A0753
:103FA0003B0719F58CED93E09093AD018093AC0144
:103FB000AEE5B1E08091AC019091AD01FC010196BC
:103FC00025912D939093AD018093AC01F1E0A5363E
:103FD000BF0781F76EE571E080E090E00E94750D0B
:103FE0008091AB018F5F8093AB016EE571E080E063
:103FF00090E00E94D80D813009F0C4C0E0915E01CC
:10400000F0E0E25AFE4F1082809163018233E9F5BD
:104010001092A9014091650140936C0220916601C4
:1040200020936D028EE280936E02809167018093EF
:104030006F021092700250E040535109E0E1F7E244
:104040004E9FB0014F9F700D5E9F700D112430E0A8
:1040500020533109E8EEF3E02E9FA0012F9F500D71
:104060003E9F500D1124460F571F90E0C09764E605
:10407000689F9001699F300D1124CA01820F931F20
:1040800090933403809333037DC08333E9F510921A
:10409000AA014091650140937A0320916601209323
:1040A0007B038EE280937C038091670180937D0384
:1040B00010927E0350E040535109E0E1F7E24E9F39
:1040C000B0014F9F700D5E9F700D112430E02053A2
:1040D0003109E8EEF3E02E9FA0012F9F500D3E9F87
:1040E000500D1124460F571F90E0C09764E6689F5B
:1040F0009001699F300D1124CA01820F931F909384
:104100003603809335033EC08433E1F51092AB0152
:1041100040916501409365022091660120936602FB
:104120008EE280936702809167018093680210920B
:10413000690250E040535109E0E1F7E24E9FB001BF
:104140004F9F700D5E9F700D112430E02053310998
:10415000E8EEF3E02E9FA0012F9F500D3E9F500DE3
:104160001124460F571F90E0C09764E6689F9001A6
:10417000699F300D1124CA01820F931F9093380359
:104180008093370320918E0330918F03A4E6B0E033
:104190000E94D028DC01CB01805B9F4FAF4FBF4F07
:1041A0000091A1011091A2012091A3013091A401DD
:1041B000081719072A073B0709F04AC01092A10106
:1041C0001092A2011092A3011092A4018091A90162
:1041D0008B3088F084E480936C029DE490936D02B0
:1041E00097E490936E0280936F028CED9FEF909313
:1041F0003403809333038091AA018B3088F084E4E8
:1042000080937A039DE490937B0397E490937C03DF
:1042100080937D038CED9FEF90933603809335035D
:104220008091AB018B3088F084E4809365029DE43B
:104230009093660297E490936702809368028CEDF6
:104240009FEF909338038093370381E08093A5011B
:104250001F910F91089580E00E9460038130B1F4B6
:104260000E94D71613C0F8942091960130919701BF
:104270002F5F3F4F3093970120939601283B3B409F
:1042800058F486E69EE00197F1F7000083E00E9473
:104290006003813041F315C090919501911108C0E0
:1042A0008093950192E5909354018093A50109C0F4
:1042B000913039F71092950181E4809354019093E5
:1042C000A5017894109297011092960182E00E94C5
:1042D0006003813039F582E00E946003813039F457
:1042E0008FEF9FE80197F1F700C00000F4CF8091B5
:1042F0005A01843618F48B5F80935A0180915A01D9
:1043000064E625D720E3280F20935501892F6AE022
:104310001ED7805D80935601905D9093570181E098
:104320008093A50181E00E946003813039F581E02E
:104330000E946003813039F48FEF9FE80197F1F715
:1043400000C00000F4CF80915A01882319F08550F5
:1043500080935A0180915A0164E6F9D620E3280F30
:1043600020935501892F6AE0F2D6805D8093560133
:10437000905D9093570181E08093A501089580910D
:10438000A7019091A8019C0121503109283C3105D9
:1043900010F520915D012330F1F480E00E94C40209
:1043A00083E893E00E94300380E40E94C4028FE718
:1043B00093E00E94300383E00E94C4028CE692E006
:1043C0000E941C0383E40E94C4028AE793E00E94D7
:1043D0001C0381E04DC09C01295C3109283C31055A
:1043E00018F580915D01813009F044C080E00E94A1
:1043F000C4028BE793E00E94300380E40E94C40271
:1044000087E793E00E94300383E00E94C4028AE7BA
:1044100093E00E941C0383E40E94C40285E692E0BC
:104420000E941C0382E024C08139914018F18091E0
:104430005D018230F9F480E00E94C40283E793E0DA
:104440000E94300380E40E94C4028FE693E00E9441
:10445000300383E00E94C40285E692E00E941C03C0
:1044600083E40E94C4028CE692E00E941C0383E075
:1044700080935D018091A60181110AC089E00E94AC
:10448000C4028CE693E00E94300381E08093A60191
:104490008091A501813081F48BE00E94C4028EE4FA
:1044A00091E00E941C0389E40E94C40284E591E02B
:1044B0000E941C031092A501089583B7876083BFF3
:1044C0008FE682BF87B7816087BF789408951F9277
:1044D0000F920FB60F9211240BB60F920F931F93EA
:1044E0002F933F934F935F936F937F938F939F93FC
:1044F000AF93BF93EF93FF938FE682BF20916C033E
:1045000030916D03A4E6B0E04BD600919D0110916F
:104510009E0120919F013091A001061717072807DF
:10452000390740F010929D0110929E0110929F0158
:104530001092A001409198014130E1F520915B017A
:1045400030915C01A4E6B0E02BD600919901109166
:104550009A0120919B0130919C01061717072807AB
:104560003907F0F4949880915201813329F480E363
:10457000809352014093A5018091990190919A01F5
:10458000A0919B01B0919C010196A11DB11D80934A
:10459000990190939A01A0939B01B0939C010AC04A
:1045A0001092990110929A0110929B0110929C0115
:1045B000109298018091870190918801853691052C
:1045C00030F40196909388018093870104C0109283
:1045D0008801109287018091A1019091A201A09180
:1045E000A301B091A4018D3D21E492072FE0A20721
:1045F000B10560F40196A11DB11D8093A1019093B6
:10460000A201A093A301B093A40108C01092A1013C
:104610001092A2011092A3011092A40180919D0119
:1046200090919E01A0919F01B091A0018D3D21E448
:1046300092072FE0A207B10560F40196A11DB11DFC
:1046400080939D0190939E01A0939F01B093A00140
:1046500008C010929D0110929E0110929F0110922D
:10466000A0018091A7019091A801883522E09207CE
:1046700030F401969093A8018093A70104C0109292
:10468000A8011092A701FDDBFF91EF91BF91AF91BF
:104690009F918F917F916F915F914F913F912F915A
:1046A0001F910F910F900BBE0F900FBE0F901F9098
:1046B00018952FEF8FEF9CE2215080409040E1F75A
:1046C00000C000000E94E7020E940C0F40E855E283
:1046D00060E070E080E090E00E94B30C87B3806FF0
:1046E00087BB8C9A66E080E00E94E903E12C00E041
:1046F00010E023E633E047E060E080E00E949D03A5
:104700002AE533E04AE060E081E00E949D0321E574
:1047100033E04DE060E082E00E949D0327E333E058
:1047200041E060E083E00E949D032CE233E045E03D
:1047300060E084E00E949D0323E133E046E060E016
:1047400085E00E949D0363E081E00E94E90328EF79
:1047500032E042E060E086E00E949D0327EE32E016
:1047600043E060E087E00E949D0322ED32E044E0F8
:1047700060E088E00E949D0362E082E00E94E9031D
:1047800085E0E82E00E612E02CEC32E040E061E04B
:1047900089E00E949D0393E0E92E05E311E020ECFF
:1047A00032E040E067E08AE00E949D0362E083E03F
:1047B0000E94E90325E0E22E0EE513E020EB32E053
:1047C00040E061E08BE00E949D030FEC14E021EAE1
:1047D00032E040E061E08CE00E949D0361E084E013
:1047E0000E94E90337E0E32E00E913E023E932E019
:1047F00040E065E08DE00E949D0361E085E00E945D
:10480000E90344E0E42E00E311E026E832E040E072
:1048100061E08EE00E949D0361E086E00E94E90372
:104820000BE211E028E732E040E061E08FE00E9417
:104830009D0362E087E00E94E903E12C00E010E0C4
:104840002AE532E048E060E080E10E949D032DE32C
:1048500032E049E060E081E10E949D0362E088E08F
:104860000E94E90352E0E52E0CE213E02CE232E074
:1048700040E061E082E10E949D0304ED14E02BE141
:1048800032E040E061E083E10E949D0363E089E063
:104890000E94E90366E0E62E06E111E028E132E03D
:1048A00040E061E084E10E949D0375E0E72E0DEF9A
:1048B00012E025E132E040E061E085E10E949D03E5
:1048C000E6E0EE2E01E011E022E132E040E061E0BE
:1048D00086E10E949D0362E08AE00E94E903E12CE8
:1048E00000E010E024EF31E04BE060E087E10E945F
:1048F0009D0327ED31E04CE060E088E10E949D03DC
:1049000062E08BE00E94E903F2E0EF2E0EE213E09A
:1049100026EC31E040E061E089E10E949D0306ED74
:1049200014E025EB31E040E061E08AE10E949D0364
:1049300063E08CE00E94E903A6E0EA2E0DE111E0BD
:1049400022EB31E040E061E08BE10E949D03B5E0A5
:10495000EB2E02E013E02FEA31E040E061E08CE171
:104960000E949D0316E0E12E08E011E02CEA31E000
:1049700040E061E08DE10E949D0362E08DE00E94D5
:10498000E903E12C00E010E02EE831E04EE060E0C9
:104990008EE10E949D0321E731E04FE060E08FE16E
:1049A0000E949D0362E08EE00E94E90302E0E02E97
:1049B00000E313E020E631E040E061E080E20E94A5
:1049C0009D0308ED14E02FE431E040E061E081E276
:1049D0000E949D0363E08FE00E94E90386E0E82ED9
:1049E00004E211E02CE431E040E061E082E20E9468
:1049F0009D0395E0E92E07E013E029E431E040E073
:104A000061E083E20E949D0326E0E22E0FE011E0C8
:104A100026E431E040E061E084E20E949D0309DA8F
:104A20000E9433164ADD20918E0330918F0344E6B5
:104A3000429FC001439F900D11240597A0E0B0E074
:104A40008093A1019093A201A093A301B093A4012C
:104A500018DA0E94011093DCBDD930D9FCDBFBCF02
:104A60005058BB27AA270ED048C139D130F03ED1CB
:104A700020F031F49F3F11F41EF42EC10EF4E095A6
:104A8000E7FB24C1E92F4AD180F3BA176207730705
:104A90008407950718F071F49EF562C10EF4E09555
:104AA0000B2EBA2FA02D0B01B90190010C01CA01E8
:104AB000A0011124FF27591B99F0593F50F4503E93
:104AC00068F11A16F040A22F232F342F4427585F85
:104AD000F3CF469537952795A795F0405395C9F79D
:104AE0007EF41F16BA0B620B730B840BBAF0915055
:104AF000A1F0FF0FBB1F661F771F881FC2F70EC0F4
:104B0000BA0F621F731F841F48F4879577956795C6
:104B1000B795F7959E3F08F0B3CF9395880F08F0AF
:104B20009927EE0F9795879508950CD0E6C0DED0B3
:104B300040F0D5D030F021F45F3F19F0C7C05111DB
:104B400010C1CAC0EBD098F39923C9F35523B1F330
:104B5000951B550BBB27AA2762177307840738F0EC
:104B60009F5F5F4F220F331F441FAA1FA9F333D04B
:104B70000E2E3AF0E0E830D091505040E695001CFF
:104B8000CAF729D0FE2F27D0660F771F881FBB1FBB
:104B9000261737074807AB07B0E809F0BB0B802D95
:104BA000BF01FF2793585F4F2AF09E3F510568F0E1
:104BB0008DC0D7C05F3FECF3983EDCF386957795C8
:104BC0006795B795F7959F5FC9F7880F911D9695E3
:104BD000879597F90895E1E0660F771F881FBB1F3F
:104BE000621773078407BA0720F0621B730B840BEC
:104BF000BA0BEE1F88F7E095089598D088F09F577C
:104C000090F0B92F9927B751A0F0D1F0660F771F18
:104C1000881F991F1AF0BA95C9F712C0B13081F0F8
:104C20009FD0B1E008959CC0672F782F8827B85F88
:104C300039F0B93FCCF3869577956795B395D9F759
:104C40003EF490958095709561957F4F8F4F9F4F63
:104C50000895E89409C097FB3EF49095809570956F
:104C600061957F4F8F4F9F4F9923A9F0F92F96E9B8
:104C7000BB279395F695879577956795B795F1112D
:104C8000F8CFFAF4BB0F11F460FF1BC06F5F7F4FCA
:104C90008F4F9F4F16C0882311F096E911C07723DC
:104CA00021F09EE8872F762F05C0662371F096E8E5
:104CB000862F70E060E02AF09A95660F771F881FB4
:104CC000DAF7880F9695879597F9089597F99F6772
:104CD00080E870E060E008959FEF80EC0895002484
:104CE0000A941616170618060906089500240A9451
:104CF00012161306140605060895092E0394000CD7
:104D000011F4882352F0BB0F40F4BF2B11F460FF65
:104D100004C06F5F7F4F8F4F9F4F089557FD90588E
:104D2000440F551F59F05F3F71F04795880F97FB6F
:104D3000991F61F09F3F79F0879508951216130629
:104D40001406551FF2CF4695F1DF08C01616170658
:104D50001806991FF1CF869571056105089408958D
:104D6000E894BB2766277727CB0197F90895E3D00E
:104D700008F48FEF08950BD0C0CFB1DF28F0B6DF75
:104D800018F0952309F0A2CFA7CF1124EACFC6DFF0
:104D9000A0F3959FD1F3950F50E0551F629FF0014E
:104DA000729FBB27F00DB11D639FAA27F00DB11DA7
:104DB000AA1F649F6627B00DA11D661F829F222730
:104DC000B00DA11D621F739FB00DA11D621F839FB7
:104DD000A00D611D221F749F3327A00D611D231F8D
:104DE000849F600D211D822F762F6A2F11249F57DB
:104DF00050408AF0E1F088234AF0EE0FFF1FBB1FFE
:104E0000661F771F881F91505040A9F79E3F51059C
:104E100070F05CCFA6CF5F3FECF3983EDCF3869555
:104E200077956795B795F795E7959F5FC1F7FE2B47
:104E3000880F911D9695879597F90895FA01EE0FC1
:104E4000FF1F30962105310599F16115710561F457
:104E50008038BFE39B0749F168949038810561F081
:104E60008038BFEF9B0741F0992342F5FF3FE105F2
:104E70003105210511F1E8940894E795D901AA2399
:104E800029F4AB2FBE2FF85FD0F310C0FF5F70F492
:104E9000A695E0F7F73950F019F0FF3A38F49F770C
:104EA0009F930CD00F9007FC905808953EF014CFBC
:104EB00060E070E080E89FE308954FE79F775F939D
:104EC0004F933F932F93C2D02F913F914F915F917A
:104ED00052DF05C019F40EF0F9CE42CFFDCE26DF29
:104EE000C8F39638C0F707F80F92E8942BE33AEA34
:104EF00048EB5FE74EDF0F920F920F924DB75EB710
:104F00000F92E4D0E4ECF0E03AD04F915F91EF9152
:104F1000FF91E595EE1FFF1F49F0FE57E06844271B
:104F2000EE0F441FFA95E1F74195550B56D00F90BF
:104F300007FE4AC00895990F0008550FAA0BE0E834
:104F4000FEEF16161706E807F907C0F0121613064B
:104F5000E407F50798F0621B730B840B950B39F48B
:104F60000A2661F0232B242B252B21F408950A26F1
:104F700009F4A140A6958FEF811D811D0895DF934F
:104F8000CF931F930F93FF92EF92DF927B018C01DF
:104F9000689405C0DA2EEF01FADEFE01E894A591CF
:104FA0002591359145915591AEF3EF016BDDFE01F1
:104FB0009701A801DA9479F7DF90EF90FF900F91B5
:104FC0001F91CF91DF9108959B01AC0160E070E0EB
:104FD00080E89FE3AACD7ACEACC0A8DEE8F399239F
:104FE000D9F3940F511DBBF39150504094F059F0F8
:104FF000882332F0660F771F881F91505040C1F709
:105000009E3F510544F7880F911D9695879597F916
:1050100008955F3FACF0983E9CF0BB27869577954E
:105020006795B79508F4B1609395C1F7BB0F58F732
:1050300011F460FFE8CF6F5F7F4F8F4F9F4FE3CF3B
:1050400090CE0EF076C048CE689440CE6FDEC8F3A6
:105050009923D1F3C6F3DF93CF931F930F93FF925E
:10506000C92FDD2788232AF02197660F771F881F15
:10507000DAF720E030E040E85FEB9FE3883920F08A
:10508000803E30F021968F77ECDCECEEF0E003C050
:10509000E8DCE9E1F1E073DF8B01BE01EC01FB2EFE
:1050A0006F5771097595771F880B990BD4DD28E12F
:1050B00032E741E35FE36BDEAF2D9801AE01FF9075
:1050C0000F911F91CF91DF91DDDC17CEFA01DC014A
:1050D000AA0FBB1F9B01AC01BF5728F4222733271F
:1050E000442750781FC0B75188F4AB2F0024469551
:1050F00037952795011CA395D2F3002069F0220F64
:10510000331F441FB395DAF30DD0AACC613071057B
:10511000A0E88A07B94630F49B01AC0166277727DF
:1051200088279078309621F02083318342835383FF
:1051300008959F3F31F0915020F4879577956795BA
:10514000B795880F911D9695879597F90895991BA6
:1051500079E004C0991F961708F0961B881F7A956E
:10516000C9F780950895AA1BBB1B51E107C0AA1F70
:10517000BB1FA617B70710F0A61BB70B881F991FF8
:105180005A95A9F780959095BC01CD010895EE0F31
:10519000FF1F0024001C0BBE0790F691E02D099420
:1051A000A29FB001B39FC001A39F700D811D112468
:1051B000911DB29F700D811D1124911D0895F0DF86
:1051C000B7FF0895821B930B08950F931F93CF93FE
:1051D000DF93CDB7DEB72E970FB6F894DEBF0FBEC4
:1051E000CDBF0D891E8986E08C831A8309838FEFDA
:1051F0009FE79E838D83AE01475E5F4F6F89788DF9
:10520000CE01019611D02F813885F801E20FF31FEE
:1052100010822E960FB6F894DEBF0FBECDBFDF9181
:10522000CF911F910F9108952F923F924F925F92CD
:105230006F927F928F929F92AF92BF92CF92DF92A6
:10524000EF92FF920F931F93CF93DF93CDB7DEB70B
:105250002C970FB6F894DEBF0FBECDBF7C016B015B
:105260008A01FC0117821682838181FFB0C1CE01C1
:1052700001964C01F7019381F60193FD859193FF0F
:1052800081916F01882309F49EC1853239F493FD21
:10529000859193FF81916F01853221F4B70190E0F0
:1052A000C7D1E8CF512C312C20E02032A0F48B3232
:1052B00069F030F4803259F0833269F420612CC0F7
:1052C0008D3239F0803339F4216026C022602460A9
:1052D00023C0286021C027FD27C030ED380F3A30A9
:1052E00078F426FF06C0FAE05F9E300D1124532E9D
:1052F00013C08AE0389E300D1124332E20620CC07A
:105300008E3221F426FD5FC1206406C08C3611F474
:10531000206802C0883641F4F60193FD859193FF21
:1053200081916F018111C1CF982F9F7D955493304A
:1053300028F40C5F1F4FFFE3F9830DC0833631F073
:10534000833771F0833509F057C021C0F80180819F
:1053500089830E5F1F4F44244394512C540114C081
:105360003801F2E06F0E711CF801A080B18026FFB9
:1053700003C0652D70E002C06FEF7FEFC5012C8781
:105380004CD12C0183012C852F77222E16C0380199
:10539000F2E06F0E711CF801A080B18026FF03C0FF
:1053A000652D70E002C06FEF7FEFC5012C872AD119
:1053B0002C012C852068222E830123FC19C0832D0B
:1053C00090E048165906A0F4B70180E290E030D191
:1053D0003A94F5CFF50127FC859127FE81915F0175
:1053E000B70190E025D131103A94F1E04F1A5108FD
:1053F0004114510479F7DEC0843611F0893631F555
:10540000F80127FF07C060817181828193810C5F61
:105410001F4F08C060817181072E000C880B990B0B
:105420000E5F1F4F2F76722E97FF09C090958095C3
:10543000709561957F4F8F4F9F4F2068722E2AE0A5
:1054400030E0A4012DD1A82EA81843C0853729F437
:105450002F7EB22E2AE030E025C0F22FF97FBF2E3A
:105460008F36C1F018F4883579F0ADC0803719F067
:10547000883721F0A8C02F2F2061B22EB4FE0DC0B6
:105480008B2D8460B82E09C024FF0AC09F2F966020
:10549000B92E06C028E030E005C020E130E002C0AF
:1054A00020E132E0F801B7FE07C06081718182819E
:1054B00093810C5F1F4F06C06081718180E090E096
:1054C0000E5F1F4FA401ECD0A82EA818FB2DFF776C
:1054D0007F2E76FE0BC0372D3E7FA51450F474FE50
:1054E0000AC072FC08C0372D3E7E05C0BA2C372D8D
:1054F00003C0BA2C01C0B52C34FF0DC0FE01EA0D6B
:10550000F11D8081803311F4397E09C032FF06C05D
:10551000B394B39404C0832F867809F0B39433FD19
:1055200012C030FF06C05A2CB31418F4530C5B1889
:10553000B32CB31460F4B70180E290E03C8778D0DC
:10554000B3943C85F6CFB31410F43B1801C0312C52
:1055500034FF11C0B70180E390E03C8769D03C85FF
:1055600032FF16C031FD03C088E790E002C088E535
:1055700090E0B7010CC0832F867851F031FF02C054
:105580008BE201C080E237FD8DE2B70190E050D0A0
:10559000A51430F4B70180E390E04AD05A94F8CFD4
:1055A000AA94F401EA0DF11D8081B70190E040D08A
:1055B000A110F6CF332009F45DCEB70180E290E070
:1055C00037D03A94F7CFF7018681978102C08FEFE9
:1055D0009FEF2C960FB6F894DEBF0FBECDBFDF91C4
:1055E000CF911F910F91FF90EF90DF90CF90BF90E0
:1055F000AF909F908F907F906F905F904F903F9073
:105600002F900895FC010590615070400110D8F76B
:10561000809590958E0F9F1F0895FC0161507040FA
:1056200001900110D8F7809590958E0F9F1F0895D7
:105630000F931F93CF93DF93FB01238121FD03C0C1
:105640008FEF9FEF28C022FF16C04681578124812B
:1056500035814217530744F4A081B1819D012F5F2A
:105660003F4F318320838C93268137812F5F3F4FBB
:105670003783268310C0EB01092F182F0084F18592
:10568000E02D0995892BE1F68E819F8101969F83FC
:105690008E83812F902FDF91CF911F910F910895CD
:1056A000FA01AA27283051F1203181F1E8946F9353
:1056B0006E7F6E5F7F4F8F4F9F4FAF4FB1E03ED0F9
:1056C000B4E03CD0670F781F891F9A1FA11D680F97
:1056D000791F8A1F911DA11D6A0F711D811D911DCA
:1056E000A11D20D009F468943F912AE0269F11243F
:1056F0003019305D3193DEF6CF010895462F4770A3
:10570000405D4193B3E00FD0C9F7F6CF462F4F70FD
:10571000405D4A3318F0495D31FD4052419302D05B
:10572000A9F7EACFB4E0A695979587957795679501
:10573000BA95C9F700976105710508959B01AC0101
:105740000A2E06945795479537952795BA95C9F728
:10575000620F731F841F951FA01D0895E199FECF4E
:105760009FBB8EBBE09A99278DB30895A6E1B0E068
:1057700044E050E01CC0A8E1B0E042E050E017C0B7
:10578000262FE199FECF9FBB8EBB2DBB0FB6F894A1
:10579000E29AE19A0FBE01960895242FF2DF252F99
:1057A000F0DF00C0EDDF272FECCFDC01CB01FC01E7
:1057B000E199FECF06C0FFBBEEBBE09A31960DB279
:0E57C0000D9241505040B8F70895F894FFCF75
:1057CE00FF3030303030300030303030303000305C
:1057DE00303030303000303030303030003030301B
:1057EE00303030003030303030300030303030003B
:1057FE00303030300001CFCD02C2D203D1D004D729
:10580E00D205CFD206D1C107C2D1FF000001303080
:10581E003030300041303530440032140003202047
:10582E002020202020202020202020202020256421
:02583E00000068
:00000001FF
