:1000000045C0000060C000005EC000005CC0000091
:100010005AC0000058C0000056C0000054C0000084
:1000200052C0000050C000004EC000004CC0000094
:100030004AC0000048C0000046C0000044C00000A4
:1000400042C0000040C000003FC000003CC00000B3
:1000500093C0000038C0000036C0000034C000006B
:1000600032C0000030C000002EC000002CC00000D4
:100070002AC0000028C0000026C0000024C00000E4
:1000800022C0000020C000001EC0000011241FBEBE
:10009000CFEFD0E1DEBFCDBF11E0A0E0B1E0ECEFEB
:1000A000F1E000E00BBF02C007900D92A030B10755
:1000B000D9F721E0A0E0B1E001C01D92A039B2075C
:1000C000E1F799D099C09CCF1F920F920FB60F9273
:1000D00011240BB60F922F933F938F939F93EF931F
:1000E000FF938CB1E0914C01F0914D01E05BFE4F2C
:1000F0008083813450F48E3360F4813251F078F093
:100100009DED980F933058F404C08E3511F08E3762
:1001100031F410924D0110924C01809350012091C6
:100120004C0130914D018D3061F481E0820F80935C
:100130004A0110924D0110924C0181E080934801D8
:100140000EC0C9010196803291052CF490934D01A7
:1001500080934C0104C010924D0110924C01FF910C
:10016000EF919F918F913F912F910F900BBE0F9028
:100170000FBE0F901F9018951F920F920FB60F92FF
:1001800011240BB60F922F933F938F939F93EF936E
:10019000FF9380910401909105012091020130E0CC
:1001A0008217930769F4109205011092040180915F
:1001B00065008E7F8093650081E0809300010EC012
:1001C000FC01E85FFE4F80818CB980910401909121
:1001D000050101969093050180930401FF91EF9131
:1001E0009F918F913F912F910F900BBE0F900FBE5B
:0C01F0000F901F901895FFCFF894FFCFE0
:00000001FF
