:100000007BC2000098C2000096C2000094C20000AB
:1000100092C2000090C200008EC200008CC200009C
:100020008AC2000088C2000086C2000084C20000AC
:1000300082C2000080C200007EC200007CC20000BC
:100040000C94C42478C200000C941C0C74C20000F0
:100050000C94740C70C200006EC200006CC20000F0
:100060006AC2000068C2000066C2000064C20000EC
:1000700062C2000060C200005EC200005CC20000FC
:100080005AC2000058C2000056C2000019173B17A0
:1000900054178217B117C5170C18F616F61646181E
:1000A00060187A181219AA19F616F616421A5C1A6E
:1000B000761A111BAC1BF616F616471C611C7B1C2E
:1000C000161DB11D07634236B79BD8A71A3968566B
:1000D00018AEBAAB558C1D3CB7CC5763BD6DEDFD6A
:1000E000753EF6177231BF000000803F0800000027
:1000F000BE922449123EABAAAA2ABECDCCCC4C3E1D
:1001000000000080BEABAAAAAA3E00000000BF000B
:100110000000803F0000000000084178D3BB438707
:10012000D1133D190E3CC3BD4282AD2B3E68EC821B
:1001300076BED98FE1A93E4C80EFFFBE01C4FF7FA0
:100140003F0000000000CAE400CAE800CAEF00D285
:10015000E5ECEFE5F0E0F2F3F0E020EDEEF7FC0087
:10016000D2E5ECEFE5F0E0F2F3F0E020E4E5EDFCC1
:1001700000C8E7ECE5ED2E20EDE0F1F2F0EEE5EA67
:100180002F6E20F0E5E3F3EBFFF2EEF0E000C8E7BE
:10019000ECE5ED2E20EDE0F1F2F0EEE5EA2F6E2039
:1001A000F2E5ECEFE5F0E0F2F3F0FB00CAE400CAA0
:1001B000E800CAEF00D2E5ECEFE5F0E0F2F3F0E0A2
:1001C00020EDEEF7FC00D2E5ECEFE5F0E0F2F3F025
:1001D000E020E4E5EDFC00C8E7ECE5ED2E20EDE0E5
:1001E000F1F2F0EEE5EA2F6E20F0E5E3F3EBFFF23B
:1001F000EEF0E000C8E7ECE5ED2E20EDE0F1F2F0E6
:10020000EEE5EA2F6E20F2E5ECEFE5F0E0F2F3F038
:10021000FB00CAE400CAE800CAEF00D2E5ECEFE553
:10022000F0E0F2F3F0E020EDEEF7FC00D2E5ECEFC9
:10023000E5F0E0F2F3F0E020E4E5EDFC00C8E7ECE7
:10024000E5ED2E20EDE0F1F2F0EEE5EA2F6E20F084
:10025000E5E3F3EBFFF2EEF0E000C8E7ECE5ED2EAE
:1002600020EDE0F1F2F0EEE5EA2F6E20F2E5ECEFA2
:10027000E5F0E0F2F3F0FB00CFE5F0E8EEE420E299
:100280002020F1E5EA00CFE5F0E8EEE420E220F1FD
:10029000E5EA00CF20C220D120D720CF20D120C234
:1002A00000CAEEEDE5F620F0E0E12E20E4EDFF00DF
:1002B000CDE0F7E0EBEE20F0E0E12E20E4EDFF00F2
:1002C000C4E5EDFC20EDE5E4E5EBE800C2F0E5EC8B
:1002D000FF00D1F2E0F2F3F120E4EDE5E92F6E202A
:1002E000EDE5E4E5EBE800D0E5E6E8ECFB20E4E54D
:1002F000EDFC2FEDEEF7FC00CDE0F1F2F0EEE9EAD7
:10030000E020F2E5EAF3F92E2F6E20E2F0E5ECE5CD
:10031000EDE800CFE5F0E8EEE420EEEFF0EEF1E0FE
:100320002F6E20E4E0F2F7E8EAEEE200CFE5F0E835
:10033000EEE420D8C8CC00C8E7ECE5ED2E20EDE0D7
:10034000F1F2F0EEE5EA2F6E20E2F0E5ECE5EDE803
:1003500000CAEEEDF2F3F0B93300CAEEEDF2F3F0BD
:10036000B93200CAEEEDF2F3F0B931005354005443
:10037000313D0054333D0054333D0054323D005470
:10038000323D0054313D004552524F520020202052
:1003900020002020202000C2FBEAEB00C2EAEB0094
:1003A000C2FBEAEB00C2EAEB002020202000202064
:1003B000202000C2FBEAEB00C2EAEB00C2FBEAEB42
:1003C00000C2EAEB00C2FBEAEB00C2EAEB005E54BB
:1003D00030303032005E5430303033005E543030D4
:1003E0003034005E5030303032005E5030303033C8
:1003F000005E50303030340000010203040506076F
:1004000008090A0B0C0D0E0F1011121314151617F4
:1004100018191A1B1C1D1E1F2021222324252627E4
:1004200028292A2B2C2D2E2F3031323334353637D4
:1004300038393A3B3C3D3E3F4041424344454647C4
:1004400048494A4B4C4D4E4F5051525354555657B4
:1004500058595A5B5C5D5E5F6061626364656667A4
:1004600068696A6B6C6D6E6F707172737475767794
:1004700078797A7BD17DE97F808127832285868781
:1004800088898A8B8C8D8E8F906061CACBDF5F5F8D
:1004900098999A9B9C9D9E9FA08DA2A3A4A5D1FDF7
:1004A000A2A9AACAACADAEAFEFB1496972B5B6B7F1
:1004B000B5CCBACBBCBDBEBF41A042A1E045A3A410
:1004C000A5A64BA74D484FA8504354A9AA58E1AB45
:1004D000ACE2ADAEC4AFB0B161B2B3B4E365B6B730
:1004E000B8B9BABBBCBD6FBE7063BF79E478E5C074
:1004F000C1E6C2C3C4C5C6C711241FBECFEFD0E139
:10050000DEBFCDBF11E0A0E0B1E0E6E4FDE500E034
:100510000BBF02C007900D92A837B107D9F724E0AE
:10052000A8E7B1E001C01D92A93EB207E1F70E9421
:10053000B6250C94A12E64CD1E9A85E08A95F1F71C
:100540001E980895CF93C0E2CBBBF6DFCBBBF4DFA0
:1005500080EA8BBBCF91F0CFCF93DF9300D0CDB7A4
:10056000DEB71BBA6A838983E7DF89816A818823C2
:1005700011F080E601C080E4611180618BBB0F90B7
:100580000F90DF91CF91D8CFCF93DF931F92CDB74C
:10059000DEB7982F907F90689BBB8983CDDF8981E0
:1005A0008295807F8BBB0F90DF91CF91C5CF1BBA17
:1005B000C3DF80E18BBBC0DF86E69EE00197F1F7E9
:1005C000000008951BBAB8DF80E28BBBB5CF82B1C3
:1005D000886682B983B1886483B98FEF9FE80197F9
:1005E000F1F700C0000083B1877983B98AB3806FC7
:1005F0008ABB8FEF9FE80197F1F700C00000A2DFF0
:100600001BBA9ADF80ED8BBB97DFD1DFDBDF60E0C9
:1006100081E0A2CFCF931B9AE82FF0E0E850FC4F87
:10062000C4918C2F807F8BBB87DFC295C07FCBBBF3
:1006300083DF1B98CF9108950F931F93CF93DF9380
:10064000EC018C01005C1F4F8991882321F0E2DFCF
:10065000C017D107C9F7DF91CF911F910F9108956E
:100660000F931F93CF93DF93EC018C01005C1F4F1E
:10067000FE0121968591882321F0CCDFC017D10798
:10068000B9F7DF91CF911F910F9108959091640078
:10069000906190936400813041F018F0823049F00D
:1006A0000895809165008F7E08C08091650080610B
:1006B00004C09091650080E18927809365000895CA
:1006C0009091600291111BC0813069F038F0823046
:1006D00081F0833081F589B380952BC089B383FB8A
:1006E000882780F909C099B392FB222720F9822735
:1006F000089589B38695817091E089270895909136
:100700007902292F30E0082E02C0359527950A94EA
:10071000E2F73091790241E050E0BA0102C0660F81
:10072000771F8A95E2F7CB01809583238093790226
:10073000822F817008958FEF0895EF920F931F938A
:10074000A0918901B0918A01A732B105F0F5CD01E0
:1007500053E0880F991F5A95E1F7FC01EA55FC4FC9
:10076000608333832283158304834183442339F0D8
:10077000E42FF0E0EE0FFF1FE85BFC4FA183EE20BB
:1007800029F0FC01EA55FC4FE6820CC0623031F4DE
:1007900021E0FC01EA55FC4F268304C0FC01EA5528
:1007A000FC4F168220915A0230915B02FC01EA55FF
:1007B000FC4F27832F5F3F4F30935B0220935A02F9
:1007C0001196B0938A01A09389011F910F91EF9028
:1007D000089510925B0210925A02809187019091C5
:1007E00088018231910558F4FC01EE0FFF1FE85B90
:1007F000FC4F608301969093880180938701089550
:1008000010925D0210925C0261110CC020915C029A
:1008100030915D02A901480F511D50935D02409334
:100820005C020895E8E4F3E020E030E040E050E0CE
:1008300070E0461757073CF49081290F311D4F5F38
:100840005F4F3296F6CF30935D0220935C02DECF8D
:10085000E0915C02F0915D0293E0EE0FFF1F9A952C
:10086000E1F7EA55FC4F0480F581E02D693008F08E
:1008700068E0823021F4808180935E020895982F91
:100880009B7F913011F0883069F4A1E6B2E070E00E
:10089000CD0181569240861797071CF481918D9364
:1008A000F7CF0895873001F570E080E090E020E018
:1008B00030E0DF01A80FB91F4C914F3FA9F0860F20
:1008C000971F41110EC020935702FD01A1E6B2E02F
:1008D0006F597D4FA617B70719F081918D93FACF05
:1008E00008952F5F3F4FE5CF0895AF92BF92CF920B
:1008F000DF92EF92FF920F931F93CF93DF9300D07D
:10090000CDB7DEB7E82E2091590230E0F901EE0FA5
:10091000FF1FE55EFC4F40815181E0915C02F09148
:100920005D0273E0EE0FFF1F7A95E1F7EA55FC4F89
:100930000681F080C280D38084E0F81297C0809155
:10094000580281111EC020DEE0915C02F0915D0230
:1009500053E0EE0FFF1F5A95E1F7EA55FC4F028175
:100960001381780190E1E90EF11CF8010F5F1F4F30
:100970008591882309F403C14DDE0E151F05A9F7E3
:10098000FEC08A0143E0000F111F4A95E1F7F8010C
:10099000EA55FC4FF6809081973009F4FA9490E084
:1009A000821B930B9F938F9382E791E09F938F938A
:1009B000CE0101966C019F938F930E94A12B8EE430
:1009C000E3DDC60139DE80E0DFDDF801EA55FC4FEA
:1009D000C280D380560190E1A90EB11C0F900F90F8
:1009E0000F900F900F900F90F60131966F01319795
:1009F000859181110BC080E4C7DDF801EA55FC4FF9
:100A00008081823041F000E010E02AC003DECA1489
:100A1000DB0451F7F0CFE091590288E0E89FF00144
:100A20001124E058FD4F8081882319F08AEC93E06F
:100A300002C085EC93E014DEA2C090E0081719070D
:100A40000CF09DC080915902F80198E0899FE00D5B
:100A5000F11D1124E058FD4F8081DCDD0F5F1F4F39
:100A60008F2DE8E0EF1548F788E0E7CF80E08CDDD8
:100A700090E2A92EB12CF6018491811103C0F110EE
:100A800018C062C08F3251F4F601319684918E36CF
:100A900029F4F2E0CF0ED11C80E476DDF601319628
:100AA0006F0131978591B6DDF1E0AF1AB10819F702
:100AB000E6CF093008F008E080915F02887119F4F0
:100AC000602F8F2DC5DE82E0F8120FC080E45CDD60
:100AD00080915E02813019F481EC93E004C08111B1
:100AE00033C08CEB93E0BCDD2FC08F2D8B7F81302A
:100AF00019F098E0F91212C080E446DD81E6C82EB4
:100B000082E0D82E10E0C6018156924080179107EE
:100B1000DCF4F60181916F017DDDF5CFF7E0FF1286
:100B200013C080E431DDC12CD12C10E0015011093B
:100B3000C016D1064CF48FEFC81AD80AF601EF5947
:100B4000FD4F808167DDF4CF80915F0283FF17C086
:100B500095E0F91669F0E8E0FE1671F0F1E0FF1299
:100B60000EC08FE38E1558F080E48E0D0DDD07C0AA
:100B70009FE39E1520F0F8CFEFE3EE15A8F70F9056
:100B80000F90DF91CF911F910F91FF90EF90DF9029
:100B9000CF90BF90AF900895AF92BF92CF92DF9267
:100BA000EF92FF920F931F93CF93DF9320915C02FC
:100BB00030915D02F90183E0EE0FFF1F8A95E1F7A6
:100BC000DF01AA55BC4F7C9116964C91493008F034
:100BD00048E0EA55FC4F5481A58060915F0265FDB5
:100BE00033C0A09158028A2F90E0FC01EE0FFF1F46
:100BF000E55EFC4F31832083E52FFA2D03E0880F5B
:100C0000991F0A95E1F720E030E050E024173507FE
:100C1000B4F4773051F0B191E901C80FD91FC05831
:100C2000DD4FB8832F5F3F4FF1CF820F931FFC0141
:100C3000E058FD4FE901CF59DD4F8981808381E084
:100C40008A0F809358025DC00BE113E0A0E8B2E088
:100C5000E8018A819B81F801819391938F01D3E010
:100C6000880F991FDA95E1F7FC01EA55FC4FE68100
:100C7000F0E080E090E0ED0128967E018E179F075E
:100C800064F46701C80ED91EE601B8806D01C80E74
:100C9000D91EE601B8820196F1CFD701D2E0A83F74
:100CA000BD07B1F6A09158028A2F90E0FC01EE0F2B
:100CB000FF1FE75EFC4F31832083E52FFA2DC3E051
:100CC000880F991FCA95E1F720E030E050E0241723
:100CD0003507B4F4773051F0B191E901C80FD91F4D
:100CE000C058DD4FB8832F5F3F4FF1CF820F931F66
:100CF000FC01E058FD4FE901CF59DD4F8981808328
:100D0000A150A093590280915802803118F060627E
:100D100060935F02DF91CF911F910F91FF90EF9051
:100D2000DF90CF90BF90AF900895CF93DF93E09185
:100D30005C02F0915D0293E0EE0FFF1F9A95E1F7E0
:100D4000DF01AA55BC4F16962C91293008F028E0F7
:100D5000EA55FC4F9081882329F0E1E6F2E050E06B
:100D600030E00AC06F5F621708F450C160E04EC106
:100D700071917E3209F451E0DF01A156B240A21711
:100D8000B307B4F3813021F0823009F4A1C03EC131
:100D9000953009F446C028F4913079F0923041F052
:100DA00035C1973009F457C0983009F484C02EC17A
:100DB00090915E029111A4C0A0C0A62FB0E0FD01E9
:100DC000EF59FD4F80818B3209F4A5C08D3209F4B3
:100DD000A6C08F5F8083662339F021503109A217A6
:100DE000B30711F0513019F48A33B8F06FC0613095
:100DF00089F4909161029B3211F09D3219F48A338B
:100E000020F064C08A3308F0B4C0803308F45EC0B8
:100E100061E0FCC08A3308F0ACC0803308F0F6C053
:100E200055C0E62FF0E0EF59FD4F80818F5F803E87
:100E300009F44CC08A3309F49CC08F3209F4E5C030
:100E4000803309F4A4C08F3509F49DC0813209F0C4
:100E5000DCC080ECDAC08091570251E0580F50930B
:100E6000570298E0499FF0011124EA55FC4F048095
:100E7000F581E02D5203D001539FB00D1124AE0F28
:100E8000BF1F9C919F3F11F48093570240915702DE
:100E90004203C001439F900D1124E80FF91FA1E602
:100EA000B2E0CD0181569240821793070CF0AEC09C
:100EB00081918D93F6CFE62FF0E0EF59FD4F8081C1
:100EC0008F5F8A3318F4803308F09FC080E39DC0A1
:100ED000953009F450C028F49130A9F0923041F0D7
:100EE00095C0973009F461C0983009F485C08EC070
:100EF00080915E02811104C081E080935E0286C011
:100F000010925E0283C0A62FB0E0FD01EF59FD4FA5
:100F100080818B3211F48DE278C08D3211F48BE236
:100F200074C081508083662339F021503109A217A3
:100F3000B30711F0513021F4803308F067C064C06A
:100F4000613089F4909161029B3211F09D3221F45D
:100F5000803308F05DCF58C08E3208F455C080331E
:100F600008F056CF06C08E3208F44EC0803308F029
:100F70004DC08EE24AC0E62FF0E0EF59FD4F808170
:100F800081508F3B11F480E240C08F3111F48EE527
:100F90003CC08D3511F48FE238C08E32B1F18D3204
:100FA00099F18F3291F58FED30C0809157028823EF
:100FB00019F0815080935702509157025203C0019B
:100FC000539F900D1124C1E6D2E058E0459FF001F7
:100FD0001124E655FC4F81569240AE0141565240D5
:100FE000421753079CF4A081B181AC0FBD1FA80F1D
:100FF000B91F4C914993F1CFE62FF0E0EF59FD4F27
:1010000080818150803308F489E38083862FDF91CB
:10101000CF910895DC01E0915C02F0915D0283E0E4
:10102000EE0FFF1F8A95E1F7EA55FC4F908126816C
:1010300080915F0284FF34C0293008F028E08F7E61
:1010400080935F02953091F040F4913079F09230C6
:1010500011F580915E028C931EC0973019F0983084
:10106000D1F404C0E1E6F2E030E00CC0E1E6F2E0E9
:1010700030E0AF01415652404217530764F481916A
:101080008D93F7CFAF0141565240421753071CF4DE
:1010900081918D93F7CFFB01908380915C0208953D
:1010A00080E00895AF92BF92CF92DF92EF92FF92CD
:1010B0000F931F93CF938B0123E0880F991F2A95DD
:1010C000E1F7DC01AA55BC4FE0915C02F0915D02B2
:1010D00033E0EE0FFF1F3A95E1F7EA55FC4FC4806D
:1010E000D5801696CC91C93008F0C8E09C012A55ED
:1010F0003C4F7901F901A480B5804EDDF701808174
:10110000853071F048F4813059F08230E1F5F80112
:101110008081F501808337C0873079F0883099F578
:10112000F801D5018C2F90E09D012A193B09281761
:1011300039074CF521912D93F7CF509161028C2FF7
:1011400090E0F60120E060E040E030813F3F51F068
:10115000311101C0622F351301C0422FE80FF91F72
:101160002F5FF3CF689FF001699FF00D1124EC0D04
:10117000FD1D5083489F9001499F300D1124F601B9
:10118000E20FF31F1082CF911F910F91FF90EF900C
:10119000DF90CF90BF90AF9008958F929F92BF92B3
:1011A000CF92DF92EF92FF920F931F93CF93DF9333
:1011B0007C018B0180915F02866080935F02DD2459
:1011C000D394CC24CA9480915F0286FD04C08F7EA4
:1011D00080935F0207C08F7A80935F02109286012E
:1011E00010928501609185018091860109DB80E084
:1011F00067DA813009F069C1C0E0D0E0B12C80E04D
:101200005FDA813009F0E3C083E39BE20197F1F7F5
:1012100090915F0293FF13C0CC3291E0D90780F127
:1012200081E5B2D9C092000180915F02877F806121
:1012300080935F0281E02ADABB24B39429C0E09155
:101240005C02F0915D0263E0EE0FFF1F6A95E1F72B
:10125000EA55FC4F8081833069F4CC32E1E0DE074F
:1012600078F09B7F906190935F02109286011092BC
:1012700085010CC0863061F4CC32F1E0DF0710F458
:10128000219606C09B7F906190935F0281E0FED91A
:1012900080915F0283FF78C0E0915C02F0915D0273
:1012A00053E0EE0FFF1F5A95E1F7EA55FC4F80819E
:1012B000823051F580918401863458F486E69EE0B0
:1012C0000197F1F70000809184018F5F8093840182
:1012D00019C01092840180E457D98091830188233A
:1012E00061F01092830180915E02882319F088EBEF
:1012F00093E007C083EB93E004C0D09283018EEAB1
:1013000093E0AED981E53EC0873009F078CF809177
:101310008401863458F4E6E6FEE03197F1F70000E8
:10132000809184018F5F809384012BC0109284018F
:1013300080E42AD9809183018823F1F010928301FF
:1013400042E6842E42E0942EE0915C02F0915D0230
:1013500033E0EE0FFF1F3A95E1F7EA55FC4F868127
:1013600090E09401215632402817390754F4F401D3
:1013700081914F014FD9E8CFD092830189EA93E060
:101380006FD985E401D93BCF84FF39CFE0915C026E
:10139000F0915D0223E0EE0FFF1F2A95E1F7EA5579
:1013A000FC4F8081823009F02ACFF1E0BF1227CFB5
:1013B00080E4EAD880915E02882319F085EA93E000
:1013C00002C080EA93E04CD981E5DED817CF809146
:1013D0005F0240915C0250915D02282F207184FFD2
:1013E00017C0FA0193E0EE0FFF1F9A95E1F7EA5557
:1013F000FC4F9081933011F0963051F486E0F80163
:10140000808380E043D980915C0290915D0208C2A4
:10141000FA01D3E0EE0FFF1FDA95E1F7EA55FC4F32
:101420009181992329F0109286019093850146C0FD
:10143000222321F0877F80935F0240C090812FEFAD
:10144000290F223030F0953021F029EF290F22307A
:10145000A8F5886080935F02913031F460910001BB
:1014600080E063DC8093000140915C0250915D025A
:10147000FA01C3E0EE0FFF1FCA95E1F7EA55FC4FF2
:101480008081853031F46091000180E04EDC8093F2
:10149000000140915C0250915D02FA01B3E0EE0F51
:1014A000FF1FBA95E1F7EA55FC4F8081883031F48F
:1014B0006091000180E039DC8093000180915F023F
:1014C000826080935F0280E0E1D883E0F9D88130C8
:1014D00009F079C083E0F4D8813049F484E190E0E8
:1014E000E3E3F7E03197F1F70197D1F7F3CF4091BC
:1014F000850190915F02442379F193FD59C050E03A
:10150000FA01EE0FFF1FE85BFC4F618170E0709302
:101510005D0260935C02FB01A3E0EE0FFF1FAA9542
:10152000E1F7EA55FC4F878180938601A8E4B3E098
:1015300020E030E0E0E0F0E024173507C8F58C91BA
:10154000E80FF11D12966E177F0718F4209385019E
:101550002FC02F5F3F4FF0CF93FF22C0E0915C027E
:10156000F0915D0263E0EE0FFF1F6A95E1F7EA5527
:10157000FC4F8081813049F08230D1F40480F581C4
:10158000E02D808180935E0213C0A481B581E1E6E5
:10159000F2E082E0E936F80759F08D918193F9CFB6
:1015A0009B7F906490935F0202D88FEF9FEF38C1CA
:1015B000C092000180915802815080935902977F18
:1015C000926090935F0282E07BD8813009F04CC03A
:1015D00082E076D8813049F484E190E0E3E3F7E0FB
:1015E0003197F1F70197D1F7F3CF80915F0283FF35
:1015F00007C040915C026091000181E096DB2FC042
:10160000E0915C02F0915D0253E0EE0FFF1F5A95EE
:10161000E1F7EA55FC4F8081843069F480915902EA
:101620008150809359028F3FD1F4809158028150AC
:101630008093590214C0809186018F5F8093860148
:10164000E0918501F0E0EE0FFF1FE85BFC4F208189
:1016500030E090E08217930714F010928601809199
:101660005F02826080935F0281E02AD8813009F0B6
:1016700049C081E025D8813049F484E190E0E3E37A
:10168000F7E03197F1F70197D1F7F3CF80915F023F
:1016900083FF07C040915C026091000182E045DB5E
:1016A0002CC0E0915C02F0915D0233E0EE0FFF1F71
:1016B0003A95E1F7EA55FC4F8081843079F48091C6
:1016C00059028F5F809359022091580230E090E0D8
:1016D0008217930794F0109259020FC080918601EF
:1016E000811108C0E0918501F0E0EE0FFF1FE85B7B
:1016F000FC4F808181508093860180915F028260DF
:1017000080935F0280915F0283FF6CC0E0915C0276
:10171000F0915D0293E0EE0FFF1F9A95E1F7EA5515
:10172000FC4F8081823079F580918401843660F4A9
:101730008CEC9CE10197F1F700C0000080918401DE
:101740008F5F809384011BC01092840180E40E940B
:10175000C40280918301882361F0109283018091FB
:101760005E02882319F08CE993E007C087E993E0D3
:1017700004C0D092830182E993E00E94300385E4A3
:101780000E94C4022FC0873069F58091840184369D
:1017900078F21092840180E40E94C4028091830157
:1017A0008823D9F010928301C2E6D2E0E0915C0276
:1017B000F0915D0283E0EE0FFF1F8A95E1F7EA5595
:1017C000FC4F868190E09E01215632402817390750
:1017D000B4F689910E940A03E9CFD09283018DE883
:1017E00093E0CBCF80915F0281FF10C00E94D702AF
:1017F00080915F028D7F80935F026091850180916F
:1018000086010E940004809100016FD8B801C701D1
:1018100001DC282F30E02115310509F4D4CCC901B1
:10182000DF91CF911F910F91FF90EF90DF90CF90BC
:10183000BF909F908F9008951F920F920FB60F92B6
:1018400011240BB60F922F933F938F939F93EF9397
:10185000FF938CB1E0911102F0911202EB5EFD4F0B
:101860008083813450F48E3360F4813251F078F00B
:101870009DED980F933058F404C08E3511F08E37DB
:1018800031F41092120210921102809315022091ED
:101890001102309112028D3061F481E0820F809349
:1018A0000F02109212021092110281E080930D0239
:1018B0000EC0C9010196803291052CF4909312025A
:1018C0008093110204C01092120210921102FF9133
:1018D000EF919F918F913F912F910F900BBE0F90A1
:1018E0000FBE0F901F9018951F920F920FB60F9278
:1018F00011240BB60F922F933F938F939F93EF93E7
:10190000FF938091C9019091CA012091C70130E0F5
:101910008217930769F41092CA011092C90180914D
:1019200065008E7F8093650081E08093C5010EC0C5
:10193000FC01E353FE4F80818CB98091C9019091E5
:10194000CA0101969093CA018093C901FF91EF915A
:101950009F918F913F912F910F900BBE0F900FBED3
:101960000F901F901895CF92DF92EF92FF92CF9336
:10197000DF93EC0102970CF07FC0DB01CA010197F5
:10198000A109B10980349244AF40B10508F074C098
:10199000CB01BA010E948A289B01AC0160E070E093
:1019A00081E69BE40E94F42720E030E040E85DE31C
:1019B0000E941A2920E030E040E05FE30E948F2778
:1019C0006B017C0120E030E040E05FE30E941629DB
:1019D00087FD52C0C701B601209711F50E945C280F
:1019E000C72ED82EE92EFF24C092900069B988ED49
:1019F0008AB986E08093950080916400816080932D
:101A00006400809165008E7F8093650010921202C1
:101A10001092110210920D0281E08093C50129C03D
:101A20000E945C28C72ED82EE92EFF24C092980071
:101A30006093990088ED80939A0086E080939D00E2
:101A400080916400826080936400809165008D7F46
:101A500080936500FE01EE0FFF1FEF5EFD4F1182C8
:101A60001082FE01E35FFD4F1082CB53DE4F81E019
:101A70008883789480E001C08FEFDF91CF91FF9051
:101A8000EF90DF90CF900895811117C01092C5019B
:101A90008091650081608093650088E18A95F1F707
:101AA00000C06093C70181E090E09093CA018093E9
:101AB000C9018091CD018CB908951092C601809121
:101AC000650082608093650088E18A95F1F700C027
:101AD0006093C80181E090E09093CC018093CB01AA
:101AE0008091ED0180939C000895CF93DF93DC01FA
:101AF000823091050CF058C0FC01EB53FE4F808101
:101B0000811105C088E18A95F1F700C0F8CFFB018B
:101B10009D0185E0220F331F8A95E1F790E060E098
:101B200070E08191EB01C20FD31FC353DE4F888356
:101B3000882341F08D3031F0980F6F5F7F4F603216
:101B4000710579F7FD01EB5AFD4F80818130F9F481
:101B5000892F82958F70F901E60FF71FE353FE4F2F
:101B60008A3010F4805D01C0895C8083AB014F5FD7
:101B70005F4F9F70420F531FFA01E353FE4F9A309D
:101B800010F4905D01C0995C90836E5F7F4F260FCB
:101B9000371FF901E353FE4F8DE080836F5F7F4F66
:101BA0008A2F72DF80E001C08FEFDF91CF9108951F
:101BB000EF92FF920F931F93CF93DF939C0182309C
:101BC00091050CF06DC0FC01E35FFD4F808188231F
:101BD00009F469C01082F901EB5AFD4F4081D90127
:101BE000A15FBD4FC90125E0880F991F2A95E1F734
:101BF000413009F040C02C9130E0790143E0E41A13
:101C0000F10840E0C0E0D0E0CE15DF0554F48E01CD
:101C1000080F191F0B5E1D4FF8015081450F2196CB
:101C2000F3CF542F52955F70C52FD0E05A3010F487
:101C3000E09601C0E796F701E80FF91FEB5EFD4F54
:101C4000E081F0E0CE17DF0769F54F70E42FF0E098
:101C50004A3020F4AF01405D5F4F03C0AF01495CE3
:101C60005F4F280F391FF901ED5EFD4F208130E0F5
:101C700042175307B9F42C91FB01219340E050E047
:101C800030E04217530754F4DA01A80FB91FAB5ED6
:101C9000BD4F6C9161934F5F5F4FF3CF81E003C005
:101CA0008FEF01C080E8DF91CF911F910F91FF90DE
:101CB000EF9008956AE00E94152B20E1829F900D1D
:101CC0001124892F0895982F92959F708F702AE084
:101CD000929F800D1124089594EE909374001092B9
:101CE000C4019091740097FD11C09091C4019F5F51
:101CF0009093C4019B3020F091E09093BD0106C009
:101D0000E0E7F1E03197F1F700C0EBCF809373008B
:101D100084EE809374001092C4018091740087FD5A
:101D200011C08091C4018F5F8093C4018B3020F07B
:101D300081E08093BD01089580E791E00197F1F77C
:101D400000C0EBCF0895FC0124E831E09E2F981BE2
:101D50009617D8F491919093730020937400109289
:101D6000C4019091740097FDF1CF9091C4019F5FE1
:101D70009093C4019B3018F03093BD01E7CFA0E7EA
:101D8000B1E01197F1F700C0ECCF84E980937400C3
:101D9000B1E3BA95F1F700000895CF93DF93FC010A
:101DA00020E030E0462F50E04150510984EC74E8C7
:101DB000A1E0B4E9261748F52417350719F4709304
:101DC000740002C0809374001092C401909174005A
:101DD00097FD10C09091C4019F5F9093C4019B3008
:101DE00018F0A093BD0106C0C0E7D1E02197F1F73C
:101DF00000C0ECCF9091730091932417350711F434
:101E0000B09374002F5F3F4FD5CFD1E3DA95F1F750
:101E10000000DF91CF910895109271008DE48093BE
:101E2000700081E0809372001092BD0180ED54DF5C
:101E300087E08093BE0181E98093BF0162E08EEB71
:101E400091E081DF81E09091BD01911101C080E0BE
:101E50000895EF92FF920F931F93CF93DF93EC01BE
:101E60008B017A011092BD0180ED36DF1092BE0128
:101E700061E08EEB91E067DF81ED2EDF63E08EEBBA
:101E800091E08BDF8091BE011EDFF701808380919E
:101E9000BF0119DFF80180838091C00114DF8883BE
:101EA00081E09091BD01911101C080E0DF91CF915F
:101EB0001F910F91FF90EF9008951F93CF93DF93A1
:101EC00000D0CDB7DEB7182F1092BD0180ED498349
:101ED0006A8302DF1092BE014981842FEBDE80937A
:101EE000BF016A81862FE6DE8093C001812FE2DE8A
:101EF0008093C10164E08EEB91E025DF81E0909159
:101F0000BD01911101C080E00F900F90DF91CF9142
:101F10001F910895CF92DF92EF92FF920F931F933C
:101F2000CF93DF936C017B018A01E9011092BD011F
:101F300080EDD2DE83E08093BE0161E08EEB91E024
:101F400002DF81EDC9DE64E08EEB91E026DF809157
:101F5000BE01B9DE8150F60180838091BF01B3DEFE
:101F6000F70180838091C001AEDEF801808380910B
:101F7000C101A9DE888381E09091BD01911101C06A
:101F800080E0DF91CF911F910F91FF90EF90DF9054
:101F9000CF9008951F93CF93DF9300D01F92CDB7BA
:101FA000DEB7182F1092BD0180ED2B834A83698321
:101FB00093DE83E08093BE01812F7CDE8F5F809370
:101FC000BF016981862F76DE8093C0014A81842F0C
:101FD00071DE8093C1012B81822F6CDE8093C20160
:101FE00065E08EEB91E0AFDE81E09091BD01911153
:101FF00001C080E00F900F900F90DF91CF911F9163
:1020000008958F929F92AF92BF92CF92DF92EF92FC
:10201000FF920F931F93CF93DF93809141032AE0A8
:10202000622F0E94152B805D80936F02905D9093CC
:1020300070028AE38093710280916C030E94152BD9
:10204000805D80937202905D9093730281E0809333
:10205000350182E08093380183E080933B0184E086
:1020600080933E0185E08093410186E080934401A6
:1020700087E08093470180919C0390E0FC01EE0F84
:10208000FF1F8E0F9F1FFC01EB5CFE4F10828091A3
:102090009D0390919E0368EE73E00E94212B605D8A
:1020A00060932B0164E670E00E94212B605D6093D9
:1020B0002C016AE070E00E94212B605D60932D018D
:1020C000805D80932E0181E490E00E94772EC3E032
:1020D000D0E000E311E0BC0180E090E00E9488289D
:1020E0006B017C01BE010D2E000C880B990B0E9428
:1020F0008A289B01AC0160E070E080E291E40E94DC
:102100007D294B015C019B01AC01C701B6010E9416
:10211000F42720E030E040E452E40E9490270E943F
:102120005C28F80161938F0170E060537109072EFC
:10213000000C880B990B0E948A28A50194010E942B
:102140001A299B01AC01C701B6010E948F270E948A
:102150005C28CB01219708F0BECFCAE3C0936F0380
:1021600084E390E00E94772EBC0180E090E00E9422
:1021700088286B017C0120E030E040E251E40E94BD
:10218000F42720E030E040E452E40E9490270E94CF
:102190005C2860936D03862F90E0C097BC01990F77
:1021A000880B990B0E948A2820E030E040E251E43D
:1021B0000E941A299B01AC01C701B6010E948F271A
:1021C0000E945C2880E090E00E94882820E030E0B7
:1021D00040E452E40E9490270E945C2860936E03C2
:1021E00086E390E00E94772EBC0180E090E00E94A0
:1021F00088286B017C0120E030E040E251E40E943D
:10220000F42720E030E040E452E40E9490270E944E
:102210005C2860937003862F90E0C097BC01990FF3
:10222000880B990B0E948A2820E030E040E251E4BC
:102230000E941A299B01AC01C701B6010E948F2799
:102240000E945C2880E090E00E94882820E030E036
:1022500040E452E40E9490270E945C28609371033E
:10226000C093E00480E390E00E94772EBC0180E000
:1022700090E00E9488286B017C0120E030E040E281
:1022800051E40E94F42720E030E040E452E40E9450
:1022900090270E945C286093DE04862F90E0C09710
:1022A000BC01990F880B990B0E948A2820E030E02E
:1022B00040E251E40E941A299B01AC01C701B6011A
:1022C0000E948F270E945C2880E090E00E9488286E
:1022D00020E030E040E452E40E9490270E945C2815
:1022E0006093DF0482E390E00E94772EBC0180E0DF
:1022F00090E00E9488286B017C0120E030E040E201
:1023000051E40E94F42720E030E040E452E40E94CF
:1023100090270E945C286093E104862F90E0C0978C
:10232000BC01990F880B990B0E948A2820E030E0AD
:1023300040E251E40E941A299B01AC01C701B60199
:102340000E948F270E945C2880E090E00E948828ED
:1023500020E030E040E452E40E9490270E945C2894
:102360006093E2048AE290E00E94772EBC0180E054
:1023700090E00E9488286B017C0120E030E040E280
:1023800051E40E94F42720E030E040E452E40E944F
:1023900090270E945C2860933B03862F90E0C097B3
:1023A000BC01990F880B990B0E948A2820E030E02D
:1023B00040E251E40E941A299B01AC01C701B60119
:1023C0000E948F270E945C2880E090E00E9488286D
:1023D00020E030E040E452E40E9490270E945C2814
:1023E00060933C038CE290E00E94772EBC0180E079
:1023F00090E00E9488286B017C0120E030E040E200
:1024000051E40E94F42720E030E040E452E40E94CE
:1024100090270E945C2860933D03862F90E0C09730
:10242000BC01990F880B990B0E948A2820E030E0AC
:1024300040E251E40E941A299B01AC01C701B60198
:102440000E948F270E945C2880E090E00E948828EC
:1024500020E030E040E452E40E9490270E945C2893
:1024600060933E038EE290E00E94772EBC0180E0F4
:1024700090E00E9488286B017C0120E030E040E27F
:1024800051E40E94F42720E030E040E452E40E944E
:1024900090270E945C2860933F03862F90E0C097AE
:1024A000BC01990F880B990B0E948A2820E030E02C
:1024B00040E251E40E941A299B01AC01C701B60118
:1024C0000E948F270E945C2880E090E00E9488286C
:1024D00020E030E040E452E40E9490270E945C2813
:1024E0006093400384E290E00E94772EBC0180E07C
:1024F00090E00E9488286B017C0120E030E040E2FF
:1025000051E40E94F42720E030E040E452E40E94CD
:1025100090270E945C286093E304862F90E0C09788
:10252000BC01990F880B990B0E948A2820E030E0AB
:1025300040E251E40E941A299B01AC01C701B60197
:102540000E948F270E945C2880E090E00E948828EB
:1025500020E030E040E452E40E9490270E945C2892
:102560006093E40486E290E00E94772EBC0180E054
:1025700090E00E9488286B017C0120E030E040E27E
:1025800051E40E94F42720E030E040E452E40E944D
:1025900090270E945C286093E504862F90E0C09706
:1025A000BC01990F880B990B0E948A2820E030E02B
:1025B00040E251E40E941A299B01AC01C701B60117
:1025C0000E948F270E945C2880E090E00E9488286B
:1025D00020E030E040E452E40E9490270E945C2812
:1025E0006093E60488E290E00E94772EBC0180E0D0
:1025F00090E00E9488286B017C0120E030E040E2FE
:1026000051E40E94F42720E030E040E452E40E94CC
:1026100090270E945C286093E704862F90E0C09783
:10262000BC01990F880B990B0E948A2820E030E0AA
:1026300040E251E40E941A299B01AC01C701B60196
:102640000E948F270E945C2880E090E00E948828EA
:1026500020E030E040E452E40E9490270E945C2891
:102660006093E80488E190E00E94722EC5E0D0E01B
:1026700006E111E00E9488286B017C01BE010D2E4D
:10268000000C880B990B0E948A289B01AC0160E02A
:1026900070E080E291E40E947D294B015C019B0186
:1026A000AC01C701B6010E94F42720E030E040E40D
:1026B00052E40E9490270E945C28F80161938F01E8
:1026C00070E060537109072E000C880B990B0E9473
:1026D0008A28A50194010E941A299B01AC01C70117
:1026E000B6010E948F270E945C28219718F68091DE
:1026F0001601809315018091170180931601809136
:102700001801809317018EE2809318018CE190E00C
:102710000E94722EC0E0D0E005E010E00E94882800
:102720006B017C01B8016C1B7D0B072E000C880B24
:10273000990B0E948A289B01AC0160E070E080E266
:1027400091E40E947D294B015C019B01AC01C70112
:10275000B6010E94F42720E030E040E452E40E94F9
:1027600090270E945C28FE01EA5EFE4F678370E0BE
:1027700060537109072E000C880B990B0E948A2860
:10278000A50194010E941A299B01AC01C701B60161
:102790000E948F270E945C282196C630D10509F03F
:1027A000BDCF80911D0180931C0180911E018093FB
:1027B0001D0180911F0180931E018EE280931F01F5
:1027C00080E290E00E94722EC0E0D0E005E010E0D0
:1027D0000E9488286B017C01B8016C1B7D0B072EC1
:1027E000000C880B990B0E948A289B01AC0160E0C9
:1027F00070E080E291E40E947D294B015C019B0125
:10280000AC01C701B6010E94F42720E030E040E4AB
:1028100052E40E9490270E945C28FE01EA5EFE4F6F
:10282000668770E060537109072E000C880B990BC6
:102830000E948A28A50194010E941A299B01AC01DB
:10284000C701B6010E948F270E945C282196C630DE
:10285000D10509F0BDCF809124018093230180919F
:1028600025018093240180912601809325018EE229
:10287000809326018CE090E00E94722EC4E0D0E0AC
:102880000CE013E00E9488286B017C01BE010D2E34
:10289000000C880B990B0E948A289B01AC0160E018
:1028A00070E080E291E40E947D294B015C019B0174
:1028B000AC01C701B6010E94F42720E030E040E4FB
:1028C00052E40E9490270E945C28F80161938F01D6
:1028D00070E060537109072E000C880B990B0E9461
:1028E0008A28A50194010E941A299B01AC01C70105
:1028F000B6010E948F270E945C28219718F68EE26D
:1029000080930D0380E190E00E94722EC0E0D0E041
:1029100004E010E00E9488286B017C01B8016C1B68
:102920007D0B072E000C880B990B0E948A289B01B7
:10293000AC0160E070E080E291E40E947D294B01EF
:102940005C019B01AC01C701B6010E94F42720E0A5
:1029500030E040E452E40E9490270E945C28FE018F
:10296000E45FFC4F658370E060537109072E000C33
:10297000880B990B0E948A28A50194010E941A29AC
:102980009B01AC01C701B6010E948F270E945C2801
:102990002196C530D10509F0BDCF8EE28093120398
:1029A00084E190E00E94722EC0E0D0E004E010E0EC
:1029B0000E9488286B017C01B8016C1B7D0B072EDF
:1029C000000C880B990B0E948A289B01AC0160E0E7
:1029D00070E080E291E40E947D294B015C019B0143
:1029E000AC01C701B6010E94F42720E030E040E4CA
:1029F00052E40E9490270E945C28FE01E45FFC4F95
:102A0000628770E060537109072E000C880B990BE8
:102A10000E948A28A50194010E941A299B01AC01F9
:102A2000C701B6010E948F270E945C282196C530FD
:102A3000D10509F0BDCF8EE28093170380E090E0CE
:102A40000E94722EC5E0D0E001E011E00E948828CB
:102A50006B017C01BE010D2E000C880B990B0E94AE
:102A60008A289B01AC0160E070E080E291E40E9462
:102A70007D294B015C019B01AC01C701B6010E949D
:102A8000F42720E030E040E452E40E9490270E94C6
:102A90005C28F80161938F0170E060537109072E83
:102AA000000C880B990B0E948A28A50194010E94B2
:102AB0001A299B01AC01C701B6010E948F270E9411
:102AC0005C28219718F68091010180930001809184
:102AD00002018093010180910301809302018EE243
:102AE0008093030184E090E00E94722EC0E0D0E069
:102AF00005E010E00E9488286B017C01B8016C1B86
:102B00007D0B072E000C880B990B0E948A289B01D5
:102B1000AC0160E070E080E291E40E947D294B010D
:102B20005C019B01AC01C701B6010E94F42720E0C3
:102B300030E040E452E40E9490270E945C28FE01AD
:102B4000EF5FFE4F678370E060537109072E000C42
:102B5000880B990B0E948A28A50194010E941A29CA
:102B60009B01AC01C701B6010E948F270E945C281F
:102B70002196C630D10509F0BDCF80910801809320
:102B80000701809109018093080180910A018093D7
:102B900009018EE280930A0188E090E00E94722E83
:102BA000C0E0D0E005E010E00E9488286B017C01C5
:102BB000B8016C1B7D0B072E000C880B990B0E9433
:102BC0008A289B01AC0160E070E080E291E40E9401
:102BD0007D294B015C019B01AC01C701B6010E943C
:102BE000F42720E030E040E452E40E9490270E9465
:102BF0005C28FE01EF5FFE4F668770E0605371094D
:102C0000072E000C880B990B0E948A28A5019401BD
:102C10000E941A299B01AC01C701B6010E948F27AF
:102C20000E945C282196C630D10509F0BDCF809165
:102C30000F0180930E018091100180930F0180910C
:102C40001101809310018EE280931101DF91CF91E9
:102C50001F910F91FF90EF90DF90CF90BF90AF90BA
:102C60009F908F9008956F927F928F929F92AF92D4
:102C7000BF92CF92DF92EF92FF920F931F93CF9369
:102C8000DF9384E390E00E94772E8093730386E3C2
:102C900090E00E94772E8093740380E390E00E947E
:102CA000772E80939A0382E390E00E94772E8093A0
:102CB0009B038FE390E00E94772E90939E03809376
:102CC0009D0381E490E00E94772E90937C03809393
:102CD0007B0308E310E0CFE9D3E0C8010E946A2E2D
:102CE00089930F5F1F4F83E0C63AD807B1F785E796
:102CF000882E83E0982E99E6A92E92E0B92E20E046
:102D0000C22E23E0D22E3DE7E32E33E0F32E4EE831
:102D1000642E43E0742E00E010E0C0E0D0E0CE016D
:102D2000865D9F4F0E94772EF401819391934F010E
:102D3000CE018C5D9F4F0E94772EF5018193919378
:102D40005F01C801885E9F4F0E94722EF601619359
:102D50007193819391936F01C801845F9F4F0E948B
:102D6000722EF70161937193819391937F01C80152
:102D7000805090400E94722EF30161937193819371
:102D800091933F0122960C5F1F4FC630D10539F653
:102D9000DF91CF911F910F91FF90EF90DF90CF9037
:102DA000BF90AF909F908F907F906F9008958F927B
:102DB0009F92AF92BF92EF92FF920F931F93CF9388
:102DC000DF9380E00E946003813039F48FEF9FE849
:102DD0000197F1F700C00000F4CF81E080938E01ED
:102DE00028EEE22E23E0F22ED4E6CAE00AD96AE702
:102DF00071E08BE791E00E94CD088C0190937901FE
:102E000080937801892B91F30F3F9FEF190709F405
:102E100043C76BE771E0C8010E945208802F90E021
:102E2000FC013997EC31F10508F7EA5BFF4F0C9490
:102E3000732B8091700220ED280F80916F02880F14
:102E40008056982F990F990F890F820F8093410315
:102E50006091730220ED260F60917202660F60563A
:102E6000962F990F990F690F620F60936C03409131
:102E7000720323D8BBCF95E3A92E91E0B92E10E0C1
:102E8000F5018081811108C010939C0360917A0242
:102E9000262F462F812F7ED8F3E0AF0EB11C1F5F87
:102EA000173071F7AED8A2CF80916E0390E0C09733
:102EB00020916D0330E020533109C29F8001C39FF0
:102EC000100D1124080F191FB80184E390E00E942F
:102ED0008E2E009373036091710370E0605371094B
:102EE0008091700390E0C097C89F9001C99F300DFA
:102EF0001124620F731F6093740386E390E00E94B5
:102F00008E2E74CF8091DF0490E0C0972091DE0474
:102F100030E020533109C29F8001C39F100D11245E
:102F2000080F191FB80180E390E00E948E2E0093D5
:102F30009A038091E20490E0C0972091E10430E090
:102F400020533109C29F8001C39F100D1124080F27
:102F5000191FB80182E390E00E948E2E00939B031C
:102F600045CF0FE913E088E3A82E80E0B82EF801E2
:102F700061918F01C5010E947C2EFFEFAF1ABF0A3D
:102F800083E0063A180799F731CF0091330110E03A
:102F9000005311098091300190E0C0978E9D9001FF
:102FA0008F9D300D9E9D300D1124020F131F8091B7
:102FB000310190E0C097D89F9001D99F300D112426
:102FC000020F131F2091320130E020533109C29FBC
:102FD000C001C39F900D1124080F191F083097E0FE
:102FE000190740F480E40E94C40287E893E00E943D
:102FF0003003FCCEB80181E490E00E948E2E109345
:103000007C0300937B031092AC011092AD011092EF
:10301000AE011092AF01EACE80912E0190E0C097F0
:1030200020912B0130E0205331092E9D80012F9DEE
:10303000100D3E9D100D1124080F191F80912C01B9
:1030400090E0C097D89F9001D99F300D1124020FB6
:10305000131F80912D0190E0C097C89F9001C99FD8
:10306000300D1124020F131FB8018FE390E00E946E
:103070008E2E10939E0300939D031092B001109228
:10308000B1011092B2011092B301B0CE80913C0315
:1030900090E0C09720913B0330E020533109C29F5C
:1030A0008001C39F100D1124080F191FB8018AE277
:1030B00090E00E948E2E109376030093750396CEB7
:1030C0008091E40490E0C0972091E30430E0205325
:1030D0003109C29F8001C39F100D1124080F191FD1
:1030E000B80184E290E00E948E2E10936A02009351
:1030F00069027CCEE6E1F1E080E090E021912E32A1
:1031000009F4982F8F5F8530C9F7913049F5A09168
:103110001601B0E0D09728EE33E00E948B2B20916F
:10312000180130E020533109D29F4001D39F900C09
:103130001124092C000CAA08BB08860E971EA81E95
:10314000B91E80911A0190E0C097092E000CAA0BBD
:10315000BB0B880E991EAA1EBB1E209119013FC0F1
:10316000923009F04DC0A0911601B0E0D09720E157
:1031700037E20E948B2B2091170130E02053310958
:103180002E9D40012F9D900C3E9D900C1124092CEA
:10319000000CAA08BB08860E971EA81EB91E8091B7
:1031A0001B0190E0C097092E000CAA0BBB0B880DE9
:1031B000991DAA1DBB1D2091190130E02053310932
:1031C000D29F4001D39F900C1124092C000CAA0817
:1031D000BB08880E991EAA1EBB1E20911A0130E062
:1031E00020533109C29FC001C39F900D1124092EA5
:1031F000000CAA0BBB0B880E991EAA1EBB1E03C097
:10320000812C912C5401B501A40188E190E00E9429
:10321000892E8092000390920103A0920203B09243
:103220000303E4CDECE0F3E080E090E021912E3266
:1032300009F4982F8F5F8530C9F7913049F5A09137
:103240000C03B0E0D09728EE33E00E948B2B209146
:103250000E0330E020533109D29F4001D39F900CE0
:103260001124092C000CAA08BB08860E971EA81E64
:10327000B91E8091100390E0C097092E000CAA0B94
:10328000BB0B880E991EAA1EBB1E20910F033FC0C8
:10329000923009F04DC0A0910C03B0E0D09720E12E
:1032A00037E20E948B2B20910D0330E0205331092F
:1032B0002E9D40012F9D900C3E9D900C1124092CB9
:1032C000000CAA08BB08860E971EA81EB91E809186
:1032D000110390E0C097092E000CAA0BBB0B880DC0
:1032E000991DAA1DBB1D20910F0330E02053310909
:1032F000D29F4001D39F900C1124092C000CAA08E6
:10330000BB08880E991EAA1EBB1E2091100330E038
:1033100020533109C29FC001C39F900D1124092E73
:10332000000CAA0BBB0B880E991EAA1EBB1E03C065
:10333000812C912C5401B501A4018CE090E00E94F5
:10334000892E80927D0390927E03A0927F03B0929B
:1033500080034CCDE1E0F1E080E090E021912E325D
:1033600009F4982F8F5F8530C9F7913049F5A09106
:103370000101B0E0D09728EE33E00E948B2B209122
:10338000030130E020533109D29F4001D39F900CBC
:103390001124092C000CAA08BB08860E971EA81E33
:1033A000B91E8091050190E0C097092E000CAA0B70
:1033B000BB0B880E991EAA1EBB1E209104013FC0A4
:1033C000923009F04DC0A0910101B0E0D09720E10A
:1033D00037E20E948B2B2091020130E0205331090B
:1033E0002E9D40012F9D900C3E9D900C1124092C88
:1033F000000CAA08BB08860E971EA81EB91E809155
:10340000060190E0C097092E000CAA0BBB0B880D9B
:10341000991DAA1DBB1D2091040130E020533109E4
:10342000D29F4001D39F900C1124092C000CAA08B4
:10343000BB08880E991EAA1EBB1E2091050130E014
:1034400020533109C29FC001C39F900D1124092E42
:10345000000CAA0BBB0B880E991EAA1EBB1E03C034
:10346000812C912C5401B501A40180E090E00E94D0
:10347000892E80928E0390928F03A0929003B09237
:103480009103B4CC80913E0390E0C09720913D031E
:1034900030E020533109C29F8001C39F100D1124D9
:1034A000080F191FB8018CE290E00E948E2E109335
:1034B0007803009377039ACC8091E60490E0C0975C
:1034C0002091E50430E020533109C29F8001C39F61
:1034D000100D1124080F191FB80186E290E00E9418
:1034E0008E2E10936C0200936B0280CC20E080E063
:1034F00090E0FC01EA5EFE4F37813E3209F4282F4E
:10350000019685309105A9F7213049F5A0911D015B
:10351000B0E0D09728EE33E00E948B2B20911F0162
:1035200030E020533109D29F4001D39F900C1124E9
:10353000092C000CAA08BB08860E971EA81EB91EEF
:103540008091210190E0C097092E000CAA0BBB0BC3
:10355000880E991EAA1EBB1E209120013FC022305A
:1035600009F04DC0A0911D01B0E0D09720E137E2F5
:103570000E948B2B20911E0130E0205331092E9D9B
:1035800040012F9D900C3E9D900C1124092C000CA5
:10359000AA08BB08860E971EA81EB91E809122019C
:1035A00090E0C097092E000CAA0BBB0B880D991D4B
:1035B000AA1DBB1D2091200130E020533109D29F6C
:1035C0004001D39F900C1124092C000CAA08BB08C1
:1035D000880E991EAA1EBB1E2091210130E02053A7
:1035E0003109C29FC001C39F900D1124092E000C08
:1035F000AA0BBB0B880E991EAA1EBB1E03C0812CF2
:10360000912C5401B501A4018CE190E00E94892E17
:103610008092040390920503A0920603B0920703E0
:10362000E5CB20E080E090E0FC01E45FFC4F3581D9
:103630003E3209F4282F019685309105A9F72130F3
:1036400049F5A0911103B0E0D09728EE33E00E9435
:103650008B2B2091130330E020533109D29F40017E
:10366000D39F900C1124092C000CAA08BB08860ECD
:10367000971EA81EB91E8091150390E0C097092ED1
:10368000000CAA0BBB0B880E991EAA1EBB1E209114
:1036900014033FC0223009F04DC0A0911103B0E0E7
:1036A000D09720E137E20E948B2B2091120330E06B
:1036B000205331092E9D40012F9D900C3E9D900C72
:1036C0001124092C000CAA08BB08860E971EA81E00
:1036D000B91E8091160390E0C097092E000CAA0B2A
:1036E000BB0B880D991DAA1DBB1D2091140330E052
:1036F00020533109D29F4001D39F900C1124092CF3
:10370000000CAA08BB08880E991EAA1EBB1E209199
:10371000150330E020533109C29FC001C39F900DB3
:103720001124092E000CAA0BBB0B880E991EAA1E91
:10373000BB1E03C0812C912C5401B501A40180E172
:1037400090E00E94892E8092810390928203A09241
:103750008303B09284034ACB20E080E090E0FC0138
:10376000EF5FFE4F37813E3209F4282F01968530F6
:103770009105A9F7213049F5A0910801B0E0D09753
:1037800028EE33E00E948B2B20910A0130E0205379
:103790003109D29F4001D39F900C1124092C000CB9
:1037A000AA08BB08860E971EA81EB91E80910C01A0
:1037B00090E0C097092E000CAA0BBB0B880E991E37
:1037C000AA1EBB1E20910B013FC0223009F04DC044
:1037D000A0910801B0E0D09720E137E20E948B2B46
:1037E0002091090130E0205331092E9D40012F9D89
:1037F000900C3E9D900C1124092C000CAA08BB08CB
:10380000860E971EA81EB91E80910D0190E0C097EC
:10381000092E000CAA0BBB0B880D991DAA1DBB1D00
:1038200020910B0130E020533109D29F4001D39FFA
:10383000900C1124092C000CAA08BB08880E991EB4
:10384000AA1EBB1E20910C0130E020533109C29FFB
:10385000C001C39F900D1124092E000CAA0BBB0BB5
:10386000880E991EAA1EBB1E03C0812C912C5401E8
:10387000B501A40184E090E00E94892E8092920319
:1038800090929303A0929403B0929503AFCA809153
:10389000400390E0C09720913F0330E0205331096E
:1038A000C29F8001C39F100D1124080F191FB8017A
:1038B0008EE290E00E948E2E10937A03009379039B
:1038C00095CA8091E80490E0C0972091E70430E029
:1038D00020533109C29F8001C39F100D1124080F8E
:1038E000191FB80188E290E00E948E2E10936E029C
:1038F00000936D027BCA20E080E090E0FC01EA5E6C
:10390000FE4F36853E3209F4282F01968530910509
:10391000A9F7213049F5A0912401B0E0D09728EE15
:1039200033E00E948B2B2091260130E02053310997
:10393000D29F4001D39F900C1124092C000CAA089F
:10394000BB08860E971EA81EB91E8091280190E024
:10395000C097092E000CAA0BBB0B880E991EAA1E3D
:10396000BB1E209127013FC0223009F04DC0A0911D
:103970002401B0E0D09720E137E20E948B2B209108
:10398000250130E0205331092E9D40012F9D900CE0
:103990003E9D900C1124092C000CAA08BB08860E31
:1039A000971EA81EB91E8091290190E0C097092E8C
:1039B000000CAA0BBB0B880D991DAA1DBB1D2091E5
:1039C000270130E020533109D29F4001D39F900C52
:1039D0001124092C000CAA08BB08880E991EAA1EE7
:1039E000BB1E2091280130E020533109C29FC00145
:1039F000C39F900D1124092E000CAA0BBB0B880E3F
:103A0000991EAA1EBB1E03C0812C912C5401B50126
:103A1000A40180E290E00E94892E80920803909297
:103A20000903A0920A03B0920B03E0C920E080E0F2
:103A300090E0FC01E45FFC4F32853E3209F4282F10
:103A4000019685309105A9F7213049F5A09116031B
:103A5000B0E0D09728EE33E00E948B2B2091180322
:103A600030E020533109D29F4001D39F900C1124A4
:103A7000092C000CAA08BB08860E971EA81EB91EAA
:103A800080911A0390E0C097092E000CAA0BBB0B83
:103A9000880E991EAA1EBB1E209119033FC022301A
:103AA00009F04DC0A0911603B0E0D09720E137E2B5
:103AB0000E948B2B2091170330E0205331092E9D5B
:103AC00040012F9D900C3E9D900C1124092C000C60
:103AD000AA08BB08860E971EA81EB91E80911B035C
:103AE00090E0C097092E000CAA0BBB0B880D991D06
:103AF000AA1DBB1D2091190330E020533109D29F2C
:103B00004001D39F900C1124092C000CAA08BB087B
:103B1000880E991EAA1EBB1E20911A0330E0205366
:103B20003109C29FC001C39F900D1124092E000CC2
:103B3000AA0BBB0B880E991EAA1EBB1E03C0812CAC
:103B4000912C5401B501A40184E190E00E94892EDA
:103B50008092850390928603A0928703B092880397
:103B600045C920E080E090E0FC01EF5FFE4F368524
:103B70003E3209F4282F019685309105A9F72130AE
:103B800049F5A0910F01B0E0D09728EE33E00E94F4
:103B90008B2B2091110130E020533109D29F40013D
:103BA000D39F900C1124092C000CAA08BB08860E88
:103BB000971EA81EB91E8091130190E0C097092E90
:103BC000000CAA0BBB0B880E991EAA1EBB1E2091CF
:103BD00012013FC0223009F04DC0A0910F01B0E0AA
:103BE000D09720E137E20E948B2B2091100130E02A
:103BF000205331092E9D40012F9D900C3E9D900C2D
:103C00001124092C000CAA08BB08860E971EA81EBA
:103C1000B91E8091140190E0C097092E000CAA0BE8
:103C2000BB0B880D991DAA1DBB1D2091120130E010
:103C300020533109D29F4001D39F900C1124092CAD
:103C4000000CAA08BB08880E991EAA1EBB1E209154
:103C5000130130E020533109C29FC001C39F900D72
:103C60001124092E000CAA0BBB0B880E991EAA1E4C
:103C7000BB1E03C0812C912C5401B501A40188E026
:103C800090E00E94892E8092960390929703A092D2
:103C90009803B0929903AAC810928E0181E0809394
:103CA000B4011092B501DF91CF911F910F91FF9058
:103CB000EF90BF90AF909F908F900895E0919C03FC
:103CC000F0E0E156FC4F908180914103903309F080
:103CD00056C02091730390919A0340915801281780
:103CE00058F4891748F410924D014E3479F434E4B5
:103CF0003093580131E008C031E030934D01443435
:103D000029F44EE4409358013093B40182131BC050
:103D100040916C032091740330915801421748F090
:103D200010924D013E3479F424E42093580121E0AF
:103D300008C021E020934D01343429F43EE430934F
:103D400058012093B401891322C030916C03209153
:103D50009B0390915801321738F021E020934D01D8
:103D60009434A9F49EE405C010924D019E3479F478
:103D700094E49093580191E09093B40108C091337A
:103D800031F491E090934D0190915801E9CF873142
:103D900001F580916C038B33E1F4809172038B33D6
:103DA000C1F410929201109293011092940110921A
:103DB000950110929601109297011092980110921D
:103DC000990110929A0110929B0110929C011092FD
:103DD0009D0108954AE752E0BA01CA010E94290FE5
:103DE000811113C042E753E06CE673E081E493E095
:103DF0000E94290F2AE732E0A901B9018CE993E07A
:103E00000E948A0F10928F0105C080918F018F5FF1
:103E100080938F0180918F018B3050F00E940C0FA6
:103E200081E08093A40192E5909354018093B401C2
:103E30000895CF92DF92EF92FF920F931F9363301A
:103E400030F4E62FF0E0EB58FE4F408101C040E037
:103E50000091AC011091AD012091AE013091AF0104
:103E6000FC0180819181A281B381081719072A077B
:103E70003B0738F528B381E090E001C0880F4A95F0
:103E8000EAF7822B88BBC69880915101813331F4C7
:103E900080E38093510181E08093B401E62FF0E04C
:103EA000DF01A55ABE4F1C9281E080935E01E25B68
:103EB000FE4F90819033C1F591E390838093B401DC
:103EC00033C080179107A207B30770F5E62FF0E023
:103ED000DF01A55ABE4F8C91811126C021E02093AD
:103EE000A701C090A801D090A901E090AA01F0908C
:103EF000AB0188EEC81683E0D806E104F104A0F017
:103F000038B381E090E001C0880F4A95EAF78095C8
:103F1000832388BB2C93E25BFE4F8081813321F4A5
:103F200080E380832093B40180915B01813091F420
:103F300080915C01813071F480915D01813051F498
:103F4000C69A90915101903329F491E390935101D5
:103F50008093B4018091A701811120C090915B01F1
:103F600080915201913089F490915C01913069F413
:103F700090915D01913049F49498813379F480E314
:103F8000809352019093B40109C0949A803331F424
:103F900081E38093520181E08093B4011F910F91DE
:103FA000FF90EF90DF90CF9008952F923F924F9225
:103FB0005F926F927F928F929F92AF92BF92CF92B9
:103FC000DF92EF92FF920F931F93CF93DF93CDB7C2
:103FD000DEB7A3970FB6F894DEBF0FBECDBF2BE8B8
:103FE00031E03F872E8748EB51E05D874C8780E0CA
:103FF00093E09D8B8C8BA2E9B1E0BB87AA87EDE7AC
:10400000F3E0FB8BEA8B2EE833E0398B288B4EE90B
:1040100051E05987488782E493E09F838E83212C67
:10402000312C1D8290EA492E96E8592E662463941D
:10403000712C28EE822E23E0922EA12CB12C80919F
:104040004D01F10181110EC0EB58FC4F808191812F
:10405000A8EEB3E08A9FF0018B9FF00D9A9FF00DC0
:1040600011240DC0E759FD4F8081918148EE53E046
:10407000849FF001859FF00D949FF00D1124AE8177
:10408000BF818D919C919F01281B390B3BA32AA3D3
:10409000EC89FD8981919191A191B191FD8BEC8B7E
:1040A0008A8F9B8FAC8FBD8FAA89BB896D917D91C3
:1040B0008D919D91BB8BAA8B2AA13BA1032E000C55
:1040C000440B550B2E8B3F8B488F598F0E94062B2C
:1040D000AA85BB850D911D912D913C916B017C01B1
:1040E000C00ED11EE21EF31EA889B9892D913D9103
:1040F0004D915D91B98BA88B2E8F3F8F48A359A30B
:10410000E885F985008111812AA13BA131832083B3
:10411000AA85BB85CD92DD92ED92FC92139780919A
:10412000A401811166C0EC85FD8580818A3008F08C
:1041300062C02A8D3B8D4C8D5D8D6E897F89888D07
:10414000998D0E94062BC60ED71EE81EF91EAAA145
:10415000BBA1A01BB10B2E8D3F8D48A159A10E9480
:104160009B2B6C0D7D1D8E1D9F1DA50194010E9432
:10417000572B69017A01213AF6E83F07F1E04F0732
:10418000510534F457FF0BC0C12CD12C760107C068
:1041900080EAC82E86E8D82EEE24E394F12CC701DD
:1041A000B601A30192010E94572B122F20E137E2A2
:1041B00040E050E00E94572B022FA50194010E947D
:1041C000572B3AE0039F200D112444E6419F200D18
:1041D0001124AE85BF852C93A0917B03B0917C0305
:1041E000A70196010E94912BA50194010E94352BF5
:1041F00037C0813029F0EC85FD8580818A30C0F19F
:1042000020915A0130E0A8EEB3E00E947C2B6B01B4
:104210007C01A30192010E94572B122F20E137E26B
:1042200040E050E00E94572B022FA50194010E940C
:10423000572BFAE00F9F200D112434E6319F200DFB
:104240001124AE85BF852C93A0917B03B0917C0394
:10425000A70196010E94912BA50194010E94572B62
:1042600029833A834B835C836D81CE010196E1DD26
:10427000EE85FF853196FF87EE87FD81FF5FFD8329
:104280002C853D852F5F3F4F3D872C874A855B8579
:104290004C5F5F4F5B874A8788859985029699872F
:1042A000888792E0290E311CAE81BF811296BF83B0
:1042B000AE83F33009F0C3CEA3960FB6F894DEBFF9
:1042C0000FBECDBFDF91CF911F910F91FF90EF9067
:1042D000DF90CF90BF90AF909F908F907F906F9026
:1042E0005F904F903F902F900895CF93DF93C3EE50
:1042F000D3E0D093BC01C093BB01A2E6B1E08091B2
:10430000BB019091BC01FC01019625912D939093E6
:10431000BC018093BB01F1E0A936BF0781F762E6DB
:1043200071E080E090E00E94750D279683E0C83F21
:10433000D807F9F6DF91CF9108950F931F9320913D
:104340009D0330919E03A4E6B0E00E947C2B009177
:10435000B0011091B1012091B2013091B301061763
:1043600017072807390719F58EEC93E09093BC01E5
:104370008093BB01A2E6B1E08091BB019091BC01AA
:10438000FC01019625912D939093BC018093BB0174
:10439000F1E0A936BF0781F762E671E080E090E0C6
:1043A0000E94750D8091B8018F5F8093B8012091B4
:1043B0009D0330919E03A4E6B0E00E947C2BDC01BB
:1043C000CB014496A11DB11D0091B0011091B10126
:1043D0002091B2013091B301081719072A073B0752
:1043E00019F585ED93E09093BC018093BB01A2E6A3
:1043F000B1E08091BB019091BC01FC010196259137
:104400002D939093BC018093BB01F1E0A936BF07C7
:1044100081F762E671E080E090E00E94750D809186
:10442000B9018F5F8093B90120919D0330919E0364
:10443000A4E6B0E00E947C2BDC01CB018896A11D94
:10444000B11D0091B0011091B1012091B2013091E4
:10445000B301081719072A073B0719F58CED93E0FC
:104460009093BC018093BB01A2E6B1E08091BB01B7
:104470009091BC01FC01019625912D939093BC0174
:104480008093BB01F1E0A936BF0781F762E671E0D6
:1044900080E090E00E94750D8091BA018F5F80935B
:1044A000BA0162E671E080E090E00E94D80D8130B0
:1044B00009F0C4C0E0916201F0E0EE59FE4F1082B5
:1044C000809167018233E9F51092B801409169014A
:1044D00040937B0220916A0120937C028EE28093BC
:1044E0007D0280916B0180937E0210927F0250E0EA
:1044F00040535109E0E1F7E24E9FB0014F9F700D2C
:104500005E9F700D112430E020533109E8EEF3E096
:104510002E9FA0012F9F500D3E9F500D1124460F3E
:10452000571F90E0C09764E6689F9001699F300D27
:104530001124CA01820F931F909343038093420377
:104540007DC08333E9F51092B90140916901409330
:10455000890320916A0120938A038EE280938B0362
:1045600080916B0180938C0310928D0350E0405337
:104570005109E0E1F7E24E9FB0014F9F700D5E9F41
:10458000700D112430E020533109E8EEF3E02E9F46
:10459000A0012F9F500D3E9F500D1124460F571F15
:1045A00090E0C09764E6689F9001699F300D1124E8
:1045B000CA01820F931F90934503809344033EC02A
:1045C0008433E1F51092BA0140916901409374027D
:1045D00020916A01209375028EE280937602809189
:1045E0006B01809377021092780250E0405351099A
:1045F000E0E1F7E24E9FB0014F9F700D5E9F700D9E
:10460000112430E020533109E8EEF3E02E9FA001A1
:104610002F9F500D3E9F500D1124460F571F90E0C5
:10462000C09764E6689F9001699F300D1124CA010C
:10463000820F931F909347038093460320919D031D
:1046400030919E03A4E6B0E00E947C2BDC01CB01FC
:10465000805B9F4FAF4FBF4F0091B0011091B101F0
:104660002091B2013091B301081719072A073B07BF
:1046700009F04BC09ADC1092B0011092B101109277
:10468000B2011092B3018091B8018B3088F084E4BC
:1046900080937B029DE490937C0297E490937D024B
:1046A00080937E028CED9FEF9093430380934203AF
:1046B0008091B9018B3088F084E4809389039DE474
:1046C00090938A0397E490938B0380938C038CEDF3
:1046D0009FEF90934503809344038091BA018B3000
:1046E00088F084E4809374029DE49093750297E4CB
:1046F00090937602809377028CED9FEF909347031F
:104700008093460381E08093B4011F910F91089537
:1047100080E00E9460038130B1F40E94D71613C07C
:10472000F8942091A5013091A6012F5F3F4F30935F
:10473000A6012093A501283B3B4058F486E69EE065
:104740000197F1F7000083E00E946003813041F39C
:1047500015C09091A401911108C08093A40192E525
:10476000909354018093B40109C0913039F71092AD
:10477000A40181E4809354019093B4017894109241
:10478000A6011092A50182E00E946003813039F5F4
:1047900082E00E946003813039F48FEF9FE8019737
:1047A000F1F700C00000F4CF80915A01843618F46C
:1047B0008B5F80935A0180915A0164E636D720E3DB
:1047C000280F20935501892F6AE02FD7805D8093B1
:1047D0005601905D9093570181E08093B40181E090
:1047E0000E946003813039F581E00E9460038130CE
:1047F00039F48FEF9FE80197F1F700C00000F4CF84
:1048000080915A01882319F0855080935A01809134
:104810005A0164E60AD720E3280F20935501892F17
:104820006AE003D7805D80935601905D90935701B5
:1048300081E08093B40108958091B6019091B70111
:104840009C0121503109283C310510F5209161016E
:104850002330F1F480E00E94C40283E893E00E94D8
:10486000300380E40E94C4028FE793E00E9430038B
:1048700083E00E94C4028BE792E00E941C0383E461
:104880000E94C40289E893E00E941C0381E04DC0AD
:104890009C01295C3109283C310518F580916101A2
:1048A000813009F044C080E00E94C4028BE793E0AD
:1048B0000E94300380E40E94C40287E793E00E94D4
:1048C000300383E00E94C40289E893E00E941C0345
:1048D00083E40E94C40284E792E00E941C0382E009
:1048E00024C08139914018F1809161018230F9F43E
:1048F00080E00E94C40283E793E00E94300380E4DA
:104900000E94C4028FE693E00E94300383E00E947D
:10491000C40284E792E00E941C0383E40E94C40264
:104920008BE792E00E941C0383E0809361018091F9
:10493000B50181110AC089E00E94C4028CE693E0AF
:104940000E94300381E08093B5018091B4018130F1
:1049500081F48BE00E94C4028EE491E00E941C036B
:1049600089E40E94C40284E591E00E941C03109235
:10497000B401089583B7876083BF8FE682BF87B78E
:10498000816087BF789408951F920F920FB60F929F
:1049900011240BB60F920F931F932F933F934F93B6
:1049A0005F936F937F938F939F93AF93BF93EF9397
:1049B000FF938FE682BF20917B0330917C03A4E6B6
:1049C000B0E09AD60091AC011091AD012091AE01FA
:1049D0003091AF01061717072807390740F01092EA
:1049E000AC011092AD011092AE011092AF01409156
:1049F000A7014130E1F520915F0130916001A4E60B
:104A0000B0E07AD60091A8011091A9012091AA01E5
:104A10003091AB010617170728073907F0F494986F
:104A200080915201813329F480E3809352014093B5
:104A3000B4018091A8019091A901A091AA01B0911F
:104A4000AB010196A11DB11D8093A8019093A9010E
:104A5000A093AA01B093AB010AC01092A8011092D2
:104A6000A9011092AA011092AB011092A7018091A6
:104A70009001909191018536910530F401969093C3
:104A800091018093900104C01092910110929001C5
:104A90008091B0019091B101A091B201B091B301A8
:104AA0008D3D21E492072FE0A207B10560F4019645
:104AB000A11DB11D8093B0019093B101A093B201EB
:104AC000B093B30108C01092B0011092B1011092DE
:104AD000B2011092B3018091AC019091AD01A0910F
:104AE000AE01B091AF018D3D21E492072FE0A20706
:104AF000B10560F40196A11DB11D8093AC019093A6
:104B0000AD01A093AE01B093AF0108C01092AC010B
:104B10001092AD011092AE011092AF018091B601DA
:104B20009091B701883522E0920730F40196909376
:104B3000B7018093B60104C01092B7011092B6017C
:104B4000FCDBFF91EF91BF91AF919F918F917F918E
:104B50006F915F914F913F912F911F910F910F9006
:104B60000BBE0F900FBE0F901F9018952FEF8FEF79
:104B70009CE2215080409040E1F700C000000E947C
:104B8000E7020E940C0F40E855E260E070E080E030
:104B900090E00E94B30C87B3806F87BB8C9A66E06D
:104BA00080E00E94E903E12C00E010E023E633E01E
:104BB00047E060E080E00E949D032AE533E04AE0A0
:104BC00060E081E00E949D0321E533E04DE060E07C
:104BD00082E00E949D0327E333E041E060E083E050
:104BE0000E949D032CE233E045E060E084E00E94F7
:104BF0009D0323E133E046E060E085E00E949D03F1
:104C000063E081E00E94E90328EF32E042E060E0E7
:104C100086E00E949D0327EE32E043E060E087E0FB
:104C20000E949D0322ED32E044E060E088E00E94B3
:104C30009D0362E082E00E94E90385E0E82E0FE632
:104C400012E02CEC32E040E061E089E00E949D033C
:104C500093E0E92E05E311E020EC32E040E067E06C
:104C60008AE00E949D0362E083E00E94E90325E060
:104C7000E22E0DE613E020EB32E040E061E08BE055
:104C80000E949D030EED14E021EA32E040E061E075
:104C90008CE00E949D0361E084E00E94E90337E01C
:104CA000E32E0FE913E023E932E040E065E08DE018
:104CB0000E949D0361E085E00E94E90344E0E42E48
:104CC00000E311E026E832E040E061E08EE00E947F
:104CD0009D0361E086E00E94E9030BE211E028E712
:104CE00032E040E061E08FE00E949D0362E087E0F7
:104CF0000E94E903E12C00E010E02AE532E048E000
:104D000060E080E10E949D032DE332E049E060E035
:104D100081E10E949D0362E088E00E94E90352E085
:104D2000E52E0BE313E02CE232E040E061E082E1AB
:104D30000E949D0303EE14E02BE132E040E061E0CD
:104D400083E10E949D0363E089E00E94E90366E03D
:104D5000E62E06E111E028E132E040E061E084E186
:104D60000E949D0375E0E72E0CE013E025E132E0A0
:104D700040E061E085E10E949D03E6E0EE2E01E067
:104D800011E022E132E040E061E086E10E949D0313
:104D900062E08AE00E94E903E12C00E010E024EFE9
:104DA00031E04BE060E087E10E949D0327ED31E0B8
:104DB0004CE060E088E10E949D0362E08BE00E948D
:104DC000E903F2E0EF2E0DE313E026EC31E040E0E2
:104DD00061E089E10E949D0305EE14E025EB31E0DE
:104DE00040E061E08AE10E949D0363E08CE00E9464
:104DF000E903A6E0EA2E0DE111E022EB31E040E00C
:104E000061E08BE10E949D03B5E0EB2E01E113E030
:104E10002FEA31E040E061E08CE10E949D0316E062
:104E2000E12E08E011E02CEA31E040E061E08DE1A4
:104E30000E949D0362E08DE00E94E903E12C00E006
:104E400010E02EE831E04EE060E08EE10E949D032C
:104E500021E731E04FE060E08FE10E949D0362E0D6
:104E60008EE00E94E90302E0E02E0FE313E020E66B
:104E700031E040E061E080E20E949D0307EE14E033
:104E80002FE431E040E061E081E20E949D0363E0B5
:104E90008FE00E94E90386E0E82E04E211E02CE4B2
:104EA00031E040E061E082E20E949D0395E0E92E5E
:104EB00006E113E029E431E040E061E083E20E9492
:104EC0009D0326E0E22E0FE011E026E431E040E011
:104ED00061E084E20E949D0308DA0E9433164ADDF5
:104EE00020919D0330919E0344E6429FC001439F61
:104EF000900D11240597A0E0B0E08093B00190934D
:104F0000B101A093B201B093B30117DA0E9401106E
:104F100093DC0E94EA1E0E945E1EFADBF9CF505815
:104F2000BB27AA270ED048C139D130F03ED120F09E
:104F300031F49F3F11F41EF42EC10EF4E095E7FB0F
:104F400024C1E92F4AD180F3BA1762077307840797
:104F5000950718F071F49EF562C10EF4E0950B2EE2
:104F6000BA2FA02D0B01B90190010C01CA01A001BB
:104F70001124FF27591B99F0593F50F4503E68F116
:104F80001A16F040A22F232F342F4427585FF3CF57
:104F9000469537952795A795F0405395C9F77EF428
:104FA0001F16BA0B620B730B840BBAF09150A1F071
:104FB000FF0FBB1F661F771F881FC2F70EC0BA0FF7
:104FC000621F731F841F48F4879577956795B7957F
:104FD000F7959E3F08F0B3CF9395880F08F0992777
:104FE000EE0F9795879508950CD0E6C0DED040F07F
:104FF000D5D030F021F45F3F19F0C7C0511110C176
:10500000CAC0EBD098F39923C9F35523B1F3951B8C
:10501000550BBB27AA2762177307840738F09F5FD9
:105020005F4F220F331F441FAA1FA9F333D00E2E48
:105030003AF0E0E830D091505040E695001CCAF7B5
:1050400029D0FE2F27D0660F771F881FBB1F26177A
:1050500037074807AB07B0E809F0BB0B802DBF014D
:10506000FF2793585F4F2AF09E3F510568F08DC08F
:10507000D7C05F3FECF3983EDCF386957795679554
:10508000B795F7959F5FC9F7880F911D96958795FE
:1050900097F90895E1E0660F771F881FBB1F62171D
:1050A00073078407BA0720F0621B730B840BBA0BDB
:1050B000EE1F88F7E095089598D088F09F5790F0FC
:1050C000B92F9927B751A0F0D1F0660F771F881F2D
:1050D000991F1AF0BA95C9F712C0B13081F09FD06C
:1050E000B1E008959CC0672F782F8827B85F39F00A
:1050F000B93FCCF3869577956795B395D9F73EF48C
:1051000090958095709561957F4F8F4F9F4F089533
:10511000E89409C097FB3EF4909580957095619551
:105120007F4F8F4F9F4F9923A9F0F92F96E9BB2707
:105130009395F695879577956795B795F111F8CF83
:10514000FAF4BB0F11F460FF1BC06F5F7F4F8F4FEE
:105150009F4F16C0882311F096E911C0772321F0E4
:105160009EE8872F762F05C0662371F096E8862F7C
:1051700070E060E02AF09A95660F771F881FDAF7D3
:10518000880F9695879597F9089597F99F6780E816
:1051900070E060E008959FEF80EC089500240A9489
:1051A0001616170618060906089500240A94121602
:1051B0001306140605060895092E0394000C11F435
:1051C000882352F0BB0F40F4BF2B11F460FF04C0E2
:1051D0006F5F7F4F8F4F9F4F089557FD9058440F3B
:1051E000551F59F05F3F71F04795880F97FB991F46
:1051F00061F09F3F79F08795089512161306140603
:10520000551FF2CF4695F1DF08C01616170618068F
:10521000991FF1CF86957105610508940895E8946A
:10522000BB2766277727CB0197F90895E3D008F4C9
:105230008FEF08950BD0C0CFB1DF28F0B6DF18F0A4
:10524000952309F0A2CFA7CF1124EACFC6DFA0F3A0
:10525000959FD1F3950F50E0551F629FF001729F0B
:10526000BB27F00DB11D639FAA27F00DB11DAA1F2A
:10527000649F6627B00DA11D661F829F2227B00D77
:10528000A11D621F739FB00DA11D621F839FA00D02
:10529000611D221F749F3327A00D611D231F849F52
:1052A000600D211D822F762F6A2F11249F575040A9
:1052B0008AF0E1F088234AF0EE0FFF1FBB1F661F44
:1052C000771F881F91505040A9F79E3F510570F0FD
:1052D0005CCFA6CF5F3FECF3983EDCF386957795E5
:1052E0006795B795F795E7959F5FC1F7FE2B880FF8
:1052F000911D9695879597F90895FA01EE0FFF1F76
:1053000030962105310599F16115710561F48038F8
:10531000BFE39B0749F168949038810561F08038BC
:10532000BFEF9B0741F0992342F5FF3FE1053105AF
:10533000210511F1E8940894E795D901AA2329F4ED
:10534000AB2FBE2FF85FD0F310C0FF5F70F4A695AF
:10535000E0F7F73950F019F0FF3A38F49F779F9350
:105360000CD00F9007FC905808953EF014CF60E0E9
:1053700070E080E89FE308954FE79F775F934F9336
:105380003F932F93C2D02F913F914F915F9152DF66
:1053900005C019F40EF0F9CE42CFFDCE26DFC8F3DA
:1053A0009638C0F707F80F92E8942BE33AEA48EBF7
:1053B0005FE74EDF0F920F920F924DB75EB70F92DD
:1053C000E4D0E4ECF0E03AD04F915F91EF91FF919F
:1053D000E595EE1FFF1F49F0FE57E0684427EE0FEA
:1053E000441FFA95E1F74195550B56D00F9007FEF3
:1053F0004AC00895990F0008550FAA0BE0E8FEEF88
:1054000016161706E807F907C0F012161306E40788
:10541000F50798F0621B730B840B950B39F40A2681
:1054200061F0232B242B252B21F408950A2609F45F
:10543000A140A6958FEF811D811D0895DF93CF9325
:105440001F930F93FF92EF92DF927B018C01689480
:1054500005C0DA2EEF01FADEFE01E894A591259150
:10546000359145915591AEF3EF016BDDFE0197014A
:10547000A801DA9479F7DF90EF90FF900F911F91D8
:10548000CF91DF9108959B01AC0160E070E080E86E
:105490009FE3AACD7ACEACC0A8DEE8F39923D9F376
:1054A000940F511DBBF39150504094F059F0882354
:1054B00032F0660F771F881F91505040C1F79E3F12
:1054C000510544F7880F911D9695879597F9089592
:1054D0005F3FACF0983E9CF0BB278695779567952B
:1054E000B79508F4B1609395C1F7BB0F58F711F465
:1054F00060FFE8CF6F5F7F4F8F4F9F4FE3CF90CE1E
:105500000EF076C048CE689440CE6FDEC8F3992383
:10551000D1F3C6F3DF93CF931F930F93FF92C92F5D
:10552000DD2788232AF02197660F771F881FDAF777
:1055300020E030E040E85FEB9FE3883920F0803ED8
:1055400030F021968F77ECDCECEEF0E003C0E8DC85
:10555000E9E1F1E073DF8B01BE01EC01FB2E6F5737
:1055600071097595771F880B990BD4DD28E132E717
:1055700041E35FE36BDEAF2D9801AE01FF900F9129
:105580001F91CF91DF91DDDC17CEFA01DC01AA0F6C
:10559000BB1F9B01AC01BF5728F4222733274427A8
:1055A00050781FC0B75188F4AB2F0024469537952B
:1055B0002795011CA395D2F3002069F0220F331F19
:1055C000441FB395DAF30DD0AACC61307105A0E881
:1055D0008A07B94630F49B01AC01662777278827F4
:1055E0009078309621F0208331834283538308954D
:1055F0009F3F31F0915020F4879577956795B79547
:10560000880F911D9695879597F90895DB018F93E3
:105610009F9387D0BF91AF91A29F800D911DA39FB3
:10562000900DB29F900D11240895991B79E004C04C
:10563000991F961708F0961B881F7A95C9F78095D1
:105640000895AA1BBB1B51E107C0AA1FBB1FA617C9
:10565000B70710F0A61BB70B881F991F5A95A9F71B
:1056600080959095BC01CD010895A1E21A2EAA1B48
:10567000BB1BFD010DC0AA1FBB1FEE1FFF1FA21702
:10568000B307E407F50720F0A21BB30BE40BF50BFF
:10569000661F771F881F991F1A9469F76095709588
:1056A000809590959B01AC01BD01CF010895052E19
:1056B00097FB16F400940FD057FD05D0D6DF07FCFA
:1056C00002D046F408C050954095309521953F4F43
:1056D0004F4F5F4F089590958095709561957F4FDE
:1056E0008F4F9F4F0895EE0FFF1F0024001C0BBE2D
:1056F0000790F691E02D0994A29FB001B39FC001DD
:10570000A39F700D811D1124911DB29F700D811DED
:105710001124911D0895F0DFB7FF0895821B930BAC
:105720000895EADFA59F900DB49F900DA49F800D72
:10573000911D11240895B7FFF4CFF3DF821B930B63
:1057400008950F931F93CF93DF93CDB7DEB72E97B6
:105750000FB6F894DEBF0FBECDBF0D891E8986E05F
:105760008C831A8309838FEF9FE79E838D83AE011D
:10577000475E5F4F6F89788DCE01019611D02F81E2
:105780003885F801E20FF31F10822E960FB6F894B9
:10579000DEBF0FBECDBFDF91CF911F910F91089556
:1057A0002F923F924F925F926F927F928F929F9231
:1057B000AF92BF92CF92DF92EF92FF920F931F931F
:1057C000CF93DF93CDB7DEB72C970FB6F894DEBF3B
:1057D0000FBECDBF7C016B018A01FC0117821682CE
:1057E000838181FFB0C1CE0101964C01F701938105
:1057F000F60193FD859193FF81916F01882309F450
:105800009EC1853239F493FD859193FF81916F019B
:10581000853221F4B70190E0C7D1E8CF512C312C6B
:1058200020E02032A0F48B3269F030F4803259F05D
:10583000833269F420612CC08D3239F0803339F421
:10584000216026C02260246023C0286021C027FD7B
:1058500027C030ED380F3A3078F426FF06C0FAE062
:105860005F9E300D1124532E13C08AE0389E300DF8
:105870001124332E20620CC08E3221F426FD5FC12C
:10588000206406C08C3611F4206802C0883641F4CA
:10589000F60193FD859193FF81916F018111C1CF35
:1058A000982F9F7D9554933028F40C5F1F4FFFE392
:1058B000F9830DC0833631F0833771F0833509F0F9
:1058C00057C021C0F801808189830E5F1F4F442497
:1058D0004394512C540114C03801F2E06F0E711C36
:1058E000F801A080B18026FF03C0652D70E002C0E2
:1058F0006FEF7FEFC5012C874CD12C0183012C85E4
:105900002F77222E16C03801F2E06F0E711CF801BD
:10591000A080B18026FF03C0652D70E002C06FEF4C
:105920007FEFC5012C872AD12C012C852068222EDF
:10593000830123FC19C0832D90E048165906A0F47A
:10594000B70180E290E030D13A94F5CFF50127FC21
:10595000859127FE81915F01B70190E025D131103B
:105960003A94F1E04F1A51084114510479F7DEC01E
:10597000843611F0893631F5F80127FF07C06081C0
:105980007181828193810C5F1F4F08C0608171819A
:10599000072E000C880B990B0E5F1F4F2F76722E6F
:1059A00097FF09C090958095709561957F4F8F4FB7
:1059B0009F4F2068722E2AE030E0A4012DD1A82E3E
:1059C000A81843C0853729F42F7EB22E2AE030E094
:1059D00025C0F22FF97FBF2E8F36C1F018F488351D
:1059E00079F0ADC0803719F0883721F0A8C02F2F8B
:1059F0002061B22EB4FE0DC08B2D8460B82E09C07C
:105A000024FF0AC09F2F9660B92E06C028E030E020
:105A100005C020E130E002C020E132E0F801B7FE2D
:105A200007C060817181828193810C5F1F4F06C026
:105A30006081718180E090E00E5F1F4FA401ECD087
:105A4000A82EA818FB2DFF777F2E76FE0BC0372DD2
:105A50003E7FA51450F474FE0AC072FC08C0372DB6
:105A60003E7E05C0BA2C372D03C0BA2C01C0B52C20
:105A700034FF0DC0FE01EA0DF11D8081803311F469
:105A8000397E09C032FF06C0B394B39404C0832F9B
:105A9000867809F0B39433FD12C030FF06C05A2C4B
:105AA000B31418F4530C5B18B32CB31460F4B7019F
:105AB00080E290E03C8778D0B3943C85F6CFB31475
:105AC00010F43B1801C0312C34FF11C0B70180E342
:105AD00090E03C8769D03C8532FF16C031FD03C0A1
