:1000000090C20000ADC20000ABC20000A9C2000057
:10001000A7C20000A5C20000A3C20000A1C2000048
:100020009FC200009DC200009BC2000099C2000058
:1000300097C2000095C2000093C2000091C2000068
:100040000C9410258DC200000C94960C89C20000FF
:100050000C94EE0C85C2000083C2000081C2000037
:100060007FC200007DC200007BC2000079C2000098
:1000700077C2000075C2000073C2000071C20000A8
:100080006FC200006DC200006BC2000068178817C5
:10009000A217D31706181B186F1845174517AD1868
:1000A000C918E5187B19111A45174517A71AC31A5D
:1000B000DF1A751B0B1C45174517A11CBD1CD91C4D
:1000C0006F1D051E07634236B79BD8A71A396856BD
:1000D00018AEBAAB558C1D3CB7CC5763BD6DEDFD6A
:1000E000753EF6177231BF000000803F0800000027
:1000F000BE922449123EABAAAA2ABECDCCCC4C3E1D
:1001000000000080BEABAAAAAA3E00000000BF000B
:100110000000803F0000000000084178D3BB438707
:10012000D1133D190E3CC3BD4282AD2B3E68EC821B
:1001300076BED98FE1A93E4C80EFFFBE01C4FF7FA0
:100140003F0000000000CAE400CAE800CAEF00D285
:10015000E5ECEFE5F0E0F2F3F0E020EDEEF7FC0087
:10016000D2E5ECEFE5F0E0F2F3F0E020E4E5EDFCC1
:1001700000C8E7ECE5ED2E20EDE0F1F2F0EEE5EA67
:100180002F6E20F0E5E3F3EBFFF2EEF0E000C8E7BE
:10019000ECE5ED2E20EDE0F1F2F0EEE5EA2F6E2039
:1001A000F2E5ECEFE5F0E0F2F3F0FB00CAE400CAA0
:1001B000E800CAEF00D2E5ECEFE5F0E0F2F3F0E0A2
:1001C00020EDEEF7FC00D2E5ECEFE5F0E0F2F3F025
:1001D000E020E4E5EDFC00C8E7ECE5ED2E20EDE0E5
:1001E000F1F2F0EEE5EA2F6E20F0E5E3F3EBFFF23B
:1001F000EEF0E000C8E7ECE5ED2E20EDE0F1F2F0E6
:10020000EEE5EA2F6E20F2E5ECEFE5F0E0F2F3F038
:10021000FB00CAE400CAE800CAEF00D2E5ECEFE553
:10022000F0E0F2F3F0E020EDEEF7FC00D2E5ECEFC9
:10023000E5F0E0F2F3F0E020E4E5EDFC00C8E7ECE7
:10024000E5ED2E20EDE0F1F2F0EEE5EA2F6E20F084
:10025000E5E3F3EBFFF2EEF0E000C8E7ECE5ED2EAE
:1002600020EDE0F1F2F0EEE5EA2F6E20F2E5ECEFA2
:10027000E5F0E0F2F3F0FB00CFE5F0E8EEE420E299
:100280002020F1E5EA00CFE5F0E8EEE420E220F1FD
:10029000E5EA00CF20C220D120D720CF20D120C234
:1002A00000CAEEEDE5F620F0E0E12E20E4EDFF00DF
:1002B000CDE0F7E0EBEE20F0E0E12E20E4EDFF00F2
:1002C000C4E5EDFC20EDE5E4E5EBE800C2F0E5EC8B
:1002D000FF00D1F2E0F2F3F120E4EDE5E92F6E202A
:1002E000EDE5E4E5EBE800D0E5E6E8ECFB20E4E54D
:1002F000EDFC2FEDEEF7FC00CDE0F1F2F0EEE9EAD7
:10030000E020F2E5EAF3F92E2F6E20E2F0E5ECE5CD
:10031000EDE800CFE5F0E8EEE420EEEFF0EEF1E0FE
:100320002F6E20E4E0F2F7E8EAEEE200CFE5F0E835
:10033000EEE420D8C8CC00C8E7ECE5ED2E20EDE0D7
:10034000F1F2F0EEE5EA2F6E20E2F0E5ECE5EDE803
:1003500000CAEEEDF2F3F020B93300CAEEEDF2F38D
:10036000F020B93200CAEEEDF2F3F020B93100CF3F
:10037000E0F0EEEBFC3A00CDE0F1F2F0EEE9EAE875
:100380000053540054313D0054333D0054333D007C
:1003900054323D0054323D0054313D004552524FDD
:1003A000520020202020002020202000C2FBEAEB69
:1003B00000C2EAEB00C2FBEAEB00C2EAEB0020203D
:1003C0002020002020202000C2FBEAEB00C2EAEB44
:1003D00000EFE0F0EEEBFC00CDE5EFF0E0E2E8EB63
:1003E000FCEDFBE900C2FBEAEB00C2EAEB00C2FB5A
:1003F000EAEB00C2EAEB005E5430303032005E546B
:1004000030303033005E5430303034005E503030A5
:100410003032005E5030303033005E503030303497
:1004200000000102030405060708090A0B0C0D0E63
:100430000F101112131415161718191A1B1C1D1E54
:100440001F202122232425262728292A2B2C2D2E44
:100450002F303132333435363738393A3B3C3D3E34
:100460003F404142434445464748494A4B4C4D4E24
:100470004F505152535455565758595A5B5C5D5E14
:100480005F606162636465666768696A6B6C6D6E04
:100490006F707172737475767778797A7BD17DE934
:1004A0007F808127832285868788898A8B8C8D8EA1
:1004B0008F906061CACBDF5F5F98999A9B9C9D9EED
:1004C0009FA08DA2A3A4A5D1FDA2A9AACAACADAE3E
:1004D000AFEFB1496972B5B6B7B5CCBACBBCBDBE4A
:1004E000BF41A042A1E045A3A4A5A64BA74D484FFC
:1004F000A8504354A9AA58E1ABACE2ADAEC4AFB02A
:10050000B161B2B3B4E365B6B7B8B9BABBBCBD6F3D
:10051000BE7063BF79E478E5C0C1E6C2C3C4C5C696
:10052000C70011241FBECFEFD0E1DEBFCDBF11E069
:10053000A0E0B1E0E4E3FEE500E00BBF02C00790FD
:100540000D92AC37B107D9F725E0ACE7B1E001C0B7
:100550001D92A130B207E1F70E9402260C94182FD9
:100560004FCD1E9A85E08A95F1F71E980895CF9396
:10057000C0E2CBBBF6DFCBBBF4DF80EA8BBBCF9115
:10058000F0CFCF93DF93D82FC62F1BBAEADFDD233E
:1005900011F080E601C080E4C11180618BBBDF9166
:1005A000CF91DFCFCF93C82F807F80688BBBD9DFFF
:1005B000C295C07FCBBBCF91D4CF1BBAD2DF80E135
:1005C0008BBBCFDF86E69EE00197F1F70000089530
:1005D0001BBAC7DF80E28BBBC4CF82B1886682B909
:1005E00083B1886483B98FEF9FE80197F1F700C06A
:1005F000000083B1877983B98AB3806F8ABB8FEF9C
:100600009FE80197F1F700C00000B1DF1BBAA9DF36
:1006100080ED8BBBA6DFD1DFDBDF60E081E0B1CF17
:10062000CF931B9AE82FF0E0EF5DFB4FC4918C2F26
:10063000807F8BBB96DFC295C07FCBBB92DF1B98C0
:10064000CF9108950F931F93CF93DF93EC018C010B
:10065000005C1F4F8991882321F0E2DFC017D1078A
:10066000C9F7DF91CF911F910F9108950F931F93B9
:10067000CF93DF93EC018C01005C1F4FFE012196AC
:100680008591882321F0CCDFC017D107B9F7DF911E
:10069000CF911F910F910895909164009061909374
:1006A0006400813041F018F0823049F00895809163
:1006B00065008F7E08C080916500806104C09091C4
:1006C000650080E189278093650008959091640218
:1006D00091111BC0813069F038F0823081F0833095
:1006E00081F589B380952BC089B383FB882780F976
:1006F00009C099B392FB222720F98227089589B374
:100700008695817091E08927089590917D02292F27
:1007100030E0082E02C0359527950A94E2F7309113
:100720007D0241E050E0BA0102C0660F771F8A9552
:10073000E2F7CB018095832380937D02822F817025
:1007400008958FEF0895EF920F931F93A0918D015D
:10075000B0918E01A932B105F0F5CD0153E0880FBB
:10076000991F5A95E1F7FC01E255FC4F60833383F2
:100770002283158304834183442339F0E42FF0E07E
:10078000EE0FFF1FE45BFC4FA183EE2029F0FC017C
:10079000E255FC4FE6820CC0623031F421E0FC01EE
:1007A000E255FC4F268304C0FC01E255FC4F168243
:1007B00020912C0230912D02FC01E255FC4F278341
:1007C0002F5F3F4F30932D0220932C021196B09350
:1007D0008E01A0938D011F910F91EF9008951092BB
:1007E0002D0210922C0280918B0190918C0184310A
:1007F000910558F4FC01EE0FFF1FE45BFC4F608392
:10080000019690938C0180938B01089510922F0292
:1008100010922E0261110CC020912E0230912F02F5
:10082000A901480F511D50932F0240932E020895A5
:10083000ECE4F3E020E030E040E050E070E0461708
:1008400057073CF49081290F311D4F5F5F4F32965F
:10085000F6CF30932F0220932E02DECFCF93DF937B
:10086000E0912E02F0912F0293E0EE0FFF1F9A9578
:10087000E1F7E255FC4F0480F581E02D693008F086
:1008800068E0823021F480818093300236C0982F56
:100890009B7F913029F4C5E6D2E0DF0170E003C010
:1008A000883051F4F8CFCD018E1B9F0B8617970728
:1008B00024F58D918993F7CF8730F9F470E0DF014B
:1008C00020E030E0CD018E1B9F0B4C914F3FA9F0F3
:1008D000A60FB71F41110EC020932902E80FF91F80
:1008E000A5E6B2E06B597D4FA617B70731F08191AD
:1008F0008D93FACF2F5F3F4FE5CFDF91CF910895D2
:10090000AF92BF92CF92DF92EF92FF920F931F931D
:10091000CF93DF9300D0CDB7DEB7E82EE0912E0263
:10092000F0912F0273E0EE0FFF1F7A95E1F7E25589
:10093000FC4FF08084E0F812A0C080912A0281115F
:100940001EC030DEE0912E02F0912F0263E0EE0F28
:10095000FF1F6A95E1F7E255FC4F02811381780190
:1009600090E1E90EF11CF8010F5F1F4F859188237C
:1009700009F412C155DE0E151F05A9F70DC120910E
:100980002B0230E0F901EE0FFF1FE15EFC4F00810A
:10099000118153E0000F111F5A95E1F7F801E2555C
:1009A000FC4FF6809081973009F4FA9490E0821B16
:1009B000930B9F938F9386E791E09F938F93CE0144
:1009C00001966C019F938F930E94062C8EE4EADDC2
:1009D000C60138DE80E0E6DDF801E255FC4FC2805A
:1009E000D380560190E1A90EB11C0F900F900F908B
:1009F0000F900F900F90F60131966F01319785910E
:100A000081110BC080E4CEDDF801E255FC4F8081FE
:100A1000823041F000E010E02AC002DEAC14BD04D8
:100A200051F7F0CFE0912B0288E0E89FF00111240C
:100A3000EC57FD4F8081882319F083EF93E002C0CB
:100A40008EEE93E013DEA8C090E0081719070CF0B3
:100A5000A3C080912B02F80198E0899FE00DF11D61
:100A60001124EC57FD4F8081DBDD0F5F1F4F8F2D71
:100A7000E8E0EF1548F788E0E7CF0681C280D38031
:100A800080E090DD20E2A22EB12CF601849181114C
:100A900003C0F11018C065C08F3251F4F6013196D1
:100AA00084918E3629F4F2E0CF0ED11C80E47ADDF9
:100AB000F60131966F0131978591B2DDF1E0AF1A01
:100AC000B10819F7E6CF093008F008E0809131024B
:100AD000887119F4602F8F2DC1DE82E0F8120FC0EB
:100AE00080E460DD80913002813019F48AEE93E079
:100AF00004C0811136C085EE93E0B8DD32C08F2D81
:100B00008B7F813019F098E0F91212C080E44ADD41
:100B100095E6C92E92E0D92E10E0C6018556924086
:100B200080179107F4F4F60181916F0179DDF5CF1B
:100B3000F7E0FF1216C080E435DD85E6C82E82E0BE
:100B4000D82E10E001501109C60185569240801739
:100B500091073CF4F601818163DDFFEFCF1ADF0AD4
:100B6000F3CF8091310283FF17C085E0F81669F05A
:100B700098E0F91671F0E1E0FE120EC0FFE3FE15F9
:100B800058F080E48E0D0EDD07C08FE38E1520F047
:100B9000F8CF9FE39E15A8F70F900F90DF91CF91AC
:100BA0001F910F91FF90EF90DF90CF90BF90AF908B
:100BB0000895AF92BF92CF92DF92EF92FF920F9380
:100BC0001F93CF93DF9320912E0230912F02F901D2
:100BD00083E0EE0FFF1F8A95E1F7DF01A255BC4FBE
:100BE0007C9116964C91493008F048E0E255FC4F54
:100BF0005481A5806091310265FD33C0A0912A0225
:100C00008A2F90E0FC01EE0FFF1FE15EFC4F318365
:100C10002083E52FFA2D03E0880F991F0A95E1F74D
:100C200020E030E050E024173507B4F4773051F07D
:100C3000B191E901C80FD91FCC57DD4FB8832F5FA1
:100C40003F4FF1CF8C579D4FFC01E20FF31FE9019D
:100C5000CB59DD4F8981808381E08A0F80932A02FE
:100C60005DC00FE113E0A4E8B2E0E8018A819B8156
:100C7000F801819391938F01D3E0880F991FDA9542
:100C8000E1F7FC01E255FC4FE681F0E080E090E006
:100C9000ED0128967E018E179F0764F46701C80E48
:100CA000D91EE601B8806D01C80ED91EE601B882D2
:100CB0000196F1CFD701D2E0AC3FBD07B1F6A091CC
:100CC0002A028A2F90E0FC01EE0FFF1FE35EFC4F2B
:100CD00031832083E52FFA2DC3E0880F991FCA9531
:100CE000E1F720E030E050E024173507B4F4773026
:100CF00051F0B191E901C80FD91FCC57DD4FB8832E
:100D00002F5F3F4FF1CF8C579D4FFC01E20FF31F38
:100D1000E901CB59DD4F89818083A150A0932B023B
:100D200080912A02803118F0606260933102DF9175
:100D3000CF911F910F91FF90EF90DF90CF90BF90D8
:100D4000AF9008950F931F93CF93DF93E0912E02FE
:100D5000F0912F0293E0EE0FFF1F9A95E1F7DF016C
:100D6000A255BC4F16962C91293008F028E0882314
:100D700031F0C5E6D2E030E0A22FB0E00AC06F5FEC
:100D8000621708F44DC160E04BC199919E3209F49D
:100D900031E08E01055612400A171B07B4F3E255E5
:100DA000FC4F9081813021F0823009F49CC038C121
:100DB000953009F445C028F4913079F0923041F033
:100DC0002FC1973009F456C0983009F47FC028C16C
:100DD0009091300291119FC09BC0462F50E0FA01C4
:100DE000EB59FD4F80818B3209F4A0C08D3209F49C
:100DF000A1C08F5F8083662331F011974A175B078C
:100E000011F0313019F48A33B8F06BC0613089F4D5
:100E1000909165029B3211F09D3219F48A3320F0D3
:100E200060C08A3308F0AFC0803308F45AC061E074
:100E3000F7C08A3308F0A7C0803308F0F1C051C072
:100E4000E62FF0E0EB59FD4F80818F5F803E09F483
:100E500048C08A3309F497C08F3209F4E0C0803368
:100E600009F49FC08F3509F498C0813209F0D7C0CA
:100E700080ECD5C08091290231E0380F30932902EF
:100E800058E0459FF0011124E255FC4F0480F581A4
:100E9000E02D3203E0011124CE0FDF1F98819F3F28
:100EA00011F480932902309129023203C0011124E8
:100EB000E80FF91FC5E6D2E0CE01855692408A17A9
:100EC0009B070CF0ADC081918993F6CFE62FF0E03F
:100ED000EB59FD4F80818F5F8A3318F4803308F01F
:100EE0009EC080E39CC0953009F44FC028F4913037
:100EF000A9F0923041F094C0973009F460C0983066
:100F000009F484C08DC080913002811104C081E059
:100F10008093300285C01092300282C0462F50E08C
:100F2000FA01EB59FD4F80818B3211F48DE277C0CD
:100F30008D3211F48BE273C081508083662331F0CF
:100F400011974A175B0711F0313021F4803308F014
:100F500067C064C0613089F4909165029B3211F0E2
:100F60009D3221F4803308F062CF58C08E3208F4ED
:100F700055C0803308F05BCF06C08E3208F44EC0F7
:100F8000803308F04DC08EE24AC0E62FF0E0EB5906
:100F9000FD4F808181508F3B11F480E240C08F3142
:100FA00011F48EE53CC08D3511F48FE238C08E32DD
:100FB000B1F18D3299F18F3291F58FED30C0809182
:100FC0002902882319F08150809329023091290247
:100FD0003203C001112425E632E0C8E04C9FF00145
:100FE0001124EE54FC4F85569240A90145565240BB
:100FF0004A175B07ACF4C081D181C20FD31FC80F61
:10100000D91F4881E90149939E01EFCFE62FF0E017
:10101000EB59FD4F80818150803308F489E3808350
:10102000862FDF91CF911F910F910895CF93DF937A
:10103000DC018091310284FF43C0E0912E02F091E7
:101040002F0293E0EE0FFF1F9A95E1F7E255FC4F58
:1010500090812681293008F028E08F7E809331022C
:10106000953099F040F4913081F0923021F58091E3
:1010700030028C9320C0973019F09830E1F405C00D
:10108000C5E6D2E0FD0130E00DC0C5E6D2E0FD01CD
:1010900030E0AF014A1B5B0B4217530764F48991A0
:1010A0008193F7CFAF014A1B5B0B421753071CF428
:1010B00089918193F7CFFB01908380912E0201C02B
:1010C00080E0DF91CF910895AF92BF92CF92DF92EF
:1010D000EF92FF920F931F93CF93DF937B0123E057
:1010E000880F991F2A95E1F7DC01A255BC4FE091CA
:1010F0002E02F0912F0233E0EE0FFF1F3A95E1F739
:10110000E255FC4F048115811696CC91C93008F048
:10111000C8E09C0122553C4F6901F901A480B580CB
:1011200048DDF6018081853071F048F4813059F056
:101130008230B1F5F7018081F501808331C08730BD
:1011400071F0883069F5F701D501D0E0CD018A1939
:101150009B098C179D0724F581918D93F7CF3091D2
:1011600065026C2F70E0F80180E040E020E09081A3
:101170009F3F51F0911101C0482F931301C0282FB8
:10118000E60FF71F8F5FF3CFF801C49FE00DF11D4D
:1011900011243083F801C29FE00DF11D112410824B
:1011A000DF91CF911F910F91FF90EF90DF90CF9043
:1011B000BF90AF9008956F927F928F929F92AF925F
:1011C000BF92CF92DF92EF92FF920F931F93CF9334
:1011D000DF933C01EB018091310286608093310204
:1011E00004EC19E0DD24D394CC24CA9401501109F5
:1011F0000130110561F480E38093720180937301E3
:1012000080937401809375018091310233C28FEF16
:101210009FE80197F1F700C000008091310286FD40
:1012200004C08F7E8093310207C08F7A8093310291
:1012300010928A01109289016091890180918A013E
:10124000E5DA80E043DA813009F09FC1E12CF12C2E
:1012500010E080E03BDA813009F018C1E3E3FBE203
:101260003197F1F78091310283FF40C0809189016D
:10127000811104C080918A01813081F080917201D6
:101280008533F9F4809173018733D9F48091740127
:101290008333B9F480917501883399F4FCE2EF1639
:1012A000F1E0FF06B0F181E57DD9C09200018091A7
:1012B0003102877F80618093310281E0EDD911E0B6
:1012C00046C07BD980E06ED988ED93E0CFD980E429
:1012D00069D981ED93E0CAD98FEF9FEFE9E581509D
:1012E0009040E040E1F700C0000031C0E0912E02E4
:1012F000F0912F02A3E0EE0FFF1FAA95E1F7E25550
:10130000FC4F9081933091F4FCE2EF16F1E0FF0680
:1013100020F42FEFE21AF20A1AC08B7F80618093CB
:10132000310210928A01109289010FC0963079F42F
:101330009CE2E91691E0F90620F4EFEFEE1AFE0ABE
:1013400006C08B7F80618093310281E0A5D98091B6
:10135000310283FF78C0E0912E02F0912F0273E0FA
:10136000EE0FFF1F7A95E1F7E255FC4F8081823046
:1013700051F580918801863458F486E69EE0019705
:10138000F1F70000809188018F5F8093880119C078
:101390001092880180E406D980918701882361F04A
:1013A0001092870180913002882319F08DEC93E030
:1013B00007C088EC93E004C0D092870183EC93E0EF
:1013C00055D981E53EC0873009F043CF809188012F
:1013D000863458F4E6E6FEE03197F1F7000080919C
:1013E00088018F5F809388012BC01092880180E470
:1013F000D9D8809187018823F1F01092870166E6A1
:10140000862E62E0962EE0912E02F0912F0253E09C
:10141000EE0FFF1F5A95E1F7E255FC4F868190E0F1
:101420009401255632402817390754F4F40181916C
:101430004F01F6D8E8CFD09287018EEB93E016D912
:1014400085E4B0D806CF84FF04CFE0912E02F0915E
:101450002F0243E0EE0FFF1F4A95E1F7E255FC4FE4
:101460008081823009F0F5CE113009F0F2CE80E4AF
:1014700099D880913002882319F08AEB93E002C05A
:1014800085EB93E0F3D881E58DD8E2CE80913102EF
:1014900040912E0250912F02282F207184FF16C0F8
:1014A000FA0133E0EE0FFF1F3A95E1F7E255FC4FEA
:1014B0009081933011F0963049F486E0888380E083
:1014C000EBD880912E0290912F0221C2FA0193E075
:1014D000EE0FFF1F9A95E1F7E255FC4F918199239A
:1014E00029F010928A019093890146C0222321F0AD
:1014F000877F8093310240C090812FEF290F2230E7
:1015000030F0953021F029EF290F2230A8F58860BE
:1015100080933102913031F46091000180E012DC5F
:101520008093000140912E0250912F02FA0103E0B6
:10153000EE0FFF1F0A95E1F7E255FC4F80818530E1
:1015400031F46091000180E0FDDB80930001409167
:101550002E0250912F02FA0113E0EE0FFF1F1A9591
:10156000E1F7E255FC4F8081883031F46091000151
:1015700080E0E8DB809300018091310282608093FB
:10158000310280E089D804EC19E083E09FD88130F3
:1015900009F086C083E09AD8813049F484E190E074
:1015A000E3E3F7E03197F1F70197D1F7F3CF20911B
:1015B000890180913102222381F183FD64C030E0F2
:1015C000F901EE0FFF1FE45BFC4F418150E05093A7
:1015D0002F0240932E02FA01B3E0EE0FFF1FBA95DF
:1015E000E1F7E255FC4F978190938A01ACE4B3E0B8
:1015F00060E070E0E0E0F0E06217730708F043C0DD
:101600009C91E90FF11D12964E175F0718F4609335
:10161000890139C06F5F7F4FEFCF83FF22C0E09118
:101620002E02F0912F0273E0EE0FFF1F7A95E1F783
:10163000E255FC4F9081913049F0923021F50480C1
:10164000F581E02D9081909330021DC0A481B58179
:10165000E5E6F2E022E0ED36F207A9F09D919193E4
:10166000F9CF90E39093720190937301909374017A
:10167000909375018B7F8064809331020E94DD021C
:101680008FEF9FEF44C1C092000190912A029150C8
:1016900090932B02877F82608093310204EC19E0E3
:1016A00082E014D8813009F04EC082E00FD881303A
:1016B00049F484E190E0E3E3F7E03197F1F7019733
:1016C000D1F7F3CF8091310283FF07C040912E0202
:1016D0006091000181E036DB2FC0E0912E02F09195
:1016E0002F0263E0EE0FFF1F6A95E1F7E255FC4F12
:1016F0008081843069F480912B02815080932B0289
:101700008F3FD1F480912A02815080932B0214C024
:1017100080918A018F5F80938A01E0918901F0E0D6
:10172000EE0FFF1FE45BFC4F208130E090E082175A
:10173000930714F010928A018091310282608093A5
:10174000310204EC19E081E00E946603813009F067
:101750004CC081E00E946603813049F484E190E04E
:10176000E3E3F7E03197F1F70197D1F7F2CF8091FA
:10177000310283FF07C040912E026091000182E098
:10178000E1DA2CC0E0912E02F0912F0243E0EE0F3F
:10179000FF1F4A95E1F7E255FC4F8081843079F4D0
:1017A00080912B028F5F80932B0220912A0230E0E0
:1017B00090E08217930794F010922B020FC0809153
:1017C0008A01811108C0E0918901F0E0EE0FFF1F4E
:1017D000E45BFC4F8081815080938A0180913102CB
:1017E00082608093310204EC19E08091310283FF22
:1017F00070C0E0912E02F0912F0223E0EE0FFF1F48
:101800002A95E1F7E255FC4F8081823079F580918D
:101810008801843660F48CEC9CE10197F1F700C0FC
:101820000000809188018F5F809388011BC0109217
:10183000880180E40E94D20280918701882361F0B0
:101840001092870180913002882319F081EB93E098
:1018500007C08CEA93E004C0D092870187EA93E046
:101860000E94360385E40E94D20233C0873089F596
:1018700080918801843678F21092880180E40E9479
:10188000D202809187018823F9F01092870196E6B1
:10189000A92E92E0B92EE0912E02F0912F0283E062
:1018A000EE0FFF1F8A95E1F7E255FC4F868190E02D
:1018B00095012556324028173907A4F6F501819184
:1018C0005F010E941003E7CFD092870182EA93E084
:1018D000C7CF8091310281FF10C00E94DD0280914C
:1018E00031028D7F809331026091890180918A015C
:1018F0000E9406048091000103D8BE01C30196DB5B
:10190000282F30E02115310509F470CCC901DF9191
:10191000CF911F910F91FF90EF90DF90CF90BF90EC
:10192000AF909F908F907F906F9008951F920F922D
:101930000FB60F9211240BB60F922F933F938F93F4
:101940009F93EF93FF938CB1E091E301F091E40159
:10195000E951FE4F8083813450F48E3360F481323C
:1019600051F078F09DED980F933058F404C08E3507
:1019700011F08E3731F41092E4011092E30180935C
:10198000E7012091E3013091E4018D3061F481E0C1
:10199000820F8093E1011092E4011092E30181E053
:1019A0008093DF010EC0C9010196803291052CF4AD
:1019B0009093E4018093E30104C01092E40110923B
:1019C000E301FF91EF919F918F913F912F910F90A4
:1019D0000BBE0F900FBE0F901F9018951F920F9285
:1019E0000FB60F9211240BB60F922F933F938F9344
:1019F0009F93EF93FF9380919B0190919C01209185
:101A0000990130E08217930769F410929C011092BB
:101A10009B01809165008E7F8093650081E08093BB
:101A200097010EC0FC01E156FE4F80818CB9809178
:101A30009B0190919C01019690939C0180939B0146
:101A4000FF91EF919F918F913F912F910F900BBE3E
:101A50000F900FBE0F901F901895CF92DF92EF92CC
:101A6000FF92CF93DF93EC0102970CF07FC0DB0174
:101A7000CA010197A109B10980349244AF40B10570
:101A800008F074C0CB01BA010E94EF289B01AC01A1
:101A900060E070E081E69BE40E94592820E030E09D
:101AA00040E85DE30E947F2920E030E040E05FE312
:101AB0000E94F4276B017C0120E030E040E05FE30E
:101AC0000E947B2987FD52C0C701B601209711F5FE
:101AD0000E94C128C72ED82EE92EFF24C092900064
:101AE00069B988ED8AB986E0809395008091640099
:101AF000816080936400809165008E7F8093650093
:101B00001092E4011092E3011092DF0181E08093D2
:101B1000970129C00E94C128C72ED82EE92EFF2484
:101B2000C09298006093990088ED80939A0086E0B7
:101B300080939D0080916400826080936400809116
:101B400065008D7F80936500FE01EE0FFF1FED5154
:101B5000FE4F11821082FE01E152FE4F1082C956E3
:101B6000DE4F81E08883789480E001C08FEFDF91C1
:101B7000CF91FF90EF90DF90CF900895811117C023
:101B8000109297018091650081608093650088E1E3
:101B90008A95F1F700C06093990181E090E09093FD
:101BA0009C0180939B0180919F018CB908951092B4
:101BB00098018091650082608093650088E18A9534
:101BC000F1F700C060939A0181E090E090939E014C
:101BD00080939D018091BF0180939C000895AC018A
:101BE000823091050CF057C0FC01E956FE4F808110
:101BF000811105C088E18A95F1F700C0F8CFFB019B
:101C00009A0185E0220F331F8A95E1F790E060E0AA
:101C100070E08191DB01A20FB31FA156BE4F8C93E0
:101C2000882341F08D3031F0980F6F5F7F4F603225
:101C3000710579F7FA01E95DFD4F80818130F1F49A
:101C4000892F82958F70F901E156FE4FE60FF71F3D
:101C50008A3010F4805D01C0895C8083FB0131967D
:101C60009F70D901A156BE4FEA0FFB1F9A3010F4A6
:101C7000905D01C0995C90836E5F7F4FCA012156D1
:101C80003E4FF901E60FF71F9DE090836F5F7F4F96
:101C900075DF80E008958FEF0895EF92FF920F9324
:101CA0001F93CF93DF939C01823091050CF06FC09E
:101CB000FC01E152FE4F8081882309F46BC0108241
:101CC000F901E95DFD4F8081E901CF51DE4FD90176
:101CD00095E0AA0FBB1F9A95E1F7813009F042C049
:101CE000288130E0790183E0E81AF10890E040E0D3
:101CF00050E04E155F055CF48A010A0F1B1F095165
:101D00001E4FF8018081980F4F5F5F4FF2CF892FF0
:101D100082958F70482F50E08A3018F4405D5F4FF5
:101D200002C0495C5F4F8D0109511E4FF701E00F62
:101D3000F11FE081F0E04E175F0759F59F70492FC2
:101D400050E09A3018F4405D5F4F02C0495C5F4F2D
:101D50002A0F3B1FF901EB51FE4F808190E048179D
:101D60005907B9F48881FB01819320E030E090E0CD
:101D70002817390754F4E901CA0FDB1FC951DE4F98
:101D8000488141932F5F3F4FF3CF81E003C08FEF36
:101D900001C080E8DF91CF911F910F91FF90EF90EC
:101DA00008956AE00E947A2B20E1829F900D112411
:101DB000892F0895982F92959F708F702AE0929F97
:101DC000800D1124089594EE909374001092960162
:101DD0009091740097FD11C0909196019F5F909330
:101DE00096019B3020F091E090938F0106C0E0E7D0
:101DF000F1E03197F1F700C0EBCF8093730084EEF0
:101E000080937400109296018091740087FD11C038
:101E1000809196018F5F809396018B3020F081E056
:101E200080938F01089580E791E00197F1F700C05A
:101E3000EBCF0895FC0124E831E09E2F981B961704
:101E4000D8F49191909373002093740010929601AE
:101E50009091740097FDF1CF909196019F5F9093C0
:101E600096019B3018F030938F01E7CFA0E7B1E0E7
:101E70001197F1F700C0ECCF84E980937400B1E3CF
:101E8000BA95F1F700000895CF93DF93FC0120E0AD
:101E900030E0462F50E04150510984EC74E8A1E055
:101EA000B4E9261748F54217530719F470937400E4
:101EB00002C080937400109296019091740097FD77
:101EC00010C0909196019F5F909396019B3018F0FF
:101ED000A0938F0106C0C0E7D1E02197F1F700C0C1
:101EE000ECCF9091730091934217530711F4B09384
:101EF00074002F5F3F4FD5CFD1E3DA95F1F70000A3
:101F0000DF91CF910895109271008DE4809370005D
:101F100081E08093720010928F0180ED54DF87E0A2
:101F20008093900181E98093910162E080E991E0E2
:101F300081DF81E090918F01911101C080E00895CF
:101F4000EF92FF920F931F93CF93DF93EC018B01DE
:101F50007A0110928F0180ED36DF1092900161E0DE
:101F600080E991E067DF81ED2EDF63E080E991E0B9
:101F70008BDF809190011EDFF701808380919101BA
:101F800019DFF80180838091920114DF888381E05A
:101F900090918F01911101C080E0DF91CF911F914D
:101FA0000F91FF90EF9008951F93CF93DF93C82F69
:101FB000D62F142F10928F0180ED05DF1092900123
:101FC000812FEFDE809391018D2FEBDE80939201C4
:101FD0008C2FE7DE8093930164E080E991E02ADFB3
:101FE00081E090918F01911101C080E0DF91CF914C
:101FF0001F910895CF92DF92EF92FF920F931F935C
:10200000CF93DF936C017B018A01E90110928F016C
:1020100080EDD9DE83E08093900161E080E991E07A
:1020200009DF81EDD0DE64E080E991E02DDF809171
:102030009001C0DE8150F601808380919101BADE6B
:10204000F701808380919201B5DEF8018083809151
:102050009301B0DE888381E090918F01911101C0DE
:1020600080E0DF91CF911F910F91FF90EF90DF9073
:10207000CF9008950F931F93CF93DF93082F162FC0
:10208000D42FC22F10928F0180ED9DDE83E08093CC
:102090009001802F86DE8F5F80939101812F81DEFA
:1020A000809392018D2F7DDE809393018C2F79DEBA
:1020B0008093940165E080E991E0BCDE81E090913D
:1020C0008F01911101C080E0DF91CF911F910F919D
:1020D00008958F929F92AF92BF92CF92DF92EF922C
:1020E000FF920F931F93CF93DF93809145032AE0D4
:1020F000622F0E947A2B805D80937302905D909393
:1021000074028AE380937502809174030E947A2B93
:10211000805D80937602905D9093770281E080935A
:10212000350182E08093380183E080933B0184E0B5
:1021300080933E0185E08093410186E080934401D5
:1021400087E0809347018091A40390E0FC01EE0FAB
:10215000FF1F8E0F9F1FFC01EB5CFE4F10828091D2
:10216000A5039091A60368EE73E00E94862B605D44
:1021700060932B0164E670E00E94862B605D6093A3
:102180002C016AE070E00E94862B605D60932D0157
:10219000805D80932E0181E490E00E94EE2EC3E0EA
:1021A000D0E000E311E0BC0180E090E00E94ED2867
:1021B0006B017C01BE010D2E000C880B990B0E9457
:1021C000EF289B01AC0160E070E080E291E40E94A6
:1021D000E2294B015C019B01AC01C701B6010E94E1
:1021E000592820E030E040E452E40E94F5270E94A4
:1021F000C128F80161938F0170E060537109072EC7
:10220000000C880B990B0E94EF28A50194010E94F5
:102210007F299B01AC01C701B6010E94F4270E94EF
:10222000C128CB01219708F0BECFCAE3C093770342
:1022300084E390E00E94EE2EBC0180E090E00E94DA
:10224000ED286B017C0120E030E040E251E40E9487
:10225000592820E030E040E452E40E94F5270E9433
:10226000C1286093750370E060537109072E000C5C
:10227000880B990B0E94EF2820E030E040E251E407
:102280000E947F299B01AC01C701B6010E94F4277F
:102290000E94C12880E090E00E94ED2820E030E01C
:1022A00040E452E40E94F5270E94C128609376031F
:1022B00086E390E00E94EE2EBC0180E090E00E9458
:1022C000ED286B017C0120E030E040E251E40E9407
:1022D000592820E030E040E452E40E94F5270E94B3
:1022E000C1286093780370E060537109072E000CD9
:1022F000880B990B0E94EF2820E030E040E251E487
:102300000E947F299B01AC01C701B6010E94F427FE
:102310000E94C12880E090E00E94ED2820E030E09B
:1023200040E452E40E94F5270E94C128609379039B
:10233000C093F80480E390E00E94EE2EBC0180E0A0
:1023400090E00E94ED286B017C0120E030E040E24B
:1023500051E40E94592820E030E040E452E40E9419
:10236000F5270E94C1286093F60470E0605371095C
:10237000072E000C880B990B0E94EF2820E030E01C
:1023800040E251E40E947F299B01AC01C701B601E4
:102390000E94F4270E94C12880E090E00E94ED286E
:1023A00020E030E040E452E40E94F5270E94C1287A
:1023B0006093F70482E390E00E94EE2EBC0180E07F
:1023C00090E00E94ED286B017C0120E030E040E2CB
:1023D00051E40E94592820E030E040E452E40E9499
:1023E000F5270E94C1286093F90470E060537109D9
:1023F000072E000C880B990B0E94EF2820E030E09C
:1024000040E251E40E947F299B01AC01C701B60163
:102410000E94F4270E94C12880E090E00E94ED28ED
:1024200020E030E040E452E40E94F5270E94C128F9
:102430006093FA048AE290E00E94EE2EBC0180E0F4
:1024400090E00E94ED286B017C0120E030E040E24A
:1024500051E40E94592820E030E040E452E40E9418
:10246000F5270E94C12860933F0370E06053710913
:10247000072E000C880B990B0E94EF2820E030E01B
:1024800040E251E40E947F299B01AC01C701B601E3
:102490000E94F4270E94C12880E090E00E94ED286D
:1024A00020E030E040E452E40E94F5270E94C12879
:1024B000609340038CE290E00E94EE2EBC0180E02D
:1024C00090E00E94ED286B017C0120E030E040E2CA
:1024D00051E40E94592820E030E040E452E40E9498
:1024E000F5270E94C1286093410370E06053710991
:1024F000072E000C880B990B0E94EF2820E030E09B
:1025000040E251E40E947F299B01AC01C701B60162
:102510000E94F4270E94C12880E090E00E94ED28EC
:1025200020E030E040E452E40E94F5270E94C128F8
:10253000609342038EE290E00E94EE2EBC0180E0A8
:1025400090E00E94ED286B017C0120E030E040E249
:1025500051E40E94592820E030E040E452E40E9417
:10256000F5270E94C1286093430370E0605371090E
:10257000072E000C880B990B0E94EF2820E030E01A
:1025800040E251E40E947F299B01AC01C701B601E2
:102590000E94F4270E94C12880E090E00E94ED286C
:1025A00020E030E040E452E40E94F5270E94C12878
:1025B0006093440384E290E00E94EE2EBC0180E030
:1025C00090E00E94ED286B017C0120E030E040E2C9
:1025D00051E40E94592820E030E040E452E40E9497
:1025E000F5270E94C1286093FB0470E060537109D5
:1025F000072E000C880B990B0E94EF2820E030E09A
:1026000040E251E40E947F299B01AC01C701B60161
:102610000E94F4270E94C12880E090E00E94ED28EB
:1026200020E030E040E452E40E94F5270E94C128F7
:102630006093FC0486E290E00E94EE2EBC0180E0F4
:1026400090E00E94ED286B017C0120E030E040E248
:1026500051E40E94592820E030E040E452E40E9416
:10266000F5270E94C1286093FD0470E06053710952
:10267000072E000C880B990B0E94EF2820E030E019
:1026800040E251E40E947F299B01AC01C701B601E1
:102690000E94F4270E94C12880E090E00E94ED286B
:1026A00020E030E040E452E40E94F5270E94C12877
:1026B0006093FE0488E290E00E94EE2EBC0180E070
:1026C00090E00E94ED286B017C0120E030E040E2C8
:1026D00051E40E94592820E030E040E452E40E9496
:1026E000F5270E94C1286093FF0470E060537109D0
:1026F000072E000C880B990B0E94EF2820E030E099
:1027000040E251E40E947F299B01AC01C701B60160
:102710000E94F4270E94C12880E090E00E94ED28EA
:1027200020E030E040E452E40E94F5270E94C128F6
:102730006093000588E190E00E94E92EC5E0D0E0BA
:1027400006E111E00E94ED286B017C01BE010D2E17
:10275000000C880B990B0E94EF289B01AC0160E0F4
:1027600070E080E291E40E94E2294B015C019B0150
:10277000AC01C701B6010E94592820E030E040E4D6
:1027800052E40E94F5270E94C128F80161938F014D
:1027900070E060537109072E000C880B990B0E94A2
:1027A000EF28A50194010E947F299B01AC01C7017C
:1027B000B6010E94F4270E94C128219718F6809143
:1027C0001601809315018091170180931601809165
:1027D0001801809317018EE2809318018CE190E03C
:1027E0000E94E92EC5E0D0E00DE111E00E94ED2845
:1027F0006B017C01BE010D2E000C880B990B0E9411
:10280000EF289B01AC0160E070E080E291E40E945F
:10281000E2294B015C019B01AC01C701B6010E949A
:10282000592820E030E040E452E40E94F5270E945D
:10283000C128F80161938F0170E060537109072E80
:10284000000C880B990B0E94EF28A50194010E94AF
:102850007F299B01AC01C701B6010E94F4270E94A9
:10286000C128219718F680911D0180931C01809149
:102870001E0180931D0180911F0180931E018EE235
:1028800080931F0180E290E00E94E92EC5E0D0E035
:1028900004E211E00E94ED286B017C01BE010D2EC7
:1028A000000C880B990B0E94EF289B01AC0160E0A3
:1028B00070E080E291E40E94E2294B015C019B01FF
:1028C000AC01C701B6010E94592820E030E040E485
:1028D00052E40E94F5270E94C128F80161938F01FC
:1028E00070E060537109072E000C880B990B0E9451
:1028F000EF28A50194010E947F299B01AC01C7012B
:10290000B6010E94F4270E94C128219718F68091F1
:1029100024018093230180912501809324018091DB
:102920002601809325018EE2809326018CE090E0C1
:102930000E94E92EC4E0D0E000E113E00E94ED28FF
:102940006B017C01BE010D2E000C880B990B0E94BF
:10295000EF289B01AC0160E070E080E291E40E940E
:10296000E2294B015C019B01AC01C701B6010E9449
:10297000592820E030E040E452E40E94F5270E940C
:10298000C128F80161938F0170E060537109072E2F
:10299000000C880B990B0E94EF28A50194010E945E
:1029A0007F299B01AC01C701B6010E94F4270E9458
:1029B000C128219718F68EE28093110380E190E000
:1029C0000E94E92EC4E0D0E005E113E00E94ED286A
:1029D0006B017C01BE010D2E000C880B990B0E942F
:1029E000EF289B01AC0160E070E080E291E40E947E
:1029F000E2294B015C019B01AC01C701B6010E94B9
:102A0000592820E030E040E452E40E94F5270E947B
:102A1000C128F80161938F0170E060537109072E9E
:102A2000000C880B990B0E94EF28A50194010E94CD
:102A30007F299B01AC01C701B6010E94F4270E94C7
:102A4000C128219718F68EE28093160384E190E066
:102A50000E94E92EC4E0D0E00AE113E00E94ED28D4
:102A60006B017C01BE010D2E000C880B990B0E949E
:102A7000EF289B01AC0160E070E080E291E40E94ED
:102A8000E2294B015C019B01AC01C701B6010E9428
:102A9000592820E030E040E452E40E94F5270E94EB
:102AA000C128F80161938F0170E060537109072E0E
:102AB000000C880B990B0E94EF28A50194010E943D
:102AC0007F299B01AC01C701B6010E94F4270E9437
:102AD000C128219718F68EE280931B0380E090E0D6
:102AE0000E94E92EC5E0D0E001E011E00E94ED284F
:102AF0006B017C01BE010D2E000C880B990B0E940E
:102B0000EF289B01AC0160E070E080E291E40E945C
:102B1000E2294B015C019B01AC01C701B6010E9497
:102B2000592820E030E040E452E40E94F5270E945A
:102B3000C128F80161938F0170E060537109072E7D
:102B4000000C880B990B0E94EF28A50194010E94AC
:102B50007F299B01AC01C701B6010E94F4270E94A6
:102B6000C128219718F6809101018093000180917E
:102B700002018093010180910301809302018EE2A2
:102B80008093030184E090E00E94E92EC5E0D0E04C
:102B900008E011E00E94ED286B017C01BE010D2EC2
:102BA000000C880B990B0E94EF289B01AC0160E0A0
:102BB00070E080E291E40E94E2294B015C019B01FC
:102BC000AC01C701B6010E94592820E030E040E482
:102BD00052E40E94F5270E94C128F80161938F01F9
:102BE00070E060537109072E000C880B990B0E944E
:102BF000EF28A50194010E947F299B01AC01C70128
:102C0000B6010E94F4270E94C128219718F68091EE
:102C10000801809307018091090180930801809148
:102C20000A01809309018EE280930A0188E090E016
:102C30000E94E92EC5E0D0E00FE011E00E94ED28EF
:102C40006B017C01BE010D2E000C880B990B0E94BC
:102C5000EF289B01AC0160E070E080E291E40E940B
:102C6000E2294B015C019B01AC01C701B6010E9446
:102C7000592820E030E040E452E40E94F5270E9409
:102C8000C128F80161938F0170E060537109072E2C
:102C9000000C880B990B0E94EF28A50194010E945B
:102CA0007F299B01AC01C701B6010E94F4270E9455
:102CB000C128219718F680910F0180930E01809111
:102CC000100180930F0180911101809310018EE219
:102CD00080931101DF91CF911F910F91FF90EF90A1
:102CE000DF90CF90BF90AF909F908F9008954F92BC
:102CF0005F926F927F928F929F92AF92BF92CF928C
:102D0000DF92EF92FF920F931F93CF93DF9384E3B1
:102D100090E00E94EE2E80937B0386E390E00E9479
:102D2000EE2E80937C0380E390E00E94EE2E809351
:102D3000A20382E390E00E94EE2E8093A3038FE330
:102D400090E00E94EE2E9093A6038093A50381E469
:102D500090E00E94EE2E909384038093830308E317
:102D600010E0C7EAD3E0C8010E94E12E89930F5F0B
:102D70001F4F83E0CE3AD807B1F78AE2882E80E071
:102D8000982E9DE7A92E93E0B92E04E210E02DE6DF
:102D9000C22E22E0D22E34E0E32E33E0F32E45E8BB
:102DA000642E43E0742E56E9452E53E0552EC0E0C4
:102DB000D0E0C4010E94EE2EF501819391935F0152
:102DC000C8010E94EE2EF601819391936F01CE010E
:102DD000885E9F4F0E94E92EF70161937193819362
:102DE00091937F01CE01845F9F4F0E94E92EF301F2
:102DF00061937193819391933F01CE0180509040F4
:102E00000E94E92EF20161937193819391932F01B6
:102E1000F2E08F0E911C0E5F1F4F2496CC30D1052F
:102E200041F6DF91CF911F910F91FF90EF90DF90CE
:102E3000CF90BF90AF909F908F907F906F905F905A
:102E40004F9008958F929F92AF92BF92CF92DF9250
:102E5000EF92FF920F931F93CF93DF9380E00E9436
:102E60006603813039F48FEF9FE80197F1F700C0D6
:102E70000000F4CF81E08093350208EE13E0D4E641
:102E8000CAE03EEAE32E33E0F32E23D96EE771E089
:102E90008FE791E00E94DB086C0190937D018093A5
:102EA0007C01892B91F39FEFC916D90609F443C71A
:102EB0006FE771E0C6010E9464088C2D90E0FC0170
:102EC0003B97EC31F10508F7EA5BFF4F0C94D82BE8
:102ED00080917302880F8056982F990F990F890F50
:102EE000909174029053890F80934503609176020C
:102EF000660F6056962F990F990F690F9091770280
:102F00009053690F6093740340917A034DD8BDCFFD
:102F100025E3A22E21E0B22ED12CF5018081811172
:102F200008C0D092A40360917E02262F462F8D2DDB
:102F3000A1D8F3E0AF0EB11CD39427E0D212EDCFAD
:102F4000C8D8A3CF8091750390E0C097C89F900127
:102F5000C99F300D112480917603C82ED12C80E3B7
:102F6000C81AD108C20ED31EB60184E390E00E94B5
:102F7000052FC0927B038091780390E0C097C89F93
:102F80009001C99F300D112480917903682F70E062
:102F900060537109620F731F60937C0386E390E0B6
:102FA0000E94052F72CF8091F60490E0C097C89FD1
:102FB0009001C99F300D11248091F704C82ED12CA7
:102FC00090E3C91AD108C20ED31EB60180E390E087
:102FD0000E94052FC092A2038091F90490E0C0974F
:102FE000C89F9001C99F300D11248091FA04C82E0A
:102FF000D12CE0E3CE1AD108C20ED31EB60182E373
:1030000090E00E94052FC092A3033FCF87EAC82E0D
:1030100083E0D82E98E3A92E90E0B92EF6016191B5
:103020006F01C5010E94F32EFFEFAF1ABF0AEC1427
:10303000FD04A1F72ACF2091300130E0205331095F
:10304000209FA001219F500D309F500D1124909181
:103050003301892F90E0C097840F951F2091310193
:1030600030E020533109D29F6001D39FD00C11244E
:103070008C0D9D1D4091320150E040535109C49F79
:103080009001C59F300D11246C01C20ED31E28E0A3
:10309000C21627E0D20688F480E40E94D2028CE9AE
:1030A00093E00E9436038FEF9FEFECE28150904057
:1030B000E040E1F700C00000E8CEB60181E490E016
:1030C0000E94052FD0928403C09283031092530272
:1030D000109254021092550210925602D6CE2091B0
:1030E0002B0130E020533109209FA001219F500D7A
:1030F000309F500D112490912E01892F90E0C097A0
:10310000840F951F20912C0130E020533109D29F6C
:103110006001D39FD00C11248C0D9D1D20912D0199
:1031200030E020533109C29FA001C39F500D1124EC
:103130006C01C40ED51EB6018FE390E00E94052FEE
:10314000D092A603C092A503109257021092580283
:103150001092590210925A0298CE80913F0390E04B
:10316000C097C89F9001C99F300D112480914003E2
:10317000C82ED12CF0E3CF1AD108C20ED31EB6014F
:103180008AE290E00E94052FD0927E03C0927D03D8
:103190007CCE8091FB0490E0C097C89F9001C99FAE
:1031A000300D11248091FC04C82ED12C80E3C81A64
:1031B000D108C20ED31EB60184E290E00E94052F12
:1031C000D0926E02C0926D0260CEE6E1F1E080E046
:1031D00090E021912E3209F4982F8F5F8530C9F746
:1031E000913041F5A0911601B0E0D097809118017F
:1031F00090E0C097D89F4001D99F900C1124092CD2
:10320000000CAA08BB0828EE33E00E94F02B860EC3
:10321000971EA81EB91E80911A0190E0C097092E32
:10322000000CAA0BBB0B880E991EAA1EBB1E209178
:1032300019013EC0923009F04CC0A0911601B0E0D7
:10324000D0978091170190E0C097809F4001819FA7
:10325000900C909F900C1124092C000CAA08BB081C
:1032600020E137E20E94F02B860E971EA81EB91EA1
:1032700080911B0190E0C097092E000CAA0BBB0B9C
:10328000880D991DAA1DBB1D2091190130E0205306
:103290003109D29F4001D39F900C1124092C000CBE
:1032A000AA08BB08880E991EAA1EBB1E20911A01EF
:1032B00030E020533109C29FC001C39F900D1124FB
:1032C000092E000CAA0BBB0B880E991EAA1EBB1E52
:1032D00003C0812C912C5401B501A40188E190E038
:1032E0000E94002F8092040390920503A09206038F
:1032F000B0920703CACDE0E1F3E080E090E02191D5
:103300002E3209F4982F8F5F8530C9F7913041F53F
:10331000A0911003B0E0D0978091120390E0C09785
:10332000D89F4001D99F900C1124092C000CAA08A9
:10333000BB0828EE33E00E94F02B860E971EA81ED5
:10334000B91E8091140390E0C097092E000CAA0BBF
:10335000BB0B880E991EAA1EBB1E209113033EC0F4
:10336000923009F04CC0A0911003B0E0D09780914A
:10337000110390E0C097809F4001819F900C909F27
:10338000900C1124092C000CAA08BB0820E137E29C
:103390000E94F02B860E971EA81EB91E8091150361
:1033A00090E0C097092E000CAA0BBB0B880D991D4D
:1033B000AA1DBB1D2091130330E020533109D29F79
:1033C0004001D39F900C1124092C000CAA08BB08C3
:1033D000880E991EAA1EBB1E2091140330E02053B4
:1033E0003109C29FC001C39F900D1124092E000C0A
:1033F000AA0BBB0B880E991EAA1EBB1E03C0812CF4
:10340000912C5401B501A4018CE090E00E94002FA2
:103410008092850390928603A0928703B0928803DE
:1034200034CDE1E0F1E080E090E021912E3209F42A
:10343000982F8F5F8530C9F7913041F5A091010138
:10344000B0E0D0978091030190E0C097D89F4001F1
:10345000D99F900C1124092C000CAA08BB0828EE57
:1034600033E00E94F02B860E971EA81EB91E809195
:10347000050190E0C097092E000CAA0BBB0B880E2B
:10348000991EAA1EBB1E209104013EC0923009F075
:103490004CC0A0910101B0E0D0978091020190E072
:1034A000C097809F4001819F900C909F900C1124A9
:1034B000092C000CAA08BB0820E137E20E94F02B7F
:1034C000860E971EA81EB91E8091060190E0C09737
:1034D000092E000CAA0BBB0B880D991DAA1DBB1D44
:1034E0002091040130E020533109D29F4001D39F45
:1034F000900C1124092C000CAA08BB08880E991EF8
:10350000AA1EBB1E2091050130E020533109C29F45
:10351000C001C39F900D1124092E000CAA0BBB0BF8
:10352000880E991EAA1EBB1E03C0812C912C54012B
:10353000B501A40180E090E00E94002F80929603E4
:1035400090929703A0929803B09299039ECC809199
:10355000410390E0C097C89F9001C99F300D11248E
:1035600080914203C82ED12C90E3C91AD108C20E13
:10357000D31EB6018CE290E00E94052FD09280030A
:10358000C0927F0382CC8091FD0490E0C097C89FD9
:103590009001C99F300D11248091FE04C82ED12CBA
:1035A000E0E3CE1AD108C20ED31EB60186E290E047
:1035B0000E94052FD0927002C0926F0266CCEDE19E
:1035C000F1E080E090E021912E3209F4982F8F5F96
:1035D0008530C9F7913041F5A0911D01B0E0D09739
:1035E00080911F0190E0C097D89F4001D99F900C17
:1035F0001124092C000CAA08BB0828EE33E00E9415
:10360000F02B860E971EA81EB91E8091210190E016
:10361000C097092E000CAA0BBB0B880E991EAA1E80
:10362000BB1E209120013EC0923009F04CC0A091F9
:103630001D01B0E0D09780911E0190E0C097809F5F
:103640004001819F900C909F900C1124092C000C3C
:10365000AA08BB0820E137E20E94F02B860E971ED5
:10366000A81EB91E8091220190E0C097092E000C7F
:10367000AA0BBB0B880D991DAA1DBB1D2091200113
:1036800030E020533109D29F4001D39F900C112488
:10369000092C000CAA08BB08880E991EAA1EBB1E86
:1036A0002091210130E020533109C29FC001C39F06
:1036B000900D1124092E000CAA0BBB0B880E991E2D
:1036C000AA1EBB1E03C0812C912C5401B501A4017C
:1036D0008CE190E00E94002F8092080390920903F1
:1036E000A0920A03B0920B03D0CBE5E1F3E080E0B7
:1036F00090E021912E3209F4982F8F5F8530C9F721
:10370000913041F5A0911503B0E0D0978091170357
:1037100090E0C097D89F4001D99F900C1124092CAC
:10372000000CAA08BB0828EE33E00E94F02B860E9E
:10373000971EA81EB91E8091190390E0C097092E0C
:10374000000CAA0BBB0B880E991EAA1EBB1E209153
:1037500018033EC0923009F04CC0A0911503B0E0B0
:10376000D0978091160390E0C097809F4001819F81
:10377000900C909F900C1124092C000CAA08BB08F7
:1037800020E137E20E94F02B860E971EA81EB91E7C
:1037900080911A0390E0C097092E000CAA0BBB0B76
:1037A000880D991DAA1DBB1D2091180330E02053E0
:1037B0003109D29F4001D39F900C1124092C000C99
:1037C000AA08BB08880E991EAA1EBB1E20911903C9
:1037D00030E020533109C29FC001C39F900D1124D6
:1037E000092E000CAA0BBB0B880E991EAA1EBB1E2D
:1037F00003C0812C912C5401B501A40180E190E01B
:103800000E94002F8092890390928A03A0928B03DA
:10381000B0928C033ACBE8E0F1E080E090E02191B7
:103820002E3209F4982F8F5F8530C9F7913041F51A
:10383000A0910801B0E0D09780910A0190E0C09774
:10384000D89F4001D99F900C1124092C000CAA0884
:10385000BB0828EE33E00E94F02B860E971EA81EB0
:10386000B91E80910C0190E0C097092E000CAA0BA4
:10387000BB0B880E991EAA1EBB1E20910B013EC0D9
:10388000923009F04CC0A0910801B0E0D09780912F
:10389000090190E0C097809F4001819F900C909F0C
:1038A000900C1124092C000CAA08BB0820E137E277
:1038B0000E94F02B860E971EA81EB91E80910D0146
:1038C00090E0C097092E000CAA0BBB0B880D991D28
:1038D000AA1DBB1D20910B0130E020533109D29F5E
:1038E0004001D39F900C1124092C000CAA08BB089E
:1038F000880E991EAA1EBB1E20910C0130E0205399
:103900003109C29FC001C39F900D1124092E000CE4
:10391000AA0BBB0B880E991EAA1EBB1E03C0812CCE
:10392000912C5401B501A40184E090E00E94002F85
:1039300080929A0390929B03A0929C03B0929D0365
:10394000A4CA8091430390E0C097C89F9001C99F8B
:10395000300D112480914403C82ED12CF0E3CF1AEE
:10396000D108C20ED31EB6018EE290E00E94052F50
:10397000D0928203C092810388CA8091FF0490E0B4
:10398000C097C89F9001C99F300D112480910005F8
:10399000C82ED12C80E3C81AD108C20ED31EB6019E
:1039A00088E290E00E94052FD0927202C0927102CC
:1039B0006CCAE4E2F1E080E090E021912E3209F45B
:1039C000982F8F5F8530C9F7913041F5A091240180
:1039D000B0E0D0978091260190E0C097D89F400139
:1039E000D99F900C1124092C000CAA08BB0828EEC2
:1039F00033E00E94F02B860E971EA81EB91E809100
:103A0000280190E0C097092E000CAA0BBB0B880E72
:103A1000991EAA1EBB1E209127013EC0923009F0BC
:103A20004CC0A0912401B0E0D0978091250190E096
:103A3000C097809F4001819F900C909F900C112413
:103A4000092C000CAA08BB0820E137E20E94F02BE9
:103A5000860E971EA81EB91E8091290190E0C0977E
:103A6000092E000CAA0BBB0B880D991DAA1DBB1DAE
:103A70002091270130E020533109D29F4001D39F8C
:103A8000900C1124092C000CAA08BB08880E991E62
:103A9000AA1EBB1E2091280130E020533109C29F8D
:103AA000C001C39F900D1124092E000CAA0BBB0B63
:103AB000880E991EAA1EBB1E03C0812C912C540196
:103AC000B501A40180E290E00E94002F80920C03D7
:103AD00090920D03A0920E03B0920F03D6C9EAE1B3
:103AE000F3E080E090E021912E3209F4982F8F5F6F
:103AF0008530C9F7913041F5A0911A03B0E0D09715
:103B000080911C0390E0C097D89F4001D99F900CF2
:103B10001124092C000CAA08BB0828EE33E00E94EF
:103B2000F02B860E971EA81EB91E80911E0390E0F2
:103B3000C097092E000CAA0BBB0B880E991EAA1E5B
:103B4000BB1E20911D033EC0923009F04CC0A091D5
:103B50001A03B0E0D09780911B0390E0C097809F3C
:103B60004001819F900C909F900C1124092C000C17
:103B7000AA08BB0820E137E20E94F02B860E971EB0
:103B8000A81EB91E80911F0390E0C097092E000C5B
:103B9000AA0BBB0B880D991DAA1DBB1D20911D03EF
:103BA00030E020533109D29F4001D39F900C112463
:103BB000092C000CAA08BB08880E991EAA1EBB1E61
:103BC00020911E0330E020533109C29FC001C39FE2
:103BD000900D1124092E000CAA0BBB0B880E991E08
:103BE000AA1EBB1E03C0812C912C5401B501A40157
:103BF00084E190E00E94002F80928D0390928E03CA
:103C0000A0928F03B092900340C9EFE0F1E080E012
:103C100090E021912E3209F4982F8F5F8530C9F7FB
:103C2000913041F5A0910F01B0E0D0978091110142
:103C300090E0C097D89F4001D99F900C1124092C87
:103C4000000CAA08BB0828EE33E00E94F02B860E79
:103C5000971EA81EB91E8091130190E0C097092EEF
:103C6000000CAA0BBB0B880E991EAA1EBB1E20912E
:103C700012013EC0923009F04CC0A0910F01B0E09B
:103C8000D0978091100190E0C097809F4001819F64
:103C9000900C909F900C1124092C000CAA08BB08D2
:103CA00020E137E20E94F02B860E971EA81EB91E57
:103CB0008091140190E0C097092E000CAA0BBB0B59
:103CC000880D991DAA1DBB1D2091120130E02053C3
:103CD0003109D29F4001D39F900C1124092C000C74
:103CE000AA08BB08880E991EAA1EBB1E20911301AC
:103CF00030E020533109C29FC001C39F900D1124B1
:103D0000092E000CAA0BBB0B880E991EAA1EBB1E07
:103D100003C0812C912C5401B501A40188E090E0EE
:103D20000E94002F80929E0390929F03A092A00376
:103D3000B092A103AAC81092350281E080935B0281
:103D400010925C02DF91CF911F910F91FF90EF9045
:103D5000DF90CF90BF90AF909F908F900895E091AB
:103D6000A403F0E0E955FC4F908180914503903326
:103D700009F056C020917B039091A2034091580115
:103D8000281758F4891748F410924D014E3479F4ED
:103D900034E43093580131E008C031E030934D01F4
:103DA000443429F44EE44093580130935B022813C5
:103DB0001BC040917C03209174033091580124175B
:103DC00048F010924D013E3479F424E420935801D8
:103DD00021E008C021E020934D01343429F43EE471
:103DE0003093580120935B02891322C03091A303C2
:103DF0002091740390915801231738F021E020930B
:103E00004D019434A9F49EE405C010924D019E34F6
:103E100079F494E49093580191E090935B0208C088
:103E2000913331F491E090934D0190915801E9CF95
:103E3000873101F5809174038B33E1F480917A032B
:103E40008B33C1F41092390210923A0210923B0265
:103E500010923C0210923D0210923E0210923F02DC
:103E600010924002109241021092420210924302BC
:103E70001092440208954EE752E0BA01CA010E942E
:103E8000A00F811113C04AE753E064E773E085E4B3
:103E900093E00E94A00F2EE732E0A901B90184EA65
:103EA00093E00E94FA0F1092360205C0809136020C
:103EB0008F5F80933602809136028B3050F00E94E3
:103EC000830F81E080934B0292E59093540180939D
:103ED0005B020895CF92DF92EF92FF920F931F93B0
:103EE000633030F4E62FF0E0E758FE4F408101C028
:103EF00040E0FC01008111812281338180915302D5
:103F000090915402A0915502B091560280179107EA
:103F1000A207B30738F528B381E090E001C0880F0D
:103F20004A95EAF7822B88BBC6988091510181336C
:103F300031F480E38093510181E080935B02E62FAE
:103F4000F0E0DF01A55ABE4F1C9281E080935E0134
:103F5000E25BFE4F90819033C1F591E390838093B3
:103F60005B0233C0081719072A073B0770F5E62FD5
:103F7000F0E0DF01A55ABE4F8C91811126C021E0EF
:103F800020934E02C0904F02D0905002E090510218
:103F9000F090520288EEC81683E0D806E104F104DE
:103FA000A0F038B381E090E001C0880F4A95EAF7AD
:103FB0008095832388BB2C93E25BFE4F8081813305
:103FC00021F480E3808320935B0280915B01813048
:103FD00091F480915C01813071F480915D018130B8
:103FE00051F4C69A90915101903329F491E3909342
:103FF000510180935B0280914E02811120C090910B
:104000005B0180915201913089F490915C01913073
:1040100069F490915D01913049F49498813379F479
:1040200080E38093520190935B0209C0949A80339D
:1040300031F481E38093520181E080935B021F9110
:104040000F91FF90EF90DF90CF9008952F923F92C5
:104050004F925F926F927F928F929F92AF92BF9298
:10406000CF92DF92EF92FF920F931F93CF93DF9344
:10407000CDB7DEB7A0970FB6F894DEBF0FBECDBFA9
:1040800022E332E03A8729879FE5292E92E0392EF4
:1040900044E053E0588F4F8B69E372E0788B6F8771
:1040A00085E893E09C8B8B8BA6E9B3E0BA8BA98B58
:1040B000E5E4F2E0F887EF832DE733E03E872D87D4
:1040C00046E453E05E834D836DE672E07C876B8748
:1040D00089E392E09E8B8D8B10E028EE422E23E048
:1040E000522E612C712C04E680914D01811103C088
:1040F000AD85BE8502C0AB85BC858D919C9128EEB7
:1041000033E0829FF001839FF00D929FF00D112408
:10411000AD81BE818D919C919F01281B390B3E8FF3
:104120002D8FAF89B88D4D915D916D917D91B88F37
:10413000AF8B498F5A8F6B8F7C8FED89FE89C19031
:10414000D190E190F190FE8BED8BAB89BC896D91A4
:104150007D918D919D91BC8BAB8BED8DFE8D4F0133
:10416000FF0FAA08BB08A50194010E946B2BC60E85
:10417000D71EE81EF91EA989BA892D913D914D914E
:104180005D91BA8BA98BEF81F885808191816D8DCE
:104190007E8D71836083AF85B889CD92DD92ED927B
:1041A000FD92B88BAF8760914B0261116DC0F10138
:1041B00060816A3008F06AC0AD8DBE8DA81BB90B56
:1041C0000E94002C6D8F7E8F8F8F98A3298D3A8D42
:1041D0004B8D5C8DC501B4010E946B2BDC01CB01C2
:1041E0008C0D9D1DAE1DBF1D2D8D3E8D4F8D58A17B
:1041F000280F391F4A1F5B1FCA01B901A301920191
:104200000E94BC2B69017A0131EAC31636E8D30655
:1042100031E0E306F10434F4F7FE0BC0C12CD12CDD
:10422000760107C080EAC82E86E8D82EEE24E394F3
:10423000F12CC701B60120EA36E841E050E00E94C7
:10424000BC2BB22E20E137E240E050E00E94BC2BB4
:10425000A22EA30192010E94BC2B4AE0A49E200D35
:1042600011240B9D200D1124A985BA852C93A091B2
:104270008303B0918403A70196010E94F62BA3014A
:1042800092010E949A2B37C0613021F0F1018081A8
:104290008A30C8F120915A0130E0A8EEB3E00E94C4
:1042A000E12B6B017C0120EA36E841E050E00E94FE
:1042B000BC2BB22E20E137E240E050E00E94BC2B44
:1042C000A22EA30192010E94BC2BFAE0AF9E200D0A
:1042D00011240B9D200D1124A985BA852C93A09142
:1042E0008303B0918403A70196010E94F62BA301DA
:1042F00092010E94BC2B29833A834B835C83612FFC
:10430000CE010196E7DDE985FA853196FA87E987DE
:104310001F5FFFEF2F1A3F0A2F8138852E5F3F4F17
:1043200038872F834D855E854E5F5F4F5E874D8753
:104330006D817E816E5F7F4F7E836D838B859C85D3
:1043400002969C878B87133009F0CECEA0960FB6CD
:10435000F894DEBF0FBECDBFDF91CF911F910F91BB
:10436000FF90EF90DF90CF90BF90AF909F908F9095
:104370007F906F905F904F903F902F900895CF93D4
:10438000DF93CCE0D4E0D0936302C0936202A2E654
:10439000B1E08091620290916302FC010196259147
:1043A0002D939093630280936202F1E0A936BF07D8
:1043B00081F762E671E080E090E00E94EF0D2796C1
:1043C00084E0C132D807F9F6DF91CF9108950F93B9
:1043D0001F932091A5033091A603A4E6B0E00E94AC
:1043E000E12B00915702109158022091590230910F
:1043F0005A02601771078207930719F587EF93E058
:104400009093630280936202A2E6B1E0809162021F
:1044100090916302FC01019625912D939093630284
:1044200080936202F1E0A936BF0781F762E671E08E
:1044300080E090E00E94EF0D80915F028F5F80939B
:104440005F022091A5033091A603A4E6B0E00E948C
:10445000E12BDC01CB014496A11DB11D0091570257
:10446000109158022091590230915A0280179107F9
:10447000A207B30721F58EEF93E090936302809338
:104480006202A2E6B1E029E631E0809162029091F9
:104490006302FC01019645914D93909363028093D2
:1044A00062022A173B0789F762E671E080E090E03C
:1044B0000E94EF0D809160028F5F809360022091D7
:1044C000A5033091A603A4E6B0E00E94E12BDC0135
:1044D000CB018896A11DB11D009157021091580281
:1044E0002091590230915A0280179107A207B30711
:1044F00021F585E094E09093630280936202A2E646
:10450000B1E029E631E08091620290916302FC0102
:10451000019645914D9390936302809362022A170E
:104520003B0789F762E671E080E090E00E94EF0DC2
:10453000809161028F5F8093610262E671E080E0AA
:1045400090E00E944D0E813009F0C4C0E0916201FC
:10455000F0E0EE59FE4F1082809167018233E9F559
:1045600010925F024091690140937F0220916A019D
:10457000209380028EE28093810280916B01809370
:1045800082021092830250E040535109E0E1F7E2C9
:104590004E9FB0014F9F700D5E9F700D112430E053
:1045A00020533109E8EEF3E02E9FA0012F9F500D1C
:1045B0003E9F500D1124460F571F90E0C09764E6B0
:1045C000689F9001699F300D1124CA01820F931FCB
:1045D00090934703809346037DC08333E9F510929F
:1045E0006002409169014093910320916A012093F8
:1045F00092038EE28093930380916B0180939403E6
:104600001092950350E040535109E0E1F7E24E9FCC
:10461000B0014F9F700D5E9F700D112430E020534C
:104620003109E8EEF3E02E9FA0012F9F500D3E9F31
:10463000500D1124460F571F90E0C09764E6689F05
:104640009001699F300D1124CA01820F931F90932E
:104650004903809348033EC08433E1F51092610220
:10466000409169014093780220916A012093790278
:104670008EE280937A0280916B0180937B0210928C
:104680007C0250E040535109E0E1F7E24E9FB00157
:104690004F9F700D5E9F700D112430E02053310943
:1046A000E8EEF3E02E9FA0012F9F500D3E9F500D8E
:1046B0001124460F571F90E0C09764E6689F900151
:1046C000699F300D1124CA01820F931F90934B03F1
:1046D00080934A032091A5033091A603A4E6B0E09D
:1046E0000E94E12BDC01CB01805B9F4FAF4FBF4F9E
:1046F00000915702109158022091590230915A02AC
:1047000080179107A207B30709F04BC09FDC1092F6
:104710005702109258021092590210925A02809138
:104720005F028B3088F084E480937F029DE4909355
:10473000800297E490938102809382028CED9FEF38
:104740009093470380934603809160028B3088F0FA
:1047500084E4809391039DE49093920397E4909373
:104760009303809394038CED9FEF90934903809380
:104770004803809161028B3088F084E48093780252
:104780009DE49093790297E490937A0280937B0260
:104790008CED9FEF90934B0380934A0381E08093CD
:1047A0005B021F910F91089580E00E9466038130A3
:1047B000B1F40E94221713C0F89420914C0230915A
:1047C0004D022F5F3F4F30934D0220934C02283B08
:1047D0003B4058F486E69EE00197F1F7000083E045
:1047E0000E946603813041F315C090914B029111F4
:1047F00008C080934B0292E59093540180935B0232
:1048000009C0913039F710924B0281E48093540132
:1048100090935B02789410924D0210924C0282E0C9
:104820000E946603813039F582E00E946603813080
:1048300039F48FEF9FE80197F1F700C00000F4CF43
:1048400080915A01843618F48B5F80935A018091CD
:104850005A0164E64FD720E3280F20935501892F92
:104860006AE048D7805D80935601905D9093570130
:1048700081E080935B0281E00E946603813039F51C
:1048800081E00E946603813039F48FEF9FE8019741
:10489000F1F700C00000F4CF80915A01882319F08D
:1048A000855080935A0180915A0164E623D720E312
:1048B000280F20935501892F6AE01CD7805D8093D3
:1048C0005601905D9093570181E080935B020895BB
:1048D00080915D0290915E029C0121503109283C3B
:1048E000310510F5209161012330F1F480E00E9440
:1048F000D20288E993E00E94360380E40E94D2024B
:1049000084E993E00E94360383E00E94D2028FE79D
:1049100092E00E94220383E40E94D20281E993E0A4
:104920000E94220381E04DC09C01295C3109283C92
:10493000310518F580916101813009F044C080E0B3
:104940000E94D20280E993E00E94360380E40E9434
:10495000D2028CE893E00E94360383E00E94D202E8
:1049600081E993E00E94220383E40E94D20288E757
:1049700092E00E94220382E024C08139914018F124
:10498000809161018230F9F480E00E94D20288E8CF
:1049900093E00E94360380E40E94D20284E893E010
:1049A0000E94360383E00E94D20288E792E00E94D0
:1049B000220383E40E94D2028FE792E00E94220346
:1049C00083E08093610180915C0281110AC089E0DB
:1049D0000E94D20281E893E00E94360381E0809336
:1049E0005C0280915B02813081F48BE00E94D202F4
:1049F0008EE491E00E94220389E40E94D20284E5C1
:104A000091E00E94220310925B02089583B78760B1
:104A100083BF8FE682BF87B7816087BF7894089590
:104A20001F920F920FB60F9211240BB60F920F9395
:104A30001F932F933F934F935F936F937F938F9326
:104A40009F93AF93BF93EF93FF938FE682BF209125
:104A5000830330918403A4E6B0E0B3D600915302FF
:104A600010915402209155023091560206171707F3
:104A70002807390740F01092530210925402109206
:104A800055021092560240914E024130E1F52091BC
:104A90005F0130916001A4E6B0E093D600914F022F
:104AA00010915002209151023091520206171707BF
:104AB00028073907F0F4949880915201813329F442
:104AC00080E38093520140935B0280914F0290916A
:104AD0005002A0915102B09152020196A11DB11D48
:104AE00080934F0290935002A0935102B0935202D0
:104AF0000AC010924F02109250021092510210926E
:104B0000520210924E0280913702909138028536FF
:104B1000910530F40196909338028093370204C0D7
:104B200010923802109237028091570290915802E9
:104B3000A0915902B0915A028D3D21E492072FE0D5
:104B4000A207B10560F40196A11DB11D8093570223
:104B500090935802A0935902B0935A0208C0109241
:104B60005702109258021092590210925A028091E4
:104B7000530290915402A0915502B09156028D3D7E
:104B800021E492072FE0A207B10560F40196A11D70
:104B9000B11D8093530290935402A0935502B09399
:104BA000560208C0109253021092540210925502FD
:104BB0001092560280915D0290915E02883522E04B
:104BC000920730F4019690935E0280935D0204C0D8
:104BD00010925E0210925D02FADBFF91EF91BF919D
:104BE000AF919F918F917F916F915F914F913F9185
:104BF0002F911F910F910F900BBE0F900FBE0F9032
:104C00001F9018952FEF8FEF9CE22150804090402D
:104C1000E1F700C000000E94ED020E94830F40E80F
:104C200055E260E070E080E090E00E942D0D87B3D7
:104C3000806F87BB8C9A62E080E00E94EF03E12CDA
:104C400000E010E027E733E041E060E080E00E9410
:104C5000A30384E0E82E02E711E02FE633E040E012
:104C600061E081E00E94A30366E081E00E94EF031F
:104C7000E12C00E010E025E633E048E060E082E06F
:104C80000E94A3032BE533E04BE060E083E00E9449
:104C9000A30321E533E04EE060E084E00E94A3033B
:104CA00027E333E042E060E085E00E94A3032CE2CA
:104CB00033E046E060E086E00E94A30323E133E0B6
:104CC00047E060E087E00E94A30363E082E00E9487
:104CD000EF0328EF32E043E060E088E00E94A303A6
:104CE00027EE32E044E060E089E00E94A30322ED79
:104CF00032E045E060E08AE00E94A30362E083E0E6
:104D00000E94EF0395E0E92E03E712E02CEC32E07D
:104D100040E061E08BE00E94A30323E0E22E05E384
:104D200011E020EC32E040E067E08CE00E94A30359
:104D300062E084E00E94EF0335E0E32E05E713E034
:104D400020EB32E040E061E08DE00E94A30306EF3B
:104D500014E021EA32E040E061E08EE00E94A3032B
:104D600061E085E00E94EF0347E0E42E07EA13E0EC
:104D700023E932E040E065E08FE00E94A30361E0B8
:104D800086E00E94EF0354E0E52E00E311E026E800
:104D900032E040E061E080E10E94A30361E087E04F
:104DA0000E94EF030BE211E028E732E040E061E00F
:104DB00081E10E94A30362E088E00E94EF03E12CFE
:104DC00000E010E02AE532E049E060E082E10E9484
:104DD000A3032DE332E04AE060E083E10E94A303F5
:104DE00062E089E00E94EF0362E0E62E0FE313E049
:104DF0002CE232E040E061E084E10E94A3030BEF8B
:104E000014E02BE132E040E061E085E10E94A30381
:104E100063E08AE00E94EF0376E0E72E06E111E00E
:104E200028E132E040E061E086E10E94A303E5E092
:104E3000EE2E00E113E025E132E040E061E087E1A1
:104E40000E94A303F6E0EF2E01E011E022E132E040
:104E500040E061E088E10E94A30362E08BE00E94F1
:104E6000EF03E12C00E010E024EF31E04CE060E0E3
:104E700089E10E94A30327ED31E04DE060E08AE183
:104E80000E94A30362E08CE00E94EF03A2E0EA2EFE
:104E900001E413E026EC31E040E061E08BE10E94A8
:104EA000A3030DEF14E025EB31E040E061E08CE17D
:104EB0000E94A30363E08DE00E94EF03B6E0EB2EB7
:104EC0000DE111E022EB31E040E061E08DE10E9474
:104ED000A30315E0E12E05E113E02FEA31E040E005
:104EE00061E08EE10E94A30306E0E02E08E011E0FD
:104EF0002CEA31E040E061E08FE10E94A30362E030
:104F00008EE00E94EF03E12C00E010E02EE831E09B
:104F10004FE060E080E20E94A30321E731E040E13E
:104F200060E081E20E94A30362E08FE00E94EF0351
:104F300082E0E82E03E413E020E631E040E061E0A7
:104F400082E20E94A3030FEF14E02FE431E040E07F
:104F500061E083E20E94A30363E080E10E94EF032B
:104F600096E0E92E04E211E02CE431E040E061E05B
:104F700084E20E94A30325E0E22E0AE113E029E483
:104F800031E040E061E085E20E94A30336E0E32ED9
:104F90000FE011E026E431E040E061E086E20E94AB
:104FA000A303EDD90E94771631DD2091A50330913E
:104FB000A60344E6429FC001439F900D112405972C
:104FC000A0E0B0E08093570290935802A09359025A
:104FD000B0935A02FCD90E9469107ADC0E943B1FF0
:104FE0000E94AF1EE1DBF9CF5058BB27AA270ED095
:104FF00048C139D130F03ED120F031F49F3F11F457
:105000001EF42EC10EF4E095E7FB24C1E92F4AD12E
:1050100080F3BA17620773078407950718F071F4D5
:105020009EF562C10EF4E0950B2EBA2FA02D0B0158
:10503000B90190010C01CA01A0011124FF27591BDD
:1050400099F0593F50F4503E68F11A16F040A22FE3
:10505000232F342F4427585FF3CF46953795279554
:10506000A795F0405395C9F77EF41F16BA0B620B53
:10507000730B840BBAF09150A1F0FF0FBB1F661F9A
:10508000771F881FC2F70EC0BA0F621F731F841FDD
:1050900048F4879577956795B795F7959E3F08F003
:1050A000B3CF9395880F08F09927EE0F97958795C2
:1050B00008950CD0E6C0DED040F0D5D030F021F419
:1050C0005F3F19F0C7C0511110C1CAC0EBD098F3AF
:1050D0009923C9F35523B1F3951B550BBB27AA2779
:1050E00062177307840738F09F5F5F4F220F331FEB
:1050F000441FAA1FA9F333D00E2E3AF0E0E830D0B7
:1051000091505040E695001CCAF729D0FE2F27D0B9
:10511000660F771F881FBB1F261737074807AB0787
:10512000B0E809F0BB0B802DBF01FF2793585F4FFC
:105130002AF09E3F510568F08DC0D7C05F3FECF369
:10514000983EDCF3869577956795B795F7959F5FC1
:10515000C9F7880F911D9695879597F90895E1E015
:10516000660F771F881FBB1F621773078407BA0774
:1051700020F0621B730B840BBA0BEE1F88F7E095CF
:10518000089598D088F09F5790F0B92F9927B7517C
:10519000A0F0D1F0660F771F881F991F1AF0BA95FB
:1051A000C9F712C0B13081F09FD0B1E008959CC022
:1051B000672F782F8827B85F39F0B93FCCF38695F1
:1051C00077956795B395D9F73EF49095809570954E
:1051D00061957F4F8F4F9F4F0895E89409C097FBCB
:1051E0003EF490958095709561957F4F8F4F9F4FBE
:1051F0009923A9F0F92F96E9BB279395F695879502
:1052000077956795B795F111F8CFFAF4BB0F11F4C4
:1052100060FF1BC06F5F7F4F8F4F9F4F16C088236B
:1052200011F096E911C0772321F09EE8872F762FA1
:1052300005C0662371F096E8862F70E060E02AF0E2
:105240009A95660F771F881FDAF7880F96958795CE
:1052500097F9089597F99F6780E870E060E00895F6
:105260009FEF80EC089500240A941616170618067E
:105270000906089500240A9412161306140605065A
:105280000895092E0394000C11F4882352F0BB0FEB
:1052900040F4BF2B11F460FF04C06F5F7F4F8F4F4E
:1052A0009F4F089557FD9058440F551F59F05F3F89
:1052B00071F04795880F97FB991F61F09F3F79F038
:1052C00087950895121613061406551FF2CF4695BA
:1052D000F1DF08C0161617061806991FF1CF86953C
:1052E0007105610508940895E894BB276627772720
:1052F000CB0197F90895E3D008F48FEF08950BD010
:10530000C0CFB1DF28F0B6DF18F0952309F0A2CFA7
:10531000A7CF1124EACFC6DFA0F3959FD1F3950F55
:1053200050E0551F629FF001729FBB27F00DB11D29
:10533000639FAA27F00DB11DAA1F649F6627B00DB9
:10534000A11D661F829F2227B00DA11D621F739FA2
:10535000B00DA11D621F839FA00D611D221F749FB0
:105360003327A00D611D231F849F600D211D822FF7
:10537000762F6A2F11249F5750408AF0E1F088233E
:105380004AF0EE0FFF1FBB1F661F771F881F91504B
:105390005040A9F79E3F510570F05CCFA6CF5F3F0C
:1053A000ECF3983EDCF3869577956795B795F7957E
:1053B000E7959F5FC1F7FE2B880F911D9695879506
:1053C00097F90895FA01EE0FFF1F30962105310578
:1053D00099F16115710561F48038BFE39B0749F1CC
:1053E00068949038810561F08038BFEF9B0741F0E9
:1053F000992342F5FF3FE1053105210511F1E894BC
:105400000894E795D901AA2329F4AB2FBE2FF85FA2
:10541000D0F310C0FF5F70F4A695E0F7F73950F0B5
:1054200019F0FF3A38F49F779F930CD00F9007FC48
:10543000905808953EF014CF60E070E080E89FE35C
:1054400008954FE79F775F934F933F932F93C2D079
:105450002F913F914F915F9152DF05C019F40EF0EB
:10546000F9CE42CFFDCE26DFC8F39638C0F707F855
:105470000F92E8942BE33AEA48EB5FE74EDF0F9296
:105480000F920F924DB75EB70F92E4D0E4ECF0E0CC
:105490003AD04F915F91EF91FF91E595EE1FFF1F7D
:1054A00049F0FE57E0684427EE0F441FFA95E1F7F4
:1054B0004195550B56D00F9007FE4AC00895990F9D
:1054C0000008550FAA0BE0E8FEEF16161706E807CE
:1054D000F907C0F012161306E407F50798F0621BEF
:1054E000730B840B950B39F40A2661F0232B242BC4
:1054F000252B21F408950A2609F4A140A6958FEFE3
:10550000811D811D0895DF93CF931F930F93FF9209
:10551000EF92DF927B018C01689405C0DA2EEF01D7
:10552000FADEFE01E894A5912591359145915591BA
:10553000AEF3EF016BDDFE019701A801DA9479F774
:10554000DF90EF90FF900F911F91CF91DF91089521
:105550009B01AC0160E070E080E89FE3AACD7ACEC9
:10556000ACC0A8DEE8F39923D9F3940F511DBBF327
:105570009150504094F059F0882332F0660F771F15
:10558000881F91505040C1F79E3F510544F7880F46
:10559000911D9695879597F908955F3FACF0983ED9
:1055A0009CF0BB27869577956795B79508F4B16011
:1055B0009395C1F7BB0F58F711F460FFE8CF6F5F09
:1055C0007F4F8F4F9F4FE3CF90CE0EF076C048CEE7
:1055D000689440CE6FDEC8F39923D1F3C6F3DF930E
:1055E000CF931F930F93FF92C92FDD2788232AF0B3
:1055F0002197660F771F881FDAF720E030E040E838
:105600005FEB9FE3883920F0803E30F021968F7762
:10561000ECDCECEEF0E003C0E8DCE9E1F1E073DFA4
:105620008B01BE01EC01FB2E6F5771097595771F39
:10563000880B990BD4DD28E132E741E35FE36BDEB1
:10564000AF2D9801AE01FF900F911F91CF91DF9187
:10565000DDDC17CEFA01DC01AA0FBB1F9B01AC01F8
:10566000BF5728F422273327442750781FC0B7514B
:1056700088F4AB2F0024469537952795011CA395F8
:10568000D2F3002069F0220F331F441FB395DAF3E1
:105690000DD0AACC61307105A0E88A07B94630F474
:1056A0009B01AC016627772788279078309621F0F8
:1056B000208331834283538308959F3F31F091507B
:1056C00020F4879577956795B795880F911D9695E6
:1056D000879597F90895DB018F939F9387D0BF91AA
:1056E000AF91A29F800D911DA39F900DB29F900D31
:1056F00011240895991B79E004C0991F961708F0AA
:10570000961B881F7A95C9F780950895AA1BBB1B25
:1057100051E107C0AA1FBB1FA617B70710F0A61BB1
:10572000B70B881F991F5A95A9F780959095BC01D2
:10573000CD010895A1E21A2EAA1BBB1BFD010DC0CD
:10574000AA1FBB1FEE1FFF1FA217B307E407F50731
:1057500020F0A21BB30BE40BF50B661F771F881F0D
:10576000991F1A9469F760957095809590959B01A3
:10577000AC01BD01CF010895052E97FB16F40094EE
:105780000FD057FD05D0D6DF07FC02D046F408C085
:1057900050954095309521953F4F4F4F5F4F08955D
:1057A00090958095709561957F4F8F4F9F4F08958D
:1057B000EE0FFF1F0024001C0BBE0790F691E02D9A
:1057C0000994A29FB001B39FC001A39F700D811DDA
:1057D0001124911DB29F700D811D1124911D0895FA
:1057E000F0DFB7FF0895821B930B0895EADFA59FB2
:1057F000900DB49F900DA49F800D911D11240895CC
:10580000B7FFF4CFF3DF821B930B08950F931F9321
:10581000CF93DF93CDB7DEB72E970FB6F894DEBFE8
:105820000FBECDBF0D891E8986E08C831A83098344
:105830008FEF9FE79E838D83AE01475E5F4F6F8939
:10584000788DCE01019610D0EF81F885E00FF11F21
:1058500010822E960FB6F894DEBF0FBECDBFDF913B
:10586000CF911F910F9108952F923F924F925F9287
:105870006F927F928F929F92AF92BF92CF92DF9260
:10588000EF92FF920F931F93CF93DF93CDB7DEB7C5
:105890002B970FB6F894DEBF0FBECDBF6C017B0116
:1058A0008A01FC0117821682838181FFBFC1CE016C
:1058B00001963C01F6019381F70193FD859193FFD9
:1058C00081917F01882309F4ADC1853239F493FDBC
:1058D000859193FF81917F01853221F4B60190E09B
:1058E000D6D1E8CF912C212C312CFFE1F315D8F043
:1058F0008B3279F038F4803279F08332A1F4232DA1
:1059000020611DC08D3261F0803369F4232D216048
:1059100016C0832D8260382EE32DE4603E2E2AC00F
:10592000F32DF8601DC037FC2DC020ED280F2A3064
:1059300040F08E32B9F436FC75C1232D2064322E2E
:1059400019C036FE06C08AE0989E200D1124922EC2
:1059500011C0EAE02E9E200D1124222EF32DF062BC
:105960003F2E08C08C3621F4832D8068382E02C06B
:10597000883641F4F70193FD859193FF81917F0172
:105980008111B3CF982F9F7D9554933028F40C5FED
:105990001F4F9FE399830DC0833631F0833771F039
:1059A000833509F055C020C0F801808189830E5FDE
:1059B0001F4F88248394912C530112C02801F2E0D8
:1059C0004F0E511CF801A080B18036FE03C0692D36
:1059D00070E002C06FEF7FEFC5014ED14C01820134
:1059E000F32DFF773F2E15C0280122E0420E511CF7
:1059F000F801A080B18036FE03C0692D70E002C0BE
:105A00006FEF7FEFC5012DD14C01F32DF0683F2ED4
:105A1000820133FC19C0822D90E088169906A0F40B
:105A2000B60180E290E033D12A94F5CFF50137FC3E
:105A3000859137FE81915F01B60190E028D1211058
:105A40002A9421E0821A91088114910479F7E1C027
:105A5000843611F0893639F5F80137FE07C06081C8
:105A60007181828193810C5F1F4F08C060817181B9
:105A7000072E000C880B990B0E5F1F4FF32DFF763E
:105A80003F2E97FF09C090958095709561957F4F47
:105A90008F4F9F4FF0683F2E2AE030E0A30133D1B3
:105AA000882E861844C0853731F4232D2F7EB22EE0
:105AB0002AE030E025C0932D997FB92E8F36C1F0B2
:105AC00018F4883579F0AEC0803719F0883721F0A6
:105AD000A9C0E92FE061BE2EB4FE0DC0FB2DF4601D
